{
  "contracts/Monsterra.sol": {
    "Monsterra": {
      "abi": [
        {
          "anonymous": false,
          "inputs": [
            {
              "indexed": false,
              "internalType": "address",
              "name": "previousAdmin",
              "type": "address"
            },
            {
              "indexed": false,
              "internalType": "address",
              "name": "newAdmin",
              "type": "address"
            }
          ],
          "name": "AdminChanged",
          "type": "event"
        },
        {
          "anonymous": false,
          "inputs": [
            {
              "indexed": false,
              "internalType": "string[]",
              "name": "internalTxs",
              "type": "string[]"
            },
            {
              "indexed": false,
              "internalType": "bool",
              "name": "status",
              "type": "bool"
            }
          ],
          "name": "ApprovedTxsByAmountEvent",
          "type": "event"
        },
        {
          "anonymous": false,
          "inputs": [
            {
              "indexed": true,
              "internalType": "address",
              "name": "beacon",
              "type": "address"
            }
          ],
          "name": "BeaconUpgraded",
          "type": "event"
        },
        {
          "anonymous": false,
          "inputs": [
            {
              "indexed": false,
              "internalType": "uint8",
              "name": "version",
              "type": "uint8"
            }
          ],
          "name": "Initialized",
          "type": "event"
        },
        {
          "anonymous": false,
          "inputs": [
            {
              "indexed": true,
              "internalType": "address",
              "name": "previousOwner",
              "type": "address"
            },
            {
              "indexed": true,
              "internalType": "address",
              "name": "newOwner",
              "type": "address"
            }
          ],
          "name": "OwnershipTransferred",
          "type": "event"
        },
        {
          "anonymous": false,
          "inputs": [
            {
              "indexed": false,
              "internalType": "address",
              "name": "setter",
              "type": "address"
            },
            {
              "indexed": false,
              "internalType": "bool",
              "name": "status",
              "type": "bool"
            }
          ],
          "name": "PauseEvent",
          "type": "event"
        },
        {
          "anonymous": false,
          "inputs": [
            {
              "indexed": false,
              "internalType": "string",
              "name": "eventType",
              "type": "string"
            },
            {
              "indexed": false,
              "internalType": "address",
              "name": "user",
              "type": "address"
            },
            {
              "indexed": false,
              "internalType": "bool",
              "name": "status",
              "type": "bool"
            }
          ],
          "name": "RoleEvent",
          "type": "event"
        },
        {
          "anonymous": false,
          "inputs": [
            {
              "indexed": false,
              "internalType": "address",
              "name": "setter",
              "type": "address"
            },
            {
              "indexed": false,
              "internalType": "address",
              "name": "token",
              "type": "address"
            },
            {
              "indexed": false,
              "internalType": "uint256",
              "name": "amount",
              "type": "uint256"
            }
          ],
          "name": "SetMaxSwapEvent",
          "type": "event"
        },
        {
          "anonymous": false,
          "inputs": [
            {
              "indexed": false,
              "internalType": "string",
              "name": "transactionId",
              "type": "string"
            },
            {
              "indexed": true,
              "internalType": "address",
              "name": "curToken",
              "type": "address"
            },
            {
              "indexed": false,
              "internalType": "string",
              "name": "desToken",
              "type": "string"
            },
            {
              "indexed": true,
              "internalType": "address",
              "name": "curUser",
              "type": "address"
            },
            {
              "indexed": false,
              "internalType": "string",
              "name": "desUser",
              "type": "string"
            },
            {
              "indexed": false,
              "internalType": "uint256",
              "name": "amount",
              "type": "uint256"
            },
            {
              "indexed": false,
              "internalType": "string",
              "name": "side",
              "type": "string"
            }
          ],
          "name": "SwapEvent",
          "type": "event"
        },
        {
          "anonymous": false,
          "inputs": [
            {
              "indexed": true,
              "internalType": "address",
              "name": "implementation",
              "type": "address"
            }
          ],
          "name": "Upgraded",
          "type": "event"
        },
        {
          "inputs": [
            {
              "internalType": "string",
              "name": "",
              "type": "string"
            }
          ],
          "name": "acceptedDesTokens",
          "outputs": [
            {
              "internalType": "bool",
              "name": "",
              "type": "bool"
            }
          ],
          "stateMutability": "view",
          "type": "function"
        },
        {
          "inputs": [
            {
              "internalType": "address",
              "name": "",
              "type": "address"
            }
          ],
          "name": "acceptedTokens",
          "outputs": [
            {
              "internalType": "bool",
              "name": "",
              "type": "bool"
            }
          ],
          "stateMutability": "view",
          "type": "function"
        },
        {
          "inputs": [
            {
              "internalType": "address",
              "name": "",
              "type": "address"
            }
          ],
          "name": "adminLists",
          "outputs": [
            {
              "internalType": "bool",
              "name": "",
              "type": "bool"
            }
          ],
          "stateMutability": "view",
          "type": "function"
        },
        {
          "inputs": [
            {
              "internalType": "string",
              "name": "transactionId_",
              "type": "string"
            },
            {
              "internalType": "address",
              "name": "curToken_",
              "type": "address"
            },
            {
              "internalType": "string",
              "name": "desToken_",
              "type": "string"
            },
            {
              "internalType": "string",
              "name": "desUser_",
              "type": "string"
            },
            {
              "internalType": "uint256",
              "name": "amount_",
              "type": "uint256"
            }
          ],
          "name": "burn",
          "outputs": [],
          "stateMutability": "nonpayable",
          "type": "function"
        },
        {
          "inputs": [
            {
              "internalType": "string",
              "name": "transactionId_",
              "type": "string"
            },
            {
              "internalType": "address",
              "name": "curToken_",
              "type": "address"
            },
            {
              "internalType": "string",
              "name": "desToken_",
              "type": "string"
            },
            {
              "internalType": "address",
              "name": "curUser_",
              "type": "address"
            },
            {
              "internalType": "string",
              "name": "desUser_",
              "type": "string"
            },
            {
              "internalType": "uint256",
              "name": "amount_",
              "type": "uint256"
            }
          ],
          "name": "getMessageHash",
          "outputs": [
            {
              "internalType": "bytes32",
              "name": "",
              "type": "bytes32"
            }
          ],
          "stateMutability": "pure",
          "type": "function"
        },
        {
          "inputs": [],
          "name": "getSigner",
          "outputs": [
            {
              "internalType": "address",
              "name": "",
              "type": "address"
            }
          ],
          "stateMutability": "view",
          "type": "function"
        },
        {
          "inputs": [],
          "name": "initialize",
          "outputs": [],
          "stateMutability": "nonpayable",
          "type": "function"
        },
        {
          "inputs": [
            {
              "internalType": "string",
              "name": "transactionId_",
              "type": "string"
            }
          ],
          "name": "isTransactionExisted",
          "outputs": [
            {
              "internalType": "bool",
              "name": "",
              "type": "bool"
            }
          ],
          "stateMutability": "view",
          "type": "function"
        },
        {
          "inputs": [
            {
              "internalType": "address",
              "name": "",
              "type": "address"
            }
          ],
          "name": "maxSwapAmounts",
          "outputs": [
            {
              "internalType": "uint256",
              "name": "",
              "type": "uint256"
            }
          ],
          "stateMutability": "view",
          "type": "function"
        },
        {
          "inputs": [
            {
              "internalType": "string",
              "name": "transactionId_",
              "type": "string"
            },
            {
              "internalType": "address",
              "name": "curToken_",
              "type": "address"
            },
            {
              "internalType": "string",
              "name": "desToken_",
              "type": "string"
            },
            {
              "internalType": "address",
              "name": "curUser_",
              "type": "address"
            },
            {
              "internalType": "string",
              "name": "desUser_",
              "type": "string"
            },
            {
              "internalType": "uint256",
              "name": "amount_",
              "type": "uint256"
            },
            {
              "internalType": "bytes",
              "name": "signature_",
              "type": "bytes"
            }
          ],
          "name": "mint",
          "outputs": [],
          "stateMutability": "nonpayable",
          "type": "function"
        },
        {
          "inputs": [],
          "name": "owner",
          "outputs": [
            {
              "internalType": "address",
              "name": "",
              "type": "address"
            }
          ],
          "stateMutability": "view",
          "type": "function"
        },
        {
          "inputs": [],
          "name": "paused",
          "outputs": [
            {
              "internalType": "bool",
              "name": "",
              "type": "bool"
            }
          ],
          "stateMutability": "view",
          "type": "function"
        },
        {
          "inputs": [],
          "name": "proxiableUUID",
          "outputs": [
            {
              "internalType": "bytes32",
              "name": "",
              "type": "bytes32"
            }
          ],
          "stateMutability": "view",
          "type": "function"
        },
        {
          "inputs": [
            {
              "internalType": "bytes32",
              "name": "hash",
              "type": "bytes32"
            },
            {
              "internalType": "bytes",
              "name": "signature",
              "type": "bytes"
            }
          ],
          "name": "recoverSigner",
          "outputs": [
            {
              "internalType": "address",
              "name": "",
              "type": "address"
            }
          ],
          "stateMutability": "pure",
          "type": "function"
        },
        {
          "inputs": [],
          "name": "renounceOwnership",
          "outputs": [],
          "stateMutability": "nonpayable",
          "type": "function"
        },
        {
          "inputs": [
            {
              "internalType": "string",
              "name": "token_",
              "type": "string"
            },
            {
              "internalType": "bool",
              "name": "status_",
              "type": "bool"
            }
          ],
          "name": "setAcceptedDesToken",
          "outputs": [],
          "stateMutability": "nonpayable",
          "type": "function"
        },
        {
          "inputs": [
            {
              "internalType": "address",
              "name": "tokenAddress_",
              "type": "address"
            },
            {
              "internalType": "bool",
              "name": "status_",
              "type": "bool"
            }
          ],
          "name": "setAcceptedToken",
          "outputs": [],
          "stateMutability": "nonpayable",
          "type": "function"
        },
        {
          "inputs": [
            {
              "internalType": "address",
              "name": "user_",
              "type": "address"
            },
            {
              "internalType": "bool",
              "name": "status_",
              "type": "bool"
            }
          ],
          "name": "setAdmin",
          "outputs": [],
          "stateMutability": "nonpayable",
          "type": "function"
        },
        {
          "inputs": [
            {
              "internalType": "address",
              "name": "approver_",
              "type": "address"
            },
            {
              "internalType": "bool",
              "name": "status_",
              "type": "bool"
            }
          ],
          "name": "setAmountApprover",
          "outputs": [],
          "stateMutability": "nonpayable",
          "type": "function"
        },
        {
          "inputs": [
            {
              "internalType": "string[]",
              "name": "internalTxs_",
              "type": "string[]"
            },
            {
              "internalType": "bool",
              "name": "status_",
              "type": "bool"
            }
          ],
          "name": "setApprovedTxByAmount",
          "outputs": [],
          "stateMutability": "nonpayable",
          "type": "function"
        },
        {
          "inputs": [
            {
              "internalType": "address",
              "name": "token_",
              "type": "address"
            },
            {
              "internalType": "uint256",
              "name": "maxAmount_",
              "type": "uint256"
            }
          ],
          "name": "setMaxSwapAmount",
          "outputs": [],
          "stateMutability": "nonpayable",
          "type": "function"
        },
        {
          "inputs": [
            {
              "internalType": "bool",
              "name": "status_",
              "type": "bool"
            }
          ],
          "name": "setPauseStatus",
          "outputs": [],
          "stateMutability": "nonpayable",
          "type": "function"
        },
        {
          "inputs": [
            {
              "internalType": "address",
              "name": "user_",
              "type": "address"
            }
          ],
          "name": "setSigner",
          "outputs": [],
          "stateMutability": "nonpayable",
          "type": "function"
        },
        {
          "inputs": [
            {
              "internalType": "string",
              "name": "",
              "type": "string"
            }
          ],
          "name": "swapDatas",
          "outputs": [
            {
              "internalType": "address",
              "name": "curToken",
              "type": "address"
            },
            {
              "internalType": "string",
              "name": "desToken",
              "type": "string"
            },
            {
              "internalType": "address",
              "name": "curUser",
              "type": "address"
            },
            {
              "internalType": "string",
              "name": "desUser",
              "type": "string"
            },
            {
              "internalType": "address",
              "name": "signer",
              "type": "address"
            },
            {
              "internalType": "uint256",
              "name": "amount",
              "type": "uint256"
            },
            {
              "internalType": "string",
              "name": "side",
              "type": "string"
            }
          ],
          "stateMutability": "view",
          "type": "function"
        },
        {
          "inputs": [
            {
              "internalType": "address",
              "name": "newOwner",
              "type": "address"
            }
          ],
          "name": "transferOwnership",
          "outputs": [],
          "stateMutability": "nonpayable",
          "type": "function"
        },
        {
          "inputs": [
            {
              "internalType": "address",
              "name": "newImplementation",
              "type": "address"
            }
          ],
          "name": "upgradeTo",
          "outputs": [],
          "stateMutability": "nonpayable",
          "type": "function"
        },
        {
          "inputs": [
            {
              "internalType": "address",
              "name": "newImplementation",
              "type": "address"
            },
            {
              "internalType": "bytes",
              "name": "data",
              "type": "bytes"
            }
          ],
          "name": "upgradeToAndCall",
          "outputs": [],
          "stateMutability": "payable",
          "type": "function"
        },
        {
          "inputs": [
            {
              "internalType": "string",
              "name": "transactionId_",
              "type": "string"
            },
            {
              "internalType": "address",
              "name": "curToken_",
              "type": "address"
            },
            {
              "internalType": "string",
              "name": "desToken_",
              "type": "string"
            },
            {
              "internalType": "address",
              "name": "curUser_",
              "type": "address"
            },
            {
              "internalType": "string",
              "name": "desUser_",
              "type": "string"
            },
            {
              "internalType": "uint256",
              "name": "amount_",
              "type": "uint256"
            },
            {
              "internalType": "bytes",
              "name": "signature",
              "type": "bytes"
            }
          ],
          "name": "verify",
          "outputs": [
            {
              "internalType": "address",
              "name": "",
              "type": "address"
            }
          ],
          "stateMutability": "pure",
          "type": "function"
        }
      ],
      "evm": {
        "bytecode": {
          "linkReferences": {},
          "object": "60a06040523073ffffffffffffffffffffffffffffffffffffffff1660809073ffffffffffffffffffffffffffffffffffffffff1660601b81525034801561004657600080fd5b5060805160601c614ddb6100816000396000818161090d0152818161099c015281816111850152818161121401526115140152614ddb6000f3fe6080604052600436106101b75760003560e01c80637ac3c02f116100ec578063c38bb5371161008a578063cd6ec99e11610064578063cd6ec99e14610611578063d898be5b1461063a578063da26742b14610663578063f2fde38b146106a0576101b7565b8063c38bb53714610596578063c9212a9d146105bf578063c997dbca146105e8576101b7565b806382dc4a05116100c657806382dc4a05146104c85780638da5cb5b1461050557806397aba7f914610530578063a589d3191461056d576101b7565b80637ac3c02f146104495780637b8e3474146104745780638129fc1c146104b1576101b7565b80634ebd25a51161015957806352d1902d1161013357806352d1902d146103b35780635c975abb146103de5780636c19e78314610409578063715018a614610432576101b7565b80634ebd25a5146103175780634f1ef286146103545780635163e2cc14610370576101b7565b80632c78e90b116101955780632c78e90b1461025f5780633659cfe61461029c5780633cd33234146102c55780634b0bddd2146102ee576101b7565b8063089dd512146101bc57806309cf80e0146101f95780632c102c4814610222575b600080fd5b3480156101c857600080fd5b506101e360048036038101906101de91906132ba565b6106c9565b6040516101f09190613e0f565b60405180910390f35b34801561020557600080fd5b50610220600480360381019061021b91906131c0565b6106ff565b005b34801561022e57600080fd5b50610249600480360381019061024491906132ba565b6108a4565b6040516102569190613e0f565b60405180910390f35b34801561026b57600080fd5b50610286600480360381019061028191906133cc565b6108d2565b6040516102939190613c8e565b60405180910390f35b3480156102a857600080fd5b506102c360048036038101906102be91906130cb565b61090b565b005b3480156102d157600080fd5b506102ec60048036038101906102e791906133cc565b610aba565b005b3480156102fa57600080fd5b50610315600480360381019061031091906130f4565b611059565b005b34801561032357600080fd5b5061033e600480360381019061033991906130cb565b61116a565b60405161034b91906142ea565b60405180910390f35b61036e60048036038101906103699190613130565b611183565b005b34801561037c57600080fd5b50610397600480360381019061039291906132ba565b6112c0565b6040516103aa9796959493929190613d32565b60405180910390f35b3480156103bf57600080fd5b506103c8611510565b6040516103d59190613e2a565b60405180910390f35b3480156103ea57600080fd5b506103f36115c9565b6040516104009190613e0f565b60405180910390f35b34801561041557600080fd5b50610430600480360381019061042b91906130cb565b6115dd565b005b34801561043e57600080fd5b506104476116d7565b005b34801561045557600080fd5b5061045e61175f565b60405161046b9190613c8e565b60405180910390f35b34801561048057600080fd5b5061049b600480360381019061049691906132fb565b611789565b6040516104a89190613e2a565b60405180910390f35b3480156104bd57600080fd5b506104c66117c8565b005b3480156104d457600080fd5b506104ef60048036038101906104ea91906130cb565b6118f5565b6040516104fc9190613e0f565b60405180910390f35b34801561051157600080fd5b5061051a611915565b6040516105279190613c8e565b60405180910390f35b34801561053c57600080fd5b5061055760048036038101906105529190613266565b61193f565b6040516105649190613c8e565b60405180910390f35b34801561057957600080fd5b50610594600480360381019061058f9190613184565b611a12565b005b3480156105a257600080fd5b506105bd60048036038101906105b89190613214565b611b29565b005b3480156105cb57600080fd5b506105e660048036038101906105e191906134ca565b611bfc565b005b3480156105f457600080fd5b5061060f600480360381019061060a91906130f4565b612099565b005b34801561061d57600080fd5b5061063860048036038101906106339190613589565b612187565b005b34801561064657600080fd5b50610661600480360381019061065c91906130f4565b612254565b005b34801561066f57600080fd5b5061068a600480360381019061068591906130cb565b612366565b6040516106979190613e0f565b60405180910390f35b3480156106ac57600080fd5b506106c760048036038101906106c291906130cb565b612386565b005b60fe818051602081018201805184825260208301602085012081835280955050505050506000915054906101000a900460ff1681565b6001151561010060003373ffffffffffffffffffffffffffffffffffffffff1673ffffffffffffffffffffffffffffffffffffffff16815260200190815260200160002060009054906101000a900460ff16151514806107915750610762611915565b73ffffffffffffffffffffffffffffffffffffffff163373ffffffffffffffffffffffffffffffffffffffff16145b6107d0576040517f08c379a00000000000000000000000000000000000000000000000000000000081526004016107c7906142aa565b60405180910390fd5b60005b82518110156108665781610101848381518110610819577f4e487b7100000000000000000000000000000000000000000000000000000000600052603260045260246000fd5b602002602001015160405161082e9190613bed565b908152602001604051809103902060006101000a81548160ff021916908315150217905550808061085e9061458c565b9150506107d3565b507f06f0b9169c47e9be13d325cf7a841fc05eb16aba19b8ab19026f598a2172b4558282604051610898929190613ddf565b60405180910390a15050565b60008060fb836040516108b79190613bed565b90815260200160405180910390206005015414159050919050565b6000806108e3898989898989611789565b905060006108f08261247e565b90506108fc818561193f565b92505050979650505050505050565b7f000000000000000000000000000000000000000000000000000000000000000073ffffffffffffffffffffffffffffffffffffffff163073ffffffffffffffffffffffffffffffffffffffff16141561099a576040517f08c379a000000000000000000000000000000000000000000000000000000000815260040161099190613f56565b60405180910390fd5b7f000000000000000000000000000000000000000000000000000000000000000073ffffffffffffffffffffffffffffffffffffffff166109d96124ae565b73ffffffffffffffffffffffffffffffffffffffff1614610a2f576040517f08c379a0000000000000000000000000000000000000000000000000000000008152600401610a2690613f76565b60405180910390fd5b610a3881612505565b610ab781600067ffffffffffffffff811115610a7d577f4e487b7100000000000000000000000000000000000000000000000000000000600052604160045260246000fd5b6040519080825280601f01601f191660200182016040528015610aaf5781602001600182028036833780820191505090505b506000612584565b50565b6000151561010360009054906101000a900460ff16151514610b11576040517f08c379a0000000000000000000000000000000000000000000000000000000008152600401610b089061412e565b60405180910390fd5b600260c9541415610b57576040517f08c379a0000000000000000000000000000000000000000000000000000000008152600401610b4e9061426a565b60405180910390fd5b600260c98190555060011515610b6c886108a4565b15151415610baf576040517f08c379a0000000000000000000000000000000000000000000000000000000008152600401610ba6906141ee565b60405180910390fd5b610bba868684612701565b610bc587878461284f565b610c04576040517f08c379a0000000000000000000000000000000000000000000000000000000008152600401610bfb9061414e565b60405180910390fd5b610c13878787878787876108d2565b73ffffffffffffffffffffffffffffffffffffffff1660fc60009054906101000a900473ffffffffffffffffffffffffffffffffffffffff1673ffffffffffffffffffffffffffffffffffffffff1614610ca2576040517f08c379a0000000000000000000000000000000000000000000000000000000008152600401610c999061418e565b60405180910390fd5b3373ffffffffffffffffffffffffffffffffffffffff168473ffffffffffffffffffffffffffffffffffffffff1614610d10576040517f08c379a0000000000000000000000000000000000000000000000000000000008152600401610d07906142ca565b60405180910390fd5b8573ffffffffffffffffffffffffffffffffffffffff166340c10f1933846040518363ffffffff1660e01b8152600401610d4b929190613db6565b600060405180830381600087803b158015610d6557600080fd5b505af1158015610d79573d6000803e3d6000fd5b5050505060006040518060e001604052808873ffffffffffffffffffffffffffffffffffffffff1681526020018781526020018673ffffffffffffffffffffffffffffffffffffffff16815260200185815260200160fc60009054906101000a900473ffffffffffffffffffffffffffffffffffffffff1673ffffffffffffffffffffffffffffffffffffffff1681526020018481526020016040518060400160405280600481526020017f6d696e740000000000000000000000000000000000000000000000000000000081525081525090508060fb89604051610e5e9190613bed565b908152602001604051809103902060008201518160000160006101000a81548173ffffffffffffffffffffffffffffffffffffffff021916908373ffffffffffffffffffffffffffffffffffffffff1602179055506020820151816001019080519060200190610ecf929190612e53565b5060408201518160020160006101000a81548173ffffffffffffffffffffffffffffffffffffffff021916908373ffffffffffffffffffffffffffffffffffffffff1602179055506060820151816003019080519060200190610f33929190612e53565b5060808201518160040160006101000a81548173ffffffffffffffffffffffffffffffffffffffff021916908373ffffffffffffffffffffffffffffffffffffffff16021790555060a0820151816005015560c0820151816006019080519060200190610fa1929190612e53565b509050503373ffffffffffffffffffffffffffffffffffffffff168773ffffffffffffffffffffffffffffffffffffffff167fad71aa4c2c93767a2df6f50aa44c85590c8822f1b02c7ab9c534cf4daad7ab748a8988886040518060400160405280600481526020017f6d696e740000000000000000000000000000000000000000000000000000000081525060405161103f959493929190613ec7565b60405180910390a350600160c98190555050505050505050565b611061612925565b73ffffffffffffffffffffffffffffffffffffffff1661107f611915565b73ffffffffffffffffffffffffffffffffffffffff16146110d5576040517f08c379a00000000000000000000000000000000000000000000000000000000081526004016110cc9061410e565b60405180910390fd5b8060ff60008473ffffffffffffffffffffffffffffffffffffffff1673ffffffffffffffffffffffffffffffffffffffff16815260200190815260200160002060006101000a81548160ff0219169083151502179055507f2cfb57781d9c154e822ff0da753be77d4aa8c03bec8436de4c4261b3604c137382600160405161115e92919061422e565b60405180910390a15050565b6101026020528060005260406000206000915090505481565b7f000000000000000000000000000000000000000000000000000000000000000073ffffffffffffffffffffffffffffffffffffffff163073ffffffffffffffffffffffffffffffffffffffff161415611212576040517f08c379a000000000000000000000000000000000000000000000000000000000815260040161120990613f56565b60405180910390fd5b7f000000000000000000000000000000000000000000000000000000000000000073ffffffffffffffffffffffffffffffffffffffff166112516124ae565b73ffffffffffffffffffffffffffffffffffffffff16146112a7576040517f08c379a000000000000000000000000000000000000000000000000000000000815260040161129e90613f76565b60405180910390fd5b6112b082612505565b6112bc82826001612584565b5050565b60fb818051602081018201805184825260208301602085012081835280955050505050506000915090508060000160009054906101000a900473ffffffffffffffffffffffffffffffffffffffff169080600101805461131f90614529565b80601f016020809104026020016040519081016040528092919081815260200182805461134b90614529565b80156113985780601f1061136d57610100808354040283529160200191611398565b820191906000526020600020905b81548152906001019060200180831161137b57829003601f168201915b5050505050908060020160009054906101000a900473ffffffffffffffffffffffffffffffffffffffff16908060030180546113d390614529565b80601f01602080910402602001604051908101604052809291908181526020018280546113ff90614529565b801561144c5780601f106114215761010080835404028352916020019161144c565b820191906000526020600020905b81548152906001019060200180831161142f57829003601f168201915b5050505050908060040160009054906101000a900473ffffffffffffffffffffffffffffffffffffffff169080600501549080600601805461148d90614529565b80601f01602080910402602001604051908101604052809291908181526020018280546114b990614529565b80156115065780601f106114db57610100808354040283529160200191611506565b820191906000526020600020905b8154815290600101906020018083116114e957829003601f168201915b5050505050905087565b60007f000000000000000000000000000000000000000000000000000000000000000073ffffffffffffffffffffffffffffffffffffffff163073ffffffffffffffffffffffffffffffffffffffff16146115a0576040517f08c379a000000000000000000000000000000000000000000000000000000000815260040161159790613ff2565b60405180910390fd5b7f360894a13ba1a3210667c828492db98dca3e2076cc3735a920a3ca505d382bbc60001b905090565b61010360009054906101000a900460ff1681565b6115e5612925565b73ffffffffffffffffffffffffffffffffffffffff16611603611915565b73ffffffffffffffffffffffffffffffffffffffff1614611659576040517f08c379a00000000000000000000000000000000000000000000000000000000081526004016116509061410e565b60405180910390fd5b8060fc60006101000a81548173ffffffffffffffffffffffffffffffffffffffff021916908373ffffffffffffffffffffffffffffffffffffffff1602179055507f2cfb57781d9c154e822ff0da753be77d4aa8c03bec8436de4c4261b3604c13738160016040516116cc929190613fb6565b60405180910390a150565b6116df612925565b73ffffffffffffffffffffffffffffffffffffffff166116fd611915565b73ffffffffffffffffffffffffffffffffffffffff1614611753576040517f08c379a000000000000000000000000000000000000000000000000000000000815260040161174a9061410e565b60405180910390fd5b61175d600061292d565b565b600060fc60009054906101000a900473ffffffffffffffffffffffffffffffffffffffff16905090565b60008686868686866040516020016117a696959493929190613c04565b6040516020818303038152906040528051906020012090509695505050505050565b60006117d460016129f3565b905080156117f8576001600060016101000a81548160ff0219169083151502179055505b611800612ae3565b600160ff60003373ffffffffffffffffffffffffffffffffffffffff1673ffffffffffffffffffffffffffffffffffffffff16815260200190815260200160002060006101000a81548160ff0219169083151502179055503360fc60006101000a81548173ffffffffffffffffffffffffffffffffffffffff021916908373ffffffffffffffffffffffffffffffffffffffff16021790555080156118f25760008060016101000a81548160ff0219169083151502179055507f7f26b83ff96e1f2b6a682f133852f6798a09c465da95921460cefb384740249860016040516118e99190613e8a565b60405180910390a15b50565b60fd6020528060005260406000206000915054906101000a900460ff1681565b6000609760009054906101000a900473ffffffffffffffffffffffffffffffffffffffff16905090565b600080600080604185511461195a5760009350505050611a0c565b6020850151925060408501519150606085015160001a9050601b8160ff16101561198e57601b8161198b919061443f565b90505b601b8160ff16141580156119a65750601c8160ff1614155b156119b75760009350505050611a0c565b600186828585604051600081526020016040526040516119da9493929190613e45565b6020604051602081039080840390855afa1580156119fc573d6000803e3d6000fd5b5050506020604051035193505050505b92915050565b6001151560ff60003373ffffffffffffffffffffffffffffffffffffffff1673ffffffffffffffffffffffffffffffffffffffff16815260200190815260200160002060009054906101000a900460ff16151514611aa5576040517f08c379a0000000000000000000000000000000000000000000000000000000008152600401611a9c906141ce565b60405180910390fd5b8061010260008473ffffffffffffffffffffffffffffffffffffffff1673ffffffffffffffffffffffffffffffffffffffff168152602001908152602001600020819055507f6e21da456d7a73e8a2179f893cc544b7b11d2cfe97400954cacbdc7a96f267e5338383604051611b1d93929190613cd2565b60405180910390a15050565b611b31612925565b73ffffffffffffffffffffffffffffffffffffffff16611b4f611915565b73ffffffffffffffffffffffffffffffffffffffff1614611ba5576040517f08c379a0000000000000000000000000000000000000000000000000000000008152600401611b9c9061410e565b60405180910390fd5b8061010360006101000a81548160ff0219169083151502179055507f36e736b0a0c9977c2788e71eb3fb657ed2eea0db97df25e206a8add580fab4973382604051611bf1929190613d09565b60405180910390a150565b6000151561010360009054906101000a900460ff16151514611c53576040517f08c379a0000000000000000000000000000000000000000000000000000000008152600401611c4a9061412e565b60405180910390fd5b60011515611c60866108a4565b15151415611ca3576040517f08c379a0000000000000000000000000000000000000000000000000000000008152600401611c9a906140ae565b60405180910390fd5b611cae848483612701565b808473ffffffffffffffffffffffffffffffffffffffff1663dd62ed3e33306040518363ffffffff1660e01b8152600401611cea929190613ca9565b60206040518083038186803b158015611d0257600080fd5b505afa158015611d16573d6000803e3d6000fd5b505050506040513d601f19601f82011682018060405250810190611d3a91906135dd565b1015611d7b576040517f08c379a0000000000000000000000000000000000000000000000000000000008152600401611d7290614012565b60405180910390fd5b8373ffffffffffffffffffffffffffffffffffffffff166379cc679033836040518363ffffffff1660e01b8152600401611db6929190613db6565b600060405180830381600087803b158015611dd057600080fd5b505af1158015611de4573d6000803e3d6000fd5b5050505060006040518060e001604052808673ffffffffffffffffffffffffffffffffffffffff1681526020018581526020013373ffffffffffffffffffffffffffffffffffffffff168152602001848152602001600073ffffffffffffffffffffffffffffffffffffffff1681526020018381526020016040518060400160405280600481526020017f6275726e0000000000000000000000000000000000000000000000000000000081525081525090508060fb87604051611ea89190613bed565b908152602001604051809103902060008201518160000160006101000a81548173ffffffffffffffffffffffffffffffffffffffff021916908373ffffffffffffffffffffffffffffffffffffffff1602179055506020820151816001019080519060200190611f19929190612e53565b5060408201518160020160006101000a81548173ffffffffffffffffffffffffffffffffffffffff021916908373ffffffffffffffffffffffffffffffffffffffff1602179055506060820151816003019080519060200190611f7d929190612e53565b5060808201518160040160006101000a81548173ffffffffffffffffffffffffffffffffffffffff021916908373ffffffffffffffffffffffffffffffffffffffff16021790555060a0820151816005015560c0820151816006019080519060200190611feb929190612e53565b509050503373ffffffffffffffffffffffffffffffffffffffff168573ffffffffffffffffffffffffffffffffffffffff167fad71aa4c2c93767a2df6f50aa44c85590c8822f1b02c7ab9c534cf4daad7ab74888787876040518060400160405280600481526020017f6275726e00000000000000000000000000000000000000000000000000000000815250604051612089959493929190613ec7565b60405180910390a3505050505050565b6001151560ff60003373ffffffffffffffffffffffffffffffffffffffff1673ffffffffffffffffffffffffffffffffffffffff16815260200190815260200160002060009054906101000a900460ff1615151461212c576040517f08c379a0000000000000000000000000000000000000000000000000000000008152600401612123906141ce565b60405180910390fd5b8060fd60008473ffffffffffffffffffffffffffffffffffffffff1673ffffffffffffffffffffffffffffffffffffffff16815260200190815260200160002060006101000a81548160ff0219169083151502179055505050565b6001151560ff60003373ffffffffffffffffffffffffffffffffffffffff1673ffffffffffffffffffffffffffffffffffffffff16815260200190815260200160002060009054906101000a900460ff1615151461221a576040517f08c379a0000000000000000000000000000000000000000000000000000000008152600401612211906141ce565b60405180910390fd5b8060fe8360405161222b9190613bed565b908152602001604051809103902060006101000a81548160ff0219169083151502179055505050565b61225c612925565b73ffffffffffffffffffffffffffffffffffffffff1661227a611915565b73ffffffffffffffffffffffffffffffffffffffff16146122d0576040517f08c379a00000000000000000000000000000000000000000000000000000000081526004016122c79061410e565b60405180910390fd5b8061010060008473ffffffffffffffffffffffffffffffffffffffff1673ffffffffffffffffffffffffffffffffffffffff16815260200190815260200160002060006101000a81548160ff0219169083151502179055507f2cfb57781d9c154e822ff0da753be77d4aa8c03bec8436de4c4261b3604c137382600160405161235a929190614072565b60405180910390a15050565b60ff6020528060005260406000206000915054906101000a900460ff1681565b61238e612925565b73ffffffffffffffffffffffffffffffffffffffff166123ac611915565b73ffffffffffffffffffffffffffffffffffffffff1614612402576040517f08c379a00000000000000000000000000000000000000000000000000000000081526004016123f99061410e565b60405180910390fd5b600073ffffffffffffffffffffffffffffffffffffffff168173ffffffffffffffffffffffffffffffffffffffff161415612472576040517f08c379a000000000000000000000000000000000000000000000000000000000815260040161246990613f36565b60405180910390fd5b61247b8161292d565b50565b6000816040516020016124919190613c68565b604051602081830303815290604052805190602001209050919050565b60006124dc7f360894a13ba1a3210667c828492db98dca3e2076cc3735a920a3ca505d382bbc60001b612b3c565b60000160009054906101000a900473ffffffffffffffffffffffffffffffffffffffff16905090565b61250d612925565b73ffffffffffffffffffffffffffffffffffffffff1661252b611915565b73ffffffffffffffffffffffffffffffffffffffff1614612581576040517f08c379a00000000000000000000000000000000000000000000000000000000081526004016125789061410e565b60405180910390fd5b50565b6125b07f4910fdfa16fed3260ed0e7147f7cc6da11a60208b5b9406d12a635614ffd914360001b612b46565b60000160009054906101000a900460ff16156125d4576125cf83612b50565b6126fc565b8273ffffffffffffffffffffffffffffffffffffffff166352d1902d6040518163ffffffff1660e01b815260040160206040518083038186803b15801561261a57600080fd5b505afa92505050801561264b57506040513d601f19601f82011682018060405250810190612648919061323d565b60015b61268a576040517f08c379a0000000000000000000000000000000000000000000000000000000008152600401612681906140ce565b60405180910390fd5b7f360894a13ba1a3210667c828492db98dca3e2076cc3735a920a3ca505d382bbc60001b81146126ef576040517f08c379a00000000000000000000000000000000000000000000000000000000081526004016126e690614032565b60405180910390fd5b506126fb838383612c09565b5b505050565b6000811015612745576040517f08c379a000000000000000000000000000000000000000000000000000000000815260040161273c9061428a565b60405180910390fd5b6001151560fd60008573ffffffffffffffffffffffffffffffffffffffff1673ffffffffffffffffffffffffffffffffffffffff16815260200190815260200160002060009054906101000a900460ff161515146127d8576040517f08c379a00000000000000000000000000000000000000000000000000000000081526004016127cf90613f96565b60405180910390fd5b6001151560fe836040516127ec9190613bed565b908152602001604051809103902060009054906101000a900460ff1615151461284a576040517f08c379a00000000000000000000000000000000000000000000000000000000081526004016128419061416e565b60405180910390fd5b505050565b600061010260008473ffffffffffffffffffffffffffffffffffffffff1673ffffffffffffffffffffffffffffffffffffffff16815260200190815260200160002054821115806128e05750600061010260008573ffffffffffffffffffffffffffffffffffffffff1673ffffffffffffffffffffffffffffffffffffffff16815260200190815260200160002054145b156128ee576001905061291e565b610101846040516128ff9190613bed565b908152602001604051809103902060009054906101000a900460ff1690505b9392505050565b600033905090565b6000609760009054906101000a900473ffffffffffffffffffffffffffffffffffffffff16905081609760006101000a81548173ffffffffffffffffffffffffffffffffffffffff021916908373ffffffffffffffffffffffffffffffffffffffff1602179055508173ffffffffffffffffffffffffffffffffffffffff168173ffffffffffffffffffffffffffffffffffffffff167f8be0079c531659141344cd1fd0a4f28419497f9722a3daafe3b4186f6b6457e060405160405180910390a35050565b60008060019054906101000a900460ff1615612a6a5760018260ff16148015612a225750612a2030612c35565b155b612a61576040517f08c379a0000000000000000000000000000000000000000000000000000000008152600401612a5890614052565b60405180910390fd5b60009050612ade565b8160ff1660008054906101000a900460ff1660ff1610612abf576040517f08c379a0000000000000000000000000000000000000000000000000000000008152600401612ab690614052565b60405180910390fd5b816000806101000a81548160ff021916908360ff160217905550600190505b919050565b600060019054906101000a900460ff16612b32576040517f08c379a0000000000000000000000000000000000000000000000000000000008152600401612b299061420e565b60405180910390fd5b612b3a612c58565b565b6000819050919050565b6000819050919050565b612b5981612c35565b612b98576040517f08c379a0000000000000000000000000000000000000000000000000000000008152600401612b8f906140ee565b60405180910390fd5b80612bc57f360894a13ba1a3210667c828492db98dca3e2076cc3735a920a3ca505d382bbc60001b612b3c565b60000160006101000a81548173ffffffffffffffffffffffffffffffffffffffff021916908373ffffffffffffffffffffffffffffffffffffffff16021790555050565b612c1283612cb9565b600082511180612c1f5750805b15612c3057612c2e8383612d08565b505b505050565b6000808273ffffffffffffffffffffffffffffffffffffffff163b119050919050565b600060019054906101000a900460ff16612ca7576040517f08c379a0000000000000000000000000000000000000000000000000000000008152600401612c9e9061420e565b60405180910390fd5b612cb7612cb2612925565b61292d565b565b612cc281612b50565b8073ffffffffffffffffffffffffffffffffffffffff167fbc7cd75a20ee27fd9adebab32041f755214dbc6bffa90cc0225b39da2e5c2d3b60405160405180910390a250565b6060612d1383612c35565b612d52576040517f08c379a0000000000000000000000000000000000000000000000000000000008152600401612d49906141ae565b60405180910390fd5b6000808473ffffffffffffffffffffffffffffffffffffffff1684604051612d7a9190613bd6565b600060405180830381855af49150503d8060008114612db5576040519150601f19603f3d011682016040523d82523d6000602084013e612dba565b606091505b5091509150612de28282604051806060016040528060278152602001614d7f60279139612dec565b9250505092915050565b60608315612dfc57829050612e4c565b600083511115612e0f5782518084602001fd5b816040517f08c379a0000000000000000000000000000000000000000000000000000000008152600401612e439190613ea5565b60405180910390fd5b9392505050565b828054612e5f90614529565b90600052602060002090601f016020900481019282612e815760008555612ec8565b82601f10612e9a57805160ff1916838001178555612ec8565b82800160010185558215612ec8579182015b82811115612ec7578251825591602001919060010190612eac565b5b509050612ed59190612ed9565b5090565b5b80821115612ef2576000816000905550600101612eda565b5090565b6000612f09612f048461432a565b614305565b9050808382526020820190508260005b85811015612f495781358501612f2f8882613077565b845260208401935060208301925050600181019050612f19565b5050509392505050565b6000612f66612f6184614356565b614305565b905082815260208101848484011115612f7e57600080fd5b612f898482856144e7565b509392505050565b6000612fa4612f9f84614387565b614305565b905082815260208101848484011115612fbc57600080fd5b612fc78482856144e7565b509392505050565b600081359050612fde81614d22565b92915050565b600082601f830112612ff557600080fd5b8135613005848260208601612ef6565b91505092915050565b60008135905061301d81614d39565b92915050565b60008135905061303281614d50565b92915050565b60008151905061304781614d50565b92915050565b600082601f83011261305e57600080fd5b813561306e848260208601612f53565b91505092915050565b600082601f83011261308857600080fd5b8135613098848260208601612f91565b91505092915050565b6000813590506130b081614d67565b92915050565b6000815190506130c581614d67565b92915050565b6000602082840312156130dd57600080fd5b60006130eb84828501612fcf565b91505092915050565b6000806040838503121561310757600080fd5b600061311585828601612fcf565b92505060206131268582860161300e565b9150509250929050565b6000806040838503121561314357600080fd5b600061315185828601612fcf565b925050602083013567ffffffffffffffff81111561316e57600080fd5b61317a8582860161304d565b9150509250929050565b6000806040838503121561319757600080fd5b60006131a585828601612fcf565b92505060206131b6858286016130a1565b9150509250929050565b600080604083850312156131d357600080fd5b600083013567ffffffffffffffff8111156131ed57600080fd5b6131f985828601612fe4565b925050602061320a8582860161300e565b9150509250929050565b60006020828403121561322657600080fd5b60006132348482850161300e565b91505092915050565b60006020828403121561324f57600080fd5b600061325d84828501613038565b91505092915050565b6000806040838503121561327957600080fd5b600061328785828601613023565b925050602083013567ffffffffffffffff8111156132a457600080fd5b6132b08582860161304d565b9150509250929050565b6000602082840312156132cc57600080fd5b600082013567ffffffffffffffff8111156132e657600080fd5b6132f284828501613077565b91505092915050565b60008060008060008060c0878903121561331457600080fd5b600087013567ffffffffffffffff81111561332e57600080fd5b61333a89828a01613077565b965050602061334b89828a01612fcf565b955050604087013567ffffffffffffffff81111561336857600080fd5b61337489828a01613077565b945050606061338589828a01612fcf565b935050608087013567ffffffffffffffff8111156133a257600080fd5b6133ae89828a01613077565b92505060a06133bf89828a016130a1565b9150509295509295509295565b600080600080600080600060e0888a0312156133e757600080fd5b600088013567ffffffffffffffff81111561340157600080fd5b61340d8a828b01613077565b975050602061341e8a828b01612fcf565b965050604088013567ffffffffffffffff81111561343b57600080fd5b6134478a828b01613077565b95505060606134588a828b01612fcf565b945050608088013567ffffffffffffffff81111561347557600080fd5b6134818a828b01613077565b93505060a06134928a828b016130a1565b92505060c088013567ffffffffffffffff8111156134af57600080fd5b6134bb8a828b0161304d565b91505092959891949750929550565b600080600080600060a086880312156134e257600080fd5b600086013567ffffffffffffffff8111156134fc57600080fd5b61350888828901613077565b955050602061351988828901612fcf565b945050604086013567ffffffffffffffff81111561353657600080fd5b61354288828901613077565b935050606086013567ffffffffffffffff81111561355f57600080fd5b61356b88828901613077565b925050608061357c888289016130a1565b9150509295509295909350565b6000806040838503121561359c57600080fd5b600083013567ffffffffffffffff8111156135b657600080fd5b6135c285828601613077565b92505060206135d38582860161300e565b9150509250929050565b6000602082840312156135ef57600080fd5b60006135fd848285016130b6565b91505092915050565b6000613612838361372a565b905092915050565b61362381614476565b82525050565b61363a61363582614476565b6145d5565b82525050565b600061364b826143c8565b61365581856143f6565b935083602082028501613667856143b8565b8060005b858110156136a357848403895281516136848582613606565b945061368f836143e9565b925060208a0199505060018101905061366b565b50829750879550505050505092915050565b6136be81614488565b82525050565b6136cd81614494565b82525050565b6136e46136df82614494565b6145e7565b82525050565b60006136f5826143d3565b6136ff8185614407565b935061370f8185602086016144f6565b80840191505092915050565b613724816144d5565b82525050565b6000613735826143de565b61373f8185614412565b935061374f8185602086016144f6565b6137588161469a565b840191505092915050565b600061376e826143de565b6137788185614423565b93506137888185602086016144f6565b6137918161469a565b840191505092915050565b60006137a7826143de565b6137b18185614434565b93506137c18185602086016144f6565b80840191505092915050565b60006137da601c83614434565b91506137e5826146b8565b601c82019050919050565b60006137fd602683614423565b9150613808826146e1565b604082019050919050565b6000613820602c83614423565b915061382b82614730565b604082019050919050565b6000613843602c83614423565b915061384e8261477f565b604082019050919050565b6000613866601f83614423565b9150613871826147ce565b602082019050919050565b6000613889600a83614423565b9150613894826147f7565b602082019050919050565b60006138ac603883614423565b91506138b782614820565b604082019050919050565b60006138cf602783614423565b91506138da8261486f565b604082019050919050565b60006138f2602983614423565b91506138fd826148be565b604082019050919050565b6000613915602e83614423565b91506139208261490d565b604082019050919050565b6000613938601383614423565b91506139438261495c565b602082019050919050565b600061395b601983614423565b915061396682614985565b602082019050919050565b600061397e602e83614423565b9150613989826149ae565b604082019050919050565b60006139a1602d83614423565b91506139ac826149fd565b604082019050919050565b60006139c4602083614423565b91506139cf82614a4c565b602082019050919050565b60006139e7600e83614423565b91506139f282614a75565b602082019050919050565b6000613a0a603a83614423565b9150613a1582614a9e565b604082019050919050565b6000613a2d601f83614423565b9150613a3882614aed565b602082019050919050565b6000613a50601983614423565b9150613a5b82614b16565b602082019050919050565b6000613a73602683614423565b9150613a7e82614b3f565b604082019050919050565b6000613a96601e83614423565b9150613aa182614b8e565b602082019050919050565b6000613ab9601b83614423565b9150613ac482614bb7565b602082019050919050565b6000613adc602b83614423565b9150613ae782614be0565b604082019050919050565b6000613aff600983614423565b9150613b0a82614c2f565b602082019050919050565b6000613b22601f83614423565b9150613b2d82614c58565b602082019050919050565b6000613b45601683614423565b9150613b5082614c81565b602082019050919050565b6000613b68602783614423565b9150613b7382614caa565b604082019050919050565b6000613b8b601c83614423565b9150613b9682614cf9565b602082019050919050565b613baa816144be565b82525050565b613bc1613bbc826144be565b614603565b82525050565b613bd0816144c8565b82525050565b6000613be282846136ea565b915081905092915050565b6000613bf9828461379c565b915081905092915050565b6000613c10828961379c565b9150613c1c8288613629565b601482019150613c2c828761379c565b9150613c388286613629565b601482019150613c48828561379c565b9150613c548284613bb0565b602082019150819050979650505050505050565b6000613c73826137cd565b9150613c7f82846136d3565b60208201915081905092915050565b6000602082019050613ca3600083018461361a565b92915050565b6000604082019050613cbe600083018561361a565b613ccb602083018461361a565b9392505050565b6000606082019050613ce7600083018661361a565b613cf4602083018561361a565b613d016040830184613ba1565b949350505050565b6000604082019050613d1e600083018561361a565b613d2b60208301846136b5565b9392505050565b600060e082019050613d47600083018a61361a565b8181036020830152613d598189613763565b9050613d68604083018861361a565b8181036060830152613d7a8187613763565b9050613d89608083018661361a565b613d9660a0830185613ba1565b81810360c0830152613da88184613763565b905098975050505050505050565b6000604082019050613dcb600083018561361a565b613dd86020830184613ba1565b9392505050565b60006040820190508181036000830152613df98185613640565b9050613e0860208301846136b5565b9392505050565b6000602082019050613e2460008301846136b5565b92915050565b6000602082019050613e3f60008301846136c4565b92915050565b6000608082019050613e5a60008301876136c4565b613e676020830186613bc7565b613e7460408301856136c4565b613e8160608301846136c4565b95945050505050565b6000602082019050613e9f600083018461371b565b92915050565b60006020820190508181036000830152613ebf8184613763565b905092915050565b600060a0820190508181036000830152613ee18188613763565b90508181036020830152613ef58187613763565b90508181036040830152613f098186613763565b9050613f186060830185613ba1565b8181036080830152613f2a8184613763565b90509695505050505050565b60006020820190508181036000830152613f4f816137f0565b9050919050565b60006020820190508181036000830152613f6f81613813565b9050919050565b60006020820190508181036000830152613f8f81613836565b9050919050565b60006020820190508181036000830152613faf81613859565b9050919050565b60006060820190508181036000830152613fcf8161387c565b9050613fde602083018561361a565b613feb60408301846136b5565b9392505050565b6000602082019050818103600083015261400b8161389f565b9050919050565b6000602082019050818103600083015261402b816138c2565b9050919050565b6000602082019050818103600083015261404b816138e5565b9050919050565b6000602082019050818103600083015261406b81613908565b9050919050565b6000606082019050818103600083015261408b8161392b565b905061409a602083018561361a565b6140a760408301846136b5565b9392505050565b600060208201905081810360008301526140c78161394e565b9050919050565b600060208201905081810360008301526140e781613971565b9050919050565b6000602082019050818103600083015261410781613994565b9050919050565b60006020820190508181036000830152614127816139b7565b9050919050565b60006020820190508181036000830152614147816139da565b9050919050565b60006020820190508181036000830152614167816139fd565b9050919050565b6000602082019050818103600083015261418781613a20565b9050919050565b600060208201905081810360008301526141a781613a43565b9050919050565b600060208201905081810360008301526141c781613a66565b9050919050565b600060208201905081810360008301526141e781613a89565b9050919050565b6000602082019050818103600083015261420781613aac565b9050919050565b6000602082019050818103600083015261422781613acf565b9050919050565b6000606082019050818103600083015261424781613af2565b9050614256602083018561361a565b61426360408301846136b5565b9392505050565b6000602082019050818103600083015261428381613b15565b9050919050565b600060208201905081810360008301526142a381613b38565b9050919050565b600060208201905081810360008301526142c381613b5b565b9050919050565b600060208201905081810360008301526142e381613b7e565b9050919050565b60006020820190506142ff6000830184613ba1565b92915050565b600061430f614320565b905061431b828261455b565b919050565b6000604051905090565b600067ffffffffffffffff8211156143455761434461466b565b5b602082029050602081019050919050565b600067ffffffffffffffff8211156143715761437061466b565b5b61437a8261469a565b9050602081019050919050565b600067ffffffffffffffff8211156143a2576143a161466b565b5b6143ab8261469a565b9050602081019050919050565b6000819050602082019050919050565b600081519050919050565b600081519050919050565b600081519050919050565b6000602082019050919050565b600082825260208201905092915050565b600081905092915050565b600082825260208201905092915050565b600082825260208201905092915050565b600081905092915050565b600061444a826144c8565b9150614455836144c8565b92508260ff0382111561446b5761446a61460d565b5b828201905092915050565b60006144818261449e565b9050919050565b60008115159050919050565b6000819050919050565b600073ffffffffffffffffffffffffffffffffffffffff82169050919050565b6000819050919050565b600060ff82169050919050565b60006144e0826144c8565b9050919050565b82818337600083830152505050565b60005b838110156145145780820151818401526020810190506144f9565b83811115614523576000848401525b50505050565b6000600282049050600182168061454157607f821691505b602082108114156145555761455461463c565b5b50919050565b6145648261469a565b810181811067ffffffffffffffff821117156145835761458261466b565b5b80604052505050565b6000614597826144be565b91507fffffffffffffffffffffffffffffffffffffffffffffffffffffffffffffffff8214156145ca576145c961460d565b5b600182019050919050565b60006145e0826145f1565b9050919050565b6000819050919050565b60006145fc826146ab565b9050919050565b6000819050919050565b7f4e487b7100000000000000000000000000000000000000000000000000000000600052601160045260246000fd5b7f4e487b7100000000000000000000000000000000000000000000000000000000600052602260045260246000fd5b7f4e487b7100000000000000000000000000000000000000000000000000000000600052604160045260246000fd5b6000601f19601f8301169050919050565b60008160601b9050919050565b7f19457468657265756d205369676e6564204d6573736167653a0a333200000000600082015250565b7f4f776e61626c653a206e6577206f776e657220697320746865207a65726f206160008201527f6464726573730000000000000000000000000000000000000000000000000000602082015250565b7f46756e6374696f6e206d7573742062652063616c6c6564207468726f7567682060008201527f64656c656761746563616c6c0000000000000000000000000000000000000000602082015250565b7f46756e6374696f6e206d7573742062652063616c6c6564207468726f7567682060008201527f6163746976652070726f78790000000000000000000000000000000000000000602082015250565b7f4c6f636b3a20496e76616c696420637572206e6574776f726b20746f6b656e00600082015250565b7f7365745f7369676e657200000000000000000000000000000000000000000000600082015250565b7f555550535570677261646561626c653a206d757374206e6f742062652063616c60008201527f6c6564207468726f7567682064656c656761746563616c6c0000000000000000602082015250565b7f4d696e743a205472616e7366657220616d6f756e74206578636565647320616c60008201527f6c6f77616e636500000000000000000000000000000000000000000000000000602082015250565b7f45524331393637557067726164653a20756e737570706f727465642070726f7860008201527f6961626c65555549440000000000000000000000000000000000000000000000602082015250565b7f496e697469616c697a61626c653a20636f6e747261637420697320616c72656160008201527f647920696e697469616c697a6564000000000000000000000000000000000000602082015250565b7f7365745f616d6f756e745f617070726f76657200000000000000000000000000600082015250565b7f4275726e3a205472616e73616374696f6e206578697374656400000000000000600082015250565b7f45524331393637557067726164653a206e657720696d706c656d656e7461746960008201527f6f6e206973206e6f742055555053000000000000000000000000000000000000602082015250565b7f455243313936373a206e657720696d706c656d656e746174696f6e206973206e60008201527f6f74206120636f6e747261637400000000000000000000000000000000000000602082015250565b7f4f776e61626c653a2063616c6c6572206973206e6f7420746865206f776e6572600082015250565b7f53797374656d3a20506175736564000000000000000000000000000000000000600082015250565b7f556e6c6f636b3a205377617020616d6f756e7420756e617070726f766564206160008201527f6e6420657863656564206d6178207377617020616d6f756e7420000000000000602082015250565b7f4c6f636b3a20496e76616c696420646573206e6574776f726b20746f6b656e00600082015250565b7f556e6c6f636b3a20496e76616c6964207369676e617475726500000000000000600082015250565b7f416464726573733a2064656c65676174652063616c6c20746f206e6f6e2d636f60008201527f6e74726163740000000000000000000000000000000000000000000000000000602082015250565b7f41757468656e7469636174696f6e3a20526571756972652061646d696e730000600082015250565b7f556e6c6f636b3a205472616e73616374696f6e20657869737465640000000000600082015250565b7f496e697469616c697a61626c653a20636f6e7472616374206973206e6f74206960008201527f6e697469616c697a696e67000000000000000000000000000000000000000000602082015250565b7f7365745f61646d696e0000000000000000000000000000000000000000000000600082015250565b7f5265656e7472616e637947756172643a207265656e7472616e742063616c6c00600082015250565b7f4c6f636b3a20416d6f756e74206e6f742076616c696400000000000000000000600082015250565b7f41757468656e7469636174696f6e3a205265717569726520616d6f756e74206160008201527f7070726f76657200000000000000000000000000000000000000000000000000602082015250565b7f556e6c6f636b3a206e6f742074686520636f7272656374207573657200000000600082015250565b614d2b81614476565b8114614d3657600080fd5b50565b614d4281614488565b8114614d4d57600080fd5b50565b614d5981614494565b8114614d6457600080fd5b50565b614d70816144be565b8114614d7b57600080fd5b5056fe416464726573733a206c6f772d6c6576656c2064656c65676174652063616c6c206661696c6564a2646970667358221220f374decb6843dcf997cab12e1beb1ddd607bff95964a8c970e8a8cd31557cc0e64736f6c63430008020033",
          "opcodes": "PUSH1 0xA0 PUSH1 0x40 MSTORE ADDRESS PUSH20 0xFFFFFFFFFFFFFFFFFFFFFFFFFFFFFFFFFFFFFFFF AND PUSH1 0x80 SWAP1 PUSH20 0xFFFFFFFFFFFFFFFFFFFFFFFFFFFFFFFFFFFFFFFF AND PUSH1 0x60 SHL DUP2 MSTORE POP CALLVALUE DUP1 ISZERO PUSH2 0x46 JUMPI PUSH1 0x0 DUP1 REVERT JUMPDEST POP PUSH1 0x80 MLOAD PUSH1 0x60 SHR PUSH2 0x4DDB PUSH2 0x81 PUSH1 0x0 CODECOPY PUSH1 0x0 DUP2 DUP2 PUSH2 0x90D ADD MSTORE DUP2 DUP2 PUSH2 0x99C ADD MSTORE DUP2 DUP2 PUSH2 0x1185 ADD MSTORE DUP2 DUP2 PUSH2 0x1214 ADD MSTORE PUSH2 0x1514 ADD MSTORE PUSH2 0x4DDB PUSH1 0x0 RETURN INVALID PUSH1 0x80 PUSH1 0x40 MSTORE PUSH1 0x4 CALLDATASIZE LT PUSH2 0x1B7 JUMPI PUSH1 0x0 CALLDATALOAD PUSH1 0xE0 SHR DUP1 PUSH4 0x7AC3C02F GT PUSH2 0xEC JUMPI DUP1 PUSH4 0xC38BB537 GT PUSH2 0x8A JUMPI DUP1 PUSH4 0xCD6EC99E GT PUSH2 0x64 JUMPI DUP1 PUSH4 0xCD6EC99E EQ PUSH2 0x611 JUMPI DUP1 PUSH4 0xD898BE5B EQ PUSH2 0x63A JUMPI DUP1 PUSH4 0xDA26742B EQ PUSH2 0x663 JUMPI DUP1 PUSH4 0xF2FDE38B EQ PUSH2 0x6A0 JUMPI PUSH2 0x1B7 JUMP JUMPDEST DUP1 PUSH4 0xC38BB537 EQ PUSH2 0x596 JUMPI DUP1 PUSH4 0xC9212A9D EQ PUSH2 0x5BF JUMPI DUP1 PUSH4 0xC997DBCA EQ PUSH2 0x5E8 JUMPI PUSH2 0x1B7 JUMP JUMPDEST DUP1 PUSH4 0x82DC4A05 GT PUSH2 0xC6 JUMPI DUP1 PUSH4 0x82DC4A05 EQ PUSH2 0x4C8 JUMPI DUP1 PUSH4 0x8DA5CB5B EQ PUSH2 0x505 JUMPI DUP1 PUSH4 0x97ABA7F9 EQ PUSH2 0x530 JUMPI DUP1 PUSH4 0xA589D319 EQ PUSH2 0x56D JUMPI PUSH2 0x1B7 JUMP JUMPDEST DUP1 PUSH4 0x7AC3C02F EQ PUSH2 0x449 JUMPI DUP1 PUSH4 0x7B8E3474 EQ PUSH2 0x474 JUMPI DUP1 PUSH4 0x8129FC1C EQ PUSH2 0x4B1 JUMPI PUSH2 0x1B7 JUMP JUMPDEST DUP1 PUSH4 0x4EBD25A5 GT PUSH2 0x159 JUMPI DUP1 PUSH4 0x52D1902D GT PUSH2 0x133 JUMPI DUP1 PUSH4 0x52D1902D EQ PUSH2 0x3B3 JUMPI DUP1 PUSH4 0x5C975ABB EQ PUSH2 0x3DE JUMPI DUP1 PUSH4 0x6C19E783 EQ PUSH2 0x409 JUMPI DUP1 PUSH4 0x715018A6 EQ PUSH2 0x432 JUMPI PUSH2 0x1B7 JUMP JUMPDEST DUP1 PUSH4 0x4EBD25A5 EQ PUSH2 0x317 JUMPI DUP1 PUSH4 0x4F1EF286 EQ PUSH2 0x354 JUMPI DUP1 PUSH4 0x5163E2CC EQ PUSH2 0x370 JUMPI PUSH2 0x1B7 JUMP JUMPDEST DUP1 PUSH4 0x2C78E90B GT PUSH2 0x195 JUMPI DUP1 PUSH4 0x2C78E90B EQ PUSH2 0x25F JUMPI DUP1 PUSH4 0x3659CFE6 EQ PUSH2 0x29C JUMPI DUP1 PUSH4 0x3CD33234 EQ PUSH2 0x2C5 JUMPI DUP1 PUSH4 0x4B0BDDD2 EQ PUSH2 0x2EE JUMPI PUSH2 0x1B7 JUMP JUMPDEST DUP1 PUSH4 0x89DD512 EQ PUSH2 0x1BC JUMPI DUP1 PUSH4 0x9CF80E0 EQ PUSH2 0x1F9 JUMPI DUP1 PUSH4 0x2C102C48 EQ PUSH2 0x222 JUMPI JUMPDEST PUSH1 0x0 DUP1 REVERT JUMPDEST CALLVALUE DUP1 ISZERO PUSH2 0x1C8 JUMPI PUSH1 0x0 DUP1 REVERT JUMPDEST POP PUSH2 0x1E3 PUSH1 0x4 DUP1 CALLDATASIZE SUB DUP2 ADD SWAP1 PUSH2 0x1DE SWAP2 SWAP1 PUSH2 0x32BA JUMP JUMPDEST PUSH2 0x6C9 JUMP JUMPDEST PUSH1 0x40 MLOAD PUSH2 0x1F0 SWAP2 SWAP1 PUSH2 0x3E0F JUMP JUMPDEST PUSH1 0x40 MLOAD DUP1 SWAP2 SUB SWAP1 RETURN JUMPDEST CALLVALUE DUP1 ISZERO PUSH2 0x205 JUMPI PUSH1 0x0 DUP1 REVERT JUMPDEST POP PUSH2 0x220 PUSH1 0x4 DUP1 CALLDATASIZE SUB DUP2 ADD SWAP1 PUSH2 0x21B SWAP2 SWAP1 PUSH2 0x31C0 JUMP JUMPDEST PUSH2 0x6FF JUMP JUMPDEST STOP JUMPDEST CALLVALUE DUP1 ISZERO PUSH2 0x22E JUMPI PUSH1 0x0 DUP1 REVERT JUMPDEST POP PUSH2 0x249 PUSH1 0x4 DUP1 CALLDATASIZE SUB DUP2 ADD SWAP1 PUSH2 0x244 SWAP2 SWAP1 PUSH2 0x32BA JUMP JUMPDEST PUSH2 0x8A4 JUMP JUMPDEST PUSH1 0x40 MLOAD PUSH2 0x256 SWAP2 SWAP1 PUSH2 0x3E0F JUMP JUMPDEST PUSH1 0x40 MLOAD DUP1 SWAP2 SUB SWAP1 RETURN JUMPDEST CALLVALUE DUP1 ISZERO PUSH2 0x26B JUMPI PUSH1 0x0 DUP1 REVERT JUMPDEST POP PUSH2 0x286 PUSH1 0x4 DUP1 CALLDATASIZE SUB DUP2 ADD SWAP1 PUSH2 0x281 SWAP2 SWAP1 PUSH2 0x33CC JUMP JUMPDEST PUSH2 0x8D2 JUMP JUMPDEST PUSH1 0x40 MLOAD PUSH2 0x293 SWAP2 SWAP1 PUSH2 0x3C8E JUMP JUMPDEST PUSH1 0x40 MLOAD DUP1 SWAP2 SUB SWAP1 RETURN JUMPDEST CALLVALUE DUP1 ISZERO PUSH2 0x2A8 JUMPI PUSH1 0x0 DUP1 REVERT JUMPDEST POP PUSH2 0x2C3 PUSH1 0x4 DUP1 CALLDATASIZE SUB DUP2 ADD SWAP1 PUSH2 0x2BE SWAP2 SWAP1 PUSH2 0x30CB JUMP JUMPDEST PUSH2 0x90B JUMP JUMPDEST STOP JUMPDEST CALLVALUE DUP1 ISZERO PUSH2 0x2D1 JUMPI PUSH1 0x0 DUP1 REVERT JUMPDEST POP PUSH2 0x2EC PUSH1 0x4 DUP1 CALLDATASIZE SUB DUP2 ADD SWAP1 PUSH2 0x2E7 SWAP2 SWAP1 PUSH2 0x33CC JUMP JUMPDEST PUSH2 0xABA JUMP JUMPDEST STOP JUMPDEST CALLVALUE DUP1 ISZERO PUSH2 0x2FA JUMPI PUSH1 0x0 DUP1 REVERT JUMPDEST POP PUSH2 0x315 PUSH1 0x4 DUP1 CALLDATASIZE SUB DUP2 ADD SWAP1 PUSH2 0x310 SWAP2 SWAP1 PUSH2 0x30F4 JUMP JUMPDEST PUSH2 0x1059 JUMP JUMPDEST STOP JUMPDEST CALLVALUE DUP1 ISZERO PUSH2 0x323 JUMPI PUSH1 0x0 DUP1 REVERT JUMPDEST POP PUSH2 0x33E PUSH1 0x4 DUP1 CALLDATASIZE SUB DUP2 ADD SWAP1 PUSH2 0x339 SWAP2 SWAP1 PUSH2 0x30CB JUMP JUMPDEST PUSH2 0x116A JUMP JUMPDEST PUSH1 0x40 MLOAD PUSH2 0x34B SWAP2 SWAP1 PUSH2 0x42EA JUMP JUMPDEST PUSH1 0x40 MLOAD DUP1 SWAP2 SUB SWAP1 RETURN JUMPDEST PUSH2 0x36E PUSH1 0x4 DUP1 CALLDATASIZE SUB DUP2 ADD SWAP1 PUSH2 0x369 SWAP2 SWAP1 PUSH2 0x3130 JUMP JUMPDEST PUSH2 0x1183 JUMP JUMPDEST STOP JUMPDEST CALLVALUE DUP1 ISZERO PUSH2 0x37C JUMPI PUSH1 0x0 DUP1 REVERT JUMPDEST POP PUSH2 0x397 PUSH1 0x4 DUP1 CALLDATASIZE SUB DUP2 ADD SWAP1 PUSH2 0x392 SWAP2 SWAP1 PUSH2 0x32BA JUMP JUMPDEST PUSH2 0x12C0 JUMP JUMPDEST PUSH1 0x40 MLOAD PUSH2 0x3AA SWAP8 SWAP7 SWAP6 SWAP5 SWAP4 SWAP3 SWAP2 SWAP1 PUSH2 0x3D32 JUMP JUMPDEST PUSH1 0x40 MLOAD DUP1 SWAP2 SUB SWAP1 RETURN JUMPDEST CALLVALUE DUP1 ISZERO PUSH2 0x3BF JUMPI PUSH1 0x0 DUP1 REVERT JUMPDEST POP PUSH2 0x3C8 PUSH2 0x1510 JUMP JUMPDEST PUSH1 0x40 MLOAD PUSH2 0x3D5 SWAP2 SWAP1 PUSH2 0x3E2A JUMP JUMPDEST PUSH1 0x40 MLOAD DUP1 SWAP2 SUB SWAP1 RETURN JUMPDEST CALLVALUE DUP1 ISZERO PUSH2 0x3EA JUMPI PUSH1 0x0 DUP1 REVERT JUMPDEST POP PUSH2 0x3F3 PUSH2 0x15C9 JUMP JUMPDEST PUSH1 0x40 MLOAD PUSH2 0x400 SWAP2 SWAP1 PUSH2 0x3E0F JUMP JUMPDEST PUSH1 0x40 MLOAD DUP1 SWAP2 SUB SWAP1 RETURN JUMPDEST CALLVALUE DUP1 ISZERO PUSH2 0x415 JUMPI PUSH1 0x0 DUP1 REVERT JUMPDEST POP PUSH2 0x430 PUSH1 0x4 DUP1 CALLDATASIZE SUB DUP2 ADD SWAP1 PUSH2 0x42B SWAP2 SWAP1 PUSH2 0x30CB JUMP JUMPDEST PUSH2 0x15DD JUMP JUMPDEST STOP JUMPDEST CALLVALUE DUP1 ISZERO PUSH2 0x43E JUMPI PUSH1 0x0 DUP1 REVERT JUMPDEST POP PUSH2 0x447 PUSH2 0x16D7 JUMP JUMPDEST STOP JUMPDEST CALLVALUE DUP1 ISZERO PUSH2 0x455 JUMPI PUSH1 0x0 DUP1 REVERT JUMPDEST POP PUSH2 0x45E PUSH2 0x175F JUMP JUMPDEST PUSH1 0x40 MLOAD PUSH2 0x46B SWAP2 SWAP1 PUSH2 0x3C8E JUMP JUMPDEST PUSH1 0x40 MLOAD DUP1 SWAP2 SUB SWAP1 RETURN JUMPDEST CALLVALUE DUP1 ISZERO PUSH2 0x480 JUMPI PUSH1 0x0 DUP1 REVERT JUMPDEST POP PUSH2 0x49B PUSH1 0x4 DUP1 CALLDATASIZE SUB DUP2 ADD SWAP1 PUSH2 0x496 SWAP2 SWAP1 PUSH2 0x32FB JUMP JUMPDEST PUSH2 0x1789 JUMP JUMPDEST PUSH1 0x40 MLOAD PUSH2 0x4A8 SWAP2 SWAP1 PUSH2 0x3E2A JUMP JUMPDEST PUSH1 0x40 MLOAD DUP1 SWAP2 SUB SWAP1 RETURN JUMPDEST CALLVALUE DUP1 ISZERO PUSH2 0x4BD JUMPI PUSH1 0x0 DUP1 REVERT JUMPDEST POP PUSH2 0x4C6 PUSH2 0x17C8 JUMP JUMPDEST STOP JUMPDEST CALLVALUE DUP1 ISZERO PUSH2 0x4D4 JUMPI PUSH1 0x0 DUP1 REVERT JUMPDEST POP PUSH2 0x4EF PUSH1 0x4 DUP1 CALLDATASIZE SUB DUP2 ADD SWAP1 PUSH2 0x4EA SWAP2 SWAP1 PUSH2 0x30CB JUMP JUMPDEST PUSH2 0x18F5 JUMP JUMPDEST PUSH1 0x40 MLOAD PUSH2 0x4FC SWAP2 SWAP1 PUSH2 0x3E0F JUMP JUMPDEST PUSH1 0x40 MLOAD DUP1 SWAP2 SUB SWAP1 RETURN JUMPDEST CALLVALUE DUP1 ISZERO PUSH2 0x511 JUMPI PUSH1 0x0 DUP1 REVERT JUMPDEST POP PUSH2 0x51A PUSH2 0x1915 JUMP JUMPDEST PUSH1 0x40 MLOAD PUSH2 0x527 SWAP2 SWAP1 PUSH2 0x3C8E JUMP JUMPDEST PUSH1 0x40 MLOAD DUP1 SWAP2 SUB SWAP1 RETURN JUMPDEST CALLVALUE DUP1 ISZERO PUSH2 0x53C JUMPI PUSH1 0x0 DUP1 REVERT JUMPDEST POP PUSH2 0x557 PUSH1 0x4 DUP1 CALLDATASIZE SUB DUP2 ADD SWAP1 PUSH2 0x552 SWAP2 SWAP1 PUSH2 0x3266 JUMP JUMPDEST PUSH2 0x193F JUMP JUMPDEST PUSH1 0x40 MLOAD PUSH2 0x564 SWAP2 SWAP1 PUSH2 0x3C8E JUMP JUMPDEST PUSH1 0x40 MLOAD DUP1 SWAP2 SUB SWAP1 RETURN JUMPDEST CALLVALUE DUP1 ISZERO PUSH2 0x579 JUMPI PUSH1 0x0 DUP1 REVERT JUMPDEST POP PUSH2 0x594 PUSH1 0x4 DUP1 CALLDATASIZE SUB DUP2 ADD SWAP1 PUSH2 0x58F SWAP2 SWAP1 PUSH2 0x3184 JUMP JUMPDEST PUSH2 0x1A12 JUMP JUMPDEST STOP JUMPDEST CALLVALUE DUP1 ISZERO PUSH2 0x5A2 JUMPI PUSH1 0x0 DUP1 REVERT JUMPDEST POP PUSH2 0x5BD PUSH1 0x4 DUP1 CALLDATASIZE SUB DUP2 ADD SWAP1 PUSH2 0x5B8 SWAP2 SWAP1 PUSH2 0x3214 JUMP JUMPDEST PUSH2 0x1B29 JUMP JUMPDEST STOP JUMPDEST CALLVALUE DUP1 ISZERO PUSH2 0x5CB JUMPI PUSH1 0x0 DUP1 REVERT JUMPDEST POP PUSH2 0x5E6 PUSH1 0x4 DUP1 CALLDATASIZE SUB DUP2 ADD SWAP1 PUSH2 0x5E1 SWAP2 SWAP1 PUSH2 0x34CA JUMP JUMPDEST PUSH2 0x1BFC JUMP JUMPDEST STOP JUMPDEST CALLVALUE DUP1 ISZERO PUSH2 0x5F4 JUMPI PUSH1 0x0 DUP1 REVERT JUMPDEST POP PUSH2 0x60F PUSH1 0x4 DUP1 CALLDATASIZE SUB DUP2 ADD SWAP1 PUSH2 0x60A SWAP2 SWAP1 PUSH2 0x30F4 JUMP JUMPDEST PUSH2 0x2099 JUMP JUMPDEST STOP JUMPDEST CALLVALUE DUP1 ISZERO PUSH2 0x61D JUMPI PUSH1 0x0 DUP1 REVERT JUMPDEST POP PUSH2 0x638 PUSH1 0x4 DUP1 CALLDATASIZE SUB DUP2 ADD SWAP1 PUSH2 0x633 SWAP2 SWAP1 PUSH2 0x3589 JUMP JUMPDEST PUSH2 0x2187 JUMP JUMPDEST STOP JUMPDEST CALLVALUE DUP1 ISZERO PUSH2 0x646 JUMPI PUSH1 0x0 DUP1 REVERT JUMPDEST POP PUSH2 0x661 PUSH1 0x4 DUP1 CALLDATASIZE SUB DUP2 ADD SWAP1 PUSH2 0x65C SWAP2 SWAP1 PUSH2 0x30F4 JUMP JUMPDEST PUSH2 0x2254 JUMP JUMPDEST STOP JUMPDEST CALLVALUE DUP1 ISZERO PUSH2 0x66F JUMPI PUSH1 0x0 DUP1 REVERT JUMPDEST POP PUSH2 0x68A PUSH1 0x4 DUP1 CALLDATASIZE SUB DUP2 ADD SWAP1 PUSH2 0x685 SWAP2 SWAP1 PUSH2 0x30CB JUMP JUMPDEST PUSH2 0x2366 JUMP JUMPDEST PUSH1 0x40 MLOAD PUSH2 0x697 SWAP2 SWAP1 PUSH2 0x3E0F JUMP JUMPDEST PUSH1 0x40 MLOAD DUP1 SWAP2 SUB SWAP1 RETURN JUMPDEST CALLVALUE DUP1 ISZERO PUSH2 0x6AC JUMPI PUSH1 0x0 DUP1 REVERT JUMPDEST POP PUSH2 0x6C7 PUSH1 0x4 DUP1 CALLDATASIZE SUB DUP2 ADD SWAP1 PUSH2 0x6C2 SWAP2 SWAP1 PUSH2 0x30CB JUMP JUMPDEST PUSH2 0x2386 JUMP JUMPDEST STOP JUMPDEST PUSH1 0xFE DUP2 DUP1 MLOAD PUSH1 0x20 DUP2 ADD DUP3 ADD DUP1 MLOAD DUP5 DUP3 MSTORE PUSH1 0x20 DUP4 ADD PUSH1 0x20 DUP6 ADD KECCAK256 DUP2 DUP4 MSTORE DUP1 SWAP6 POP POP POP POP POP POP PUSH1 0x0 SWAP2 POP SLOAD SWAP1 PUSH2 0x100 EXP SWAP1 DIV PUSH1 0xFF AND DUP2 JUMP JUMPDEST PUSH1 0x1 ISZERO ISZERO PUSH2 0x100 PUSH1 0x0 CALLER PUSH20 0xFFFFFFFFFFFFFFFFFFFFFFFFFFFFFFFFFFFFFFFF AND PUSH20 0xFFFFFFFFFFFFFFFFFFFFFFFFFFFFFFFFFFFFFFFF AND DUP2 MSTORE PUSH1 0x20 ADD SWAP1 DUP2 MSTORE PUSH1 0x20 ADD PUSH1 0x0 KECCAK256 PUSH1 0x0 SWAP1 SLOAD SWAP1 PUSH2 0x100 EXP SWAP1 DIV PUSH1 0xFF AND ISZERO ISZERO EQ DUP1 PUSH2 0x791 JUMPI POP PUSH2 0x762 PUSH2 0x1915 JUMP JUMPDEST PUSH20 0xFFFFFFFFFFFFFFFFFFFFFFFFFFFFFFFFFFFFFFFF AND CALLER PUSH20 0xFFFFFFFFFFFFFFFFFFFFFFFFFFFFFFFFFFFFFFFF AND EQ JUMPDEST PUSH2 0x7D0 JUMPI PUSH1 0x40 MLOAD PUSH32 0x8C379A000000000000000000000000000000000000000000000000000000000 DUP2 MSTORE PUSH1 0x4 ADD PUSH2 0x7C7 SWAP1 PUSH2 0x42AA JUMP JUMPDEST PUSH1 0x40 MLOAD DUP1 SWAP2 SUB SWAP1 REVERT JUMPDEST PUSH1 0x0 JUMPDEST DUP3 MLOAD DUP2 LT ISZERO PUSH2 0x866 JUMPI DUP2 PUSH2 0x101 DUP5 DUP4 DUP2 MLOAD DUP2 LT PUSH2 0x819 JUMPI PUSH32 0x4E487B7100000000000000000000000000000000000000000000000000000000 PUSH1 0x0 MSTORE PUSH1 0x32 PUSH1 0x4 MSTORE PUSH1 0x24 PUSH1 0x0 REVERT JUMPDEST PUSH1 0x20 MUL PUSH1 0x20 ADD ADD MLOAD PUSH1 0x40 MLOAD PUSH2 0x82E SWAP2 SWAP1 PUSH2 0x3BED JUMP JUMPDEST SWAP1 DUP2 MSTORE PUSH1 0x20 ADD PUSH1 0x40 MLOAD DUP1 SWAP2 SUB SWAP1 KECCAK256 PUSH1 0x0 PUSH2 0x100 EXP DUP2 SLOAD DUP2 PUSH1 0xFF MUL NOT AND SWAP1 DUP4 ISZERO ISZERO MUL OR SWAP1 SSTORE POP DUP1 DUP1 PUSH2 0x85E SWAP1 PUSH2 0x458C JUMP JUMPDEST SWAP2 POP POP PUSH2 0x7D3 JUMP JUMPDEST POP PUSH32 0x6F0B9169C47E9BE13D325CF7A841FC05EB16ABA19B8AB19026F598A2172B455 DUP3 DUP3 PUSH1 0x40 MLOAD PUSH2 0x898 SWAP3 SWAP2 SWAP1 PUSH2 0x3DDF JUMP JUMPDEST PUSH1 0x40 MLOAD DUP1 SWAP2 SUB SWAP1 LOG1 POP POP JUMP JUMPDEST PUSH1 0x0 DUP1 PUSH1 0xFB DUP4 PUSH1 0x40 MLOAD PUSH2 0x8B7 SWAP2 SWAP1 PUSH2 0x3BED JUMP JUMPDEST SWAP1 DUP2 MSTORE PUSH1 0x20 ADD PUSH1 0x40 MLOAD DUP1 SWAP2 SUB SWAP1 KECCAK256 PUSH1 0x5 ADD SLOAD EQ ISZERO SWAP1 POP SWAP2 SWAP1 POP JUMP JUMPDEST PUSH1 0x0 DUP1 PUSH2 0x8E3 DUP10 DUP10 DUP10 DUP10 DUP10 DUP10 PUSH2 0x1789 JUMP JUMPDEST SWAP1 POP PUSH1 0x0 PUSH2 0x8F0 DUP3 PUSH2 0x247E JUMP JUMPDEST SWAP1 POP PUSH2 0x8FC DUP2 DUP6 PUSH2 0x193F JUMP JUMPDEST SWAP3 POP POP POP SWAP8 SWAP7 POP POP POP POP POP POP POP JUMP JUMPDEST PUSH32 0x0 PUSH20 0xFFFFFFFFFFFFFFFFFFFFFFFFFFFFFFFFFFFFFFFF AND ADDRESS PUSH20 0xFFFFFFFFFFFFFFFFFFFFFFFFFFFFFFFFFFFFFFFF AND EQ ISZERO PUSH2 0x99A JUMPI PUSH1 0x40 MLOAD PUSH32 0x8C379A000000000000000000000000000000000000000000000000000000000 DUP2 MSTORE PUSH1 0x4 ADD PUSH2 0x991 SWAP1 PUSH2 0x3F56 JUMP JUMPDEST PUSH1 0x40 MLOAD DUP1 SWAP2 SUB SWAP1 REVERT JUMPDEST PUSH32 0x0 PUSH20 0xFFFFFFFFFFFFFFFFFFFFFFFFFFFFFFFFFFFFFFFF AND PUSH2 0x9D9 PUSH2 0x24AE JUMP JUMPDEST PUSH20 0xFFFFFFFFFFFFFFFFFFFFFFFFFFFFFFFFFFFFFFFF AND EQ PUSH2 0xA2F JUMPI PUSH1 0x40 MLOAD PUSH32 0x8C379A000000000000000000000000000000000000000000000000000000000 DUP2 MSTORE PUSH1 0x4 ADD PUSH2 0xA26 SWAP1 PUSH2 0x3F76 JUMP JUMPDEST PUSH1 0x40 MLOAD DUP1 SWAP2 SUB SWAP1 REVERT JUMPDEST PUSH2 0xA38 DUP2 PUSH2 0x2505 JUMP JUMPDEST PUSH2 0xAB7 DUP2 PUSH1 0x0 PUSH8 0xFFFFFFFFFFFFFFFF DUP2 GT ISZERO PUSH2 0xA7D JUMPI PUSH32 0x4E487B7100000000000000000000000000000000000000000000000000000000 PUSH1 0x0 MSTORE PUSH1 0x41 PUSH1 0x4 MSTORE PUSH1 0x24 PUSH1 0x0 REVERT JUMPDEST PUSH1 0x40 MLOAD SWAP1 DUP1 DUP3 MSTORE DUP1 PUSH1 0x1F ADD PUSH1 0x1F NOT AND PUSH1 0x20 ADD DUP3 ADD PUSH1 0x40 MSTORE DUP1 ISZERO PUSH2 0xAAF JUMPI DUP2 PUSH1 0x20 ADD PUSH1 0x1 DUP3 MUL DUP1 CALLDATASIZE DUP4 CALLDATACOPY DUP1 DUP3 ADD SWAP2 POP POP SWAP1 POP JUMPDEST POP PUSH1 0x0 PUSH2 0x2584 JUMP JUMPDEST POP JUMP JUMPDEST PUSH1 0x0 ISZERO ISZERO PUSH2 0x103 PUSH1 0x0 SWAP1 SLOAD SWAP1 PUSH2 0x100 EXP SWAP1 DIV PUSH1 0xFF AND ISZERO ISZERO EQ PUSH2 0xB11 JUMPI PUSH1 0x40 MLOAD PUSH32 0x8C379A000000000000000000000000000000000000000000000000000000000 DUP2 MSTORE PUSH1 0x4 ADD PUSH2 0xB08 SWAP1 PUSH2 0x412E JUMP JUMPDEST PUSH1 0x40 MLOAD DUP1 SWAP2 SUB SWAP1 REVERT JUMPDEST PUSH1 0x2 PUSH1 0xC9 SLOAD EQ ISZERO PUSH2 0xB57 JUMPI PUSH1 0x40 MLOAD PUSH32 0x8C379A000000000000000000000000000000000000000000000000000000000 DUP2 MSTORE PUSH1 0x4 ADD PUSH2 0xB4E SWAP1 PUSH2 0x426A JUMP JUMPDEST PUSH1 0x40 MLOAD DUP1 SWAP2 SUB SWAP1 REVERT JUMPDEST PUSH1 0x2 PUSH1 0xC9 DUP2 SWAP1 SSTORE POP PUSH1 0x1 ISZERO ISZERO PUSH2 0xB6C DUP9 PUSH2 0x8A4 JUMP JUMPDEST ISZERO ISZERO EQ ISZERO PUSH2 0xBAF JUMPI PUSH1 0x40 MLOAD PUSH32 0x8C379A000000000000000000000000000000000000000000000000000000000 DUP2 MSTORE PUSH1 0x4 ADD PUSH2 0xBA6 SWAP1 PUSH2 0x41EE JUMP JUMPDEST PUSH1 0x40 MLOAD DUP1 SWAP2 SUB SWAP1 REVERT JUMPDEST PUSH2 0xBBA DUP7 DUP7 DUP5 PUSH2 0x2701 JUMP JUMPDEST PUSH2 0xBC5 DUP8 DUP8 DUP5 PUSH2 0x284F JUMP JUMPDEST PUSH2 0xC04 JUMPI PUSH1 0x40 MLOAD PUSH32 0x8C379A000000000000000000000000000000000000000000000000000000000 DUP2 MSTORE PUSH1 0x4 ADD PUSH2 0xBFB SWAP1 PUSH2 0x414E JUMP JUMPDEST PUSH1 0x40 MLOAD DUP1 SWAP2 SUB SWAP1 REVERT JUMPDEST PUSH2 0xC13 DUP8 DUP8 DUP8 DUP8 DUP8 DUP8 DUP8 PUSH2 0x8D2 JUMP JUMPDEST PUSH20 0xFFFFFFFFFFFFFFFFFFFFFFFFFFFFFFFFFFFFFFFF AND PUSH1 0xFC PUSH1 0x0 SWAP1 SLOAD SWAP1 PUSH2 0x100 EXP SWAP1 DIV PUSH20 0xFFFFFFFFFFFFFFFFFFFFFFFFFFFFFFFFFFFFFFFF AND PUSH20 0xFFFFFFFFFFFFFFFFFFFFFFFFFFFFFFFFFFFFFFFF AND EQ PUSH2 0xCA2 JUMPI PUSH1 0x40 MLOAD PUSH32 0x8C379A000000000000000000000000000000000000000000000000000000000 DUP2 MSTORE PUSH1 0x4 ADD PUSH2 0xC99 SWAP1 PUSH2 0x418E JUMP JUMPDEST PUSH1 0x40 MLOAD DUP1 SWAP2 SUB SWAP1 REVERT JUMPDEST CALLER PUSH20 0xFFFFFFFFFFFFFFFFFFFFFFFFFFFFFFFFFFFFFFFF AND DUP5 PUSH20 0xFFFFFFFFFFFFFFFFFFFFFFFFFFFFFFFFFFFFFFFF AND EQ PUSH2 0xD10 JUMPI PUSH1 0x40 MLOAD PUSH32 0x8C379A000000000000000000000000000000000000000000000000000000000 DUP2 MSTORE PUSH1 0x4 ADD PUSH2 0xD07 SWAP1 PUSH2 0x42CA JUMP JUMPDEST PUSH1 0x40 MLOAD DUP1 SWAP2 SUB SWAP1 REVERT JUMPDEST DUP6 PUSH20 0xFFFFFFFFFFFFFFFFFFFFFFFFFFFFFFFFFFFFFFFF AND PUSH4 0x40C10F19 CALLER DUP5 PUSH1 0x40 MLOAD DUP4 PUSH4 0xFFFFFFFF AND PUSH1 0xE0 SHL DUP2 MSTORE PUSH1 0x4 ADD PUSH2 0xD4B SWAP3 SWAP2 SWAP1 PUSH2 0x3DB6 JUMP JUMPDEST PUSH1 0x0 PUSH1 0x40 MLOAD DUP1 DUP4 SUB DUP2 PUSH1 0x0 DUP8 DUP1 EXTCODESIZE ISZERO DUP1 ISZERO PUSH2 0xD65 JUMPI PUSH1 0x0 DUP1 REVERT JUMPDEST POP GAS CALL ISZERO DUP1 ISZERO PUSH2 0xD79 JUMPI RETURNDATASIZE PUSH1 0x0 DUP1 RETURNDATACOPY RETURNDATASIZE PUSH1 0x0 REVERT JUMPDEST POP POP POP POP PUSH1 0x0 PUSH1 0x40 MLOAD DUP1 PUSH1 0xE0 ADD PUSH1 0x40 MSTORE DUP1 DUP9 PUSH20 0xFFFFFFFFFFFFFFFFFFFFFFFFFFFFFFFFFFFFFFFF AND DUP2 MSTORE PUSH1 0x20 ADD DUP8 DUP2 MSTORE PUSH1 0x20 ADD DUP7 PUSH20 0xFFFFFFFFFFFFFFFFFFFFFFFFFFFFFFFFFFFFFFFF AND DUP2 MSTORE PUSH1 0x20 ADD DUP6 DUP2 MSTORE PUSH1 0x20 ADD PUSH1 0xFC PUSH1 0x0 SWAP1 SLOAD SWAP1 PUSH2 0x100 EXP SWAP1 DIV PUSH20 0xFFFFFFFFFFFFFFFFFFFFFFFFFFFFFFFFFFFFFFFF AND PUSH20 0xFFFFFFFFFFFFFFFFFFFFFFFFFFFFFFFFFFFFFFFF AND DUP2 MSTORE PUSH1 0x20 ADD DUP5 DUP2 MSTORE PUSH1 0x20 ADD PUSH1 0x40 MLOAD DUP1 PUSH1 0x40 ADD PUSH1 0x40 MSTORE DUP1 PUSH1 0x4 DUP2 MSTORE PUSH1 0x20 ADD PUSH32 0x6D696E7400000000000000000000000000000000000000000000000000000000 DUP2 MSTORE POP DUP2 MSTORE POP SWAP1 POP DUP1 PUSH1 0xFB DUP10 PUSH1 0x40 MLOAD PUSH2 0xE5E SWAP2 SWAP1 PUSH2 0x3BED JUMP JUMPDEST SWAP1 DUP2 MSTORE PUSH1 0x20 ADD PUSH1 0x40 MLOAD DUP1 SWAP2 SUB SWAP1 KECCAK256 PUSH1 0x0 DUP3 ADD MLOAD DUP2 PUSH1 0x0 ADD PUSH1 0x0 PUSH2 0x100 EXP DUP2 SLOAD DUP2 PUSH20 0xFFFFFFFFFFFFFFFFFFFFFFFFFFFFFFFFFFFFFFFF MUL NOT AND SWAP1 DUP4 PUSH20 0xFFFFFFFFFFFFFFFFFFFFFFFFFFFFFFFFFFFFFFFF AND MUL OR SWAP1 SSTORE POP PUSH1 0x20 DUP3 ADD MLOAD DUP2 PUSH1 0x1 ADD SWAP1 DUP1 MLOAD SWAP1 PUSH1 0x20 ADD SWAP1 PUSH2 0xECF SWAP3 SWAP2 SWAP1 PUSH2 0x2E53 JUMP JUMPDEST POP PUSH1 0x40 DUP3 ADD MLOAD DUP2 PUSH1 0x2 ADD PUSH1 0x0 PUSH2 0x100 EXP DUP2 SLOAD DUP2 PUSH20 0xFFFFFFFFFFFFFFFFFFFFFFFFFFFFFFFFFFFFFFFF MUL NOT AND SWAP1 DUP4 PUSH20 0xFFFFFFFFFFFFFFFFFFFFFFFFFFFFFFFFFFFFFFFF AND MUL OR SWAP1 SSTORE POP PUSH1 0x60 DUP3 ADD MLOAD DUP2 PUSH1 0x3 ADD SWAP1 DUP1 MLOAD SWAP1 PUSH1 0x20 ADD SWAP1 PUSH2 0xF33 SWAP3 SWAP2 SWAP1 PUSH2 0x2E53 JUMP JUMPDEST POP PUSH1 0x80 DUP3 ADD MLOAD DUP2 PUSH1 0x4 ADD PUSH1 0x0 PUSH2 0x100 EXP DUP2 SLOAD DUP2 PUSH20 0xFFFFFFFFFFFFFFFFFFFFFFFFFFFFFFFFFFFFFFFF MUL NOT AND SWAP1 DUP4 PUSH20 0xFFFFFFFFFFFFFFFFFFFFFFFFFFFFFFFFFFFFFFFF AND MUL OR SWAP1 SSTORE POP PUSH1 0xA0 DUP3 ADD MLOAD DUP2 PUSH1 0x5 ADD SSTORE PUSH1 0xC0 DUP3 ADD MLOAD DUP2 PUSH1 0x6 ADD SWAP1 DUP1 MLOAD SWAP1 PUSH1 0x20 ADD SWAP1 PUSH2 0xFA1 SWAP3 SWAP2 SWAP1 PUSH2 0x2E53 JUMP JUMPDEST POP SWAP1 POP POP CALLER PUSH20 0xFFFFFFFFFFFFFFFFFFFFFFFFFFFFFFFFFFFFFFFF AND DUP8 PUSH20 0xFFFFFFFFFFFFFFFFFFFFFFFFFFFFFFFFFFFFFFFF AND PUSH32 0xAD71AA4C2C93767A2DF6F50AA44C85590C8822F1B02C7AB9C534CF4DAAD7AB74 DUP11 DUP10 DUP9 DUP9 PUSH1 0x40 MLOAD DUP1 PUSH1 0x40 ADD PUSH1 0x40 MSTORE DUP1 PUSH1 0x4 DUP2 MSTORE PUSH1 0x20 ADD PUSH32 0x6D696E7400000000000000000000000000000000000000000000000000000000 DUP2 MSTORE POP PUSH1 0x40 MLOAD PUSH2 0x103F SWAP6 SWAP5 SWAP4 SWAP3 SWAP2 SWAP1 PUSH2 0x3EC7 JUMP JUMPDEST PUSH1 0x40 MLOAD DUP1 SWAP2 SUB SWAP1 LOG3 POP PUSH1 0x1 PUSH1 0xC9 DUP2 SWAP1 SSTORE POP POP POP POP POP POP POP POP JUMP JUMPDEST PUSH2 0x1061 PUSH2 0x2925 JUMP JUMPDEST PUSH20 0xFFFFFFFFFFFFFFFFFFFFFFFFFFFFFFFFFFFFFFFF AND PUSH2 0x107F PUSH2 0x1915 JUMP JUMPDEST PUSH20 0xFFFFFFFFFFFFFFFFFFFFFFFFFFFFFFFFFFFFFFFF AND EQ PUSH2 0x10D5 JUMPI PUSH1 0x40 MLOAD PUSH32 0x8C379A000000000000000000000000000000000000000000000000000000000 DUP2 MSTORE PUSH1 0x4 ADD PUSH2 0x10CC SWAP1 PUSH2 0x410E JUMP JUMPDEST PUSH1 0x40 MLOAD DUP1 SWAP2 SUB SWAP1 REVERT JUMPDEST DUP1 PUSH1 0xFF PUSH1 0x0 DUP5 PUSH20 0xFFFFFFFFFFFFFFFFFFFFFFFFFFFFFFFFFFFFFFFF AND PUSH20 0xFFFFFFFFFFFFFFFFFFFFFFFFFFFFFFFFFFFFFFFF AND DUP2 MSTORE PUSH1 0x20 ADD SWAP1 DUP2 MSTORE PUSH1 0x20 ADD PUSH1 0x0 KECCAK256 PUSH1 0x0 PUSH2 0x100 EXP DUP2 SLOAD DUP2 PUSH1 0xFF MUL NOT AND SWAP1 DUP4 ISZERO ISZERO MUL OR SWAP1 SSTORE POP PUSH32 0x2CFB57781D9C154E822FF0DA753BE77D4AA8C03BEC8436DE4C4261B3604C1373 DUP3 PUSH1 0x1 PUSH1 0x40 MLOAD PUSH2 0x115E SWAP3 SWAP2 SWAP1 PUSH2 0x422E JUMP JUMPDEST PUSH1 0x40 MLOAD DUP1 SWAP2 SUB SWAP1 LOG1 POP POP JUMP JUMPDEST PUSH2 0x102 PUSH1 0x20 MSTORE DUP1 PUSH1 0x0 MSTORE PUSH1 0x40 PUSH1 0x0 KECCAK256 PUSH1 0x0 SWAP2 POP SWAP1 POP SLOAD DUP2 JUMP JUMPDEST PUSH32 0x0 PUSH20 0xFFFFFFFFFFFFFFFFFFFFFFFFFFFFFFFFFFFFFFFF AND ADDRESS PUSH20 0xFFFFFFFFFFFFFFFFFFFFFFFFFFFFFFFFFFFFFFFF AND EQ ISZERO PUSH2 0x1212 JUMPI PUSH1 0x40 MLOAD PUSH32 0x8C379A000000000000000000000000000000000000000000000000000000000 DUP2 MSTORE PUSH1 0x4 ADD PUSH2 0x1209 SWAP1 PUSH2 0x3F56 JUMP JUMPDEST PUSH1 0x40 MLOAD DUP1 SWAP2 SUB SWAP1 REVERT JUMPDEST PUSH32 0x0 PUSH20 0xFFFFFFFFFFFFFFFFFFFFFFFFFFFFFFFFFFFFFFFF AND PUSH2 0x1251 PUSH2 0x24AE JUMP JUMPDEST PUSH20 0xFFFFFFFFFFFFFFFFFFFFFFFFFFFFFFFFFFFFFFFF AND EQ PUSH2 0x12A7 JUMPI PUSH1 0x40 MLOAD PUSH32 0x8C379A000000000000000000000000000000000000000000000000000000000 DUP2 MSTORE PUSH1 0x4 ADD PUSH2 0x129E SWAP1 PUSH2 0x3F76 JUMP JUMPDEST PUSH1 0x40 MLOAD DUP1 SWAP2 SUB SWAP1 REVERT JUMPDEST PUSH2 0x12B0 DUP3 PUSH2 0x2505 JUMP JUMPDEST PUSH2 0x12BC DUP3 DUP3 PUSH1 0x1 PUSH2 0x2584 JUMP JUMPDEST POP POP JUMP JUMPDEST PUSH1 0xFB DUP2 DUP1 MLOAD PUSH1 0x20 DUP2 ADD DUP3 ADD DUP1 MLOAD DUP5 DUP3 MSTORE PUSH1 0x20 DUP4 ADD PUSH1 0x20 DUP6 ADD KECCAK256 DUP2 DUP4 MSTORE DUP1 SWAP6 POP POP POP POP POP POP PUSH1 0x0 SWAP2 POP SWAP1 POP DUP1 PUSH1 0x0 ADD PUSH1 0x0 SWAP1 SLOAD SWAP1 PUSH2 0x100 EXP SWAP1 DIV PUSH20 0xFFFFFFFFFFFFFFFFFFFFFFFFFFFFFFFFFFFFFFFF AND SWAP1 DUP1 PUSH1 0x1 ADD DUP1 SLOAD PUSH2 0x131F SWAP1 PUSH2 0x4529 JUMP JUMPDEST DUP1 PUSH1 0x1F ADD PUSH1 0x20 DUP1 SWAP2 DIV MUL PUSH1 0x20 ADD PUSH1 0x40 MLOAD SWAP1 DUP2 ADD PUSH1 0x40 MSTORE DUP1 SWAP3 SWAP2 SWAP1 DUP2 DUP2 MSTORE PUSH1 0x20 ADD DUP3 DUP1 SLOAD PUSH2 0x134B SWAP1 PUSH2 0x4529 JUMP JUMPDEST DUP1 ISZERO PUSH2 0x1398 JUMPI DUP1 PUSH1 0x1F LT PUSH2 0x136D JUMPI PUSH2 0x100 DUP1 DUP4 SLOAD DIV MUL DUP4 MSTORE SWAP2 PUSH1 0x20 ADD SWAP2 PUSH2 0x1398 JUMP JUMPDEST DUP3 ADD SWAP2 SWAP1 PUSH1 0x0 MSTORE PUSH1 0x20 PUSH1 0x0 KECCAK256 SWAP1 JUMPDEST DUP2 SLOAD DUP2 MSTORE SWAP1 PUSH1 0x1 ADD SWAP1 PUSH1 0x20 ADD DUP1 DUP4 GT PUSH2 0x137B JUMPI DUP3 SWAP1 SUB PUSH1 0x1F AND DUP3 ADD SWAP2 JUMPDEST POP POP POP POP POP SWAP1 DUP1 PUSH1 0x2 ADD PUSH1 0x0 SWAP1 SLOAD SWAP1 PUSH2 0x100 EXP SWAP1 DIV PUSH20 0xFFFFFFFFFFFFFFFFFFFFFFFFFFFFFFFFFFFFFFFF AND SWAP1 DUP1 PUSH1 0x3 ADD DUP1 SLOAD PUSH2 0x13D3 SWAP1 PUSH2 0x4529 JUMP JUMPDEST DUP1 PUSH1 0x1F ADD PUSH1 0x20 DUP1 SWAP2 DIV MUL PUSH1 0x20 ADD PUSH1 0x40 MLOAD SWAP1 DUP2 ADD PUSH1 0x40 MSTORE DUP1 SWAP3 SWAP2 SWAP1 DUP2 DUP2 MSTORE PUSH1 0x20 ADD DUP3 DUP1 SLOAD PUSH2 0x13FF SWAP1 PUSH2 0x4529 JUMP JUMPDEST DUP1 ISZERO PUSH2 0x144C JUMPI DUP1 PUSH1 0x1F LT PUSH2 0x1421 JUMPI PUSH2 0x100 DUP1 DUP4 SLOAD DIV MUL DUP4 MSTORE SWAP2 PUSH1 0x20 ADD SWAP2 PUSH2 0x144C JUMP JUMPDEST DUP3 ADD SWAP2 SWAP1 PUSH1 0x0 MSTORE PUSH1 0x20 PUSH1 0x0 KECCAK256 SWAP1 JUMPDEST DUP2 SLOAD DUP2 MSTORE SWAP1 PUSH1 0x1 ADD SWAP1 PUSH1 0x20 ADD DUP1 DUP4 GT PUSH2 0x142F JUMPI DUP3 SWAP1 SUB PUSH1 0x1F AND DUP3 ADD SWAP2 JUMPDEST POP POP POP POP POP SWAP1 DUP1 PUSH1 0x4 ADD PUSH1 0x0 SWAP1 SLOAD SWAP1 PUSH2 0x100 EXP SWAP1 DIV PUSH20 0xFFFFFFFFFFFFFFFFFFFFFFFFFFFFFFFFFFFFFFFF AND SWAP1 DUP1 PUSH1 0x5 ADD SLOAD SWAP1 DUP1 PUSH1 0x6 ADD DUP1 SLOAD PUSH2 0x148D SWAP1 PUSH2 0x4529 JUMP JUMPDEST DUP1 PUSH1 0x1F ADD PUSH1 0x20 DUP1 SWAP2 DIV MUL PUSH1 0x20 ADD PUSH1 0x40 MLOAD SWAP1 DUP2 ADD PUSH1 0x40 MSTORE DUP1 SWAP3 SWAP2 SWAP1 DUP2 DUP2 MSTORE PUSH1 0x20 ADD DUP3 DUP1 SLOAD PUSH2 0x14B9 SWAP1 PUSH2 0x4529 JUMP JUMPDEST DUP1 ISZERO PUSH2 0x1506 JUMPI DUP1 PUSH1 0x1F LT PUSH2 0x14DB JUMPI PUSH2 0x100 DUP1 DUP4 SLOAD DIV MUL DUP4 MSTORE SWAP2 PUSH1 0x20 ADD SWAP2 PUSH2 0x1506 JUMP JUMPDEST DUP3 ADD SWAP2 SWAP1 PUSH1 0x0 MSTORE PUSH1 0x20 PUSH1 0x0 KECCAK256 SWAP1 JUMPDEST DUP2 SLOAD DUP2 MSTORE SWAP1 PUSH1 0x1 ADD SWAP1 PUSH1 0x20 ADD DUP1 DUP4 GT PUSH2 0x14E9 JUMPI DUP3 SWAP1 SUB PUSH1 0x1F AND DUP3 ADD SWAP2 JUMPDEST POP POP POP POP POP SWAP1 POP DUP8 JUMP JUMPDEST PUSH1 0x0 PUSH32 0x0 PUSH20 0xFFFFFFFFFFFFFFFFFFFFFFFFFFFFFFFFFFFFFFFF AND ADDRESS PUSH20 0xFFFFFFFFFFFFFFFFFFFFFFFFFFFFFFFFFFFFFFFF AND EQ PUSH2 0x15A0 JUMPI PUSH1 0x40 MLOAD PUSH32 0x8C379A000000000000000000000000000000000000000000000000000000000 DUP2 MSTORE PUSH1 0x4 ADD PUSH2 0x1597 SWAP1 PUSH2 0x3FF2 JUMP JUMPDEST PUSH1 0x40 MLOAD DUP1 SWAP2 SUB SWAP1 REVERT JUMPDEST PUSH32 0x360894A13BA1A3210667C828492DB98DCA3E2076CC3735A920A3CA505D382BBC PUSH1 0x0 SHL SWAP1 POP SWAP1 JUMP JUMPDEST PUSH2 0x103 PUSH1 0x0 SWAP1 SLOAD SWAP1 PUSH2 0x100 EXP SWAP1 DIV PUSH1 0xFF AND DUP2 JUMP JUMPDEST PUSH2 0x15E5 PUSH2 0x2925 JUMP JUMPDEST PUSH20 0xFFFFFFFFFFFFFFFFFFFFFFFFFFFFFFFFFFFFFFFF AND PUSH2 0x1603 PUSH2 0x1915 JUMP JUMPDEST PUSH20 0xFFFFFFFFFFFFFFFFFFFFFFFFFFFFFFFFFFFFFFFF AND EQ PUSH2 0x1659 JUMPI PUSH1 0x40 MLOAD PUSH32 0x8C379A000000000000000000000000000000000000000000000000000000000 DUP2 MSTORE PUSH1 0x4 ADD PUSH2 0x1650 SWAP1 PUSH2 0x410E JUMP JUMPDEST PUSH1 0x40 MLOAD DUP1 SWAP2 SUB SWAP1 REVERT JUMPDEST DUP1 PUSH1 0xFC PUSH1 0x0 PUSH2 0x100 EXP DUP2 SLOAD DUP2 PUSH20 0xFFFFFFFFFFFFFFFFFFFFFFFFFFFFFFFFFFFFFFFF MUL NOT AND SWAP1 DUP4 PUSH20 0xFFFFFFFFFFFFFFFFFFFFFFFFFFFFFFFFFFFFFFFF AND MUL OR SWAP1 SSTORE POP PUSH32 0x2CFB57781D9C154E822FF0DA753BE77D4AA8C03BEC8436DE4C4261B3604C1373 DUP2 PUSH1 0x1 PUSH1 0x40 MLOAD PUSH2 0x16CC SWAP3 SWAP2 SWAP1 PUSH2 0x3FB6 JUMP JUMPDEST PUSH1 0x40 MLOAD DUP1 SWAP2 SUB SWAP1 LOG1 POP JUMP JUMPDEST PUSH2 0x16DF PUSH2 0x2925 JUMP JUMPDEST PUSH20 0xFFFFFFFFFFFFFFFFFFFFFFFFFFFFFFFFFFFFFFFF AND PUSH2 0x16FD PUSH2 0x1915 JUMP JUMPDEST PUSH20 0xFFFFFFFFFFFFFFFFFFFFFFFFFFFFFFFFFFFFFFFF AND EQ PUSH2 0x1753 JUMPI PUSH1 0x40 MLOAD PUSH32 0x8C379A000000000000000000000000000000000000000000000000000000000 DUP2 MSTORE PUSH1 0x4 ADD PUSH2 0x174A SWAP1 PUSH2 0x410E JUMP JUMPDEST PUSH1 0x40 MLOAD DUP1 SWAP2 SUB SWAP1 REVERT JUMPDEST PUSH2 0x175D PUSH1 0x0 PUSH2 0x292D JUMP JUMPDEST JUMP JUMPDEST PUSH1 0x0 PUSH1 0xFC PUSH1 0x0 SWAP1 SLOAD SWAP1 PUSH2 0x100 EXP SWAP1 DIV PUSH20 0xFFFFFFFFFFFFFFFFFFFFFFFFFFFFFFFFFFFFFFFF AND SWAP1 POP SWAP1 JUMP JUMPDEST PUSH1 0x0 DUP7 DUP7 DUP7 DUP7 DUP7 DUP7 PUSH1 0x40 MLOAD PUSH1 0x20 ADD PUSH2 0x17A6 SWAP7 SWAP6 SWAP5 SWAP4 SWAP3 SWAP2 SWAP1 PUSH2 0x3C04 JUMP JUMPDEST PUSH1 0x40 MLOAD PUSH1 0x20 DUP2 DUP4 SUB SUB DUP2 MSTORE SWAP1 PUSH1 0x40 MSTORE DUP1 MLOAD SWAP1 PUSH1 0x20 ADD KECCAK256 SWAP1 POP SWAP7 SWAP6 POP POP POP POP POP POP JUMP JUMPDEST PUSH1 0x0 PUSH2 0x17D4 PUSH1 0x1 PUSH2 0x29F3 JUMP JUMPDEST SWAP1 POP DUP1 ISZERO PUSH2 0x17F8 JUMPI PUSH1 0x1 PUSH1 0x0 PUSH1 0x1 PUSH2 0x100 EXP DUP2 SLOAD DUP2 PUSH1 0xFF MUL NOT AND SWAP1 DUP4 ISZERO ISZERO MUL OR SWAP1 SSTORE POP JUMPDEST PUSH2 0x1800 PUSH2 0x2AE3 JUMP JUMPDEST PUSH1 0x1 PUSH1 0xFF PUSH1 0x0 CALLER PUSH20 0xFFFFFFFFFFFFFFFFFFFFFFFFFFFFFFFFFFFFFFFF AND PUSH20 0xFFFFFFFFFFFFFFFFFFFFFFFFFFFFFFFFFFFFFFFF AND DUP2 MSTORE PUSH1 0x20 ADD SWAP1 DUP2 MSTORE PUSH1 0x20 ADD PUSH1 0x0 KECCAK256 PUSH1 0x0 PUSH2 0x100 EXP DUP2 SLOAD DUP2 PUSH1 0xFF MUL NOT AND SWAP1 DUP4 ISZERO ISZERO MUL OR SWAP1 SSTORE POP CALLER PUSH1 0xFC PUSH1 0x0 PUSH2 0x100 EXP DUP2 SLOAD DUP2 PUSH20 0xFFFFFFFFFFFFFFFFFFFFFFFFFFFFFFFFFFFFFFFF MUL NOT AND SWAP1 DUP4 PUSH20 0xFFFFFFFFFFFFFFFFFFFFFFFFFFFFFFFFFFFFFFFF AND MUL OR SWAP1 SSTORE POP DUP1 ISZERO PUSH2 0x18F2 JUMPI PUSH1 0x0 DUP1 PUSH1 0x1 PUSH2 0x100 EXP DUP2 SLOAD DUP2 PUSH1 0xFF MUL NOT AND SWAP1 DUP4 ISZERO ISZERO MUL OR SWAP1 SSTORE POP PUSH32 0x7F26B83FF96E1F2B6A682F133852F6798A09C465DA95921460CEFB3847402498 PUSH1 0x1 PUSH1 0x40 MLOAD PUSH2 0x18E9 SWAP2 SWAP1 PUSH2 0x3E8A JUMP JUMPDEST PUSH1 0x40 MLOAD DUP1 SWAP2 SUB SWAP1 LOG1 JUMPDEST POP JUMP JUMPDEST PUSH1 0xFD PUSH1 0x20 MSTORE DUP1 PUSH1 0x0 MSTORE PUSH1 0x40 PUSH1 0x0 KECCAK256 PUSH1 0x0 SWAP2 POP SLOAD SWAP1 PUSH2 0x100 EXP SWAP1 DIV PUSH1 0xFF AND DUP2 JUMP JUMPDEST PUSH1 0x0 PUSH1 0x97 PUSH1 0x0 SWAP1 SLOAD SWAP1 PUSH2 0x100 EXP SWAP1 DIV PUSH20 0xFFFFFFFFFFFFFFFFFFFFFFFFFFFFFFFFFFFFFFFF AND SWAP1 POP SWAP1 JUMP JUMPDEST PUSH1 0x0 DUP1 PUSH1 0x0 DUP1 PUSH1 0x41 DUP6 MLOAD EQ PUSH2 0x195A JUMPI PUSH1 0x0 SWAP4 POP POP POP POP PUSH2 0x1A0C JUMP JUMPDEST PUSH1 0x20 DUP6 ADD MLOAD SWAP3 POP PUSH1 0x40 DUP6 ADD MLOAD SWAP2 POP PUSH1 0x60 DUP6 ADD MLOAD PUSH1 0x0 BYTE SWAP1 POP PUSH1 0x1B DUP2 PUSH1 0xFF AND LT ISZERO PUSH2 0x198E JUMPI PUSH1 0x1B DUP2 PUSH2 0x198B SWAP2 SWAP1 PUSH2 0x443F JUMP JUMPDEST SWAP1 POP JUMPDEST PUSH1 0x1B DUP2 PUSH1 0xFF AND EQ ISZERO DUP1 ISZERO PUSH2 0x19A6 JUMPI POP PUSH1 0x1C DUP2 PUSH1 0xFF AND EQ ISZERO JUMPDEST ISZERO PUSH2 0x19B7 JUMPI PUSH1 0x0 SWAP4 POP POP POP POP PUSH2 0x1A0C JUMP JUMPDEST PUSH1 0x1 DUP7 DUP3 DUP6 DUP6 PUSH1 0x40 MLOAD PUSH1 0x0 DUP2 MSTORE PUSH1 0x20 ADD PUSH1 0x40 MSTORE PUSH1 0x40 MLOAD PUSH2 0x19DA SWAP5 SWAP4 SWAP3 SWAP2 SWAP1 PUSH2 0x3E45 JUMP JUMPDEST PUSH1 0x20 PUSH1 0x40 MLOAD PUSH1 0x20 DUP2 SUB SWAP1 DUP1 DUP5 SUB SWAP1 DUP6 GAS STATICCALL ISZERO DUP1 ISZERO PUSH2 0x19FC JUMPI RETURNDATASIZE PUSH1 0x0 DUP1 RETURNDATACOPY RETURNDATASIZE PUSH1 0x0 REVERT JUMPDEST POP POP POP PUSH1 0x20 PUSH1 0x40 MLOAD SUB MLOAD SWAP4 POP POP POP POP JUMPDEST SWAP3 SWAP2 POP POP JUMP JUMPDEST PUSH1 0x1 ISZERO ISZERO PUSH1 0xFF PUSH1 0x0 CALLER PUSH20 0xFFFFFFFFFFFFFFFFFFFFFFFFFFFFFFFFFFFFFFFF AND PUSH20 0xFFFFFFFFFFFFFFFFFFFFFFFFFFFFFFFFFFFFFFFF AND DUP2 MSTORE PUSH1 0x20 ADD SWAP1 DUP2 MSTORE PUSH1 0x20 ADD PUSH1 0x0 KECCAK256 PUSH1 0x0 SWAP1 SLOAD SWAP1 PUSH2 0x100 EXP SWAP1 DIV PUSH1 0xFF AND ISZERO ISZERO EQ PUSH2 0x1AA5 JUMPI PUSH1 0x40 MLOAD PUSH32 0x8C379A000000000000000000000000000000000000000000000000000000000 DUP2 MSTORE PUSH1 0x4 ADD PUSH2 0x1A9C SWAP1 PUSH2 0x41CE JUMP JUMPDEST PUSH1 0x40 MLOAD DUP1 SWAP2 SUB SWAP1 REVERT JUMPDEST DUP1 PUSH2 0x102 PUSH1 0x0 DUP5 PUSH20 0xFFFFFFFFFFFFFFFFFFFFFFFFFFFFFFFFFFFFFFFF AND PUSH20 0xFFFFFFFFFFFFFFFFFFFFFFFFFFFFFFFFFFFFFFFF AND DUP2 MSTORE PUSH1 0x20 ADD SWAP1 DUP2 MSTORE PUSH1 0x20 ADD PUSH1 0x0 KECCAK256 DUP2 SWAP1 SSTORE POP PUSH32 0x6E21DA456D7A73E8A2179F893CC544B7B11D2CFE97400954CACBDC7A96F267E5 CALLER DUP4 DUP4 PUSH1 0x40 MLOAD PUSH2 0x1B1D SWAP4 SWAP3 SWAP2 SWAP1 PUSH2 0x3CD2 JUMP JUMPDEST PUSH1 0x40 MLOAD DUP1 SWAP2 SUB SWAP1 LOG1 POP POP JUMP JUMPDEST PUSH2 0x1B31 PUSH2 0x2925 JUMP JUMPDEST PUSH20 0xFFFFFFFFFFFFFFFFFFFFFFFFFFFFFFFFFFFFFFFF AND PUSH2 0x1B4F PUSH2 0x1915 JUMP JUMPDEST PUSH20 0xFFFFFFFFFFFFFFFFFFFFFFFFFFFFFFFFFFFFFFFF AND EQ PUSH2 0x1BA5 JUMPI PUSH1 0x40 MLOAD PUSH32 0x8C379A000000000000000000000000000000000000000000000000000000000 DUP2 MSTORE PUSH1 0x4 ADD PUSH2 0x1B9C SWAP1 PUSH2 0x410E JUMP JUMPDEST PUSH1 0x40 MLOAD DUP1 SWAP2 SUB SWAP1 REVERT JUMPDEST DUP1 PUSH2 0x103 PUSH1 0x0 PUSH2 0x100 EXP DUP2 SLOAD DUP2 PUSH1 0xFF MUL NOT AND SWAP1 DUP4 ISZERO ISZERO MUL OR SWAP1 SSTORE POP PUSH32 0x36E736B0A0C9977C2788E71EB3FB657ED2EEA0DB97DF25E206A8ADD580FAB497 CALLER DUP3 PUSH1 0x40 MLOAD PUSH2 0x1BF1 SWAP3 SWAP2 SWAP1 PUSH2 0x3D09 JUMP JUMPDEST PUSH1 0x40 MLOAD DUP1 SWAP2 SUB SWAP1 LOG1 POP JUMP JUMPDEST PUSH1 0x0 ISZERO ISZERO PUSH2 0x103 PUSH1 0x0 SWAP1 SLOAD SWAP1 PUSH2 0x100 EXP SWAP1 DIV PUSH1 0xFF AND ISZERO ISZERO EQ PUSH2 0x1C53 JUMPI PUSH1 0x40 MLOAD PUSH32 0x8C379A000000000000000000000000000000000000000000000000000000000 DUP2 MSTORE PUSH1 0x4 ADD PUSH2 0x1C4A SWAP1 PUSH2 0x412E JUMP JUMPDEST PUSH1 0x40 MLOAD DUP1 SWAP2 SUB SWAP1 REVERT JUMPDEST PUSH1 0x1 ISZERO ISZERO PUSH2 0x1C60 DUP7 PUSH2 0x8A4 JUMP JUMPDEST ISZERO ISZERO EQ ISZERO PUSH2 0x1CA3 JUMPI PUSH1 0x40 MLOAD PUSH32 0x8C379A000000000000000000000000000000000000000000000000000000000 DUP2 MSTORE PUSH1 0x4 ADD PUSH2 0x1C9A SWAP1 PUSH2 0x40AE JUMP JUMPDEST PUSH1 0x40 MLOAD DUP1 SWAP2 SUB SWAP1 REVERT JUMPDEST PUSH2 0x1CAE DUP5 DUP5 DUP4 PUSH2 0x2701 JUMP JUMPDEST DUP1 DUP5 PUSH20 0xFFFFFFFFFFFFFFFFFFFFFFFFFFFFFFFFFFFFFFFF AND PUSH4 0xDD62ED3E CALLER ADDRESS PUSH1 0x40 MLOAD DUP4 PUSH4 0xFFFFFFFF AND PUSH1 0xE0 SHL DUP2 MSTORE PUSH1 0x4 ADD PUSH2 0x1CEA SWAP3 SWAP2 SWAP1 PUSH2 0x3CA9 JUMP JUMPDEST PUSH1 0x20 PUSH1 0x40 MLOAD DUP1 DUP4 SUB DUP2 DUP7 DUP1 EXTCODESIZE ISZERO DUP1 ISZERO PUSH2 0x1D02 JUMPI PUSH1 0x0 DUP1 REVERT JUMPDEST POP GAS STATICCALL ISZERO DUP1 ISZERO PUSH2 0x1D16 JUMPI RETURNDATASIZE PUSH1 0x0 DUP1 RETURNDATACOPY RETURNDATASIZE PUSH1 0x0 REVERT JUMPDEST POP POP POP POP PUSH1 0x40 MLOAD RETURNDATASIZE PUSH1 0x1F NOT PUSH1 0x1F DUP3 ADD AND DUP3 ADD DUP1 PUSH1 0x40 MSTORE POP DUP2 ADD SWAP1 PUSH2 0x1D3A SWAP2 SWAP1 PUSH2 0x35DD JUMP JUMPDEST LT ISZERO PUSH2 0x1D7B JUMPI PUSH1 0x40 MLOAD PUSH32 0x8C379A000000000000000000000000000000000000000000000000000000000 DUP2 MSTORE PUSH1 0x4 ADD PUSH2 0x1D72 SWAP1 PUSH2 0x4012 JUMP JUMPDEST PUSH1 0x40 MLOAD DUP1 SWAP2 SUB SWAP1 REVERT JUMPDEST DUP4 PUSH20 0xFFFFFFFFFFFFFFFFFFFFFFFFFFFFFFFFFFFFFFFF AND PUSH4 0x79CC6790 CALLER DUP4 PUSH1 0x40 MLOAD DUP4 PUSH4 0xFFFFFFFF AND PUSH1 0xE0 SHL DUP2 MSTORE PUSH1 0x4 ADD PUSH2 0x1DB6 SWAP3 SWAP2 SWAP1 PUSH2 0x3DB6 JUMP JUMPDEST PUSH1 0x0 PUSH1 0x40 MLOAD DUP1 DUP4 SUB DUP2 PUSH1 0x0 DUP8 DUP1 EXTCODESIZE ISZERO DUP1 ISZERO PUSH2 0x1DD0 JUMPI PUSH1 0x0 DUP1 REVERT JUMPDEST POP GAS CALL ISZERO DUP1 ISZERO PUSH2 0x1DE4 JUMPI RETURNDATASIZE PUSH1 0x0 DUP1 RETURNDATACOPY RETURNDATASIZE PUSH1 0x0 REVERT JUMPDEST POP POP POP POP PUSH1 0x0 PUSH1 0x40 MLOAD DUP1 PUSH1 0xE0 ADD PUSH1 0x40 MSTORE DUP1 DUP7 PUSH20 0xFFFFFFFFFFFFFFFFFFFFFFFFFFFFFFFFFFFFFFFF AND DUP2 MSTORE PUSH1 0x20 ADD DUP6 DUP2 MSTORE PUSH1 0x20 ADD CALLER PUSH20 0xFFFFFFFFFFFFFFFFFFFFFFFFFFFFFFFFFFFFFFFF AND DUP2 MSTORE PUSH1 0x20 ADD DUP5 DUP2 MSTORE PUSH1 0x20 ADD PUSH1 0x0 PUSH20 0xFFFFFFFFFFFFFFFFFFFFFFFFFFFFFFFFFFFFFFFF AND DUP2 MSTORE PUSH1 0x20 ADD DUP4 DUP2 MSTORE PUSH1 0x20 ADD PUSH1 0x40 MLOAD DUP1 PUSH1 0x40 ADD PUSH1 0x40 MSTORE DUP1 PUSH1 0x4 DUP2 MSTORE PUSH1 0x20 ADD PUSH32 0x6275726E00000000000000000000000000000000000000000000000000000000 DUP2 MSTORE POP DUP2 MSTORE POP SWAP1 POP DUP1 PUSH1 0xFB DUP8 PUSH1 0x40 MLOAD PUSH2 0x1EA8 SWAP2 SWAP1 PUSH2 0x3BED JUMP JUMPDEST SWAP1 DUP2 MSTORE PUSH1 0x20 ADD PUSH1 0x40 MLOAD DUP1 SWAP2 SUB SWAP1 KECCAK256 PUSH1 0x0 DUP3 ADD MLOAD DUP2 PUSH1 0x0 ADD PUSH1 0x0 PUSH2 0x100 EXP DUP2 SLOAD DUP2 PUSH20 0xFFFFFFFFFFFFFFFFFFFFFFFFFFFFFFFFFFFFFFFF MUL NOT AND SWAP1 DUP4 PUSH20 0xFFFFFFFFFFFFFFFFFFFFFFFFFFFFFFFFFFFFFFFF AND MUL OR SWAP1 SSTORE POP PUSH1 0x20 DUP3 ADD MLOAD DUP2 PUSH1 0x1 ADD SWAP1 DUP1 MLOAD SWAP1 PUSH1 0x20 ADD SWAP1 PUSH2 0x1F19 SWAP3 SWAP2 SWAP1 PUSH2 0x2E53 JUMP JUMPDEST POP PUSH1 0x40 DUP3 ADD MLOAD DUP2 PUSH1 0x2 ADD PUSH1 0x0 PUSH2 0x100 EXP DUP2 SLOAD DUP2 PUSH20 0xFFFFFFFFFFFFFFFFFFFFFFFFFFFFFFFFFFFFFFFF MUL NOT AND SWAP1 DUP4 PUSH20 0xFFFFFFFFFFFFFFFFFFFFFFFFFFFFFFFFFFFFFFFF AND MUL OR SWAP1 SSTORE POP PUSH1 0x60 DUP3 ADD MLOAD DUP2 PUSH1 0x3 ADD SWAP1 DUP1 MLOAD SWAP1 PUSH1 0x20 ADD SWAP1 PUSH2 0x1F7D SWAP3 SWAP2 SWAP1 PUSH2 0x2E53 JUMP JUMPDEST POP PUSH1 0x80 DUP3 ADD MLOAD DUP2 PUSH1 0x4 ADD PUSH1 0x0 PUSH2 0x100 EXP DUP2 SLOAD DUP2 PUSH20 0xFFFFFFFFFFFFFFFFFFFFFFFFFFFFFFFFFFFFFFFF MUL NOT AND SWAP1 DUP4 PUSH20 0xFFFFFFFFFFFFFFFFFFFFFFFFFFFFFFFFFFFFFFFF AND MUL OR SWAP1 SSTORE POP PUSH1 0xA0 DUP3 ADD MLOAD DUP2 PUSH1 0x5 ADD SSTORE PUSH1 0xC0 DUP3 ADD MLOAD DUP2 PUSH1 0x6 ADD SWAP1 DUP1 MLOAD SWAP1 PUSH1 0x20 ADD SWAP1 PUSH2 0x1FEB SWAP3 SWAP2 SWAP1 PUSH2 0x2E53 JUMP JUMPDEST POP SWAP1 POP POP CALLER PUSH20 0xFFFFFFFFFFFFFFFFFFFFFFFFFFFFFFFFFFFFFFFF AND DUP6 PUSH20 0xFFFFFFFFFFFFFFFFFFFFFFFFFFFFFFFFFFFFFFFF AND PUSH32 0xAD71AA4C2C93767A2DF6F50AA44C85590C8822F1B02C7AB9C534CF4DAAD7AB74 DUP9 DUP8 DUP8 DUP8 PUSH1 0x40 MLOAD DUP1 PUSH1 0x40 ADD PUSH1 0x40 MSTORE DUP1 PUSH1 0x4 DUP2 MSTORE PUSH1 0x20 ADD PUSH32 0x6275726E00000000000000000000000000000000000000000000000000000000 DUP2 MSTORE POP PUSH1 0x40 MLOAD PUSH2 0x2089 SWAP6 SWAP5 SWAP4 SWAP3 SWAP2 SWAP1 PUSH2 0x3EC7 JUMP JUMPDEST PUSH1 0x40 MLOAD DUP1 SWAP2 SUB SWAP1 LOG3 POP POP POP POP POP POP JUMP JUMPDEST PUSH1 0x1 ISZERO ISZERO PUSH1 0xFF PUSH1 0x0 CALLER PUSH20 0xFFFFFFFFFFFFFFFFFFFFFFFFFFFFFFFFFFFFFFFF AND PUSH20 0xFFFFFFFFFFFFFFFFFFFFFFFFFFFFFFFFFFFFFFFF AND DUP2 MSTORE PUSH1 0x20 ADD SWAP1 DUP2 MSTORE PUSH1 0x20 ADD PUSH1 0x0 KECCAK256 PUSH1 0x0 SWAP1 SLOAD SWAP1 PUSH2 0x100 EXP SWAP1 DIV PUSH1 0xFF AND ISZERO ISZERO EQ PUSH2 0x212C JUMPI PUSH1 0x40 MLOAD PUSH32 0x8C379A000000000000000000000000000000000000000000000000000000000 DUP2 MSTORE PUSH1 0x4 ADD PUSH2 0x2123 SWAP1 PUSH2 0x41CE JUMP JUMPDEST PUSH1 0x40 MLOAD DUP1 SWAP2 SUB SWAP1 REVERT JUMPDEST DUP1 PUSH1 0xFD PUSH1 0x0 DUP5 PUSH20 0xFFFFFFFFFFFFFFFFFFFFFFFFFFFFFFFFFFFFFFFF AND PUSH20 0xFFFFFFFFFFFFFFFFFFFFFFFFFFFFFFFFFFFFFFFF AND DUP2 MSTORE PUSH1 0x20 ADD SWAP1 DUP2 MSTORE PUSH1 0x20 ADD PUSH1 0x0 KECCAK256 PUSH1 0x0 PUSH2 0x100 EXP DUP2 SLOAD DUP2 PUSH1 0xFF MUL NOT AND SWAP1 DUP4 ISZERO ISZERO MUL OR SWAP1 SSTORE POP POP POP JUMP JUMPDEST PUSH1 0x1 ISZERO ISZERO PUSH1 0xFF PUSH1 0x0 CALLER PUSH20 0xFFFFFFFFFFFFFFFFFFFFFFFFFFFFFFFFFFFFFFFF AND PUSH20 0xFFFFFFFFFFFFFFFFFFFFFFFFFFFFFFFFFFFFFFFF AND DUP2 MSTORE PUSH1 0x20 ADD SWAP1 DUP2 MSTORE PUSH1 0x20 ADD PUSH1 0x0 KECCAK256 PUSH1 0x0 SWAP1 SLOAD SWAP1 PUSH2 0x100 EXP SWAP1 DIV PUSH1 0xFF AND ISZERO ISZERO EQ PUSH2 0x221A JUMPI PUSH1 0x40 MLOAD PUSH32 0x8C379A000000000000000000000000000000000000000000000000000000000 DUP2 MSTORE PUSH1 0x4 ADD PUSH2 0x2211 SWAP1 PUSH2 0x41CE JUMP JUMPDEST PUSH1 0x40 MLOAD DUP1 SWAP2 SUB SWAP1 REVERT JUMPDEST DUP1 PUSH1 0xFE DUP4 PUSH1 0x40 MLOAD PUSH2 0x222B SWAP2 SWAP1 PUSH2 0x3BED JUMP JUMPDEST SWAP1 DUP2 MSTORE PUSH1 0x20 ADD PUSH1 0x40 MLOAD DUP1 SWAP2 SUB SWAP1 KECCAK256 PUSH1 0x0 PUSH2 0x100 EXP DUP2 SLOAD DUP2 PUSH1 0xFF MUL NOT AND SWAP1 DUP4 ISZERO ISZERO MUL OR SWAP1 SSTORE POP POP POP JUMP JUMPDEST PUSH2 0x225C PUSH2 0x2925 JUMP JUMPDEST PUSH20 0xFFFFFFFFFFFFFFFFFFFFFFFFFFFFFFFFFFFFFFFF AND PUSH2 0x227A PUSH2 0x1915 JUMP JUMPDEST PUSH20 0xFFFFFFFFFFFFFFFFFFFFFFFFFFFFFFFFFFFFFFFF AND EQ PUSH2 0x22D0 JUMPI PUSH1 0x40 MLOAD PUSH32 0x8C379A000000000000000000000000000000000000000000000000000000000 DUP2 MSTORE PUSH1 0x4 ADD PUSH2 0x22C7 SWAP1 PUSH2 0x410E JUMP JUMPDEST PUSH1 0x40 MLOAD DUP1 SWAP2 SUB SWAP1 REVERT JUMPDEST DUP1 PUSH2 0x100 PUSH1 0x0 DUP5 PUSH20 0xFFFFFFFFFFFFFFFFFFFFFFFFFFFFFFFFFFFFFFFF AND PUSH20 0xFFFFFFFFFFFFFFFFFFFFFFFFFFFFFFFFFFFFFFFF AND DUP2 MSTORE PUSH1 0x20 ADD SWAP1 DUP2 MSTORE PUSH1 0x20 ADD PUSH1 0x0 KECCAK256 PUSH1 0x0 PUSH2 0x100 EXP DUP2 SLOAD DUP2 PUSH1 0xFF MUL NOT AND SWAP1 DUP4 ISZERO ISZERO MUL OR SWAP1 SSTORE POP PUSH32 0x2CFB57781D9C154E822FF0DA753BE77D4AA8C03BEC8436DE4C4261B3604C1373 DUP3 PUSH1 0x1 PUSH1 0x40 MLOAD PUSH2 0x235A SWAP3 SWAP2 SWAP1 PUSH2 0x4072 JUMP JUMPDEST PUSH1 0x40 MLOAD DUP1 SWAP2 SUB SWAP1 LOG1 POP POP JUMP JUMPDEST PUSH1 0xFF PUSH1 0x20 MSTORE DUP1 PUSH1 0x0 MSTORE PUSH1 0x40 PUSH1 0x0 KECCAK256 PUSH1 0x0 SWAP2 POP SLOAD SWAP1 PUSH2 0x100 EXP SWAP1 DIV PUSH1 0xFF AND DUP2 JUMP JUMPDEST PUSH2 0x238E PUSH2 0x2925 JUMP JUMPDEST PUSH20 0xFFFFFFFFFFFFFFFFFFFFFFFFFFFFFFFFFFFFFFFF AND PUSH2 0x23AC PUSH2 0x1915 JUMP JUMPDEST PUSH20 0xFFFFFFFFFFFFFFFFFFFFFFFFFFFFFFFFFFFFFFFF AND EQ PUSH2 0x2402 JUMPI PUSH1 0x40 MLOAD PUSH32 0x8C379A000000000000000000000000000000000000000000000000000000000 DUP2 MSTORE PUSH1 0x4 ADD PUSH2 0x23F9 SWAP1 PUSH2 0x410E JUMP JUMPDEST PUSH1 0x40 MLOAD DUP1 SWAP2 SUB SWAP1 REVERT JUMPDEST PUSH1 0x0 PUSH20 0xFFFFFFFFFFFFFFFFFFFFFFFFFFFFFFFFFFFFFFFF AND DUP2 PUSH20 0xFFFFFFFFFFFFFFFFFFFFFFFFFFFFFFFFFFFFFFFF AND EQ ISZERO PUSH2 0x2472 JUMPI PUSH1 0x40 MLOAD PUSH32 0x8C379A000000000000000000000000000000000000000000000000000000000 DUP2 MSTORE PUSH1 0x4 ADD PUSH2 0x2469 SWAP1 PUSH2 0x3F36 JUMP JUMPDEST PUSH1 0x40 MLOAD DUP1 SWAP2 SUB SWAP1 REVERT JUMPDEST PUSH2 0x247B DUP2 PUSH2 0x292D JUMP JUMPDEST POP JUMP JUMPDEST PUSH1 0x0 DUP2 PUSH1 0x40 MLOAD PUSH1 0x20 ADD PUSH2 0x2491 SWAP2 SWAP1 PUSH2 0x3C68 JUMP JUMPDEST PUSH1 0x40 MLOAD PUSH1 0x20 DUP2 DUP4 SUB SUB DUP2 MSTORE SWAP1 PUSH1 0x40 MSTORE DUP1 MLOAD SWAP1 PUSH1 0x20 ADD KECCAK256 SWAP1 POP SWAP2 SWAP1 POP JUMP JUMPDEST PUSH1 0x0 PUSH2 0x24DC PUSH32 0x360894A13BA1A3210667C828492DB98DCA3E2076CC3735A920A3CA505D382BBC PUSH1 0x0 SHL PUSH2 0x2B3C JUMP JUMPDEST PUSH1 0x0 ADD PUSH1 0x0 SWAP1 SLOAD SWAP1 PUSH2 0x100 EXP SWAP1 DIV PUSH20 0xFFFFFFFFFFFFFFFFFFFFFFFFFFFFFFFFFFFFFFFF AND SWAP1 POP SWAP1 JUMP JUMPDEST PUSH2 0x250D PUSH2 0x2925 JUMP JUMPDEST PUSH20 0xFFFFFFFFFFFFFFFFFFFFFFFFFFFFFFFFFFFFFFFF AND PUSH2 0x252B PUSH2 0x1915 JUMP JUMPDEST PUSH20 0xFFFFFFFFFFFFFFFFFFFFFFFFFFFFFFFFFFFFFFFF AND EQ PUSH2 0x2581 JUMPI PUSH1 0x40 MLOAD PUSH32 0x8C379A000000000000000000000000000000000000000000000000000000000 DUP2 MSTORE PUSH1 0x4 ADD PUSH2 0x2578 SWAP1 PUSH2 0x410E JUMP JUMPDEST PUSH1 0x40 MLOAD DUP1 SWAP2 SUB SWAP1 REVERT JUMPDEST POP JUMP JUMPDEST PUSH2 0x25B0 PUSH32 0x4910FDFA16FED3260ED0E7147F7CC6DA11A60208B5B9406D12A635614FFD9143 PUSH1 0x0 SHL PUSH2 0x2B46 JUMP JUMPDEST PUSH1 0x0 ADD PUSH1 0x0 SWAP1 SLOAD SWAP1 PUSH2 0x100 EXP SWAP1 DIV PUSH1 0xFF AND ISZERO PUSH2 0x25D4 JUMPI PUSH2 0x25CF DUP4 PUSH2 0x2B50 JUMP JUMPDEST PUSH2 0x26FC JUMP JUMPDEST DUP3 PUSH20 0xFFFFFFFFFFFFFFFFFFFFFFFFFFFFFFFFFFFFFFFF AND PUSH4 0x52D1902D PUSH1 0x40 MLOAD DUP2 PUSH4 0xFFFFFFFF AND PUSH1 0xE0 SHL DUP2 MSTORE PUSH1 0x4 ADD PUSH1 0x20 PUSH1 0x40 MLOAD DUP1 DUP4 SUB DUP2 DUP7 DUP1 EXTCODESIZE ISZERO DUP1 ISZERO PUSH2 0x261A JUMPI PUSH1 0x0 DUP1 REVERT JUMPDEST POP GAS STATICCALL SWAP3 POP POP POP DUP1 ISZERO PUSH2 0x264B JUMPI POP PUSH1 0x40 MLOAD RETURNDATASIZE PUSH1 0x1F NOT PUSH1 0x1F DUP3 ADD AND DUP3 ADD DUP1 PUSH1 0x40 MSTORE POP DUP2 ADD SWAP1 PUSH2 0x2648 SWAP2 SWAP1 PUSH2 0x323D JUMP JUMPDEST PUSH1 0x1 JUMPDEST PUSH2 0x268A JUMPI PUSH1 0x40 MLOAD PUSH32 0x8C379A000000000000000000000000000000000000000000000000000000000 DUP2 MSTORE PUSH1 0x4 ADD PUSH2 0x2681 SWAP1 PUSH2 0x40CE JUMP JUMPDEST PUSH1 0x40 MLOAD DUP1 SWAP2 SUB SWAP1 REVERT JUMPDEST PUSH32 0x360894A13BA1A3210667C828492DB98DCA3E2076CC3735A920A3CA505D382BBC PUSH1 0x0 SHL DUP2 EQ PUSH2 0x26EF JUMPI PUSH1 0x40 MLOAD PUSH32 0x8C379A000000000000000000000000000000000000000000000000000000000 DUP2 MSTORE PUSH1 0x4 ADD PUSH2 0x26E6 SWAP1 PUSH2 0x4032 JUMP JUMPDEST PUSH1 0x40 MLOAD DUP1 SWAP2 SUB SWAP1 REVERT JUMPDEST POP PUSH2 0x26FB DUP4 DUP4 DUP4 PUSH2 0x2C09 JUMP JUMPDEST JUMPDEST POP POP POP JUMP JUMPDEST PUSH1 0x0 DUP2 LT ISZERO PUSH2 0x2745 JUMPI PUSH1 0x40 MLOAD PUSH32 0x8C379A000000000000000000000000000000000000000000000000000000000 DUP2 MSTORE PUSH1 0x4 ADD PUSH2 0x273C SWAP1 PUSH2 0x428A JUMP JUMPDEST PUSH1 0x40 MLOAD DUP1 SWAP2 SUB SWAP1 REVERT JUMPDEST PUSH1 0x1 ISZERO ISZERO PUSH1 0xFD PUSH1 0x0 DUP6 PUSH20 0xFFFFFFFFFFFFFFFFFFFFFFFFFFFFFFFFFFFFFFFF AND PUSH20 0xFFFFFFFFFFFFFFFFFFFFFFFFFFFFFFFFFFFFFFFF AND DUP2 MSTORE PUSH1 0x20 ADD SWAP1 DUP2 MSTORE PUSH1 0x20 ADD PUSH1 0x0 KECCAK256 PUSH1 0x0 SWAP1 SLOAD SWAP1 PUSH2 0x100 EXP SWAP1 DIV PUSH1 0xFF AND ISZERO ISZERO EQ PUSH2 0x27D8 JUMPI PUSH1 0x40 MLOAD PUSH32 0x8C379A000000000000000000000000000000000000000000000000000000000 DUP2 MSTORE PUSH1 0x4 ADD PUSH2 0x27CF SWAP1 PUSH2 0x3F96 JUMP JUMPDEST PUSH1 0x40 MLOAD DUP1 SWAP2 SUB SWAP1 REVERT JUMPDEST PUSH1 0x1 ISZERO ISZERO PUSH1 0xFE DUP4 PUSH1 0x40 MLOAD PUSH2 0x27EC SWAP2 SWAP1 PUSH2 0x3BED JUMP JUMPDEST SWAP1 DUP2 MSTORE PUSH1 0x20 ADD PUSH1 0x40 MLOAD DUP1 SWAP2 SUB SWAP1 KECCAK256 PUSH1 0x0 SWAP1 SLOAD SWAP1 PUSH2 0x100 EXP SWAP1 DIV PUSH1 0xFF AND ISZERO ISZERO EQ PUSH2 0x284A JUMPI PUSH1 0x40 MLOAD PUSH32 0x8C379A000000000000000000000000000000000000000000000000000000000 DUP2 MSTORE PUSH1 0x4 ADD PUSH2 0x2841 SWAP1 PUSH2 0x416E JUMP JUMPDEST PUSH1 0x40 MLOAD DUP1 SWAP2 SUB SWAP1 REVERT JUMPDEST POP POP POP JUMP JUMPDEST PUSH1 0x0 PUSH2 0x102 PUSH1 0x0 DUP5 PUSH20 0xFFFFFFFFFFFFFFFFFFFFFFFFFFFFFFFFFFFFFFFF AND PUSH20 0xFFFFFFFFFFFFFFFFFFFFFFFFFFFFFFFFFFFFFFFF AND DUP2 MSTORE PUSH1 0x20 ADD SWAP1 DUP2 MSTORE PUSH1 0x20 ADD PUSH1 0x0 KECCAK256 SLOAD DUP3 GT ISZERO DUP1 PUSH2 0x28E0 JUMPI POP PUSH1 0x0 PUSH2 0x102 PUSH1 0x0 DUP6 PUSH20 0xFFFFFFFFFFFFFFFFFFFFFFFFFFFFFFFFFFFFFFFF AND PUSH20 0xFFFFFFFFFFFFFFFFFFFFFFFFFFFFFFFFFFFFFFFF AND DUP2 MSTORE PUSH1 0x20 ADD SWAP1 DUP2 MSTORE PUSH1 0x20 ADD PUSH1 0x0 KECCAK256 SLOAD EQ JUMPDEST ISZERO PUSH2 0x28EE JUMPI PUSH1 0x1 SWAP1 POP PUSH2 0x291E JUMP JUMPDEST PUSH2 0x101 DUP5 PUSH1 0x40 MLOAD PUSH2 0x28FF SWAP2 SWAP1 PUSH2 0x3BED JUMP JUMPDEST SWAP1 DUP2 MSTORE PUSH1 0x20 ADD PUSH1 0x40 MLOAD DUP1 SWAP2 SUB SWAP1 KECCAK256 PUSH1 0x0 SWAP1 SLOAD SWAP1 PUSH2 0x100 EXP SWAP1 DIV PUSH1 0xFF AND SWAP1 POP JUMPDEST SWAP4 SWAP3 POP POP POP JUMP JUMPDEST PUSH1 0x0 CALLER SWAP1 POP SWAP1 JUMP JUMPDEST PUSH1 0x0 PUSH1 0x97 PUSH1 0x0 SWAP1 SLOAD SWAP1 PUSH2 0x100 EXP SWAP1 DIV PUSH20 0xFFFFFFFFFFFFFFFFFFFFFFFFFFFFFFFFFFFFFFFF AND SWAP1 POP DUP2 PUSH1 0x97 PUSH1 0x0 PUSH2 0x100 EXP DUP2 SLOAD DUP2 PUSH20 0xFFFFFFFFFFFFFFFFFFFFFFFFFFFFFFFFFFFFFFFF MUL NOT AND SWAP1 DUP4 PUSH20 0xFFFFFFFFFFFFFFFFFFFFFFFFFFFFFFFFFFFFFFFF AND MUL OR SWAP1 SSTORE POP DUP2 PUSH20 0xFFFFFFFFFFFFFFFFFFFFFFFFFFFFFFFFFFFFFFFF AND DUP2 PUSH20 0xFFFFFFFFFFFFFFFFFFFFFFFFFFFFFFFFFFFFFFFF AND PUSH32 0x8BE0079C531659141344CD1FD0A4F28419497F9722A3DAAFE3B4186F6B6457E0 PUSH1 0x40 MLOAD PUSH1 0x40 MLOAD DUP1 SWAP2 SUB SWAP1 LOG3 POP POP JUMP JUMPDEST PUSH1 0x0 DUP1 PUSH1 0x1 SWAP1 SLOAD SWAP1 PUSH2 0x100 EXP SWAP1 DIV PUSH1 0xFF AND ISZERO PUSH2 0x2A6A JUMPI PUSH1 0x1 DUP3 PUSH1 0xFF AND EQ DUP1 ISZERO PUSH2 0x2A22 JUMPI POP PUSH2 0x2A20 ADDRESS PUSH2 0x2C35 JUMP JUMPDEST ISZERO JUMPDEST PUSH2 0x2A61 JUMPI PUSH1 0x40 MLOAD PUSH32 0x8C379A000000000000000000000000000000000000000000000000000000000 DUP2 MSTORE PUSH1 0x4 ADD PUSH2 0x2A58 SWAP1 PUSH2 0x4052 JUMP JUMPDEST PUSH1 0x40 MLOAD DUP1 SWAP2 SUB SWAP1 REVERT JUMPDEST PUSH1 0x0 SWAP1 POP PUSH2 0x2ADE JUMP JUMPDEST DUP2 PUSH1 0xFF AND PUSH1 0x0 DUP1 SLOAD SWAP1 PUSH2 0x100 EXP SWAP1 DIV PUSH1 0xFF AND PUSH1 0xFF AND LT PUSH2 0x2ABF JUMPI PUSH1 0x40 MLOAD PUSH32 0x8C379A000000000000000000000000000000000000000000000000000000000 DUP2 MSTORE PUSH1 0x4 ADD PUSH2 0x2AB6 SWAP1 PUSH2 0x4052 JUMP JUMPDEST PUSH1 0x40 MLOAD DUP1 SWAP2 SUB SWAP1 REVERT JUMPDEST DUP2 PUSH1 0x0 DUP1 PUSH2 0x100 EXP DUP2 SLOAD DUP2 PUSH1 0xFF MUL NOT AND SWAP1 DUP4 PUSH1 0xFF AND MUL OR SWAP1 SSTORE POP PUSH1 0x1 SWAP1 POP JUMPDEST SWAP2 SWAP1 POP JUMP JUMPDEST PUSH1 0x0 PUSH1 0x1 SWAP1 SLOAD SWAP1 PUSH2 0x100 EXP SWAP1 DIV PUSH1 0xFF AND PUSH2 0x2B32 JUMPI PUSH1 0x40 MLOAD PUSH32 0x8C379A000000000000000000000000000000000000000000000000000000000 DUP2 MSTORE PUSH1 0x4 ADD PUSH2 0x2B29 SWAP1 PUSH2 0x420E JUMP JUMPDEST PUSH1 0x40 MLOAD DUP1 SWAP2 SUB SWAP1 REVERT JUMPDEST PUSH2 0x2B3A PUSH2 0x2C58 JUMP JUMPDEST JUMP JUMPDEST PUSH1 0x0 DUP2 SWAP1 POP SWAP2 SWAP1 POP JUMP JUMPDEST PUSH1 0x0 DUP2 SWAP1 POP SWAP2 SWAP1 POP JUMP JUMPDEST PUSH2 0x2B59 DUP2 PUSH2 0x2C35 JUMP JUMPDEST PUSH2 0x2B98 JUMPI PUSH1 0x40 MLOAD PUSH32 0x8C379A000000000000000000000000000000000000000000000000000000000 DUP2 MSTORE PUSH1 0x4 ADD PUSH2 0x2B8F SWAP1 PUSH2 0x40EE JUMP JUMPDEST PUSH1 0x40 MLOAD DUP1 SWAP2 SUB SWAP1 REVERT JUMPDEST DUP1 PUSH2 0x2BC5 PUSH32 0x360894A13BA1A3210667C828492DB98DCA3E2076CC3735A920A3CA505D382BBC PUSH1 0x0 SHL PUSH2 0x2B3C JUMP JUMPDEST PUSH1 0x0 ADD PUSH1 0x0 PUSH2 0x100 EXP DUP2 SLOAD DUP2 PUSH20 0xFFFFFFFFFFFFFFFFFFFFFFFFFFFFFFFFFFFFFFFF MUL NOT AND SWAP1 DUP4 PUSH20 0xFFFFFFFFFFFFFFFFFFFFFFFFFFFFFFFFFFFFFFFF AND MUL OR SWAP1 SSTORE POP POP JUMP JUMPDEST PUSH2 0x2C12 DUP4 PUSH2 0x2CB9 JUMP JUMPDEST PUSH1 0x0 DUP3 MLOAD GT DUP1 PUSH2 0x2C1F JUMPI POP DUP1 JUMPDEST ISZERO PUSH2 0x2C30 JUMPI PUSH2 0x2C2E DUP4 DUP4 PUSH2 0x2D08 JUMP JUMPDEST POP JUMPDEST POP POP POP JUMP JUMPDEST PUSH1 0x0 DUP1 DUP3 PUSH20 0xFFFFFFFFFFFFFFFFFFFFFFFFFFFFFFFFFFFFFFFF AND EXTCODESIZE GT SWAP1 POP SWAP2 SWAP1 POP JUMP JUMPDEST PUSH1 0x0 PUSH1 0x1 SWAP1 SLOAD SWAP1 PUSH2 0x100 EXP SWAP1 DIV PUSH1 0xFF AND PUSH2 0x2CA7 JUMPI PUSH1 0x40 MLOAD PUSH32 0x8C379A000000000000000000000000000000000000000000000000000000000 DUP2 MSTORE PUSH1 0x4 ADD PUSH2 0x2C9E SWAP1 PUSH2 0x420E JUMP JUMPDEST PUSH1 0x40 MLOAD DUP1 SWAP2 SUB SWAP1 REVERT JUMPDEST PUSH2 0x2CB7 PUSH2 0x2CB2 PUSH2 0x2925 JUMP JUMPDEST PUSH2 0x292D JUMP JUMPDEST JUMP JUMPDEST PUSH2 0x2CC2 DUP2 PUSH2 0x2B50 JUMP JUMPDEST DUP1 PUSH20 0xFFFFFFFFFFFFFFFFFFFFFFFFFFFFFFFFFFFFFFFF AND PUSH32 0xBC7CD75A20EE27FD9ADEBAB32041F755214DBC6BFFA90CC0225B39DA2E5C2D3B PUSH1 0x40 MLOAD PUSH1 0x40 MLOAD DUP1 SWAP2 SUB SWAP1 LOG2 POP JUMP JUMPDEST PUSH1 0x60 PUSH2 0x2D13 DUP4 PUSH2 0x2C35 JUMP JUMPDEST PUSH2 0x2D52 JUMPI PUSH1 0x40 MLOAD PUSH32 0x8C379A000000000000000000000000000000000000000000000000000000000 DUP2 MSTORE PUSH1 0x4 ADD PUSH2 0x2D49 SWAP1 PUSH2 0x41AE JUMP JUMPDEST PUSH1 0x40 MLOAD DUP1 SWAP2 SUB SWAP1 REVERT JUMPDEST PUSH1 0x0 DUP1 DUP5 PUSH20 0xFFFFFFFFFFFFFFFFFFFFFFFFFFFFFFFFFFFFFFFF AND DUP5 PUSH1 0x40 MLOAD PUSH2 0x2D7A SWAP2 SWAP1 PUSH2 0x3BD6 JUMP JUMPDEST PUSH1 0x0 PUSH1 0x40 MLOAD DUP1 DUP4 SUB DUP2 DUP6 GAS DELEGATECALL SWAP2 POP POP RETURNDATASIZE DUP1 PUSH1 0x0 DUP2 EQ PUSH2 0x2DB5 JUMPI PUSH1 0x40 MLOAD SWAP2 POP PUSH1 0x1F NOT PUSH1 0x3F RETURNDATASIZE ADD AND DUP3 ADD PUSH1 0x40 MSTORE RETURNDATASIZE DUP3 MSTORE RETURNDATASIZE PUSH1 0x0 PUSH1 0x20 DUP5 ADD RETURNDATACOPY PUSH2 0x2DBA JUMP JUMPDEST PUSH1 0x60 SWAP2 POP JUMPDEST POP SWAP2 POP SWAP2 POP PUSH2 0x2DE2 DUP3 DUP3 PUSH1 0x40 MLOAD DUP1 PUSH1 0x60 ADD PUSH1 0x40 MSTORE DUP1 PUSH1 0x27 DUP2 MSTORE PUSH1 0x20 ADD PUSH2 0x4D7F PUSH1 0x27 SWAP2 CODECOPY PUSH2 0x2DEC JUMP JUMPDEST SWAP3 POP POP POP SWAP3 SWAP2 POP POP JUMP JUMPDEST PUSH1 0x60 DUP4 ISZERO PUSH2 0x2DFC JUMPI DUP3 SWAP1 POP PUSH2 0x2E4C JUMP JUMPDEST PUSH1 0x0 DUP4 MLOAD GT ISZERO PUSH2 0x2E0F JUMPI DUP3 MLOAD DUP1 DUP5 PUSH1 0x20 ADD REVERT JUMPDEST DUP2 PUSH1 0x40 MLOAD PUSH32 0x8C379A000000000000000000000000000000000000000000000000000000000 DUP2 MSTORE PUSH1 0x4 ADD PUSH2 0x2E43 SWAP2 SWAP1 PUSH2 0x3EA5 JUMP JUMPDEST PUSH1 0x40 MLOAD DUP1 SWAP2 SUB SWAP1 REVERT JUMPDEST SWAP4 SWAP3 POP POP POP JUMP JUMPDEST DUP3 DUP1 SLOAD PUSH2 0x2E5F SWAP1 PUSH2 0x4529 JUMP JUMPDEST SWAP1 PUSH1 0x0 MSTORE PUSH1 0x20 PUSH1 0x0 KECCAK256 SWAP1 PUSH1 0x1F ADD PUSH1 0x20 SWAP1 DIV DUP2 ADD SWAP3 DUP3 PUSH2 0x2E81 JUMPI PUSH1 0x0 DUP6 SSTORE PUSH2 0x2EC8 JUMP JUMPDEST DUP3 PUSH1 0x1F LT PUSH2 0x2E9A JUMPI DUP1 MLOAD PUSH1 0xFF NOT AND DUP4 DUP1 ADD OR DUP6 SSTORE PUSH2 0x2EC8 JUMP JUMPDEST DUP3 DUP1 ADD PUSH1 0x1 ADD DUP6 SSTORE DUP3 ISZERO PUSH2 0x2EC8 JUMPI SWAP2 DUP3 ADD JUMPDEST DUP3 DUP2 GT ISZERO PUSH2 0x2EC7 JUMPI DUP3 MLOAD DUP3 SSTORE SWAP2 PUSH1 0x20 ADD SWAP2 SWAP1 PUSH1 0x1 ADD SWAP1 PUSH2 0x2EAC JUMP JUMPDEST JUMPDEST POP SWAP1 POP PUSH2 0x2ED5 SWAP2 SWAP1 PUSH2 0x2ED9 JUMP JUMPDEST POP SWAP1 JUMP JUMPDEST JUMPDEST DUP1 DUP3 GT ISZERO PUSH2 0x2EF2 JUMPI PUSH1 0x0 DUP2 PUSH1 0x0 SWAP1 SSTORE POP PUSH1 0x1 ADD PUSH2 0x2EDA JUMP JUMPDEST POP SWAP1 JUMP JUMPDEST PUSH1 0x0 PUSH2 0x2F09 PUSH2 0x2F04 DUP5 PUSH2 0x432A JUMP JUMPDEST PUSH2 0x4305 JUMP JUMPDEST SWAP1 POP DUP1 DUP4 DUP3 MSTORE PUSH1 0x20 DUP3 ADD SWAP1 POP DUP3 PUSH1 0x0 JUMPDEST DUP6 DUP2 LT ISZERO PUSH2 0x2F49 JUMPI DUP2 CALLDATALOAD DUP6 ADD PUSH2 0x2F2F DUP9 DUP3 PUSH2 0x3077 JUMP JUMPDEST DUP5 MSTORE PUSH1 0x20 DUP5 ADD SWAP4 POP PUSH1 0x20 DUP4 ADD SWAP3 POP POP PUSH1 0x1 DUP2 ADD SWAP1 POP PUSH2 0x2F19 JUMP JUMPDEST POP POP POP SWAP4 SWAP3 POP POP POP JUMP JUMPDEST PUSH1 0x0 PUSH2 0x2F66 PUSH2 0x2F61 DUP5 PUSH2 0x4356 JUMP JUMPDEST PUSH2 0x4305 JUMP JUMPDEST SWAP1 POP DUP3 DUP2 MSTORE PUSH1 0x20 DUP2 ADD DUP5 DUP5 DUP5 ADD GT ISZERO PUSH2 0x2F7E JUMPI PUSH1 0x0 DUP1 REVERT JUMPDEST PUSH2 0x2F89 DUP5 DUP3 DUP6 PUSH2 0x44E7 JUMP JUMPDEST POP SWAP4 SWAP3 POP POP POP JUMP JUMPDEST PUSH1 0x0 PUSH2 0x2FA4 PUSH2 0x2F9F DUP5 PUSH2 0x4387 JUMP JUMPDEST PUSH2 0x4305 JUMP JUMPDEST SWAP1 POP DUP3 DUP2 MSTORE PUSH1 0x20 DUP2 ADD DUP5 DUP5 DUP5 ADD GT ISZERO PUSH2 0x2FBC JUMPI PUSH1 0x0 DUP1 REVERT JUMPDEST PUSH2 0x2FC7 DUP5 DUP3 DUP6 PUSH2 0x44E7 JUMP JUMPDEST POP SWAP4 SWAP3 POP POP POP JUMP JUMPDEST PUSH1 0x0 DUP2 CALLDATALOAD SWAP1 POP PUSH2 0x2FDE DUP2 PUSH2 0x4D22 JUMP JUMPDEST SWAP3 SWAP2 POP POP JUMP JUMPDEST PUSH1 0x0 DUP3 PUSH1 0x1F DUP4 ADD SLT PUSH2 0x2FF5 JUMPI PUSH1 0x0 DUP1 REVERT JUMPDEST DUP2 CALLDATALOAD PUSH2 0x3005 DUP5 DUP3 PUSH1 0x20 DUP7 ADD PUSH2 0x2EF6 JUMP JUMPDEST SWAP2 POP POP SWAP3 SWAP2 POP POP JUMP JUMPDEST PUSH1 0x0 DUP2 CALLDATALOAD SWAP1 POP PUSH2 0x301D DUP2 PUSH2 0x4D39 JUMP JUMPDEST SWAP3 SWAP2 POP POP JUMP JUMPDEST PUSH1 0x0 DUP2 CALLDATALOAD SWAP1 POP PUSH2 0x3032 DUP2 PUSH2 0x4D50 JUMP JUMPDEST SWAP3 SWAP2 POP POP JUMP JUMPDEST PUSH1 0x0 DUP2 MLOAD SWAP1 POP PUSH2 0x3047 DUP2 PUSH2 0x4D50 JUMP JUMPDEST SWAP3 SWAP2 POP POP JUMP JUMPDEST PUSH1 0x0 DUP3 PUSH1 0x1F DUP4 ADD SLT PUSH2 0x305E JUMPI PUSH1 0x0 DUP1 REVERT JUMPDEST DUP2 CALLDATALOAD PUSH2 0x306E DUP5 DUP3 PUSH1 0x20 DUP7 ADD PUSH2 0x2F53 JUMP JUMPDEST SWAP2 POP POP SWAP3 SWAP2 POP POP JUMP JUMPDEST PUSH1 0x0 DUP3 PUSH1 0x1F DUP4 ADD SLT PUSH2 0x3088 JUMPI PUSH1 0x0 DUP1 REVERT JUMPDEST DUP2 CALLDATALOAD PUSH2 0x3098 DUP5 DUP3 PUSH1 0x20 DUP7 ADD PUSH2 0x2F91 JUMP JUMPDEST SWAP2 POP POP SWAP3 SWAP2 POP POP JUMP JUMPDEST PUSH1 0x0 DUP2 CALLDATALOAD SWAP1 POP PUSH2 0x30B0 DUP2 PUSH2 0x4D67 JUMP JUMPDEST SWAP3 SWAP2 POP POP JUMP JUMPDEST PUSH1 0x0 DUP2 MLOAD SWAP1 POP PUSH2 0x30C5 DUP2 PUSH2 0x4D67 JUMP JUMPDEST SWAP3 SWAP2 POP POP JUMP JUMPDEST PUSH1 0x0 PUSH1 0x20 DUP3 DUP5 SUB SLT ISZERO PUSH2 0x30DD JUMPI PUSH1 0x0 DUP1 REVERT JUMPDEST PUSH1 0x0 PUSH2 0x30EB DUP5 DUP3 DUP6 ADD PUSH2 0x2FCF JUMP JUMPDEST SWAP2 POP POP SWAP3 SWAP2 POP POP JUMP JUMPDEST PUSH1 0x0 DUP1 PUSH1 0x40 DUP4 DUP6 SUB SLT ISZERO PUSH2 0x3107 JUMPI PUSH1 0x0 DUP1 REVERT JUMPDEST PUSH1 0x0 PUSH2 0x3115 DUP6 DUP3 DUP7 ADD PUSH2 0x2FCF JUMP JUMPDEST SWAP3 POP POP PUSH1 0x20 PUSH2 0x3126 DUP6 DUP3 DUP7 ADD PUSH2 0x300E JUMP JUMPDEST SWAP2 POP POP SWAP3 POP SWAP3 SWAP1 POP JUMP JUMPDEST PUSH1 0x0 DUP1 PUSH1 0x40 DUP4 DUP6 SUB SLT ISZERO PUSH2 0x3143 JUMPI PUSH1 0x0 DUP1 REVERT JUMPDEST PUSH1 0x0 PUSH2 0x3151 DUP6 DUP3 DUP7 ADD PUSH2 0x2FCF JUMP JUMPDEST SWAP3 POP POP PUSH1 0x20 DUP4 ADD CALLDATALOAD PUSH8 0xFFFFFFFFFFFFFFFF DUP2 GT ISZERO PUSH2 0x316E JUMPI PUSH1 0x0 DUP1 REVERT JUMPDEST PUSH2 0x317A DUP6 DUP3 DUP7 ADD PUSH2 0x304D JUMP JUMPDEST SWAP2 POP POP SWAP3 POP SWAP3 SWAP1 POP JUMP JUMPDEST PUSH1 0x0 DUP1 PUSH1 0x40 DUP4 DUP6 SUB SLT ISZERO PUSH2 0x3197 JUMPI PUSH1 0x0 DUP1 REVERT JUMPDEST PUSH1 0x0 PUSH2 0x31A5 DUP6 DUP3 DUP7 ADD PUSH2 0x2FCF JUMP JUMPDEST SWAP3 POP POP PUSH1 0x20 PUSH2 0x31B6 DUP6 DUP3 DUP7 ADD PUSH2 0x30A1 JUMP JUMPDEST SWAP2 POP POP SWAP3 POP SWAP3 SWAP1 POP JUMP JUMPDEST PUSH1 0x0 DUP1 PUSH1 0x40 DUP4 DUP6 SUB SLT ISZERO PUSH2 0x31D3 JUMPI PUSH1 0x0 DUP1 REVERT JUMPDEST PUSH1 0x0 DUP4 ADD CALLDATALOAD PUSH8 0xFFFFFFFFFFFFFFFF DUP2 GT ISZERO PUSH2 0x31ED JUMPI PUSH1 0x0 DUP1 REVERT JUMPDEST PUSH2 0x31F9 DUP6 DUP3 DUP7 ADD PUSH2 0x2FE4 JUMP JUMPDEST SWAP3 POP POP PUSH1 0x20 PUSH2 0x320A DUP6 DUP3 DUP7 ADD PUSH2 0x300E JUMP JUMPDEST SWAP2 POP POP SWAP3 POP SWAP3 SWAP1 POP JUMP JUMPDEST PUSH1 0x0 PUSH1 0x20 DUP3 DUP5 SUB SLT ISZERO PUSH2 0x3226 JUMPI PUSH1 0x0 DUP1 REVERT JUMPDEST PUSH1 0x0 PUSH2 0x3234 DUP5 DUP3 DUP6 ADD PUSH2 0x300E JUMP JUMPDEST SWAP2 POP POP SWAP3 SWAP2 POP POP JUMP JUMPDEST PUSH1 0x0 PUSH1 0x20 DUP3 DUP5 SUB SLT ISZERO PUSH2 0x324F JUMPI PUSH1 0x0 DUP1 REVERT JUMPDEST PUSH1 0x0 PUSH2 0x325D DUP5 DUP3 DUP6 ADD PUSH2 0x3038 JUMP JUMPDEST SWAP2 POP POP SWAP3 SWAP2 POP POP JUMP JUMPDEST PUSH1 0x0 DUP1 PUSH1 0x40 DUP4 DUP6 SUB SLT ISZERO PUSH2 0x3279 JUMPI PUSH1 0x0 DUP1 REVERT JUMPDEST PUSH1 0x0 PUSH2 0x3287 DUP6 DUP3 DUP7 ADD PUSH2 0x3023 JUMP JUMPDEST SWAP3 POP POP PUSH1 0x20 DUP4 ADD CALLDATALOAD PUSH8 0xFFFFFFFFFFFFFFFF DUP2 GT ISZERO PUSH2 0x32A4 JUMPI PUSH1 0x0 DUP1 REVERT JUMPDEST PUSH2 0x32B0 DUP6 DUP3 DUP7 ADD PUSH2 0x304D JUMP JUMPDEST SWAP2 POP POP SWAP3 POP SWAP3 SWAP1 POP JUMP JUMPDEST PUSH1 0x0 PUSH1 0x20 DUP3 DUP5 SUB SLT ISZERO PUSH2 0x32CC JUMPI PUSH1 0x0 DUP1 REVERT JUMPDEST PUSH1 0x0 DUP3 ADD CALLDATALOAD PUSH8 0xFFFFFFFFFFFFFFFF DUP2 GT ISZERO PUSH2 0x32E6 JUMPI PUSH1 0x0 DUP1 REVERT JUMPDEST PUSH2 0x32F2 DUP5 DUP3 DUP6 ADD PUSH2 0x3077 JUMP JUMPDEST SWAP2 POP POP SWAP3 SWAP2 POP POP JUMP JUMPDEST PUSH1 0x0 DUP1 PUSH1 0x0 DUP1 PUSH1 0x0 DUP1 PUSH1 0xC0 DUP8 DUP10 SUB SLT ISZERO PUSH2 0x3314 JUMPI PUSH1 0x0 DUP1 REVERT JUMPDEST PUSH1 0x0 DUP8 ADD CALLDATALOAD PUSH8 0xFFFFFFFFFFFFFFFF DUP2 GT ISZERO PUSH2 0x332E JUMPI PUSH1 0x0 DUP1 REVERT JUMPDEST PUSH2 0x333A DUP10 DUP3 DUP11 ADD PUSH2 0x3077 JUMP JUMPDEST SWAP7 POP POP PUSH1 0x20 PUSH2 0x334B DUP10 DUP3 DUP11 ADD PUSH2 0x2FCF JUMP JUMPDEST SWAP6 POP POP PUSH1 0x40 DUP8 ADD CALLDATALOAD PUSH8 0xFFFFFFFFFFFFFFFF DUP2 GT ISZERO PUSH2 0x3368 JUMPI PUSH1 0x0 DUP1 REVERT JUMPDEST PUSH2 0x3374 DUP10 DUP3 DUP11 ADD PUSH2 0x3077 JUMP JUMPDEST SWAP5 POP POP PUSH1 0x60 PUSH2 0x3385 DUP10 DUP3 DUP11 ADD PUSH2 0x2FCF JUMP JUMPDEST SWAP4 POP POP PUSH1 0x80 DUP8 ADD CALLDATALOAD PUSH8 0xFFFFFFFFFFFFFFFF DUP2 GT ISZERO PUSH2 0x33A2 JUMPI PUSH1 0x0 DUP1 REVERT JUMPDEST PUSH2 0x33AE DUP10 DUP3 DUP11 ADD PUSH2 0x3077 JUMP JUMPDEST SWAP3 POP POP PUSH1 0xA0 PUSH2 0x33BF DUP10 DUP3 DUP11 ADD PUSH2 0x30A1 JUMP JUMPDEST SWAP2 POP POP SWAP3 SWAP6 POP SWAP3 SWAP6 POP SWAP3 SWAP6 JUMP JUMPDEST PUSH1 0x0 DUP1 PUSH1 0x0 DUP1 PUSH1 0x0 DUP1 PUSH1 0x0 PUSH1 0xE0 DUP9 DUP11 SUB SLT ISZERO PUSH2 0x33E7 JUMPI PUSH1 0x0 DUP1 REVERT JUMPDEST PUSH1 0x0 DUP9 ADD CALLDATALOAD PUSH8 0xFFFFFFFFFFFFFFFF DUP2 GT ISZERO PUSH2 0x3401 JUMPI PUSH1 0x0 DUP1 REVERT JUMPDEST PUSH2 0x340D DUP11 DUP3 DUP12 ADD PUSH2 0x3077 JUMP JUMPDEST SWAP8 POP POP PUSH1 0x20 PUSH2 0x341E DUP11 DUP3 DUP12 ADD PUSH2 0x2FCF JUMP JUMPDEST SWAP7 POP POP PUSH1 0x40 DUP9 ADD CALLDATALOAD PUSH8 0xFFFFFFFFFFFFFFFF DUP2 GT ISZERO PUSH2 0x343B JUMPI PUSH1 0x0 DUP1 REVERT JUMPDEST PUSH2 0x3447 DUP11 DUP3 DUP12 ADD PUSH2 0x3077 JUMP JUMPDEST SWAP6 POP POP PUSH1 0x60 PUSH2 0x3458 DUP11 DUP3 DUP12 ADD PUSH2 0x2FCF JUMP JUMPDEST SWAP5 POP POP PUSH1 0x80 DUP9 ADD CALLDATALOAD PUSH8 0xFFFFFFFFFFFFFFFF DUP2 GT ISZERO PUSH2 0x3475 JUMPI PUSH1 0x0 DUP1 REVERT JUMPDEST PUSH2 0x3481 DUP11 DUP3 DUP12 ADD PUSH2 0x3077 JUMP JUMPDEST SWAP4 POP POP PUSH1 0xA0 PUSH2 0x3492 DUP11 DUP3 DUP12 ADD PUSH2 0x30A1 JUMP JUMPDEST SWAP3 POP POP PUSH1 0xC0 DUP9 ADD CALLDATALOAD PUSH8 0xFFFFFFFFFFFFFFFF DUP2 GT ISZERO PUSH2 0x34AF JUMPI PUSH1 0x0 DUP1 REVERT JUMPDEST PUSH2 0x34BB DUP11 DUP3 DUP12 ADD PUSH2 0x304D JUMP JUMPDEST SWAP2 POP POP SWAP3 SWAP6 SWAP9 SWAP2 SWAP5 SWAP8 POP SWAP3 SWAP6 POP JUMP JUMPDEST PUSH1 0x0 DUP1 PUSH1 0x0 DUP1 PUSH1 0x0 PUSH1 0xA0 DUP7 DUP9 SUB SLT ISZERO PUSH2 0x34E2 JUMPI PUSH1 0x0 DUP1 REVERT JUMPDEST PUSH1 0x0 DUP7 ADD CALLDATALOAD PUSH8 0xFFFFFFFFFFFFFFFF DUP2 GT ISZERO PUSH2 0x34FC JUMPI PUSH1 0x0 DUP1 REVERT JUMPDEST PUSH2 0x3508 DUP9 DUP3 DUP10 ADD PUSH2 0x3077 JUMP JUMPDEST SWAP6 POP POP PUSH1 0x20 PUSH2 0x3519 DUP9 DUP3 DUP10 ADD PUSH2 0x2FCF JUMP JUMPDEST SWAP5 POP POP PUSH1 0x40 DUP7 ADD CALLDATALOAD PUSH8 0xFFFFFFFFFFFFFFFF DUP2 GT ISZERO PUSH2 0x3536 JUMPI PUSH1 0x0 DUP1 REVERT JUMPDEST PUSH2 0x3542 DUP9 DUP3 DUP10 ADD PUSH2 0x3077 JUMP JUMPDEST SWAP4 POP POP PUSH1 0x60 DUP7 ADD CALLDATALOAD PUSH8 0xFFFFFFFFFFFFFFFF DUP2 GT ISZERO PUSH2 0x355F JUMPI PUSH1 0x0 DUP1 REVERT JUMPDEST PUSH2 0x356B DUP9 DUP3 DUP10 ADD PUSH2 0x3077 JUMP JUMPDEST SWAP3 POP POP PUSH1 0x80 PUSH2 0x357C DUP9 DUP3 DUP10 ADD PUSH2 0x30A1 JUMP JUMPDEST SWAP2 POP POP SWAP3 SWAP6 POP SWAP3 SWAP6 SWAP1 SWAP4 POP JUMP JUMPDEST PUSH1 0x0 DUP1 PUSH1 0x40 DUP4 DUP6 SUB SLT ISZERO PUSH2 0x359C JUMPI PUSH1 0x0 DUP1 REVERT JUMPDEST PUSH1 0x0 DUP4 ADD CALLDATALOAD PUSH8 0xFFFFFFFFFFFFFFFF DUP2 GT ISZERO PUSH2 0x35B6 JUMPI PUSH1 0x0 DUP1 REVERT JUMPDEST PUSH2 0x35C2 DUP6 DUP3 DUP7 ADD PUSH2 0x3077 JUMP JUMPDEST SWAP3 POP POP PUSH1 0x20 PUSH2 0x35D3 DUP6 DUP3 DUP7 ADD PUSH2 0x300E JUMP JUMPDEST SWAP2 POP POP SWAP3 POP SWAP3 SWAP1 POP JUMP JUMPDEST PUSH1 0x0 PUSH1 0x20 DUP3 DUP5 SUB SLT ISZERO PUSH2 0x35EF JUMPI PUSH1 0x0 DUP1 REVERT JUMPDEST PUSH1 0x0 PUSH2 0x35FD DUP5 DUP3 DUP6 ADD PUSH2 0x30B6 JUMP JUMPDEST SWAP2 POP POP SWAP3 SWAP2 POP POP JUMP JUMPDEST PUSH1 0x0 PUSH2 0x3612 DUP4 DUP4 PUSH2 0x372A JUMP JUMPDEST SWAP1 POP SWAP3 SWAP2 POP POP JUMP JUMPDEST PUSH2 0x3623 DUP2 PUSH2 0x4476 JUMP JUMPDEST DUP3 MSTORE POP POP JUMP JUMPDEST PUSH2 0x363A PUSH2 0x3635 DUP3 PUSH2 0x4476 JUMP JUMPDEST PUSH2 0x45D5 JUMP JUMPDEST DUP3 MSTORE POP POP JUMP JUMPDEST PUSH1 0x0 PUSH2 0x364B DUP3 PUSH2 0x43C8 JUMP JUMPDEST PUSH2 0x3655 DUP2 DUP6 PUSH2 0x43F6 JUMP JUMPDEST SWAP4 POP DUP4 PUSH1 0x20 DUP3 MUL DUP6 ADD PUSH2 0x3667 DUP6 PUSH2 0x43B8 JUMP JUMPDEST DUP1 PUSH1 0x0 JUMPDEST DUP6 DUP2 LT ISZERO PUSH2 0x36A3 JUMPI DUP5 DUP5 SUB DUP10 MSTORE DUP2 MLOAD PUSH2 0x3684 DUP6 DUP3 PUSH2 0x3606 JUMP JUMPDEST SWAP5 POP PUSH2 0x368F DUP4 PUSH2 0x43E9 JUMP JUMPDEST SWAP3 POP PUSH1 0x20 DUP11 ADD SWAP10 POP POP PUSH1 0x1 DUP2 ADD SWAP1 POP PUSH2 0x366B JUMP JUMPDEST POP DUP3 SWAP8 POP DUP8 SWAP6 POP POP POP POP POP POP SWAP3 SWAP2 POP POP JUMP JUMPDEST PUSH2 0x36BE DUP2 PUSH2 0x4488 JUMP JUMPDEST DUP3 MSTORE POP POP JUMP JUMPDEST PUSH2 0x36CD DUP2 PUSH2 0x4494 JUMP JUMPDEST DUP3 MSTORE POP POP JUMP JUMPDEST PUSH2 0x36E4 PUSH2 0x36DF DUP3 PUSH2 0x4494 JUMP JUMPDEST PUSH2 0x45E7 JUMP JUMPDEST DUP3 MSTORE POP POP JUMP JUMPDEST PUSH1 0x0 PUSH2 0x36F5 DUP3 PUSH2 0x43D3 JUMP JUMPDEST PUSH2 0x36FF DUP2 DUP6 PUSH2 0x4407 JUMP JUMPDEST SWAP4 POP PUSH2 0x370F DUP2 DUP6 PUSH1 0x20 DUP7 ADD PUSH2 0x44F6 JUMP JUMPDEST DUP1 DUP5 ADD SWAP2 POP POP SWAP3 SWAP2 POP POP JUMP JUMPDEST PUSH2 0x3724 DUP2 PUSH2 0x44D5 JUMP JUMPDEST DUP3 MSTORE POP POP JUMP JUMPDEST PUSH1 0x0 PUSH2 0x3735 DUP3 PUSH2 0x43DE JUMP JUMPDEST PUSH2 0x373F DUP2 DUP6 PUSH2 0x4412 JUMP JUMPDEST SWAP4 POP PUSH2 0x374F DUP2 DUP6 PUSH1 0x20 DUP7 ADD PUSH2 0x44F6 JUMP JUMPDEST PUSH2 0x3758 DUP2 PUSH2 0x469A JUMP JUMPDEST DUP5 ADD SWAP2 POP POP SWAP3 SWAP2 POP POP JUMP JUMPDEST PUSH1 0x0 PUSH2 0x376E DUP3 PUSH2 0x43DE JUMP JUMPDEST PUSH2 0x3778 DUP2 DUP6 PUSH2 0x4423 JUMP JUMPDEST SWAP4 POP PUSH2 0x3788 DUP2 DUP6 PUSH1 0x20 DUP7 ADD PUSH2 0x44F6 JUMP JUMPDEST PUSH2 0x3791 DUP2 PUSH2 0x469A JUMP JUMPDEST DUP5 ADD SWAP2 POP POP SWAP3 SWAP2 POP POP JUMP JUMPDEST PUSH1 0x0 PUSH2 0x37A7 DUP3 PUSH2 0x43DE JUMP JUMPDEST PUSH2 0x37B1 DUP2 DUP6 PUSH2 0x4434 JUMP JUMPDEST SWAP4 POP PUSH2 0x37C1 DUP2 DUP6 PUSH1 0x20 DUP7 ADD PUSH2 0x44F6 JUMP JUMPDEST DUP1 DUP5 ADD SWAP2 POP POP SWAP3 SWAP2 POP POP JUMP JUMPDEST PUSH1 0x0 PUSH2 0x37DA PUSH1 0x1C DUP4 PUSH2 0x4434 JUMP JUMPDEST SWAP2 POP PUSH2 0x37E5 DUP3 PUSH2 0x46B8 JUMP JUMPDEST PUSH1 0x1C DUP3 ADD SWAP1 POP SWAP2 SWAP1 POP JUMP JUMPDEST PUSH1 0x0 PUSH2 0x37FD PUSH1 0x26 DUP4 PUSH2 0x4423 JUMP JUMPDEST SWAP2 POP PUSH2 0x3808 DUP3 PUSH2 0x46E1 JUMP JUMPDEST PUSH1 0x40 DUP3 ADD SWAP1 POP SWAP2 SWAP1 POP JUMP JUMPDEST PUSH1 0x0 PUSH2 0x3820 PUSH1 0x2C DUP4 PUSH2 0x4423 JUMP JUMPDEST SWAP2 POP PUSH2 0x382B DUP3 PUSH2 0x4730 JUMP JUMPDEST PUSH1 0x40 DUP3 ADD SWAP1 POP SWAP2 SWAP1 POP JUMP JUMPDEST PUSH1 0x0 PUSH2 0x3843 PUSH1 0x2C DUP4 PUSH2 0x4423 JUMP JUMPDEST SWAP2 POP PUSH2 0x384E DUP3 PUSH2 0x477F JUMP JUMPDEST PUSH1 0x40 DUP3 ADD SWAP1 POP SWAP2 SWAP1 POP JUMP JUMPDEST PUSH1 0x0 PUSH2 0x3866 PUSH1 0x1F DUP4 PUSH2 0x4423 JUMP JUMPDEST SWAP2 POP PUSH2 0x3871 DUP3 PUSH2 0x47CE JUMP JUMPDEST PUSH1 0x20 DUP3 ADD SWAP1 POP SWAP2 SWAP1 POP JUMP JUMPDEST PUSH1 0x0 PUSH2 0x3889 PUSH1 0xA DUP4 PUSH2 0x4423 JUMP JUMPDEST SWAP2 POP PUSH2 0x3894 DUP3 PUSH2 0x47F7 JUMP JUMPDEST PUSH1 0x20 DUP3 ADD SWAP1 POP SWAP2 SWAP1 POP JUMP JUMPDEST PUSH1 0x0 PUSH2 0x38AC PUSH1 0x38 DUP4 PUSH2 0x4423 JUMP JUMPDEST SWAP2 POP PUSH2 0x38B7 DUP3 PUSH2 0x4820 JUMP JUMPDEST PUSH1 0x40 DUP3 ADD SWAP1 POP SWAP2 SWAP1 POP JUMP JUMPDEST PUSH1 0x0 PUSH2 0x38CF PUSH1 0x27 DUP4 PUSH2 0x4423 JUMP JUMPDEST SWAP2 POP PUSH2 0x38DA DUP3 PUSH2 0x486F JUMP JUMPDEST PUSH1 0x40 DUP3 ADD SWAP1 POP SWAP2 SWAP1 POP JUMP JUMPDEST PUSH1 0x0 PUSH2 0x38F2 PUSH1 0x29 DUP4 PUSH2 0x4423 JUMP JUMPDEST SWAP2 POP PUSH2 0x38FD DUP3 PUSH2 0x48BE JUMP JUMPDEST PUSH1 0x40 DUP3 ADD SWAP1 POP SWAP2 SWAP1 POP JUMP JUMPDEST PUSH1 0x0 PUSH2 0x3915 PUSH1 0x2E DUP4 PUSH2 0x4423 JUMP JUMPDEST SWAP2 POP PUSH2 0x3920 DUP3 PUSH2 0x490D JUMP JUMPDEST PUSH1 0x40 DUP3 ADD SWAP1 POP SWAP2 SWAP1 POP JUMP JUMPDEST PUSH1 0x0 PUSH2 0x3938 PUSH1 0x13 DUP4 PUSH2 0x4423 JUMP JUMPDEST SWAP2 POP PUSH2 0x3943 DUP3 PUSH2 0x495C JUMP JUMPDEST PUSH1 0x20 DUP3 ADD SWAP1 POP SWAP2 SWAP1 POP JUMP JUMPDEST PUSH1 0x0 PUSH2 0x395B PUSH1 0x19 DUP4 PUSH2 0x4423 JUMP JUMPDEST SWAP2 POP PUSH2 0x3966 DUP3 PUSH2 0x4985 JUMP JUMPDEST PUSH1 0x20 DUP3 ADD SWAP1 POP SWAP2 SWAP1 POP JUMP JUMPDEST PUSH1 0x0 PUSH2 0x397E PUSH1 0x2E DUP4 PUSH2 0x4423 JUMP JUMPDEST SWAP2 POP PUSH2 0x3989 DUP3 PUSH2 0x49AE JUMP JUMPDEST PUSH1 0x40 DUP3 ADD SWAP1 POP SWAP2 SWAP1 POP JUMP JUMPDEST PUSH1 0x0 PUSH2 0x39A1 PUSH1 0x2D DUP4 PUSH2 0x4423 JUMP JUMPDEST SWAP2 POP PUSH2 0x39AC DUP3 PUSH2 0x49FD JUMP JUMPDEST PUSH1 0x40 DUP3 ADD SWAP1 POP SWAP2 SWAP1 POP JUMP JUMPDEST PUSH1 0x0 PUSH2 0x39C4 PUSH1 0x20 DUP4 PUSH2 0x4423 JUMP JUMPDEST SWAP2 POP PUSH2 0x39CF DUP3 PUSH2 0x4A4C JUMP JUMPDEST PUSH1 0x20 DUP3 ADD SWAP1 POP SWAP2 SWAP1 POP JUMP JUMPDEST PUSH1 0x0 PUSH2 0x39E7 PUSH1 0xE DUP4 PUSH2 0x4423 JUMP JUMPDEST SWAP2 POP PUSH2 0x39F2 DUP3 PUSH2 0x4A75 JUMP JUMPDEST PUSH1 0x20 DUP3 ADD SWAP1 POP SWAP2 SWAP1 POP JUMP JUMPDEST PUSH1 0x0 PUSH2 0x3A0A PUSH1 0x3A DUP4 PUSH2 0x4423 JUMP JUMPDEST SWAP2 POP PUSH2 0x3A15 DUP3 PUSH2 0x4A9E JUMP JUMPDEST PUSH1 0x40 DUP3 ADD SWAP1 POP SWAP2 SWAP1 POP JUMP JUMPDEST PUSH1 0x0 PUSH2 0x3A2D PUSH1 0x1F DUP4 PUSH2 0x4423 JUMP JUMPDEST SWAP2 POP PUSH2 0x3A38 DUP3 PUSH2 0x4AED JUMP JUMPDEST PUSH1 0x20 DUP3 ADD SWAP1 POP SWAP2 SWAP1 POP JUMP JUMPDEST PUSH1 0x0 PUSH2 0x3A50 PUSH1 0x19 DUP4 PUSH2 0x4423 JUMP JUMPDEST SWAP2 POP PUSH2 0x3A5B DUP3 PUSH2 0x4B16 JUMP JUMPDEST PUSH1 0x20 DUP3 ADD SWAP1 POP SWAP2 SWAP1 POP JUMP JUMPDEST PUSH1 0x0 PUSH2 0x3A73 PUSH1 0x26 DUP4 PUSH2 0x4423 JUMP JUMPDEST SWAP2 POP PUSH2 0x3A7E DUP3 PUSH2 0x4B3F JUMP JUMPDEST PUSH1 0x40 DUP3 ADD SWAP1 POP SWAP2 SWAP1 POP JUMP JUMPDEST PUSH1 0x0 PUSH2 0x3A96 PUSH1 0x1E DUP4 PUSH2 0x4423 JUMP JUMPDEST SWAP2 POP PUSH2 0x3AA1 DUP3 PUSH2 0x4B8E JUMP JUMPDEST PUSH1 0x20 DUP3 ADD SWAP1 POP SWAP2 SWAP1 POP JUMP JUMPDEST PUSH1 0x0 PUSH2 0x3AB9 PUSH1 0x1B DUP4 PUSH2 0x4423 JUMP JUMPDEST SWAP2 POP PUSH2 0x3AC4 DUP3 PUSH2 0x4BB7 JUMP JUMPDEST PUSH1 0x20 DUP3 ADD SWAP1 POP SWAP2 SWAP1 POP JUMP JUMPDEST PUSH1 0x0 PUSH2 0x3ADC PUSH1 0x2B DUP4 PUSH2 0x4423 JUMP JUMPDEST SWAP2 POP PUSH2 0x3AE7 DUP3 PUSH2 0x4BE0 JUMP JUMPDEST PUSH1 0x40 DUP3 ADD SWAP1 POP SWAP2 SWAP1 POP JUMP JUMPDEST PUSH1 0x0 PUSH2 0x3AFF PUSH1 0x9 DUP4 PUSH2 0x4423 JUMP JUMPDEST SWAP2 POP PUSH2 0x3B0A DUP3 PUSH2 0x4C2F JUMP JUMPDEST PUSH1 0x20 DUP3 ADD SWAP1 POP SWAP2 SWAP1 POP JUMP JUMPDEST PUSH1 0x0 PUSH2 0x3B22 PUSH1 0x1F DUP4 PUSH2 0x4423 JUMP JUMPDEST SWAP2 POP PUSH2 0x3B2D DUP3 PUSH2 0x4C58 JUMP JUMPDEST PUSH1 0x20 DUP3 ADD SWAP1 POP SWAP2 SWAP1 POP JUMP JUMPDEST PUSH1 0x0 PUSH2 0x3B45 PUSH1 0x16 DUP4 PUSH2 0x4423 JUMP JUMPDEST SWAP2 POP PUSH2 0x3B50 DUP3 PUSH2 0x4C81 JUMP JUMPDEST PUSH1 0x20 DUP3 ADD SWAP1 POP SWAP2 SWAP1 POP JUMP JUMPDEST PUSH1 0x0 PUSH2 0x3B68 PUSH1 0x27 DUP4 PUSH2 0x4423 JUMP JUMPDEST SWAP2 POP PUSH2 0x3B73 DUP3 PUSH2 0x4CAA JUMP JUMPDEST PUSH1 0x40 DUP3 ADD SWAP1 POP SWAP2 SWAP1 POP JUMP JUMPDEST PUSH1 0x0 PUSH2 0x3B8B PUSH1 0x1C DUP4 PUSH2 0x4423 JUMP JUMPDEST SWAP2 POP PUSH2 0x3B96 DUP3 PUSH2 0x4CF9 JUMP JUMPDEST PUSH1 0x20 DUP3 ADD SWAP1 POP SWAP2 SWAP1 POP JUMP JUMPDEST PUSH2 0x3BAA DUP2 PUSH2 0x44BE JUMP JUMPDEST DUP3 MSTORE POP POP JUMP JUMPDEST PUSH2 0x3BC1 PUSH2 0x3BBC DUP3 PUSH2 0x44BE JUMP JUMPDEST PUSH2 0x4603 JUMP JUMPDEST DUP3 MSTORE POP POP JUMP JUMPDEST PUSH2 0x3BD0 DUP2 PUSH2 0x44C8 JUMP JUMPDEST DUP3 MSTORE POP POP JUMP JUMPDEST PUSH1 0x0 PUSH2 0x3BE2 DUP3 DUP5 PUSH2 0x36EA JUMP JUMPDEST SWAP2 POP DUP2 SWAP1 POP SWAP3 SWAP2 POP POP JUMP JUMPDEST PUSH1 0x0 PUSH2 0x3BF9 DUP3 DUP5 PUSH2 0x379C JUMP JUMPDEST SWAP2 POP DUP2 SWAP1 POP SWAP3 SWAP2 POP POP JUMP JUMPDEST PUSH1 0x0 PUSH2 0x3C10 DUP3 DUP10 PUSH2 0x379C JUMP JUMPDEST SWAP2 POP PUSH2 0x3C1C DUP3 DUP9 PUSH2 0x3629 JUMP JUMPDEST PUSH1 0x14 DUP3 ADD SWAP2 POP PUSH2 0x3C2C DUP3 DUP8 PUSH2 0x379C JUMP JUMPDEST SWAP2 POP PUSH2 0x3C38 DUP3 DUP7 PUSH2 0x3629 JUMP JUMPDEST PUSH1 0x14 DUP3 ADD SWAP2 POP PUSH2 0x3C48 DUP3 DUP6 PUSH2 0x379C JUMP JUMPDEST SWAP2 POP PUSH2 0x3C54 DUP3 DUP5 PUSH2 0x3BB0 JUMP JUMPDEST PUSH1 0x20 DUP3 ADD SWAP2 POP DUP2 SWAP1 POP SWAP8 SWAP7 POP POP POP POP POP POP POP JUMP JUMPDEST PUSH1 0x0 PUSH2 0x3C73 DUP3 PUSH2 0x37CD JUMP JUMPDEST SWAP2 POP PUSH2 0x3C7F DUP3 DUP5 PUSH2 0x36D3 JUMP JUMPDEST PUSH1 0x20 DUP3 ADD SWAP2 POP DUP2 SWAP1 POP SWAP3 SWAP2 POP POP JUMP JUMPDEST PUSH1 0x0 PUSH1 0x20 DUP3 ADD SWAP1 POP PUSH2 0x3CA3 PUSH1 0x0 DUP4 ADD DUP5 PUSH2 0x361A JUMP JUMPDEST SWAP3 SWAP2 POP POP JUMP JUMPDEST PUSH1 0x0 PUSH1 0x40 DUP3 ADD SWAP1 POP PUSH2 0x3CBE PUSH1 0x0 DUP4 ADD DUP6 PUSH2 0x361A JUMP JUMPDEST PUSH2 0x3CCB PUSH1 0x20 DUP4 ADD DUP5 PUSH2 0x361A JUMP JUMPDEST SWAP4 SWAP3 POP POP POP JUMP JUMPDEST PUSH1 0x0 PUSH1 0x60 DUP3 ADD SWAP1 POP PUSH2 0x3CE7 PUSH1 0x0 DUP4 ADD DUP7 PUSH2 0x361A JUMP JUMPDEST PUSH2 0x3CF4 PUSH1 0x20 DUP4 ADD DUP6 PUSH2 0x361A JUMP JUMPDEST PUSH2 0x3D01 PUSH1 0x40 DUP4 ADD DUP5 PUSH2 0x3BA1 JUMP JUMPDEST SWAP5 SWAP4 POP POP POP POP JUMP JUMPDEST PUSH1 0x0 PUSH1 0x40 DUP3 ADD SWAP1 POP PUSH2 0x3D1E PUSH1 0x0 DUP4 ADD DUP6 PUSH2 0x361A JUMP JUMPDEST PUSH2 0x3D2B PUSH1 0x20 DUP4 ADD DUP5 PUSH2 0x36B5 JUMP JUMPDEST SWAP4 SWAP3 POP POP POP JUMP JUMPDEST PUSH1 0x0 PUSH1 0xE0 DUP3 ADD SWAP1 POP PUSH2 0x3D47 PUSH1 0x0 DUP4 ADD DUP11 PUSH2 0x361A JUMP JUMPDEST DUP2 DUP2 SUB PUSH1 0x20 DUP4 ADD MSTORE PUSH2 0x3D59 DUP2 DUP10 PUSH2 0x3763 JUMP JUMPDEST SWAP1 POP PUSH2 0x3D68 PUSH1 0x40 DUP4 ADD DUP9 PUSH2 0x361A JUMP JUMPDEST DUP2 DUP2 SUB PUSH1 0x60 DUP4 ADD MSTORE PUSH2 0x3D7A DUP2 DUP8 PUSH2 0x3763 JUMP JUMPDEST SWAP1 POP PUSH2 0x3D89 PUSH1 0x80 DUP4 ADD DUP7 PUSH2 0x361A JUMP JUMPDEST PUSH2 0x3D96 PUSH1 0xA0 DUP4 ADD DUP6 PUSH2 0x3BA1 JUMP JUMPDEST DUP2 DUP2 SUB PUSH1 0xC0 DUP4 ADD MSTORE PUSH2 0x3DA8 DUP2 DUP5 PUSH2 0x3763 JUMP JUMPDEST SWAP1 POP SWAP9 SWAP8 POP POP POP POP POP POP POP POP JUMP JUMPDEST PUSH1 0x0 PUSH1 0x40 DUP3 ADD SWAP1 POP PUSH2 0x3DCB PUSH1 0x0 DUP4 ADD DUP6 PUSH2 0x361A JUMP JUMPDEST PUSH2 0x3DD8 PUSH1 0x20 DUP4 ADD DUP5 PUSH2 0x3BA1 JUMP JUMPDEST SWAP4 SWAP3 POP POP POP JUMP JUMPDEST PUSH1 0x0 PUSH1 0x40 DUP3 ADD SWAP1 POP DUP2 DUP2 SUB PUSH1 0x0 DUP4 ADD MSTORE PUSH2 0x3DF9 DUP2 DUP6 PUSH2 0x3640 JUMP JUMPDEST SWAP1 POP PUSH2 0x3E08 PUSH1 0x20 DUP4 ADD DUP5 PUSH2 0x36B5 JUMP JUMPDEST SWAP4 SWAP3 POP POP POP JUMP JUMPDEST PUSH1 0x0 PUSH1 0x20 DUP3 ADD SWAP1 POP PUSH2 0x3E24 PUSH1 0x0 DUP4 ADD DUP5 PUSH2 0x36B5 JUMP JUMPDEST SWAP3 SWAP2 POP POP JUMP JUMPDEST PUSH1 0x0 PUSH1 0x20 DUP3 ADD SWAP1 POP PUSH2 0x3E3F PUSH1 0x0 DUP4 ADD DUP5 PUSH2 0x36C4 JUMP JUMPDEST SWAP3 SWAP2 POP POP JUMP JUMPDEST PUSH1 0x0 PUSH1 0x80 DUP3 ADD SWAP1 POP PUSH2 0x3E5A PUSH1 0x0 DUP4 ADD DUP8 PUSH2 0x36C4 JUMP JUMPDEST PUSH2 0x3E67 PUSH1 0x20 DUP4 ADD DUP7 PUSH2 0x3BC7 JUMP JUMPDEST PUSH2 0x3E74 PUSH1 0x40 DUP4 ADD DUP6 PUSH2 0x36C4 JUMP JUMPDEST PUSH2 0x3E81 PUSH1 0x60 DUP4 ADD DUP5 PUSH2 0x36C4 JUMP JUMPDEST SWAP6 SWAP5 POP POP POP POP POP JUMP JUMPDEST PUSH1 0x0 PUSH1 0x20 DUP3 ADD SWAP1 POP PUSH2 0x3E9F PUSH1 0x0 DUP4 ADD DUP5 PUSH2 0x371B JUMP JUMPDEST SWAP3 SWAP2 POP POP JUMP JUMPDEST PUSH1 0x0 PUSH1 0x20 DUP3 ADD SWAP1 POP DUP2 DUP2 SUB PUSH1 0x0 DUP4 ADD MSTORE PUSH2 0x3EBF DUP2 DUP5 PUSH2 0x3763 JUMP JUMPDEST SWAP1 POP SWAP3 SWAP2 POP POP JUMP JUMPDEST PUSH1 0x0 PUSH1 0xA0 DUP3 ADD SWAP1 POP DUP2 DUP2 SUB PUSH1 0x0 DUP4 ADD MSTORE PUSH2 0x3EE1 DUP2 DUP9 PUSH2 0x3763 JUMP JUMPDEST SWAP1 POP DUP2 DUP2 SUB PUSH1 0x20 DUP4 ADD MSTORE PUSH2 0x3EF5 DUP2 DUP8 PUSH2 0x3763 JUMP JUMPDEST SWAP1 POP DUP2 DUP2 SUB PUSH1 0x40 DUP4 ADD MSTORE PUSH2 0x3F09 DUP2 DUP7 PUSH2 0x3763 JUMP JUMPDEST SWAP1 POP PUSH2 0x3F18 PUSH1 0x60 DUP4 ADD DUP6 PUSH2 0x3BA1 JUMP JUMPDEST DUP2 DUP2 SUB PUSH1 0x80 DUP4 ADD MSTORE PUSH2 0x3F2A DUP2 DUP5 PUSH2 0x3763 JUMP JUMPDEST SWAP1 POP SWAP7 SWAP6 POP POP POP POP POP POP JUMP JUMPDEST PUSH1 0x0 PUSH1 0x20 DUP3 ADD SWAP1 POP DUP2 DUP2 SUB PUSH1 0x0 DUP4 ADD MSTORE PUSH2 0x3F4F DUP2 PUSH2 0x37F0 JUMP JUMPDEST SWAP1 POP SWAP2 SWAP1 POP JUMP JUMPDEST PUSH1 0x0 PUSH1 0x20 DUP3 ADD SWAP1 POP DUP2 DUP2 SUB PUSH1 0x0 DUP4 ADD MSTORE PUSH2 0x3F6F DUP2 PUSH2 0x3813 JUMP JUMPDEST SWAP1 POP SWAP2 SWAP1 POP JUMP JUMPDEST PUSH1 0x0 PUSH1 0x20 DUP3 ADD SWAP1 POP DUP2 DUP2 SUB PUSH1 0x0 DUP4 ADD MSTORE PUSH2 0x3F8F DUP2 PUSH2 0x3836 JUMP JUMPDEST SWAP1 POP SWAP2 SWAP1 POP JUMP JUMPDEST PUSH1 0x0 PUSH1 0x20 DUP3 ADD SWAP1 POP DUP2 DUP2 SUB PUSH1 0x0 DUP4 ADD MSTORE PUSH2 0x3FAF DUP2 PUSH2 0x3859 JUMP JUMPDEST SWAP1 POP SWAP2 SWAP1 POP JUMP JUMPDEST PUSH1 0x0 PUSH1 0x60 DUP3 ADD SWAP1 POP DUP2 DUP2 SUB PUSH1 0x0 DUP4 ADD MSTORE PUSH2 0x3FCF DUP2 PUSH2 0x387C JUMP JUMPDEST SWAP1 POP PUSH2 0x3FDE PUSH1 0x20 DUP4 ADD DUP6 PUSH2 0x361A JUMP JUMPDEST PUSH2 0x3FEB PUSH1 0x40 DUP4 ADD DUP5 PUSH2 0x36B5 JUMP JUMPDEST SWAP4 SWAP3 POP POP POP JUMP JUMPDEST PUSH1 0x0 PUSH1 0x20 DUP3 ADD SWAP1 POP DUP2 DUP2 SUB PUSH1 0x0 DUP4 ADD MSTORE PUSH2 0x400B DUP2 PUSH2 0x389F JUMP JUMPDEST SWAP1 POP SWAP2 SWAP1 POP JUMP JUMPDEST PUSH1 0x0 PUSH1 0x20 DUP3 ADD SWAP1 POP DUP2 DUP2 SUB PUSH1 0x0 DUP4 ADD MSTORE PUSH2 0x402B DUP2 PUSH2 0x38C2 JUMP JUMPDEST SWAP1 POP SWAP2 SWAP1 POP JUMP JUMPDEST PUSH1 0x0 PUSH1 0x20 DUP3 ADD SWAP1 POP DUP2 DUP2 SUB PUSH1 0x0 DUP4 ADD MSTORE PUSH2 0x404B DUP2 PUSH2 0x38E5 JUMP JUMPDEST SWAP1 POP SWAP2 SWAP1 POP JUMP JUMPDEST PUSH1 0x0 PUSH1 0x20 DUP3 ADD SWAP1 POP DUP2 DUP2 SUB PUSH1 0x0 DUP4 ADD MSTORE PUSH2 0x406B DUP2 PUSH2 0x3908 JUMP JUMPDEST SWAP1 POP SWAP2 SWAP1 POP JUMP JUMPDEST PUSH1 0x0 PUSH1 0x60 DUP3 ADD SWAP1 POP DUP2 DUP2 SUB PUSH1 0x0 DUP4 ADD MSTORE PUSH2 0x408B DUP2 PUSH2 0x392B JUMP JUMPDEST SWAP1 POP PUSH2 0x409A PUSH1 0x20 DUP4 ADD DUP6 PUSH2 0x361A JUMP JUMPDEST PUSH2 0x40A7 PUSH1 0x40 DUP4 ADD DUP5 PUSH2 0x36B5 JUMP JUMPDEST SWAP4 SWAP3 POP POP POP JUMP JUMPDEST PUSH1 0x0 PUSH1 0x20 DUP3 ADD SWAP1 POP DUP2 DUP2 SUB PUSH1 0x0 DUP4 ADD MSTORE PUSH2 0x40C7 DUP2 PUSH2 0x394E JUMP JUMPDEST SWAP1 POP SWAP2 SWAP1 POP JUMP JUMPDEST PUSH1 0x0 PUSH1 0x20 DUP3 ADD SWAP1 POP DUP2 DUP2 SUB PUSH1 0x0 DUP4 ADD MSTORE PUSH2 0x40E7 DUP2 PUSH2 0x3971 JUMP JUMPDEST SWAP1 POP SWAP2 SWAP1 POP JUMP JUMPDEST PUSH1 0x0 PUSH1 0x20 DUP3 ADD SWAP1 POP DUP2 DUP2 SUB PUSH1 0x0 DUP4 ADD MSTORE PUSH2 0x4107 DUP2 PUSH2 0x3994 JUMP JUMPDEST SWAP1 POP SWAP2 SWAP1 POP JUMP JUMPDEST PUSH1 0x0 PUSH1 0x20 DUP3 ADD SWAP1 POP DUP2 DUP2 SUB PUSH1 0x0 DUP4 ADD MSTORE PUSH2 0x4127 DUP2 PUSH2 0x39B7 JUMP JUMPDEST SWAP1 POP SWAP2 SWAP1 POP JUMP JUMPDEST PUSH1 0x0 PUSH1 0x20 DUP3 ADD SWAP1 POP DUP2 DUP2 SUB PUSH1 0x0 DUP4 ADD MSTORE PUSH2 0x4147 DUP2 PUSH2 0x39DA JUMP JUMPDEST SWAP1 POP SWAP2 SWAP1 POP JUMP JUMPDEST PUSH1 0x0 PUSH1 0x20 DUP3 ADD SWAP1 POP DUP2 DUP2 SUB PUSH1 0x0 DUP4 ADD MSTORE PUSH2 0x4167 DUP2 PUSH2 0x39FD JUMP JUMPDEST SWAP1 POP SWAP2 SWAP1 POP JUMP JUMPDEST PUSH1 0x0 PUSH1 0x20 DUP3 ADD SWAP1 POP DUP2 DUP2 SUB PUSH1 0x0 DUP4 ADD MSTORE PUSH2 0x4187 DUP2 PUSH2 0x3A20 JUMP JUMPDEST SWAP1 POP SWAP2 SWAP1 POP JUMP JUMPDEST PUSH1 0x0 PUSH1 0x20 DUP3 ADD SWAP1 POP DUP2 DUP2 SUB PUSH1 0x0 DUP4 ADD MSTORE PUSH2 0x41A7 DUP2 PUSH2 0x3A43 JUMP JUMPDEST SWAP1 POP SWAP2 SWAP1 POP JUMP JUMPDEST PUSH1 0x0 PUSH1 0x20 DUP3 ADD SWAP1 POP DUP2 DUP2 SUB PUSH1 0x0 DUP4 ADD MSTORE PUSH2 0x41C7 DUP2 PUSH2 0x3A66 JUMP JUMPDEST SWAP1 POP SWAP2 SWAP1 POP JUMP JUMPDEST PUSH1 0x0 PUSH1 0x20 DUP3 ADD SWAP1 POP DUP2 DUP2 SUB PUSH1 0x0 DUP4 ADD MSTORE PUSH2 0x41E7 DUP2 PUSH2 0x3A89 JUMP JUMPDEST SWAP1 POP SWAP2 SWAP1 POP JUMP JUMPDEST PUSH1 0x0 PUSH1 0x20 DUP3 ADD SWAP1 POP DUP2 DUP2 SUB PUSH1 0x0 DUP4 ADD MSTORE PUSH2 0x4207 DUP2 PUSH2 0x3AAC JUMP JUMPDEST SWAP1 POP SWAP2 SWAP1 POP JUMP JUMPDEST PUSH1 0x0 PUSH1 0x20 DUP3 ADD SWAP1 POP DUP2 DUP2 SUB PUSH1 0x0 DUP4 ADD MSTORE PUSH2 0x4227 DUP2 PUSH2 0x3ACF JUMP JUMPDEST SWAP1 POP SWAP2 SWAP1 POP JUMP JUMPDEST PUSH1 0x0 PUSH1 0x60 DUP3 ADD SWAP1 POP DUP2 DUP2 SUB PUSH1 0x0 DUP4 ADD MSTORE PUSH2 0x4247 DUP2 PUSH2 0x3AF2 JUMP JUMPDEST SWAP1 POP PUSH2 0x4256 PUSH1 0x20 DUP4 ADD DUP6 PUSH2 0x361A JUMP JUMPDEST PUSH2 0x4263 PUSH1 0x40 DUP4 ADD DUP5 PUSH2 0x36B5 JUMP JUMPDEST SWAP4 SWAP3 POP POP POP JUMP JUMPDEST PUSH1 0x0 PUSH1 0x20 DUP3 ADD SWAP1 POP DUP2 DUP2 SUB PUSH1 0x0 DUP4 ADD MSTORE PUSH2 0x4283 DUP2 PUSH2 0x3B15 JUMP JUMPDEST SWAP1 POP SWAP2 SWAP1 POP JUMP JUMPDEST PUSH1 0x0 PUSH1 0x20 DUP3 ADD SWAP1 POP DUP2 DUP2 SUB PUSH1 0x0 DUP4 ADD MSTORE PUSH2 0x42A3 DUP2 PUSH2 0x3B38 JUMP JUMPDEST SWAP1 POP SWAP2 SWAP1 POP JUMP JUMPDEST PUSH1 0x0 PUSH1 0x20 DUP3 ADD SWAP1 POP DUP2 DUP2 SUB PUSH1 0x0 DUP4 ADD MSTORE PUSH2 0x42C3 DUP2 PUSH2 0x3B5B JUMP JUMPDEST SWAP1 POP SWAP2 SWAP1 POP JUMP JUMPDEST PUSH1 0x0 PUSH1 0x20 DUP3 ADD SWAP1 POP DUP2 DUP2 SUB PUSH1 0x0 DUP4 ADD MSTORE PUSH2 0x42E3 DUP2 PUSH2 0x3B7E JUMP JUMPDEST SWAP1 POP SWAP2 SWAP1 POP JUMP JUMPDEST PUSH1 0x0 PUSH1 0x20 DUP3 ADD SWAP1 POP PUSH2 0x42FF PUSH1 0x0 DUP4 ADD DUP5 PUSH2 0x3BA1 JUMP JUMPDEST SWAP3 SWAP2 POP POP JUMP JUMPDEST PUSH1 0x0 PUSH2 0x430F PUSH2 0x4320 JUMP JUMPDEST SWAP1 POP PUSH2 0x431B DUP3 DUP3 PUSH2 0x455B JUMP JUMPDEST SWAP2 SWAP1 POP JUMP JUMPDEST PUSH1 0x0 PUSH1 0x40 MLOAD SWAP1 POP SWAP1 JUMP JUMPDEST PUSH1 0x0 PUSH8 0xFFFFFFFFFFFFFFFF DUP3 GT ISZERO PUSH2 0x4345 JUMPI PUSH2 0x4344 PUSH2 0x466B JUMP JUMPDEST JUMPDEST PUSH1 0x20 DUP3 MUL SWAP1 POP PUSH1 0x20 DUP2 ADD SWAP1 POP SWAP2 SWAP1 POP JUMP JUMPDEST PUSH1 0x0 PUSH8 0xFFFFFFFFFFFFFFFF DUP3 GT ISZERO PUSH2 0x4371 JUMPI PUSH2 0x4370 PUSH2 0x466B JUMP JUMPDEST JUMPDEST PUSH2 0x437A DUP3 PUSH2 0x469A JUMP JUMPDEST SWAP1 POP PUSH1 0x20 DUP2 ADD SWAP1 POP SWAP2 SWAP1 POP JUMP JUMPDEST PUSH1 0x0 PUSH8 0xFFFFFFFFFFFFFFFF DUP3 GT ISZERO PUSH2 0x43A2 JUMPI PUSH2 0x43A1 PUSH2 0x466B JUMP JUMPDEST JUMPDEST PUSH2 0x43AB DUP3 PUSH2 0x469A JUMP JUMPDEST SWAP1 POP PUSH1 0x20 DUP2 ADD SWAP1 POP SWAP2 SWAP1 POP JUMP JUMPDEST PUSH1 0x0 DUP2 SWAP1 POP PUSH1 0x20 DUP3 ADD SWAP1 POP SWAP2 SWAP1 POP JUMP JUMPDEST PUSH1 0x0 DUP2 MLOAD SWAP1 POP SWAP2 SWAP1 POP JUMP JUMPDEST PUSH1 0x0 DUP2 MLOAD SWAP1 POP SWAP2 SWAP1 POP JUMP JUMPDEST PUSH1 0x0 DUP2 MLOAD SWAP1 POP SWAP2 SWAP1 POP JUMP JUMPDEST PUSH1 0x0 PUSH1 0x20 DUP3 ADD SWAP1 POP SWAP2 SWAP1 POP JUMP JUMPDEST PUSH1 0x0 DUP3 DUP3 MSTORE PUSH1 0x20 DUP3 ADD SWAP1 POP SWAP3 SWAP2 POP POP JUMP JUMPDEST PUSH1 0x0 DUP2 SWAP1 POP SWAP3 SWAP2 POP POP JUMP JUMPDEST PUSH1 0x0 DUP3 DUP3 MSTORE PUSH1 0x20 DUP3 ADD SWAP1 POP SWAP3 SWAP2 POP POP JUMP JUMPDEST PUSH1 0x0 DUP3 DUP3 MSTORE PUSH1 0x20 DUP3 ADD SWAP1 POP SWAP3 SWAP2 POP POP JUMP JUMPDEST PUSH1 0x0 DUP2 SWAP1 POP SWAP3 SWAP2 POP POP JUMP JUMPDEST PUSH1 0x0 PUSH2 0x444A DUP3 PUSH2 0x44C8 JUMP JUMPDEST SWAP2 POP PUSH2 0x4455 DUP4 PUSH2 0x44C8 JUMP JUMPDEST SWAP3 POP DUP3 PUSH1 0xFF SUB DUP3 GT ISZERO PUSH2 0x446B JUMPI PUSH2 0x446A PUSH2 0x460D JUMP JUMPDEST JUMPDEST DUP3 DUP3 ADD SWAP1 POP SWAP3 SWAP2 POP POP JUMP JUMPDEST PUSH1 0x0 PUSH2 0x4481 DUP3 PUSH2 0x449E JUMP JUMPDEST SWAP1 POP SWAP2 SWAP1 POP JUMP JUMPDEST PUSH1 0x0 DUP2 ISZERO ISZERO SWAP1 POP SWAP2 SWAP1 POP JUMP JUMPDEST PUSH1 0x0 DUP2 SWAP1 POP SWAP2 SWAP1 POP JUMP JUMPDEST PUSH1 0x0 PUSH20 0xFFFFFFFFFFFFFFFFFFFFFFFFFFFFFFFFFFFFFFFF DUP3 AND SWAP1 POP SWAP2 SWAP1 POP JUMP JUMPDEST PUSH1 0x0 DUP2 SWAP1 POP SWAP2 SWAP1 POP JUMP JUMPDEST PUSH1 0x0 PUSH1 0xFF DUP3 AND SWAP1 POP SWAP2 SWAP1 POP JUMP JUMPDEST PUSH1 0x0 PUSH2 0x44E0 DUP3 PUSH2 0x44C8 JUMP JUMPDEST SWAP1 POP SWAP2 SWAP1 POP JUMP JUMPDEST DUP3 DUP2 DUP4 CALLDATACOPY PUSH1 0x0 DUP4 DUP4 ADD MSTORE POP POP POP JUMP JUMPDEST PUSH1 0x0 JUMPDEST DUP4 DUP2 LT ISZERO PUSH2 0x4514 JUMPI DUP1 DUP3 ADD MLOAD DUP2 DUP5 ADD MSTORE PUSH1 0x20 DUP2 ADD SWAP1 POP PUSH2 0x44F9 JUMP JUMPDEST DUP4 DUP2 GT ISZERO PUSH2 0x4523 JUMPI PUSH1 0x0 DUP5 DUP5 ADD MSTORE JUMPDEST POP POP POP POP JUMP JUMPDEST PUSH1 0x0 PUSH1 0x2 DUP3 DIV SWAP1 POP PUSH1 0x1 DUP3 AND DUP1 PUSH2 0x4541 JUMPI PUSH1 0x7F DUP3 AND SWAP2 POP JUMPDEST PUSH1 0x20 DUP3 LT DUP2 EQ ISZERO PUSH2 0x4555 JUMPI PUSH2 0x4554 PUSH2 0x463C JUMP JUMPDEST JUMPDEST POP SWAP2 SWAP1 POP JUMP JUMPDEST PUSH2 0x4564 DUP3 PUSH2 0x469A JUMP JUMPDEST DUP2 ADD DUP2 DUP2 LT PUSH8 0xFFFFFFFFFFFFFFFF DUP3 GT OR ISZERO PUSH2 0x4583 JUMPI PUSH2 0x4582 PUSH2 0x466B JUMP JUMPDEST JUMPDEST DUP1 PUSH1 0x40 MSTORE POP POP POP JUMP JUMPDEST PUSH1 0x0 PUSH2 0x4597 DUP3 PUSH2 0x44BE JUMP JUMPDEST SWAP2 POP PUSH32 0xFFFFFFFFFFFFFFFFFFFFFFFFFFFFFFFFFFFFFFFFFFFFFFFFFFFFFFFFFFFFFFFF DUP3 EQ ISZERO PUSH2 0x45CA JUMPI PUSH2 0x45C9 PUSH2 0x460D JUMP JUMPDEST JUMPDEST PUSH1 0x1 DUP3 ADD SWAP1 POP SWAP2 SWAP1 POP JUMP JUMPDEST PUSH1 0x0 PUSH2 0x45E0 DUP3 PUSH2 0x45F1 JUMP JUMPDEST SWAP1 POP SWAP2 SWAP1 POP JUMP JUMPDEST PUSH1 0x0 DUP2 SWAP1 POP SWAP2 SWAP1 POP JUMP JUMPDEST PUSH1 0x0 PUSH2 0x45FC DUP3 PUSH2 0x46AB JUMP JUMPDEST SWAP1 POP SWAP2 SWAP1 POP JUMP JUMPDEST PUSH1 0x0 DUP2 SWAP1 POP SWAP2 SWAP1 POP JUMP JUMPDEST PUSH32 0x4E487B7100000000000000000000000000000000000000000000000000000000 PUSH1 0x0 MSTORE PUSH1 0x11 PUSH1 0x4 MSTORE PUSH1 0x24 PUSH1 0x0 REVERT JUMPDEST PUSH32 0x4E487B7100000000000000000000000000000000000000000000000000000000 PUSH1 0x0 MSTORE PUSH1 0x22 PUSH1 0x4 MSTORE PUSH1 0x24 PUSH1 0x0 REVERT JUMPDEST PUSH32 0x4E487B7100000000000000000000000000000000000000000000000000000000 PUSH1 0x0 MSTORE PUSH1 0x41 PUSH1 0x4 MSTORE PUSH1 0x24 PUSH1 0x0 REVERT JUMPDEST PUSH1 0x0 PUSH1 0x1F NOT PUSH1 0x1F DUP4 ADD AND SWAP1 POP SWAP2 SWAP1 POP JUMP JUMPDEST PUSH1 0x0 DUP2 PUSH1 0x60 SHL SWAP1 POP SWAP2 SWAP1 POP JUMP JUMPDEST PUSH32 0x19457468657265756D205369676E6564204D6573736167653A0A333200000000 PUSH1 0x0 DUP3 ADD MSTORE POP JUMP JUMPDEST PUSH32 0x4F776E61626C653A206E6577206F776E657220697320746865207A65726F2061 PUSH1 0x0 DUP3 ADD MSTORE PUSH32 0x6464726573730000000000000000000000000000000000000000000000000000 PUSH1 0x20 DUP3 ADD MSTORE POP JUMP JUMPDEST PUSH32 0x46756E6374696F6E206D7573742062652063616C6C6564207468726F75676820 PUSH1 0x0 DUP3 ADD MSTORE PUSH32 0x64656C656761746563616C6C0000000000000000000000000000000000000000 PUSH1 0x20 DUP3 ADD MSTORE POP JUMP JUMPDEST PUSH32 0x46756E6374696F6E206D7573742062652063616C6C6564207468726F75676820 PUSH1 0x0 DUP3 ADD MSTORE PUSH32 0x6163746976652070726F78790000000000000000000000000000000000000000 PUSH1 0x20 DUP3 ADD MSTORE POP JUMP JUMPDEST PUSH32 0x4C6F636B3A20496E76616C696420637572206E6574776F726B20746F6B656E00 PUSH1 0x0 DUP3 ADD MSTORE POP JUMP JUMPDEST PUSH32 0x7365745F7369676E657200000000000000000000000000000000000000000000 PUSH1 0x0 DUP3 ADD MSTORE POP JUMP JUMPDEST PUSH32 0x555550535570677261646561626C653A206D757374206E6F742062652063616C PUSH1 0x0 DUP3 ADD MSTORE PUSH32 0x6C6564207468726F7567682064656C656761746563616C6C0000000000000000 PUSH1 0x20 DUP3 ADD MSTORE POP JUMP JUMPDEST PUSH32 0x4D696E743A205472616E7366657220616D6F756E74206578636565647320616C PUSH1 0x0 DUP3 ADD MSTORE PUSH32 0x6C6F77616E636500000000000000000000000000000000000000000000000000 PUSH1 0x20 DUP3 ADD MSTORE POP JUMP JUMPDEST PUSH32 0x45524331393637557067726164653A20756E737570706F727465642070726F78 PUSH1 0x0 DUP3 ADD MSTORE PUSH32 0x6961626C65555549440000000000000000000000000000000000000000000000 PUSH1 0x20 DUP3 ADD MSTORE POP JUMP JUMPDEST PUSH32 0x496E697469616C697A61626C653A20636F6E747261637420697320616C726561 PUSH1 0x0 DUP3 ADD MSTORE PUSH32 0x647920696E697469616C697A6564000000000000000000000000000000000000 PUSH1 0x20 DUP3 ADD MSTORE POP JUMP JUMPDEST PUSH32 0x7365745F616D6F756E745F617070726F76657200000000000000000000000000 PUSH1 0x0 DUP3 ADD MSTORE POP JUMP JUMPDEST PUSH32 0x4275726E3A205472616E73616374696F6E206578697374656400000000000000 PUSH1 0x0 DUP3 ADD MSTORE POP JUMP JUMPDEST PUSH32 0x45524331393637557067726164653A206E657720696D706C656D656E74617469 PUSH1 0x0 DUP3 ADD MSTORE PUSH32 0x6F6E206973206E6F742055555053000000000000000000000000000000000000 PUSH1 0x20 DUP3 ADD MSTORE POP JUMP JUMPDEST PUSH32 0x455243313936373A206E657720696D706C656D656E746174696F6E206973206E PUSH1 0x0 DUP3 ADD MSTORE PUSH32 0x6F74206120636F6E747261637400000000000000000000000000000000000000 PUSH1 0x20 DUP3 ADD MSTORE POP JUMP JUMPDEST PUSH32 0x4F776E61626C653A2063616C6C6572206973206E6F7420746865206F776E6572 PUSH1 0x0 DUP3 ADD MSTORE POP JUMP JUMPDEST PUSH32 0x53797374656D3A20506175736564000000000000000000000000000000000000 PUSH1 0x0 DUP3 ADD MSTORE POP JUMP JUMPDEST PUSH32 0x556E6C6F636B3A205377617020616D6F756E7420756E617070726F7665642061 PUSH1 0x0 DUP3 ADD MSTORE PUSH32 0x6E6420657863656564206D6178207377617020616D6F756E7420000000000000 PUSH1 0x20 DUP3 ADD MSTORE POP JUMP JUMPDEST PUSH32 0x4C6F636B3A20496E76616C696420646573206E6574776F726B20746F6B656E00 PUSH1 0x0 DUP3 ADD MSTORE POP JUMP JUMPDEST PUSH32 0x556E6C6F636B3A20496E76616C6964207369676E617475726500000000000000 PUSH1 0x0 DUP3 ADD MSTORE POP JUMP JUMPDEST PUSH32 0x416464726573733A2064656C65676174652063616C6C20746F206E6F6E2D636F PUSH1 0x0 DUP3 ADD MSTORE PUSH32 0x6E74726163740000000000000000000000000000000000000000000000000000 PUSH1 0x20 DUP3 ADD MSTORE POP JUMP JUMPDEST PUSH32 0x41757468656E7469636174696F6E3A20526571756972652061646D696E730000 PUSH1 0x0 DUP3 ADD MSTORE POP JUMP JUMPDEST PUSH32 0x556E6C6F636B3A205472616E73616374696F6E20657869737465640000000000 PUSH1 0x0 DUP3 ADD MSTORE POP JUMP JUMPDEST PUSH32 0x496E697469616C697A61626C653A20636F6E7472616374206973206E6F742069 PUSH1 0x0 DUP3 ADD MSTORE PUSH32 0x6E697469616C697A696E67000000000000000000000000000000000000000000 PUSH1 0x20 DUP3 ADD MSTORE POP JUMP JUMPDEST PUSH32 0x7365745F61646D696E0000000000000000000000000000000000000000000000 PUSH1 0x0 DUP3 ADD MSTORE POP JUMP JUMPDEST PUSH32 0x5265656E7472616E637947756172643A207265656E7472616E742063616C6C00 PUSH1 0x0 DUP3 ADD MSTORE POP JUMP JUMPDEST PUSH32 0x4C6F636B3A20416D6F756E74206E6F742076616C696400000000000000000000 PUSH1 0x0 DUP3 ADD MSTORE POP JUMP JUMPDEST PUSH32 0x41757468656E7469636174696F6E3A205265717569726520616D6F756E742061 PUSH1 0x0 DUP3 ADD MSTORE PUSH32 0x7070726F76657200000000000000000000000000000000000000000000000000 PUSH1 0x20 DUP3 ADD MSTORE POP JUMP JUMPDEST PUSH32 0x556E6C6F636B3A206E6F742074686520636F7272656374207573657200000000 PUSH1 0x0 DUP3 ADD MSTORE POP JUMP JUMPDEST PUSH2 0x4D2B DUP2 PUSH2 0x4476 JUMP JUMPDEST DUP2 EQ PUSH2 0x4D36 JUMPI PUSH1 0x0 DUP1 REVERT JUMPDEST POP JUMP JUMPDEST PUSH2 0x4D42 DUP2 PUSH2 0x4488 JUMP JUMPDEST DUP2 EQ PUSH2 0x4D4D JUMPI PUSH1 0x0 DUP1 REVERT JUMPDEST POP JUMP JUMPDEST PUSH2 0x4D59 DUP2 PUSH2 0x4494 JUMP JUMPDEST DUP2 EQ PUSH2 0x4D64 JUMPI PUSH1 0x0 DUP1 REVERT JUMPDEST POP JUMP JUMPDEST PUSH2 0x4D70 DUP2 PUSH2 0x44BE JUMP JUMPDEST DUP2 EQ PUSH2 0x4D7B JUMPI PUSH1 0x0 DUP1 REVERT JUMPDEST POP JUMP INVALID COINBASE PUSH5 0x6472657373 GASPRICE KECCAK256 PUSH13 0x6F772D6C6576656C2064656C65 PUSH8 0x6174652063616C6C KECCAK256 PUSH7 0x61696C6564A264 PUSH10 0x70667358221220F374DE 0xCB PUSH9 0x43DCF997CAB12E1BEB SAR 0xDD PUSH1 0x7B SELFDESTRUCT SWAP6 SWAP7 0x4A DUP13 SWAP8 0xE DUP11 DUP13 0xD3 ISZERO JUMPI 0xCC 0xE PUSH5 0x736F6C6343 STOP ADDMOD MUL STOP CALLER "
        },
        "methodIdentifiers": {
          "acceptedDesTokens(string)": "089dd512",
          "acceptedTokens(address)": "82dc4a05",
          "adminLists(address)": "da26742b",
          "burn(string,address,string,string,uint256)": "c9212a9d",
          "getMessageHash(string,address,string,address,string,uint256)": "7b8e3474",
          "getSigner()": "7ac3c02f",
          "initialize()": "8129fc1c",
          "isTransactionExisted(string)": "2c102c48",
          "maxSwapAmounts(address)": "4ebd25a5",
          "mint(string,address,string,address,string,uint256,bytes)": "3cd33234",
          "owner()": "8da5cb5b",
          "paused()": "5c975abb",
          "proxiableUUID()": "52d1902d",
          "recoverSigner(bytes32,bytes)": "97aba7f9",
          "renounceOwnership()": "715018a6",
          "setAcceptedDesToken(string,bool)": "cd6ec99e",
          "setAcceptedToken(address,bool)": "c997dbca",
          "setAdmin(address,bool)": "4b0bddd2",
          "setAmountApprover(address,bool)": "d898be5b",
          "setApprovedTxByAmount(string[],bool)": "09cf80e0",
          "setMaxSwapAmount(address,uint256)": "a589d319",
          "setPauseStatus(bool)": "c38bb537",
          "setSigner(address)": "6c19e783",
          "swapDatas(string)": "5163e2cc",
          "transferOwnership(address)": "f2fde38b",
          "upgradeTo(address)": "3659cfe6",
          "upgradeToAndCall(address,bytes)": "4f1ef286",
          "verify(string,address,string,address,string,uint256,bytes)": "2c78e90b"
        }
      },
      "storageLayout": {
        "storage": [
          {
            "astId": 519,
            "contract": "contracts/Monsterra.sol:Monsterra",
            "label": "_initialized",
            "offset": 0,
            "slot": "0",
            "type": "t_uint8"
          },
          {
            "astId": 522,
            "contract": "contracts/Monsterra.sol:Monsterra",
            "label": "_initializing",
            "offset": 1,
            "slot": "0",
            "type": "t_bool"
          },
          {
            "astId": 501,
            "contract": "contracts/Monsterra.sol:Monsterra",
            "label": "__gap",
            "offset": 0,
            "slot": "1",
            "type": "t_array(t_uint256)50_storage"
          },
          {
            "astId": 789,
            "contract": "contracts/Monsterra.sol:Monsterra",
            "label": "__gap",
            "offset": 0,
            "slot": "51",
            "type": "t_array(t_uint256)50_storage"
          },
          {
            "astId": 1211,
            "contract": "contracts/Monsterra.sol:Monsterra",
            "label": "__gap",
            "offset": 0,
            "slot": "101",
            "type": "t_array(t_uint256)50_storage"
          },
          {
            "astId": 10,
            "contract": "contracts/Monsterra.sol:Monsterra",
            "label": "_owner",
            "offset": 0,
            "slot": "151",
            "type": "t_address"
          },
          {
            "astId": 122,
            "contract": "contracts/Monsterra.sol:Monsterra",
            "label": "__gap",
            "offset": 0,
            "slot": "152",
            "type": "t_array(t_uint256)49_storage"
          },
          {
            "astId": 804,
            "contract": "contracts/Monsterra.sol:Monsterra",
            "label": "_status",
            "offset": 0,
            "slot": "201",
            "type": "t_uint256"
          },
          {
            "astId": 848,
            "contract": "contracts/Monsterra.sol:Monsterra",
            "label": "__gap",
            "offset": 0,
            "slot": "202",
            "type": "t_array(t_uint256)49_storage"
          },
          {
            "astId": 1317,
            "contract": "contracts/Monsterra.sol:Monsterra",
            "label": "swapDatas",
            "offset": 0,
            "slot": "251",
            "type": "t_mapping(t_string_memory_ptr,t_struct(SwapData)1295_storage)"
          },
          {
            "astId": 1319,
            "contract": "contracts/Monsterra.sol:Monsterra",
            "label": "signer",
            "offset": 0,
            "slot": "252",
            "type": "t_address"
          },
          {
            "astId": 1323,
            "contract": "contracts/Monsterra.sol:Monsterra",
            "label": "acceptedTokens",
            "offset": 0,
            "slot": "253",
            "type": "t_mapping(t_address,t_bool)"
          },
          {
            "astId": 1327,
            "contract": "contracts/Monsterra.sol:Monsterra",
            "label": "acceptedDesTokens",
            "offset": 0,
            "slot": "254",
            "type": "t_mapping(t_string_memory_ptr,t_bool)"
          },
          {
            "astId": 1331,
            "contract": "contracts/Monsterra.sol:Monsterra",
            "label": "adminLists",
            "offset": 0,
            "slot": "255",
            "type": "t_mapping(t_address,t_bool)"
          },
          {
            "astId": 1335,
            "contract": "contracts/Monsterra.sol:Monsterra",
            "label": "amountApprovers",
            "offset": 0,
            "slot": "256",
            "type": "t_mapping(t_address,t_bool)"
          },
          {
            "astId": 1339,
            "contract": "contracts/Monsterra.sol:Monsterra",
            "label": "approvedTxs",
            "offset": 0,
            "slot": "257",
            "type": "t_mapping(t_string_memory_ptr,t_bool)"
          },
          {
            "astId": 1343,
            "contract": "contracts/Monsterra.sol:Monsterra",
            "label": "maxSwapAmounts",
            "offset": 0,
            "slot": "258",
            "type": "t_mapping(t_address,t_uint256)"
          },
          {
            "astId": 1345,
            "contract": "contracts/Monsterra.sol:Monsterra",
            "label": "paused",
            "offset": 0,
            "slot": "259",
            "type": "t_bool"
          }
        ],
        "types": {
          "t_address": {
            "encoding": "inplace",
            "label": "address",
            "numberOfBytes": "20"
          },
          "t_array(t_uint256)49_storage": {
            "base": "t_uint256",
            "encoding": "inplace",
            "label": "uint256[49]",
            "numberOfBytes": "1568"
          },
          "t_array(t_uint256)50_storage": {
            "base": "t_uint256",
            "encoding": "inplace",
            "label": "uint256[50]",
            "numberOfBytes": "1600"
          },
          "t_bool": {
            "encoding": "inplace",
            "label": "bool",
            "numberOfBytes": "1"
          },
          "t_mapping(t_address,t_bool)": {
            "encoding": "mapping",
            "key": "t_address",
            "label": "mapping(address => bool)",
            "numberOfBytes": "32",
            "value": "t_bool"
          },
          "t_mapping(t_address,t_uint256)": {
            "encoding": "mapping",
            "key": "t_address",
            "label": "mapping(address => uint256)",
            "numberOfBytes": "32",
            "value": "t_uint256"
          },
          "t_mapping(t_string_memory_ptr,t_bool)": {
            "encoding": "mapping",
            "key": "t_string_memory_ptr",
            "label": "mapping(string => bool)",
            "numberOfBytes": "32",
            "value": "t_bool"
          },
          "t_mapping(t_string_memory_ptr,t_struct(SwapData)1295_storage)": {
            "encoding": "mapping",
            "key": "t_string_memory_ptr",
            "label": "mapping(string => struct SwapData)",
            "numberOfBytes": "32",
            "value": "t_struct(SwapData)1295_storage"
          },
          "t_string_memory_ptr": {
            "encoding": "bytes",
            "label": "string",
            "numberOfBytes": "32"
          },
          "t_string_storage": {
            "encoding": "bytes",
            "label": "string",
            "numberOfBytes": "32"
          },
          "t_struct(SwapData)1295_storage": {
            "encoding": "inplace",
            "label": "struct SwapData",
            "members": [
              {
                "astId": 1282,
                "contract": "contracts/Monsterra.sol:Monsterra",
                "label": "curToken",
                "offset": 0,
                "slot": "0",
                "type": "t_address"
              },
              {
                "astId": 1284,
                "contract": "contracts/Monsterra.sol:Monsterra",
                "label": "desToken",
                "offset": 0,
                "slot": "1",
                "type": "t_string_storage"
              },
              {
                "astId": 1286,
                "contract": "contracts/Monsterra.sol:Monsterra",
                "label": "curUser",
                "offset": 0,
                "slot": "2",
                "type": "t_address"
              },
              {
                "astId": 1288,
                "contract": "contracts/Monsterra.sol:Monsterra",
                "label": "desUser",
                "offset": 0,
                "slot": "3",
                "type": "t_string_storage"
              },
              {
                "astId": 1290,
                "contract": "contracts/Monsterra.sol:Monsterra",
                "label": "signer",
                "offset": 0,
                "slot": "4",
                "type": "t_address"
              },
              {
                "astId": 1292,
                "contract": "contracts/Monsterra.sol:Monsterra",
                "label": "amount",
                "offset": 0,
                "slot": "5",
                "type": "t_uint256"
              },
              {
                "astId": 1294,
                "contract": "contracts/Monsterra.sol:Monsterra",
                "label": "side",
                "offset": 0,
                "slot": "6",
                "type": "t_string_storage"
              }
            ],
            "numberOfBytes": "224"
          },
          "t_uint256": {
            "encoding": "inplace",
            "label": "uint256",
            "numberOfBytes": "32"
          },
          "t_uint8": {
            "encoding": "inplace",
            "label": "uint8",
            "numberOfBytes": "1"
          }
        }
      }
    }
  }
}