{
  "contracts/utils/SignatureUtils.sol": {
    "SignatureUtils": {
      "abi": [
        {
          "inputs": [
            {
              "internalType": "string",
              "name": "transactionId_",
              "type": "string"
            },
            {
              "internalType": "address",
              "name": "curToken_",
              "type": "address"
            },
            {
              "internalType": "string",
              "name": "desToken_",
              "type": "string"
            },
            {
              "internalType": "address",
              "name": "curUser_",
              "type": "address"
            },
            {
              "internalType": "string",
              "name": "desUser_",
              "type": "string"
            },
            {
              "internalType": "uint256",
              "name": "amount_",
              "type": "uint256"
            }
          ],
          "name": "getMessageHash",
          "outputs": [
            {
              "internalType": "bytes32",
              "name": "",
              "type": "bytes32"
            }
          ],
          "stateMutability": "pure",
          "type": "function"
        },
        {
          "inputs": [
            {
              "internalType": "bytes32",
              "name": "hash",
              "type": "bytes32"
            },
            {
              "internalType": "bytes",
              "name": "signature",
              "type": "bytes"
            }
          ],
          "name": "recoverSigner",
          "outputs": [
            {
              "internalType": "address",
              "name": "",
              "type": "address"
            }
          ],
          "stateMutability": "pure",
          "type": "function"
        },
        {
          "inputs": [
            {
              "internalType": "string",
              "name": "transactionId_",
              "type": "string"
            },
            {
              "internalType": "address",
              "name": "curToken_",
              "type": "address"
            },
            {
              "internalType": "string",
              "name": "desToken_",
              "type": "string"
            },
            {
              "internalType": "address",
              "name": "curUser_",
              "type": "address"
            },
            {
              "internalType": "string",
              "name": "desUser_",
              "type": "string"
            },
            {
              "internalType": "uint256",
              "name": "amount_",
              "type": "uint256"
            },
            {
              "internalType": "bytes",
              "name": "signature",
              "type": "bytes"
            }
          ],
          "name": "verify",
          "outputs": [
            {
              "internalType": "address",
              "name": "",
              "type": "address"
            }
          ],
          "stateMutability": "pure",
          "type": "function"
        }
      ],
      "evm": {
        "bytecode": {
          "linkReferences": {},
          "object": "608060405234801561001057600080fd5b50610a40806100206000396000f3fe608060405234801561001057600080fd5b50600436106100415760003560e01c80632c78e90b146100465780637b8e34741461007657806397aba7f9146100a6575b600080fd5b610060600480360381019061005b9190610485565b6100d6565b60405161006d91906106d3565b60405180910390f35b610090600480360381019061008b91906103b4565b61010f565b60405161009d91906106ee565b60405180910390f35b6100c060048036038101906100bb9190610360565b61014e565b6040516100cd91906106d3565b60405180910390f35b6000806100e789898989898961010f565b905060006100f482610221565b9050610100818561014e565b92505050979650505050505050565b600086868686868660405160200161012c96959493929190610649565b6040516020818303038152906040528051906020012090509695505050505050565b6000806000806041855114610169576000935050505061021b565b6020850151925060408501519150606085015160001a9050601b8160ff16101561019d57601b8161019a91906107eb565b90505b601b8160ff16141580156101b55750601c8160ff1614155b156101c6576000935050505061021b565b600186828585604051600081526020016040526040516101e99493929190610709565b6020604051602081039080840390855afa15801561020b573d6000803e3d6000fd5b5050506020604051035193505050505b92915050565b60008160405160200161023491906106ad565b604051602081830303815290604052805190602001209050919050565b600061026461025f84610773565b61074e565b90508281526020810184848401111561027c57600080fd5b610287848285610875565b509392505050565b60006102a261029d846107a4565b61074e565b9050828152602081018484840111156102ba57600080fd5b6102c5848285610875565b509392505050565b6000813590506102dc816109c5565b92915050565b6000813590506102f1816109dc565b92915050565b600082601f83011261030857600080fd5b8135610318848260208601610251565b91505092915050565b600082601f83011261033257600080fd5b813561034284826020860161028f565b91505092915050565b60008135905061035a816109f3565b92915050565b6000806040838503121561037357600080fd5b6000610381858286016102e2565b925050602083013567ffffffffffffffff81111561039e57600080fd5b6103aa858286016102f7565b9150509250929050565b60008060008060008060c087890312156103cd57600080fd5b600087013567ffffffffffffffff8111156103e757600080fd5b6103f389828a01610321565b965050602061040489828a016102cd565b955050604087013567ffffffffffffffff81111561042157600080fd5b61042d89828a01610321565b945050606061043e89828a016102cd565b935050608087013567ffffffffffffffff81111561045b57600080fd5b61046789828a01610321565b92505060a061047889828a0161034b565b9150509295509295509295565b600080600080600080600060e0888a0312156104a057600080fd5b600088013567ffffffffffffffff8111156104ba57600080fd5b6104c68a828b01610321565b97505060206104d78a828b016102cd565b965050604088013567ffffffffffffffff8111156104f457600080fd5b6105008a828b01610321565b95505060606105118a828b016102cd565b945050608088013567ffffffffffffffff81111561052e57600080fd5b61053a8a828b01610321565b93505060a061054b8a828b0161034b565b92505060c088013567ffffffffffffffff81111561056857600080fd5b6105748a828b016102f7565b91505092959891949750929550565b61058c81610822565b82525050565b6105a361059e82610822565b6108e8565b82525050565b6105b281610834565b82525050565b6105c96105c482610834565b6108fa565b82525050565b60006105da826107d5565b6105e481856107e0565b93506105f4818560208601610884565b80840191505092915050565b600061060d601c836107e0565b91506106188261099c565b601c82019050919050565b61063461062f8261085e565b610916565b82525050565b61064381610868565b82525050565b600061065582896105cf565b91506106618288610592565b60148201915061067182876105cf565b915061067d8286610592565b60148201915061068d82856105cf565b91506106998284610623565b602082019150819050979650505050505050565b60006106b882610600565b91506106c482846105b8565b60208201915081905092915050565b60006020820190506106e86000830184610583565b92915050565b600060208201905061070360008301846105a9565b92915050565b600060808201905061071e60008301876105a9565b61072b602083018661063a565b61073860408301856105a9565b61074560608301846105a9565b95945050505050565b6000610758610769565b905061076482826108b7565b919050565b6000604051905090565b600067ffffffffffffffff82111561078e5761078d61094f565b5b6107978261097e565b9050602081019050919050565b600067ffffffffffffffff8211156107bf576107be61094f565b5b6107c88261097e565b9050602081019050919050565b600081519050919050565b600081905092915050565b60006107f682610868565b915061080183610868565b92508260ff0382111561081757610816610920565b5b828201905092915050565b600061082d8261083e565b9050919050565b6000819050919050565b600073ffffffffffffffffffffffffffffffffffffffff82169050919050565b6000819050919050565b600060ff82169050919050565b82818337600083830152505050565b60005b838110156108a2578082015181840152602081019050610887565b838111156108b1576000848401525b50505050565b6108c08261097e565b810181811067ffffffffffffffff821117156108df576108de61094f565b5b80604052505050565b60006108f382610904565b9050919050565b6000819050919050565b600061090f8261098f565b9050919050565b6000819050919050565b7f4e487b7100000000000000000000000000000000000000000000000000000000600052601160045260246000fd5b7f4e487b7100000000000000000000000000000000000000000000000000000000600052604160045260246000fd5b6000601f19601f8301169050919050565b60008160601b9050919050565b7f19457468657265756d205369676e6564204d6573736167653a0a333200000000600082015250565b6109ce81610822565b81146109d957600080fd5b50565b6109e581610834565b81146109f057600080fd5b50565b6109fc8161085e565b8114610a0757600080fd5b5056fea26469706673582212204ad8e6f475919292d2945ab3496ec6d742764b387e8757f0ba42766c4dfe968164736f6c63430008020033",
          "opcodes": "PUSH1 0x80 PUSH1 0x40 MSTORE CALLVALUE DUP1 ISZERO PUSH2 0x10 JUMPI PUSH1 0x0 DUP1 REVERT JUMPDEST POP PUSH2 0xA40 DUP1 PUSH2 0x20 PUSH1 0x0 CODECOPY PUSH1 0x0 RETURN INVALID PUSH1 0x80 PUSH1 0x40 MSTORE CALLVALUE DUP1 ISZERO PUSH2 0x10 JUMPI PUSH1 0x0 DUP1 REVERT JUMPDEST POP PUSH1 0x4 CALLDATASIZE LT PUSH2 0x41 JUMPI PUSH1 0x0 CALLDATALOAD PUSH1 0xE0 SHR DUP1 PUSH4 0x2C78E90B EQ PUSH2 0x46 JUMPI DUP1 PUSH4 0x7B8E3474 EQ PUSH2 0x76 JUMPI DUP1 PUSH4 0x97ABA7F9 EQ PUSH2 0xA6 JUMPI JUMPDEST PUSH1 0x0 DUP1 REVERT JUMPDEST PUSH2 0x60 PUSH1 0x4 DUP1 CALLDATASIZE SUB DUP2 ADD SWAP1 PUSH2 0x5B SWAP2 SWAP1 PUSH2 0x485 JUMP JUMPDEST PUSH2 0xD6 JUMP JUMPDEST PUSH1 0x40 MLOAD PUSH2 0x6D SWAP2 SWAP1 PUSH2 0x6D3 JUMP JUMPDEST PUSH1 0x40 MLOAD DUP1 SWAP2 SUB SWAP1 RETURN JUMPDEST PUSH2 0x90 PUSH1 0x4 DUP1 CALLDATASIZE SUB DUP2 ADD SWAP1 PUSH2 0x8B SWAP2 SWAP1 PUSH2 0x3B4 JUMP JUMPDEST PUSH2 0x10F JUMP JUMPDEST PUSH1 0x40 MLOAD PUSH2 0x9D SWAP2 SWAP1 PUSH2 0x6EE JUMP JUMPDEST PUSH1 0x40 MLOAD DUP1 SWAP2 SUB SWAP1 RETURN JUMPDEST PUSH2 0xC0 PUSH1 0x4 DUP1 CALLDATASIZE SUB DUP2 ADD SWAP1 PUSH2 0xBB SWAP2 SWAP1 PUSH2 0x360 JUMP JUMPDEST PUSH2 0x14E JUMP JUMPDEST PUSH1 0x40 MLOAD PUSH2 0xCD SWAP2 SWAP1 PUSH2 0x6D3 JUMP JUMPDEST PUSH1 0x40 MLOAD DUP1 SWAP2 SUB SWAP1 RETURN JUMPDEST PUSH1 0x0 DUP1 PUSH2 0xE7 DUP10 DUP10 DUP10 DUP10 DUP10 DUP10 PUSH2 0x10F JUMP JUMPDEST SWAP1 POP PUSH1 0x0 PUSH2 0xF4 DUP3 PUSH2 0x221 JUMP JUMPDEST SWAP1 POP PUSH2 0x100 DUP2 DUP6 PUSH2 0x14E JUMP JUMPDEST SWAP3 POP POP POP SWAP8 SWAP7 POP POP POP POP POP POP POP JUMP JUMPDEST PUSH1 0x0 DUP7 DUP7 DUP7 DUP7 DUP7 DUP7 PUSH1 0x40 MLOAD PUSH1 0x20 ADD PUSH2 0x12C SWAP7 SWAP6 SWAP5 SWAP4 SWAP3 SWAP2 SWAP1 PUSH2 0x649 JUMP JUMPDEST PUSH1 0x40 MLOAD PUSH1 0x20 DUP2 DUP4 SUB SUB DUP2 MSTORE SWAP1 PUSH1 0x40 MSTORE DUP1 MLOAD SWAP1 PUSH1 0x20 ADD KECCAK256 SWAP1 POP SWAP7 SWAP6 POP POP POP POP POP POP JUMP JUMPDEST PUSH1 0x0 DUP1 PUSH1 0x0 DUP1 PUSH1 0x41 DUP6 MLOAD EQ PUSH2 0x169 JUMPI PUSH1 0x0 SWAP4 POP POP POP POP PUSH2 0x21B JUMP JUMPDEST PUSH1 0x20 DUP6 ADD MLOAD SWAP3 POP PUSH1 0x40 DUP6 ADD MLOAD SWAP2 POP PUSH1 0x60 DUP6 ADD MLOAD PUSH1 0x0 BYTE SWAP1 POP PUSH1 0x1B DUP2 PUSH1 0xFF AND LT ISZERO PUSH2 0x19D JUMPI PUSH1 0x1B DUP2 PUSH2 0x19A SWAP2 SWAP1 PUSH2 0x7EB JUMP JUMPDEST SWAP1 POP JUMPDEST PUSH1 0x1B DUP2 PUSH1 0xFF AND EQ ISZERO DUP1 ISZERO PUSH2 0x1B5 JUMPI POP PUSH1 0x1C DUP2 PUSH1 0xFF AND EQ ISZERO JUMPDEST ISZERO PUSH2 0x1C6 JUMPI PUSH1 0x0 SWAP4 POP POP POP POP PUSH2 0x21B JUMP JUMPDEST PUSH1 0x1 DUP7 DUP3 DUP6 DUP6 PUSH1 0x40 MLOAD PUSH1 0x0 DUP2 MSTORE PUSH1 0x20 ADD PUSH1 0x40 MSTORE PUSH1 0x40 MLOAD PUSH2 0x1E9 SWAP5 SWAP4 SWAP3 SWAP2 SWAP1 PUSH2 0x709 JUMP JUMPDEST PUSH1 0x20 PUSH1 0x40 MLOAD PUSH1 0x20 DUP2 SUB SWAP1 DUP1 DUP5 SUB SWAP1 DUP6 GAS STATICCALL ISZERO DUP1 ISZERO PUSH2 0x20B JUMPI RETURNDATASIZE PUSH1 0x0 DUP1 RETURNDATACOPY RETURNDATASIZE PUSH1 0x0 REVERT JUMPDEST POP POP POP PUSH1 0x20 PUSH1 0x40 MLOAD SUB MLOAD SWAP4 POP POP POP POP JUMPDEST SWAP3 SWAP2 POP POP JUMP JUMPDEST PUSH1 0x0 DUP2 PUSH1 0x40 MLOAD PUSH1 0x20 ADD PUSH2 0x234 SWAP2 SWAP1 PUSH2 0x6AD JUMP JUMPDEST PUSH1 0x40 MLOAD PUSH1 0x20 DUP2 DUP4 SUB SUB DUP2 MSTORE SWAP1 PUSH1 0x40 MSTORE DUP1 MLOAD SWAP1 PUSH1 0x20 ADD KECCAK256 SWAP1 POP SWAP2 SWAP1 POP JUMP JUMPDEST PUSH1 0x0 PUSH2 0x264 PUSH2 0x25F DUP5 PUSH2 0x773 JUMP JUMPDEST PUSH2 0x74E JUMP JUMPDEST SWAP1 POP DUP3 DUP2 MSTORE PUSH1 0x20 DUP2 ADD DUP5 DUP5 DUP5 ADD GT ISZERO PUSH2 0x27C JUMPI PUSH1 0x0 DUP1 REVERT JUMPDEST PUSH2 0x287 DUP5 DUP3 DUP6 PUSH2 0x875 JUMP JUMPDEST POP SWAP4 SWAP3 POP POP POP JUMP JUMPDEST PUSH1 0x0 PUSH2 0x2A2 PUSH2 0x29D DUP5 PUSH2 0x7A4 JUMP JUMPDEST PUSH2 0x74E JUMP JUMPDEST SWAP1 POP DUP3 DUP2 MSTORE PUSH1 0x20 DUP2 ADD DUP5 DUP5 DUP5 ADD GT ISZERO PUSH2 0x2BA JUMPI PUSH1 0x0 DUP1 REVERT JUMPDEST PUSH2 0x2C5 DUP5 DUP3 DUP6 PUSH2 0x875 JUMP JUMPDEST POP SWAP4 SWAP3 POP POP POP JUMP JUMPDEST PUSH1 0x0 DUP2 CALLDATALOAD SWAP1 POP PUSH2 0x2DC DUP2 PUSH2 0x9C5 JUMP JUMPDEST SWAP3 SWAP2 POP POP JUMP JUMPDEST PUSH1 0x0 DUP2 CALLDATALOAD SWAP1 POP PUSH2 0x2F1 DUP2 PUSH2 0x9DC JUMP JUMPDEST SWAP3 SWAP2 POP POP JUMP JUMPDEST PUSH1 0x0 DUP3 PUSH1 0x1F DUP4 ADD SLT PUSH2 0x308 JUMPI PUSH1 0x0 DUP1 REVERT JUMPDEST DUP2 CALLDATALOAD PUSH2 0x318 DUP5 DUP3 PUSH1 0x20 DUP7 ADD PUSH2 0x251 JUMP JUMPDEST SWAP2 POP POP SWAP3 SWAP2 POP POP JUMP JUMPDEST PUSH1 0x0 DUP3 PUSH1 0x1F DUP4 ADD SLT PUSH2 0x332 JUMPI PUSH1 0x0 DUP1 REVERT JUMPDEST DUP2 CALLDATALOAD PUSH2 0x342 DUP5 DUP3 PUSH1 0x20 DUP7 ADD PUSH2 0x28F JUMP JUMPDEST SWAP2 POP POP SWAP3 SWAP2 POP POP JUMP JUMPDEST PUSH1 0x0 DUP2 CALLDATALOAD SWAP1 POP PUSH2 0x35A DUP2 PUSH2 0x9F3 JUMP JUMPDEST SWAP3 SWAP2 POP POP JUMP JUMPDEST PUSH1 0x0 DUP1 PUSH1 0x40 DUP4 DUP6 SUB SLT ISZERO PUSH2 0x373 JUMPI PUSH1 0x0 DUP1 REVERT JUMPDEST PUSH1 0x0 PUSH2 0x381 DUP6 DUP3 DUP7 ADD PUSH2 0x2E2 JUMP JUMPDEST SWAP3 POP POP PUSH1 0x20 DUP4 ADD CALLDATALOAD PUSH8 0xFFFFFFFFFFFFFFFF DUP2 GT ISZERO PUSH2 0x39E JUMPI PUSH1 0x0 DUP1 REVERT JUMPDEST PUSH2 0x3AA DUP6 DUP3 DUP7 ADD PUSH2 0x2F7 JUMP JUMPDEST SWAP2 POP POP SWAP3 POP SWAP3 SWAP1 POP JUMP JUMPDEST PUSH1 0x0 DUP1 PUSH1 0x0 DUP1 PUSH1 0x0 DUP1 PUSH1 0xC0 DUP8 DUP10 SUB SLT ISZERO PUSH2 0x3CD JUMPI PUSH1 0x0 DUP1 REVERT JUMPDEST PUSH1 0x0 DUP8 ADD CALLDATALOAD PUSH8 0xFFFFFFFFFFFFFFFF DUP2 GT ISZERO PUSH2 0x3E7 JUMPI PUSH1 0x0 DUP1 REVERT JUMPDEST PUSH2 0x3F3 DUP10 DUP3 DUP11 ADD PUSH2 0x321 JUMP JUMPDEST SWAP7 POP POP PUSH1 0x20 PUSH2 0x404 DUP10 DUP3 DUP11 ADD PUSH2 0x2CD JUMP JUMPDEST SWAP6 POP POP PUSH1 0x40 DUP8 ADD CALLDATALOAD PUSH8 0xFFFFFFFFFFFFFFFF DUP2 GT ISZERO PUSH2 0x421 JUMPI PUSH1 0x0 DUP1 REVERT JUMPDEST PUSH2 0x42D DUP10 DUP3 DUP11 ADD PUSH2 0x321 JUMP JUMPDEST SWAP5 POP POP PUSH1 0x60 PUSH2 0x43E DUP10 DUP3 DUP11 ADD PUSH2 0x2CD JUMP JUMPDEST SWAP4 POP POP PUSH1 0x80 DUP8 ADD CALLDATALOAD PUSH8 0xFFFFFFFFFFFFFFFF DUP2 GT ISZERO PUSH2 0x45B JUMPI PUSH1 0x0 DUP1 REVERT JUMPDEST PUSH2 0x467 DUP10 DUP3 DUP11 ADD PUSH2 0x321 JUMP JUMPDEST SWAP3 POP POP PUSH1 0xA0 PUSH2 0x478 DUP10 DUP3 DUP11 ADD PUSH2 0x34B JUMP JUMPDEST SWAP2 POP POP SWAP3 SWAP6 POP SWAP3 SWAP6 POP SWAP3 SWAP6 JUMP JUMPDEST PUSH1 0x0 DUP1 PUSH1 0x0 DUP1 PUSH1 0x0 DUP1 PUSH1 0x0 PUSH1 0xE0 DUP9 DUP11 SUB SLT ISZERO PUSH2 0x4A0 JUMPI PUSH1 0x0 DUP1 REVERT JUMPDEST PUSH1 0x0 DUP9 ADD CALLDATALOAD PUSH8 0xFFFFFFFFFFFFFFFF DUP2 GT ISZERO PUSH2 0x4BA JUMPI PUSH1 0x0 DUP1 REVERT JUMPDEST PUSH2 0x4C6 DUP11 DUP3 DUP12 ADD PUSH2 0x321 JUMP JUMPDEST SWAP8 POP POP PUSH1 0x20 PUSH2 0x4D7 DUP11 DUP3 DUP12 ADD PUSH2 0x2CD JUMP JUMPDEST SWAP7 POP POP PUSH1 0x40 DUP9 ADD CALLDATALOAD PUSH8 0xFFFFFFFFFFFFFFFF DUP2 GT ISZERO PUSH2 0x4F4 JUMPI PUSH1 0x0 DUP1 REVERT JUMPDEST PUSH2 0x500 DUP11 DUP3 DUP12 ADD PUSH2 0x321 JUMP JUMPDEST SWAP6 POP POP PUSH1 0x60 PUSH2 0x511 DUP11 DUP3 DUP12 ADD PUSH2 0x2CD JUMP JUMPDEST SWAP5 POP POP PUSH1 0x80 DUP9 ADD CALLDATALOAD PUSH8 0xFFFFFFFFFFFFFFFF DUP2 GT ISZERO PUSH2 0x52E JUMPI PUSH1 0x0 DUP1 REVERT JUMPDEST PUSH2 0x53A DUP11 DUP3 DUP12 ADD PUSH2 0x321 JUMP JUMPDEST SWAP4 POP POP PUSH1 0xA0 PUSH2 0x54B DUP11 DUP3 DUP12 ADD PUSH2 0x34B JUMP JUMPDEST SWAP3 POP POP PUSH1 0xC0 DUP9 ADD CALLDATALOAD PUSH8 0xFFFFFFFFFFFFFFFF DUP2 GT ISZERO PUSH2 0x568 JUMPI PUSH1 0x0 DUP1 REVERT JUMPDEST PUSH2 0x574 DUP11 DUP3 DUP12 ADD PUSH2 0x2F7 JUMP JUMPDEST SWAP2 POP POP SWAP3 SWAP6 SWAP9 SWAP2 SWAP5 SWAP8 POP SWAP3 SWAP6 POP JUMP JUMPDEST PUSH2 0x58C DUP2 PUSH2 0x822 JUMP JUMPDEST DUP3 MSTORE POP POP JUMP JUMPDEST PUSH2 0x5A3 PUSH2 0x59E DUP3 PUSH2 0x822 JUMP JUMPDEST PUSH2 0x8E8 JUMP JUMPDEST DUP3 MSTORE POP POP JUMP JUMPDEST PUSH2 0x5B2 DUP2 PUSH2 0x834 JUMP JUMPDEST DUP3 MSTORE POP POP JUMP JUMPDEST PUSH2 0x5C9 PUSH2 0x5C4 DUP3 PUSH2 0x834 JUMP JUMPDEST PUSH2 0x8FA JUMP JUMPDEST DUP3 MSTORE POP POP JUMP JUMPDEST PUSH1 0x0 PUSH2 0x5DA DUP3 PUSH2 0x7D5 JUMP JUMPDEST PUSH2 0x5E4 DUP2 DUP6 PUSH2 0x7E0 JUMP JUMPDEST SWAP4 POP PUSH2 0x5F4 DUP2 DUP6 PUSH1 0x20 DUP7 ADD PUSH2 0x884 JUMP JUMPDEST DUP1 DUP5 ADD SWAP2 POP POP SWAP3 SWAP2 POP POP JUMP JUMPDEST PUSH1 0x0 PUSH2 0x60D PUSH1 0x1C DUP4 PUSH2 0x7E0 JUMP JUMPDEST SWAP2 POP PUSH2 0x618 DUP3 PUSH2 0x99C JUMP JUMPDEST PUSH1 0x1C DUP3 ADD SWAP1 POP SWAP2 SWAP1 POP JUMP JUMPDEST PUSH2 0x634 PUSH2 0x62F DUP3 PUSH2 0x85E JUMP JUMPDEST PUSH2 0x916 JUMP JUMPDEST DUP3 MSTORE POP POP JUMP JUMPDEST PUSH2 0x643 DUP2 PUSH2 0x868 JUMP JUMPDEST DUP3 MSTORE POP POP JUMP JUMPDEST PUSH1 0x0 PUSH2 0x655 DUP3 DUP10 PUSH2 0x5CF JUMP JUMPDEST SWAP2 POP PUSH2 0x661 DUP3 DUP9 PUSH2 0x592 JUMP JUMPDEST PUSH1 0x14 DUP3 ADD SWAP2 POP PUSH2 0x671 DUP3 DUP8 PUSH2 0x5CF JUMP JUMPDEST SWAP2 POP PUSH2 0x67D DUP3 DUP7 PUSH2 0x592 JUMP JUMPDEST PUSH1 0x14 DUP3 ADD SWAP2 POP PUSH2 0x68D DUP3 DUP6 PUSH2 0x5CF JUMP JUMPDEST SWAP2 POP PUSH2 0x699 DUP3 DUP5 PUSH2 0x623 JUMP JUMPDEST PUSH1 0x20 DUP3 ADD SWAP2 POP DUP2 SWAP1 POP SWAP8 SWAP7 POP POP POP POP POP POP POP JUMP JUMPDEST PUSH1 0x0 PUSH2 0x6B8 DUP3 PUSH2 0x600 JUMP JUMPDEST SWAP2 POP PUSH2 0x6C4 DUP3 DUP5 PUSH2 0x5B8 JUMP JUMPDEST PUSH1 0x20 DUP3 ADD SWAP2 POP DUP2 SWAP1 POP SWAP3 SWAP2 POP POP JUMP JUMPDEST PUSH1 0x0 PUSH1 0x20 DUP3 ADD SWAP1 POP PUSH2 0x6E8 PUSH1 0x0 DUP4 ADD DUP5 PUSH2 0x583 JUMP JUMPDEST SWAP3 SWAP2 POP POP JUMP JUMPDEST PUSH1 0x0 PUSH1 0x20 DUP3 ADD SWAP1 POP PUSH2 0x703 PUSH1 0x0 DUP4 ADD DUP5 PUSH2 0x5A9 JUMP JUMPDEST SWAP3 SWAP2 POP POP JUMP JUMPDEST PUSH1 0x0 PUSH1 0x80 DUP3 ADD SWAP1 POP PUSH2 0x71E PUSH1 0x0 DUP4 ADD DUP8 PUSH2 0x5A9 JUMP JUMPDEST PUSH2 0x72B PUSH1 0x20 DUP4 ADD DUP7 PUSH2 0x63A JUMP JUMPDEST PUSH2 0x738 PUSH1 0x40 DUP4 ADD DUP6 PUSH2 0x5A9 JUMP JUMPDEST PUSH2 0x745 PUSH1 0x60 DUP4 ADD DUP5 PUSH2 0x5A9 JUMP JUMPDEST SWAP6 SWAP5 POP POP POP POP POP JUMP JUMPDEST PUSH1 0x0 PUSH2 0x758 PUSH2 0x769 JUMP JUMPDEST SWAP1 POP PUSH2 0x764 DUP3 DUP3 PUSH2 0x8B7 JUMP JUMPDEST SWAP2 SWAP1 POP JUMP JUMPDEST PUSH1 0x0 PUSH1 0x40 MLOAD SWAP1 POP SWAP1 JUMP JUMPDEST PUSH1 0x0 PUSH8 0xFFFFFFFFFFFFFFFF DUP3 GT ISZERO PUSH2 0x78E JUMPI PUSH2 0x78D PUSH2 0x94F JUMP JUMPDEST JUMPDEST PUSH2 0x797 DUP3 PUSH2 0x97E JUMP JUMPDEST SWAP1 POP PUSH1 0x20 DUP2 ADD SWAP1 POP SWAP2 SWAP1 POP JUMP JUMPDEST PUSH1 0x0 PUSH8 0xFFFFFFFFFFFFFFFF DUP3 GT ISZERO PUSH2 0x7BF JUMPI PUSH2 0x7BE PUSH2 0x94F JUMP JUMPDEST JUMPDEST PUSH2 0x7C8 DUP3 PUSH2 0x97E JUMP JUMPDEST SWAP1 POP PUSH1 0x20 DUP2 ADD SWAP1 POP SWAP2 SWAP1 POP JUMP JUMPDEST PUSH1 0x0 DUP2 MLOAD SWAP1 POP SWAP2 SWAP1 POP JUMP JUMPDEST PUSH1 0x0 DUP2 SWAP1 POP SWAP3 SWAP2 POP POP JUMP JUMPDEST PUSH1 0x0 PUSH2 0x7F6 DUP3 PUSH2 0x868 JUMP JUMPDEST SWAP2 POP PUSH2 0x801 DUP4 PUSH2 0x868 JUMP JUMPDEST SWAP3 POP DUP3 PUSH1 0xFF SUB DUP3 GT ISZERO PUSH2 0x817 JUMPI PUSH2 0x816 PUSH2 0x920 JUMP JUMPDEST JUMPDEST DUP3 DUP3 ADD SWAP1 POP SWAP3 SWAP2 POP POP JUMP JUMPDEST PUSH1 0x0 PUSH2 0x82D DUP3 PUSH2 0x83E JUMP JUMPDEST SWAP1 POP SWAP2 SWAP1 POP JUMP JUMPDEST PUSH1 0x0 DUP2 SWAP1 POP SWAP2 SWAP1 POP JUMP JUMPDEST PUSH1 0x0 PUSH20 0xFFFFFFFFFFFFFFFFFFFFFFFFFFFFFFFFFFFFFFFF DUP3 AND SWAP1 POP SWAP2 SWAP1 POP JUMP JUMPDEST PUSH1 0x0 DUP2 SWAP1 POP SWAP2 SWAP1 POP JUMP JUMPDEST PUSH1 0x0 PUSH1 0xFF DUP3 AND SWAP1 POP SWAP2 SWAP1 POP JUMP JUMPDEST DUP3 DUP2 DUP4 CALLDATACOPY PUSH1 0x0 DUP4 DUP4 ADD MSTORE POP POP POP JUMP JUMPDEST PUSH1 0x0 JUMPDEST DUP4 DUP2 LT ISZERO PUSH2 0x8A2 JUMPI DUP1 DUP3 ADD MLOAD DUP2 DUP5 ADD MSTORE PUSH1 0x20 DUP2 ADD SWAP1 POP PUSH2 0x887 JUMP JUMPDEST DUP4 DUP2 GT ISZERO PUSH2 0x8B1 JUMPI PUSH1 0x0 DUP5 DUP5 ADD MSTORE JUMPDEST POP POP POP POP JUMP JUMPDEST PUSH2 0x8C0 DUP3 PUSH2 0x97E JUMP JUMPDEST DUP2 ADD DUP2 DUP2 LT PUSH8 0xFFFFFFFFFFFFFFFF DUP3 GT OR ISZERO PUSH2 0x8DF JUMPI PUSH2 0x8DE PUSH2 0x94F JUMP JUMPDEST JUMPDEST DUP1 PUSH1 0x40 MSTORE POP POP POP JUMP JUMPDEST PUSH1 0x0 PUSH2 0x8F3 DUP3 PUSH2 0x904 JUMP JUMPDEST SWAP1 POP SWAP2 SWAP1 POP JUMP JUMPDEST PUSH1 0x0 DUP2 SWAP1 POP SWAP2 SWAP1 POP JUMP JUMPDEST PUSH1 0x0 PUSH2 0x90F DUP3 PUSH2 0x98F JUMP JUMPDEST SWAP1 POP SWAP2 SWAP1 POP JUMP JUMPDEST PUSH1 0x0 DUP2 SWAP1 POP SWAP2 SWAP1 POP JUMP JUMPDEST PUSH32 0x4E487B7100000000000000000000000000000000000000000000000000000000 PUSH1 0x0 MSTORE PUSH1 0x11 PUSH1 0x4 MSTORE PUSH1 0x24 PUSH1 0x0 REVERT JUMPDEST PUSH32 0x4E487B7100000000000000000000000000000000000000000000000000000000 PUSH1 0x0 MSTORE PUSH1 0x41 PUSH1 0x4 MSTORE PUSH1 0x24 PUSH1 0x0 REVERT JUMPDEST PUSH1 0x0 PUSH1 0x1F NOT PUSH1 0x1F DUP4 ADD AND SWAP1 POP SWAP2 SWAP1 POP JUMP JUMPDEST PUSH1 0x0 DUP2 PUSH1 0x60 SHL SWAP1 POP SWAP2 SWAP1 POP JUMP JUMPDEST PUSH32 0x19457468657265756D205369676E6564204D6573736167653A0A333200000000 PUSH1 0x0 DUP3 ADD MSTORE POP JUMP JUMPDEST PUSH2 0x9CE DUP2 PUSH2 0x822 JUMP JUMPDEST DUP2 EQ PUSH2 0x9D9 JUMPI PUSH1 0x0 DUP1 REVERT JUMPDEST POP JUMP JUMPDEST PUSH2 0x9E5 DUP2 PUSH2 0x834 JUMP JUMPDEST DUP2 EQ PUSH2 0x9F0 JUMPI PUSH1 0x0 DUP1 REVERT JUMPDEST POP JUMP JUMPDEST PUSH2 0x9FC DUP2 PUSH2 0x85E JUMP JUMPDEST DUP2 EQ PUSH2 0xA07 JUMPI PUSH1 0x0 DUP1 REVERT JUMPDEST POP JUMP INVALID LOG2 PUSH5 0x6970667358 0x22 SLT KECCAK256 0x4A 0xD8 0xE6 DELEGATECALL PUSH22 0x919292D2945AB3496EC6D742764B387E8757F0BA4276 PUSH13 0x4DFE968164736F6C6343000802 STOP CALLER "
        },
        "methodIdentifiers": {
          "getMessageHash(string,address,string,address,string,uint256)": "7b8e3474",
          "recoverSigner(bytes32,bytes)": "97aba7f9",
          "verify(string,address,string,address,string,uint256,bytes)": "2c78e90b"
        }
      },
      "storageLayout": {
        "storage": [],
        "types": null
      }
    }
  }
}