{
	"contracts/lib/SignatureUtils.sol": {
		"SignatureUtils": {
			"abi": [
				{
					"inputs": [
						{
							"internalType": "bytes32",
							"name": "_messageHash",
							"type": "bytes32"
						}
					],
					"name": "getEthSignedMessageHash",
					"outputs": [
						{
							"internalType": "bytes32",
							"name": "",
							"type": "bytes32"
						}
					],
					"stateMutability": "pure",
					"type": "function"
				},
				{
					"inputs": [
						{
							"internalType": "string",
							"name": "transactionId_",
							"type": "string"
						},
						{
							"internalType": "address",
							"name": "token0_",
							"type": "address"
						},
						{
							"internalType": "string",
							"name": "token1_",
							"type": "string"
						},
						{
							"internalType": "address",
							"name": "user0_",
							"type": "address"
						},
						{
							"internalType": "string",
							"name": "user1_",
							"type": "string"
						},
						{
							"internalType": "uint256",
							"name": "amount_",
							"type": "uint256"
						}
					],
					"name": "getMessageHash",
					"outputs": [
						{
							"internalType": "bytes32",
							"name": "",
							"type": "bytes32"
						}
					],
					"stateMutability": "pure",
					"type": "function"
				},
				{
					"inputs": [
						{
							"internalType": "bytes32",
							"name": "hash",
							"type": "bytes32"
						},
						{
							"internalType": "bytes",
							"name": "signature",
							"type": "bytes"
						}
					],
					"name": "recoverSigner",
					"outputs": [
						{
							"internalType": "address",
							"name": "",
							"type": "address"
						}
					],
					"stateMutability": "pure",
					"type": "function"
				},
				{
					"inputs": [
						{
							"internalType": "string",
							"name": "transactionId_",
							"type": "string"
						},
						{
							"internalType": "address",
							"name": "token0_",
							"type": "address"
						},
						{
							"internalType": "string",
							"name": "token1_",
							"type": "string"
						},
						{
							"internalType": "address",
							"name": "user0_",
							"type": "address"
						},
						{
							"internalType": "string",
							"name": "user1_",
							"type": "string"
						},
						{
							"internalType": "uint256",
							"name": "amount_",
							"type": "uint256"
						},
						{
							"internalType": "bytes",
							"name": "signature",
							"type": "bytes"
						}
					],
					"name": "verify",
					"outputs": [
						{
							"internalType": "address",
							"name": "",
							"type": "address"
						}
					],
					"stateMutability": "pure",
					"type": "function"
				}
			],
			"devdoc": {
				"kind": "dev",
				"methods": {},
				"version": 1
			},
			"evm": {
				"assembly": "    /* \"contracts/lib/SignatureUtils.sol\":58:2336  contract SignatureUtils {... */\n  mstore(0x40, 0x80)\n  callvalue\n  dup1\n  iszero\n  tag_1\n  jumpi\n  0x00\n  dup1\n  revert\ntag_1:\n  pop\n  dataSize(sub_0)\n  dup1\n  dataOffset(sub_0)\n  0x00\n  codecopy\n  0x00\n  return\nstop\n\nsub_0: assembly {\n        /* \"contracts/lib/SignatureUtils.sol\":58:2336  contract SignatureUtils {... */\n      mstore(0x40, 0x80)\n      callvalue\n      dup1\n      iszero\n      tag_1\n      jumpi\n      0x00\n      dup1\n      revert\n    tag_1:\n      pop\n      jumpi(tag_2, lt(calldatasize, 0x04))\n      shr(0xe0, calldataload(0x00))\n      dup1\n      0x2c78e90b\n      eq\n      tag_3\n      jumpi\n      dup1\n      0x7b8e3474\n      eq\n      tag_4\n      jumpi\n      dup1\n      0x97aba7f9\n      eq\n      tag_5\n      jumpi\n      dup1\n      0xfa540801\n      eq\n      tag_6\n      jumpi\n    tag_2:\n      0x00\n      dup1\n      revert\n        /* \"contracts/lib/SignatureUtils.sol\":937:1452  function verify(... */\n    tag_3:\n      tag_7\n      0x04\n      dup1\n      calldatasize\n      sub\n      dup2\n      add\n      swap1\n      tag_8\n      swap2\n      swap1\n      tag_9\n      jump\t// in\n    tag_8:\n      tag_10\n      jump\t// in\n    tag_7:\n      mload(0x40)\n      tag_11\n      swap2\n      swap1\n      tag_12\n      jump\t// in\n    tag_11:\n      mload(0x40)\n      dup1\n      swap2\n      sub\n      swap1\n      return\n        /* \"contracts/lib/SignatureUtils.sol\":88:611  function getMessageHash(... */\n    tag_4:\n      tag_13\n      0x04\n      dup1\n      calldatasize\n      sub\n      dup2\n      add\n      swap1\n      tag_14\n      swap2\n      swap1\n      tag_15\n      jump\t// in\n    tag_14:\n      tag_16\n      jump\t// in\n    tag_13:\n      mload(0x40)\n      tag_17\n      swap2\n      swap1\n      tag_18\n      jump\t// in\n    tag_17:\n      mload(0x40)\n      dup1\n      swap2\n      sub\n      swap1\n      return\n        /* \"contracts/lib/SignatureUtils.sol\":1458:2334  function recoverSigner(bytes32 hash, bytes memory signature)... */\n    tag_5:\n      tag_19\n      0x04\n      dup1\n      calldatasize\n      sub\n      dup2\n      add\n      swap1\n      tag_20\n      swap2\n      swap1\n      tag_21\n      jump\t// in\n    tag_20:\n      tag_22\n      jump\t// in\n    tag_19:\n      mload(0x40)\n      tag_23\n      swap2\n      swap1\n      tag_12\n      jump\t// in\n    tag_23:\n      mload(0x40)\n      dup1\n      swap2\n      sub\n      swap1\n      return\n        /* \"contracts/lib/SignatureUtils.sol\":617:931  function getEthSignedMessageHash(bytes32 _messageHash)... */\n    tag_6:\n      tag_24\n      0x04\n      dup1\n      calldatasize\n      sub\n      dup2\n      add\n      swap1\n      tag_25\n      swap2\n      swap1\n      tag_26\n      jump\t// in\n    tag_25:\n      tag_27\n      jump\t// in\n    tag_24:\n      mload(0x40)\n      tag_28\n      swap2\n      swap1\n      tag_18\n      jump\t// in\n    tag_28:\n      mload(0x40)\n      dup1\n      swap2\n      sub\n      swap1\n      return\n        /* \"contracts/lib/SignatureUtils.sol\":937:1452  function verify(... */\n    tag_10:\n        /* \"contracts/lib/SignatureUtils.sol\":1187:1194  address */\n      0x00\n        /* \"contracts/lib/SignatureUtils.sol\":1210:1229  bytes32 messageHash */\n      dup1\n        /* \"contracts/lib/SignatureUtils.sol\":1232:1305  getMessageHash(transactionId_, token0_, token1_, user0_, user1_, amount_) */\n      tag_30\n        /* \"contracts/lib/SignatureUtils.sol\":1247:1261  transactionId_ */\n      dup10\n        /* \"contracts/lib/SignatureUtils.sol\":1263:1270  token0_ */\n      dup10\n        /* \"contracts/lib/SignatureUtils.sol\":1272:1279  token1_ */\n      dup10\n        /* \"contracts/lib/SignatureUtils.sol\":1281:1287  user0_ */\n      dup10\n        /* \"contracts/lib/SignatureUtils.sol\":1289:1295  user1_ */\n      dup10\n        /* \"contracts/lib/SignatureUtils.sol\":1297:1304  amount_ */\n      dup10\n        /* \"contracts/lib/SignatureUtils.sol\":1232:1246  getMessageHash */\n      tag_16\n        /* \"contracts/lib/SignatureUtils.sol\":1232:1305  getMessageHash(transactionId_, token0_, token1_, user0_, user1_, amount_) */\n      jump\t// in\n    tag_30:\n        /* \"contracts/lib/SignatureUtils.sol\":1210:1305  bytes32 messageHash = getMessageHash(transactionId_, token0_, token1_, user0_, user1_, amount_) */\n      swap1\n      pop\n        /* \"contracts/lib/SignatureUtils.sol\":1315:1343  bytes32 ethSignedMessageHash */\n      0x00\n        /* \"contracts/lib/SignatureUtils.sol\":1346:1382  getEthSignedMessageHash(messageHash) */\n      tag_31\n        /* \"contracts/lib/SignatureUtils.sol\":1370:1381  messageHash */\n      dup3\n        /* \"contracts/lib/SignatureUtils.sol\":1346:1369  getEthSignedMessageHash */\n      tag_27\n        /* \"contracts/lib/SignatureUtils.sol\":1346:1382  getEthSignedMessageHash(messageHash) */\n      jump\t// in\n    tag_31:\n        /* \"contracts/lib/SignatureUtils.sol\":1315:1382  bytes32 ethSignedMessageHash = getEthSignedMessageHash(messageHash) */\n      swap1\n      pop\n        /* \"contracts/lib/SignatureUtils.sol\":1399:1445  recoverSigner(ethSignedMessageHash, signature) */\n      tag_32\n        /* \"contracts/lib/SignatureUtils.sol\":1413:1433  ethSignedMessageHash */\n      dup2\n        /* \"contracts/lib/SignatureUtils.sol\":1435:1444  signature */\n      dup6\n        /* \"contracts/lib/SignatureUtils.sol\":1399:1412  recoverSigner */\n      tag_22\n        /* \"contracts/lib/SignatureUtils.sol\":1399:1445  recoverSigner(ethSignedMessageHash, signature) */\n      jump\t// in\n    tag_32:\n        /* \"contracts/lib/SignatureUtils.sol\":1392:1445  return recoverSigner(ethSignedMessageHash, signature) */\n      swap3\n      pop\n      pop\n      pop\n        /* \"contracts/lib/SignatureUtils.sol\":937:1452  function verify(... */\n      swap8\n      swap7\n      pop\n      pop\n      pop\n      pop\n      pop\n      pop\n      pop\n      jump\t// out\n        /* \"contracts/lib/SignatureUtils.sol\":88:611  function getMessageHash(... */\n    tag_16:\n        /* \"contracts/lib/SignatureUtils.sol\":313:320  bytes32 */\n      0x00\n        /* \"contracts/lib/SignatureUtils.sol\":415:429  transactionId_ */\n      dup7\n        /* \"contracts/lib/SignatureUtils.sol\":451:458  token0_ */\n      dup7\n        /* \"contracts/lib/SignatureUtils.sol\":480:487  token1_ */\n      dup7\n        /* \"contracts/lib/SignatureUtils.sol\":509:515  user0_ */\n      dup7\n        /* \"contracts/lib/SignatureUtils.sol\":537:543  user1_ */\n      dup7\n        /* \"contracts/lib/SignatureUtils.sol\":565:572  amount_ */\n      dup7\n        /* \"contracts/lib/SignatureUtils.sol\":377:590  abi.encodePacked(... */\n      add(0x20, mload(0x40))\n      tag_34\n      swap7\n      swap6\n      swap5\n      swap4\n      swap3\n      swap2\n      swap1\n      tag_35\n      jump\t// in\n    tag_34:\n      mload(0x40)\n      0x20\n      dup2\n      dup4\n      sub\n      sub\n      dup2\n      mstore\n      swap1\n      0x40\n      mstore\n        /* \"contracts/lib/SignatureUtils.sol\":350:604  keccak256(... */\n      dup1\n      mload\n      swap1\n      0x20\n      add\n      keccak256\n        /* \"contracts/lib/SignatureUtils.sol\":331:604  return... */\n      swap1\n      pop\n        /* \"contracts/lib/SignatureUtils.sol\":88:611  function getMessageHash(... */\n      swap7\n      swap6\n      pop\n      pop\n      pop\n      pop\n      pop\n      pop\n      jump\t// out\n        /* \"contracts/lib/SignatureUtils.sol\":1458:2334  function recoverSigner(bytes32 hash, bytes memory signature)... */\n    tag_22:\n        /* \"contracts/lib/SignatureUtils.sol\":1564:1571  address */\n      0x00\n        /* \"contracts/lib/SignatureUtils.sol\":1587:1596  bytes32 r */\n      dup1\n        /* \"contracts/lib/SignatureUtils.sol\":1606:1615  bytes32 s */\n      0x00\n        /* \"contracts/lib/SignatureUtils.sol\":1625:1632  uint8 v */\n      dup1\n        /* \"contracts/lib/SignatureUtils.sol\":1705:1707  65 */\n      0x41\n        /* \"contracts/lib/SignatureUtils.sol\":1685:1694  signature */\n      dup6\n        /* \"contracts/lib/SignatureUtils.sol\":1685:1701  signature.length */\n      mload\n        /* \"contracts/lib/SignatureUtils.sol\":1685:1707  signature.length != 65 */\n      eq\n        /* \"contracts/lib/SignatureUtils.sol\":1681:1753  if (signature.length != 65) {... */\n      tag_37\n      jumpi\n        /* \"contracts/lib/SignatureUtils.sol\":1739:1740  0 */\n      0x00\n        /* \"contracts/lib/SignatureUtils.sol\":1723:1742  return (address(0)) */\n      swap4\n      pop\n      pop\n      pop\n      pop\n      jump(tag_36)\n        /* \"contracts/lib/SignatureUtils.sol\":1681:1753  if (signature.length != 65) {... */\n    tag_37:\n        /* \"contracts/lib/SignatureUtils.sol\":1812:1816  0x20 */\n      0x20\n        /* \"contracts/lib/SignatureUtils.sol\":1801:1810  signature */\n      dup6\n        /* \"contracts/lib/SignatureUtils.sol\":1797:1817  add(signature, 0x20) */\n      add\n        /* \"contracts/lib/SignatureUtils.sol\":1791:1818  mload(add(signature, 0x20)) */\n      mload\n        /* \"contracts/lib/SignatureUtils.sol\":1786:1818  r := mload(add(signature, 0x20)) */\n      swap3\n      pop\n        /* \"contracts/lib/SignatureUtils.sol\":1857:1861  0x40 */\n      0x40\n        /* \"contracts/lib/SignatureUtils.sol\":1846:1855  signature */\n      dup6\n        /* \"contracts/lib/SignatureUtils.sol\":1842:1862  add(signature, 0x40) */\n      add\n        /* \"contracts/lib/SignatureUtils.sol\":1836:1863  mload(add(signature, 0x40)) */\n      mload\n        /* \"contracts/lib/SignatureUtils.sol\":1831:1863  s := mload(add(signature, 0x40)) */\n      swap2\n      pop\n        /* \"contracts/lib/SignatureUtils.sol\":1910:1914  0x60 */\n      0x60\n        /* \"contracts/lib/SignatureUtils.sol\":1899:1908  signature */\n      dup6\n        /* \"contracts/lib/SignatureUtils.sol\":1895:1915  add(signature, 0x60) */\n      add\n        /* \"contracts/lib/SignatureUtils.sol\":1889:1916  mload(add(signature, 0x60)) */\n      mload\n        /* \"contracts/lib/SignatureUtils.sol\":1886:1887  0 */\n      0x00\n        /* \"contracts/lib/SignatureUtils.sol\":1881:1917  byte(0, mload(add(signature, 0x60))) */\n      byte\n        /* \"contracts/lib/SignatureUtils.sol\":1876:1917  v := byte(0, mload(add(signature, 0x60))) */\n      swap1\n      pop\n        /* \"contracts/lib/SignatureUtils.sol\":2036:2038  27 */\n      0x1b\n        /* \"contracts/lib/SignatureUtils.sol\":2032:2033  v */\n      dup2\n        /* \"contracts/lib/SignatureUtils.sol\":2032:2038  v < 27 */\n      0xff\n      and\n      lt\n        /* \"contracts/lib/SignatureUtils.sol\":2028:2072  if (v < 27) {... */\n      iszero\n      tag_38\n      jumpi\n        /* \"contracts/lib/SignatureUtils.sol\":2059:2061  27 */\n      0x1b\n        /* \"contracts/lib/SignatureUtils.sol\":2054:2061  v += 27 */\n      dup2\n      tag_39\n      swap2\n      swap1\n      tag_40\n      jump\t// in\n    tag_39:\n      swap1\n      pop\n        /* \"contracts/lib/SignatureUtils.sol\":2028:2072  if (v < 27) {... */\n    tag_38:\n        /* \"contracts/lib/SignatureUtils.sol\":2154:2156  27 */\n      0x1b\n        /* \"contracts/lib/SignatureUtils.sol\":2149:2150  v */\n      dup2\n        /* \"contracts/lib/SignatureUtils.sol\":2149:2156  v != 27 */\n      0xff\n      and\n      eq\n      iszero\n        /* \"contracts/lib/SignatureUtils.sol\":2149:2167  v != 27 && v != 28 */\n      dup1\n      iszero\n      tag_41\n      jumpi\n      pop\n        /* \"contracts/lib/SignatureUtils.sol\":2165:2167  28 */\n      0x1c\n        /* \"contracts/lib/SignatureUtils.sol\":2160:2161  v */\n      dup2\n        /* \"contracts/lib/SignatureUtils.sol\":2160:2167  v != 28 */\n      0xff\n      and\n      eq\n      iszero\n        /* \"contracts/lib/SignatureUtils.sol\":2149:2167  v != 27 && v != 28 */\n    tag_41:\n        /* \"contracts/lib/SignatureUtils.sol\":2145:2328  if (v != 27 && v != 28) {... */\n      iszero\n      tag_42\n      jumpi\n        /* \"contracts/lib/SignatureUtils.sol\":2199:2200  0 */\n      0x00\n        /* \"contracts/lib/SignatureUtils.sol\":2183:2202  return (address(0)) */\n      swap4\n      pop\n      pop\n      pop\n      pop\n      jump(tag_36)\n        /* \"contracts/lib/SignatureUtils.sol\":2145:2328  if (v != 27 && v != 28) {... */\n    tag_42:\n        /* \"contracts/lib/SignatureUtils.sol\":2293:2317  ecrecover(hash, v, r, s) */\n      0x01\n        /* \"contracts/lib/SignatureUtils.sol\":2303:2307  hash */\n      dup7\n        /* \"contracts/lib/SignatureUtils.sol\":2309:2310  v */\n      dup3\n        /* \"contracts/lib/SignatureUtils.sol\":2312:2313  r */\n      dup6\n        /* \"contracts/lib/SignatureUtils.sol\":2315:2316  s */\n      dup6\n        /* \"contracts/lib/SignatureUtils.sol\":2293:2317  ecrecover(hash, v, r, s) */\n      mload(0x40)\n      0x00\n      dup2\n      mstore\n      0x20\n      add\n      0x40\n      mstore\n      mload(0x40)\n      tag_44\n      swap5\n      swap4\n      swap3\n      swap2\n      swap1\n      tag_45\n      jump\t// in\n    tag_44:\n      0x20\n      mload(0x40)\n      0x20\n      dup2\n      sub\n      swap1\n      dup1\n      dup5\n      sub\n      swap1\n      dup6\n      gas\n      staticcall\n      iszero\n      dup1\n      iszero\n      tag_47\n      jumpi\n      returndatasize\n      0x00\n      dup1\n      returndatacopy\n      revert(0x00, returndatasize)\n    tag_47:\n      pop\n      pop\n      pop\n      mload(sub(mload(0x40), 0x20))\n        /* \"contracts/lib/SignatureUtils.sol\":2286:2317  return ecrecover(hash, v, r, s) */\n      swap4\n      pop\n      pop\n      pop\n      pop\n        /* \"contracts/lib/SignatureUtils.sol\":1458:2334  function recoverSigner(bytes32 hash, bytes memory signature)... */\n    tag_36:\n      swap3\n      swap2\n      pop\n      pop\n      jump\t// out\n        /* \"contracts/lib/SignatureUtils.sol\":617:931  function getEthSignedMessageHash(bytes32 _messageHash)... */\n    tag_27:\n        /* \"contracts/lib/SignatureUtils.sol\":717:724  bytes32 */\n      0x00\n        /* \"contracts/lib/SignatureUtils.sol\":880:892  _messageHash */\n      dup2\n        /* \"contracts/lib/SignatureUtils.sol\":786:910  abi.encodePacked(... */\n      add(0x20, mload(0x40))\n      tag_49\n      swap2\n      swap1\n      tag_50\n      jump\t// in\n    tag_49:\n      mload(0x40)\n      0x20\n      dup2\n      dup4\n      sub\n      sub\n      dup2\n      mstore\n      swap1\n      0x40\n      mstore\n        /* \"contracts/lib/SignatureUtils.sol\":759:924  keccak256(... */\n      dup1\n      mload\n      swap1\n      0x20\n      add\n      keccak256\n        /* \"contracts/lib/SignatureUtils.sol\":740:924  return... */\n      swap1\n      pop\n        /* \"contracts/lib/SignatureUtils.sol\":617:931  function getEthSignedMessageHash(bytes32 _messageHash)... */\n      swap2\n      swap1\n      pop\n      jump\t// out\n        /* \"#utility.yul\":7:82   */\n    tag_51:\n        /* \"#utility.yul\":40:46   */\n      0x00\n        /* \"#utility.yul\":73:75   */\n      0x40\n        /* \"#utility.yul\":67:76   */\n      mload\n        /* \"#utility.yul\":57:76   */\n      swap1\n      pop\n        /* \"#utility.yul\":7:82   */\n      swap1\n      jump\t// out\n        /* \"#utility.yul\":88:205   */\n    tag_52:\n        /* \"#utility.yul\":197:198   */\n      0x00\n        /* \"#utility.yul\":194:195   */\n      dup1\n        /* \"#utility.yul\":187:199   */\n      revert\n        /* \"#utility.yul\":211:328   */\n    tag_53:\n        /* \"#utility.yul\":320:321   */\n      0x00\n        /* \"#utility.yul\":317:318   */\n      dup1\n        /* \"#utility.yul\":310:322   */\n      revert\n        /* \"#utility.yul\":334:451   */\n    tag_54:\n        /* \"#utility.yul\":443:444   */\n      0x00\n        /* \"#utility.yul\":440:441   */\n      dup1\n        /* \"#utility.yul\":433:445   */\n      revert\n        /* \"#utility.yul\":457:574   */\n    tag_55:\n        /* \"#utility.yul\":566:567   */\n      0x00\n        /* \"#utility.yul\":563:564   */\n      dup1\n        /* \"#utility.yul\":556:568   */\n      revert\n        /* \"#utility.yul\":580:682   */\n    tag_56:\n        /* \"#utility.yul\":621:627   */\n      0x00\n        /* \"#utility.yul\":672:674   */\n      0x1f\n        /* \"#utility.yul\":668:675   */\n      not\n        /* \"#utility.yul\":663:665   */\n      0x1f\n        /* \"#utility.yul\":656:661   */\n      dup4\n        /* \"#utility.yul\":652:666   */\n      add\n        /* \"#utility.yul\":648:676   */\n      and\n        /* \"#utility.yul\":638:676   */\n      swap1\n      pop\n        /* \"#utility.yul\":580:682   */\n      swap2\n      swap1\n      pop\n      jump\t// out\n        /* \"#utility.yul\":688:868   */\n    tag_57:\n        /* \"#utility.yul\":736:813   */\n      0x4e487b7100000000000000000000000000000000000000000000000000000000\n        /* \"#utility.yul\":733:734   */\n      0x00\n        /* \"#utility.yul\":726:814   */\n      mstore\n        /* \"#utility.yul\":833:837   */\n      0x41\n        /* \"#utility.yul\":830:831   */\n      0x04\n        /* \"#utility.yul\":823:838   */\n      mstore\n        /* \"#utility.yul\":857:861   */\n      0x24\n        /* \"#utility.yul\":854:855   */\n      0x00\n        /* \"#utility.yul\":847:862   */\n      revert\n        /* \"#utility.yul\":874:1155   */\n    tag_58:\n        /* \"#utility.yul\":957:984   */\n      tag_105\n        /* \"#utility.yul\":979:983   */\n      dup3\n        /* \"#utility.yul\":957:984   */\n      tag_56\n      jump\t// in\n    tag_105:\n        /* \"#utility.yul\":949:955   */\n      dup2\n        /* \"#utility.yul\":945:985   */\n      add\n        /* \"#utility.yul\":1087:1093   */\n      dup2\n        /* \"#utility.yul\":1075:1085   */\n      dup2\n        /* \"#utility.yul\":1072:1094   */\n      lt\n        /* \"#utility.yul\":1051:1069   */\n      0xffffffffffffffff\n        /* \"#utility.yul\":1039:1049   */\n      dup3\n        /* \"#utility.yul\":1036:1070   */\n      gt\n        /* \"#utility.yul\":1033:1095   */\n      or\n        /* \"#utility.yul\":1030:1118   */\n      iszero\n      tag_106\n      jumpi\n        /* \"#utility.yul\":1098:1116   */\n      tag_107\n      tag_57\n      jump\t// in\n    tag_107:\n        /* \"#utility.yul\":1030:1118   */\n    tag_106:\n        /* \"#utility.yul\":1138:1148   */\n      dup1\n        /* \"#utility.yul\":1134:1136   */\n      0x40\n        /* \"#utility.yul\":1127:1149   */\n      mstore\n        /* \"#utility.yul\":917:1155   */\n      pop\n        /* \"#utility.yul\":874:1155   */\n      pop\n      pop\n      jump\t// out\n        /* \"#utility.yul\":1161:1290   */\n    tag_59:\n        /* \"#utility.yul\":1195:1201   */\n      0x00\n        /* \"#utility.yul\":1222:1242   */\n      tag_109\n      tag_51\n      jump\t// in\n    tag_109:\n        /* \"#utility.yul\":1212:1242   */\n      swap1\n      pop\n        /* \"#utility.yul\":1251:1284   */\n      tag_110\n        /* \"#utility.yul\":1279:1283   */\n      dup3\n        /* \"#utility.yul\":1271:1277   */\n      dup3\n        /* \"#utility.yul\":1251:1284   */\n      tag_58\n      jump\t// in\n    tag_110:\n        /* \"#utility.yul\":1161:1290   */\n      swap2\n      swap1\n      pop\n      jump\t// out\n        /* \"#utility.yul\":1296:1604   */\n    tag_60:\n        /* \"#utility.yul\":1358:1362   */\n      0x00\n        /* \"#utility.yul\":1448:1466   */\n      0xffffffffffffffff\n        /* \"#utility.yul\":1440:1446   */\n      dup3\n        /* \"#utility.yul\":1437:1467   */\n      gt\n        /* \"#utility.yul\":1434:1490   */\n      iszero\n      tag_112\n      jumpi\n        /* \"#utility.yul\":1470:1488   */\n      tag_113\n      tag_57\n      jump\t// in\n    tag_113:\n        /* \"#utility.yul\":1434:1490   */\n    tag_112:\n        /* \"#utility.yul\":1508:1537   */\n      tag_114\n        /* \"#utility.yul\":1530:1536   */\n      dup3\n        /* \"#utility.yul\":1508:1537   */\n      tag_56\n      jump\t// in\n    tag_114:\n        /* \"#utility.yul\":1500:1537   */\n      swap1\n      pop\n        /* \"#utility.yul\":1592:1596   */\n      0x20\n        /* \"#utility.yul\":1586:1590   */\n      dup2\n        /* \"#utility.yul\":1582:1597   */\n      add\n        /* \"#utility.yul\":1574:1597   */\n      swap1\n      pop\n        /* \"#utility.yul\":1296:1604   */\n      swap2\n      swap1\n      pop\n      jump\t// out\n        /* \"#utility.yul\":1610:1764   */\n    tag_61:\n        /* \"#utility.yul\":1694:1700   */\n      dup3\n        /* \"#utility.yul\":1689:1692   */\n      dup2\n        /* \"#utility.yul\":1684:1687   */\n      dup4\n        /* \"#utility.yul\":1671:1701   */\n      calldatacopy\n        /* \"#utility.yul\":1756:1757   */\n      0x00\n        /* \"#utility.yul\":1747:1753   */\n      dup4\n        /* \"#utility.yul\":1742:1745   */\n      dup4\n        /* \"#utility.yul\":1738:1754   */\n      add\n        /* \"#utility.yul\":1731:1758   */\n      mstore\n        /* \"#utility.yul\":1610:1764   */\n      pop\n      pop\n      pop\n      jump\t// out\n        /* \"#utility.yul\":1770:2182   */\n    tag_62:\n        /* \"#utility.yul\":1848:1853   */\n      0x00\n        /* \"#utility.yul\":1873:1939   */\n      tag_117\n        /* \"#utility.yul\":1889:1938   */\n      tag_118\n        /* \"#utility.yul\":1931:1937   */\n      dup5\n        /* \"#utility.yul\":1889:1938   */\n      tag_60\n      jump\t// in\n    tag_118:\n        /* \"#utility.yul\":1873:1939   */\n      tag_59\n      jump\t// in\n    tag_117:\n        /* \"#utility.yul\":1864:1939   */\n      swap1\n      pop\n        /* \"#utility.yul\":1962:1968   */\n      dup3\n        /* \"#utility.yul\":1955:1960   */\n      dup2\n        /* \"#utility.yul\":1948:1969   */\n      mstore\n        /* \"#utility.yul\":2000:2004   */\n      0x20\n        /* \"#utility.yul\":1993:1998   */\n      dup2\n        /* \"#utility.yul\":1989:2005   */\n      add\n        /* \"#utility.yul\":2038:2041   */\n      dup5\n        /* \"#utility.yul\":2029:2035   */\n      dup5\n        /* \"#utility.yul\":2024:2027   */\n      dup5\n        /* \"#utility.yul\":2020:2036   */\n      add\n        /* \"#utility.yul\":2017:2042   */\n      gt\n        /* \"#utility.yul\":2014:2126   */\n      iszero\n      tag_119\n      jumpi\n        /* \"#utility.yul\":2045:2124   */\n      tag_120\n      tag_55\n      jump\t// in\n    tag_120:\n        /* \"#utility.yul\":2014:2126   */\n    tag_119:\n        /* \"#utility.yul\":2135:2176   */\n      tag_121\n        /* \"#utility.yul\":2169:2175   */\n      dup5\n        /* \"#utility.yul\":2164:2167   */\n      dup3\n        /* \"#utility.yul\":2159:2162   */\n      dup6\n        /* \"#utility.yul\":2135:2176   */\n      tag_61\n      jump\t// in\n    tag_121:\n        /* \"#utility.yul\":1854:2182   */\n      pop\n        /* \"#utility.yul\":1770:2182   */\n      swap4\n      swap3\n      pop\n      pop\n      pop\n      jump\t// out\n        /* \"#utility.yul\":2202:2542   */\n    tag_63:\n        /* \"#utility.yul\":2258:2263   */\n      0x00\n        /* \"#utility.yul\":2307:2310   */\n      dup3\n        /* \"#utility.yul\":2300:2304   */\n      0x1f\n        /* \"#utility.yul\":2292:2298   */\n      dup4\n        /* \"#utility.yul\":2288:2305   */\n      add\n        /* \"#utility.yul\":2284:2311   */\n      slt\n        /* \"#utility.yul\":2274:2396   */\n      tag_123\n      jumpi\n        /* \"#utility.yul\":2315:2394   */\n      tag_124\n      tag_54\n      jump\t// in\n    tag_124:\n        /* \"#utility.yul\":2274:2396   */\n    tag_123:\n        /* \"#utility.yul\":2432:2438   */\n      dup2\n        /* \"#utility.yul\":2419:2439   */\n      calldataload\n        /* \"#utility.yul\":2457:2536   */\n      tag_125\n        /* \"#utility.yul\":2532:2535   */\n      dup5\n        /* \"#utility.yul\":2524:2530   */\n      dup3\n        /* \"#utility.yul\":2517:2521   */\n      0x20\n        /* \"#utility.yul\":2509:2515   */\n      dup7\n        /* \"#utility.yul\":2505:2522   */\n      add\n        /* \"#utility.yul\":2457:2536   */\n      tag_62\n      jump\t// in\n    tag_125:\n        /* \"#utility.yul\":2448:2536   */\n      swap2\n      pop\n        /* \"#utility.yul\":2264:2542   */\n      pop\n        /* \"#utility.yul\":2202:2542   */\n      swap3\n      swap2\n      pop\n      pop\n      jump\t// out\n        /* \"#utility.yul\":2548:2674   */\n    tag_64:\n        /* \"#utility.yul\":2585:2592   */\n      0x00\n        /* \"#utility.yul\":2625:2667   */\n      0xffffffffffffffffffffffffffffffffffffffff\n        /* \"#utility.yul\":2618:2623   */\n      dup3\n        /* \"#utility.yul\":2614:2668   */\n      and\n        /* \"#utility.yul\":2603:2668   */\n      swap1\n      pop\n        /* \"#utility.yul\":2548:2674   */\n      swap2\n      swap1\n      pop\n      jump\t// out\n        /* \"#utility.yul\":2680:2776   */\n    tag_65:\n        /* \"#utility.yul\":2717:2724   */\n      0x00\n        /* \"#utility.yul\":2746:2770   */\n      tag_128\n        /* \"#utility.yul\":2764:2769   */\n      dup3\n        /* \"#utility.yul\":2746:2770   */\n      tag_64\n      jump\t// in\n    tag_128:\n        /* \"#utility.yul\":2735:2770   */\n      swap1\n      pop\n        /* \"#utility.yul\":2680:2776   */\n      swap2\n      swap1\n      pop\n      jump\t// out\n        /* \"#utility.yul\":2782:2904   */\n    tag_66:\n        /* \"#utility.yul\":2855:2879   */\n      tag_130\n        /* \"#utility.yul\":2873:2878   */\n      dup2\n        /* \"#utility.yul\":2855:2879   */\n      tag_65\n      jump\t// in\n    tag_130:\n        /* \"#utility.yul\":2848:2853   */\n      dup2\n        /* \"#utility.yul\":2845:2880   */\n      eq\n        /* \"#utility.yul\":2835:2898   */\n      tag_131\n      jumpi\n        /* \"#utility.yul\":2894:2895   */\n      0x00\n        /* \"#utility.yul\":2891:2892   */\n      dup1\n        /* \"#utility.yul\":2884:2896   */\n      revert\n        /* \"#utility.yul\":2835:2898   */\n    tag_131:\n        /* \"#utility.yul\":2782:2904   */\n      pop\n      jump\t// out\n        /* \"#utility.yul\":2910:3049   */\n    tag_67:\n        /* \"#utility.yul\":2956:2961   */\n      0x00\n        /* \"#utility.yul\":2994:3000   */\n      dup2\n        /* \"#utility.yul\":2981:3001   */\n      calldataload\n        /* \"#utility.yul\":2972:3001   */\n      swap1\n      pop\n        /* \"#utility.yul\":3010:3043   */\n      tag_133\n        /* \"#utility.yul\":3037:3042   */\n      dup2\n        /* \"#utility.yul\":3010:3043   */\n      tag_66\n      jump\t// in\n    tag_133:\n        /* \"#utility.yul\":2910:3049   */\n      swap3\n      swap2\n      pop\n      pop\n      jump\t// out\n        /* \"#utility.yul\":3055:3132   */\n    tag_68:\n        /* \"#utility.yul\":3092:3099   */\n      0x00\n        /* \"#utility.yul\":3121:3126   */\n      dup2\n        /* \"#utility.yul\":3110:3126   */\n      swap1\n      pop\n        /* \"#utility.yul\":3055:3132   */\n      swap2\n      swap1\n      pop\n      jump\t// out\n        /* \"#utility.yul\":3138:3260   */\n    tag_69:\n        /* \"#utility.yul\":3211:3235   */\n      tag_136\n        /* \"#utility.yul\":3229:3234   */\n      dup2\n        /* \"#utility.yul\":3211:3235   */\n      tag_68\n      jump\t// in\n    tag_136:\n        /* \"#utility.yul\":3204:3209   */\n      dup2\n        /* \"#utility.yul\":3201:3236   */\n      eq\n        /* \"#utility.yul\":3191:3254   */\n      tag_137\n      jumpi\n        /* \"#utility.yul\":3250:3251   */\n      0x00\n        /* \"#utility.yul\":3247:3248   */\n      dup1\n        /* \"#utility.yul\":3240:3252   */\n      revert\n        /* \"#utility.yul\":3191:3254   */\n    tag_137:\n        /* \"#utility.yul\":3138:3260   */\n      pop\n      jump\t// out\n        /* \"#utility.yul\":3266:3405   */\n    tag_70:\n        /* \"#utility.yul\":3312:3317   */\n      0x00\n        /* \"#utility.yul\":3350:3356   */\n      dup2\n        /* \"#utility.yul\":3337:3357   */\n      calldataload\n        /* \"#utility.yul\":3328:3357   */\n      swap1\n      pop\n        /* \"#utility.yul\":3366:3399   */\n      tag_139\n        /* \"#utility.yul\":3393:3398   */\n      dup2\n        /* \"#utility.yul\":3366:3399   */\n      tag_69\n      jump\t// in\n    tag_139:\n        /* \"#utility.yul\":3266:3405   */\n      swap3\n      swap2\n      pop\n      pop\n      jump\t// out\n        /* \"#utility.yul\":3411:3718   */\n    tag_71:\n        /* \"#utility.yul\":3472:3476   */\n      0x00\n        /* \"#utility.yul\":3562:3580   */\n      0xffffffffffffffff\n        /* \"#utility.yul\":3554:3560   */\n      dup3\n        /* \"#utility.yul\":3551:3581   */\n      gt\n        /* \"#utility.yul\":3548:3604   */\n      iszero\n      tag_141\n      jumpi\n        /* \"#utility.yul\":3584:3602   */\n      tag_142\n      tag_57\n      jump\t// in\n    tag_142:\n        /* \"#utility.yul\":3548:3604   */\n    tag_141:\n        /* \"#utility.yul\":3622:3651   */\n      tag_143\n        /* \"#utility.yul\":3644:3650   */\n      dup3\n        /* \"#utility.yul\":3622:3651   */\n      tag_56\n      jump\t// in\n    tag_143:\n        /* \"#utility.yul\":3614:3651   */\n      swap1\n      pop\n        /* \"#utility.yul\":3706:3710   */\n      0x20\n        /* \"#utility.yul\":3700:3704   */\n      dup2\n        /* \"#utility.yul\":3696:3711   */\n      add\n        /* \"#utility.yul\":3688:3711   */\n      swap1\n      pop\n        /* \"#utility.yul\":3411:3718   */\n      swap2\n      swap1\n      pop\n      jump\t// out\n        /* \"#utility.yul\":3724:4134   */\n    tag_72:\n        /* \"#utility.yul\":3801:3806   */\n      0x00\n        /* \"#utility.yul\":3826:3891   */\n      tag_145\n        /* \"#utility.yul\":3842:3890   */\n      tag_146\n        /* \"#utility.yul\":3883:3889   */\n      dup5\n        /* \"#utility.yul\":3842:3890   */\n      tag_71\n      jump\t// in\n    tag_146:\n        /* \"#utility.yul\":3826:3891   */\n      tag_59\n      jump\t// in\n    tag_145:\n        /* \"#utility.yul\":3817:3891   */\n      swap1\n      pop\n        /* \"#utility.yul\":3914:3920   */\n      dup3\n        /* \"#utility.yul\":3907:3912   */\n      dup2\n        /* \"#utility.yul\":3900:3921   */\n      mstore\n        /* \"#utility.yul\":3952:3956   */\n      0x20\n        /* \"#utility.yul\":3945:3950   */\n      dup2\n        /* \"#utility.yul\":3941:3957   */\n      add\n        /* \"#utility.yul\":3990:3993   */\n      dup5\n        /* \"#utility.yul\":3981:3987   */\n      dup5\n        /* \"#utility.yul\":3976:3979   */\n      dup5\n        /* \"#utility.yul\":3972:3988   */\n      add\n        /* \"#utility.yul\":3969:3994   */\n      gt\n        /* \"#utility.yul\":3966:4078   */\n      iszero\n      tag_147\n      jumpi\n        /* \"#utility.yul\":3997:4076   */\n      tag_148\n      tag_55\n      jump\t// in\n    tag_148:\n        /* \"#utility.yul\":3966:4078   */\n    tag_147:\n        /* \"#utility.yul\":4087:4128   */\n      tag_149\n        /* \"#utility.yul\":4121:4127   */\n      dup5\n        /* \"#utility.yul\":4116:4119   */\n      dup3\n        /* \"#utility.yul\":4111:4114   */\n      dup6\n        /* \"#utility.yul\":4087:4128   */\n      tag_61\n      jump\t// in\n    tag_149:\n        /* \"#utility.yul\":3807:4134   */\n      pop\n        /* \"#utility.yul\":3724:4134   */\n      swap4\n      swap3\n      pop\n      pop\n      pop\n      jump\t// out\n        /* \"#utility.yul\":4153:4491   */\n    tag_73:\n        /* \"#utility.yul\":4208:4213   */\n      0x00\n        /* \"#utility.yul\":4257:4260   */\n      dup3\n        /* \"#utility.yul\":4250:4254   */\n      0x1f\n        /* \"#utility.yul\":4242:4248   */\n      dup4\n        /* \"#utility.yul\":4238:4255   */\n      add\n        /* \"#utility.yul\":4234:4261   */\n      slt\n        /* \"#utility.yul\":4224:4346   */\n      tag_151\n      jumpi\n        /* \"#utility.yul\":4265:4344   */\n      tag_152\n      tag_54\n      jump\t// in\n    tag_152:\n        /* \"#utility.yul\":4224:4346   */\n    tag_151:\n        /* \"#utility.yul\":4382:4388   */\n      dup2\n        /* \"#utility.yul\":4369:4389   */\n      calldataload\n        /* \"#utility.yul\":4407:4485   */\n      tag_153\n        /* \"#utility.yul\":4481:4484   */\n      dup5\n        /* \"#utility.yul\":4473:4479   */\n      dup3\n        /* \"#utility.yul\":4466:4470   */\n      0x20\n        /* \"#utility.yul\":4458:4464   */\n      dup7\n        /* \"#utility.yul\":4454:4471   */\n      add\n        /* \"#utility.yul\":4407:4485   */\n      tag_72\n      jump\t// in\n    tag_153:\n        /* \"#utility.yul\":4398:4485   */\n      swap2\n      pop\n        /* \"#utility.yul\":4214:4491   */\n      pop\n        /* \"#utility.yul\":4153:4491   */\n      swap3\n      swap2\n      pop\n      pop\n      jump\t// out\n        /* \"#utility.yul\":4497:6418   */\n    tag_9:\n        /* \"#utility.yul\":4649:4655   */\n      0x00\n        /* \"#utility.yul\":4657:4663   */\n      dup1\n        /* \"#utility.yul\":4665:4671   */\n      0x00\n        /* \"#utility.yul\":4673:4679   */\n      dup1\n        /* \"#utility.yul\":4681:4687   */\n      0x00\n        /* \"#utility.yul\":4689:4695   */\n      dup1\n        /* \"#utility.yul\":4697:4703   */\n      0x00\n        /* \"#utility.yul\":4746:4749   */\n      0xe0\n        /* \"#utility.yul\":4734:4743   */\n      dup9\n        /* \"#utility.yul\":4725:4732   */\n      dup11\n        /* \"#utility.yul\":4721:4744   */\n      sub\n        /* \"#utility.yul\":4717:4750   */\n      slt\n        /* \"#utility.yul\":4714:4834   */\n      iszero\n      tag_155\n      jumpi\n        /* \"#utility.yul\":4753:4832   */\n      tag_156\n      tag_52\n      jump\t// in\n    tag_156:\n        /* \"#utility.yul\":4714:4834   */\n    tag_155:\n        /* \"#utility.yul\":4901:4902   */\n      0x00\n        /* \"#utility.yul\":4890:4899   */\n      dup9\n        /* \"#utility.yul\":4886:4903   */\n      add\n        /* \"#utility.yul\":4873:4904   */\n      calldataload\n        /* \"#utility.yul\":4931:4949   */\n      0xffffffffffffffff\n        /* \"#utility.yul\":4923:4929   */\n      dup2\n        /* \"#utility.yul\":4920:4950   */\n      gt\n        /* \"#utility.yul\":4917:5034   */\n      iszero\n      tag_157\n      jumpi\n        /* \"#utility.yul\":4953:5032   */\n      tag_158\n      tag_53\n      jump\t// in\n    tag_158:\n        /* \"#utility.yul\":4917:5034   */\n    tag_157:\n        /* \"#utility.yul\":5058:5121   */\n      tag_159\n        /* \"#utility.yul\":5113:5120   */\n      dup11\n        /* \"#utility.yul\":5104:5110   */\n      dup3\n        /* \"#utility.yul\":5093:5102   */\n      dup12\n        /* \"#utility.yul\":5089:5111   */\n      add\n        /* \"#utility.yul\":5058:5121   */\n      tag_63\n      jump\t// in\n    tag_159:\n        /* \"#utility.yul\":5048:5121   */\n      swap8\n      pop\n        /* \"#utility.yul\":4844:5131   */\n      pop\n        /* \"#utility.yul\":5170:5172   */\n      0x20\n        /* \"#utility.yul\":5196:5249   */\n      tag_160\n        /* \"#utility.yul\":5241:5248   */\n      dup11\n        /* \"#utility.yul\":5232:5238   */\n      dup3\n        /* \"#utility.yul\":5221:5230   */\n      dup12\n        /* \"#utility.yul\":5217:5239   */\n      add\n        /* \"#utility.yul\":5196:5249   */\n      tag_67\n      jump\t// in\n    tag_160:\n        /* \"#utility.yul\":5186:5249   */\n      swap7\n      pop\n        /* \"#utility.yul\":5141:5259   */\n      pop\n        /* \"#utility.yul\":5326:5328   */\n      0x40\n        /* \"#utility.yul\":5315:5324   */\n      dup9\n        /* \"#utility.yul\":5311:5329   */\n      add\n        /* \"#utility.yul\":5298:5330   */\n      calldataload\n        /* \"#utility.yul\":5357:5375   */\n      0xffffffffffffffff\n        /* \"#utility.yul\":5349:5355   */\n      dup2\n        /* \"#utility.yul\":5346:5376   */\n      gt\n        /* \"#utility.yul\":5343:5460   */\n      iszero\n      tag_161\n      jumpi\n        /* \"#utility.yul\":5379:5458   */\n      tag_162\n      tag_53\n      jump\t// in\n    tag_162:\n        /* \"#utility.yul\":5343:5460   */\n    tag_161:\n        /* \"#utility.yul\":5484:5547   */\n      tag_163\n        /* \"#utility.yul\":5539:5546   */\n      dup11\n        /* \"#utility.yul\":5530:5536   */\n      dup3\n        /* \"#utility.yul\":5519:5528   */\n      dup12\n        /* \"#utility.yul\":5515:5537   */\n      add\n        /* \"#utility.yul\":5484:5547   */\n      tag_63\n      jump\t// in\n    tag_163:\n        /* \"#utility.yul\":5474:5547   */\n      swap6\n      pop\n        /* \"#utility.yul\":5269:5557   */\n      pop\n        /* \"#utility.yul\":5596:5598   */\n      0x60\n        /* \"#utility.yul\":5622:5675   */\n      tag_164\n        /* \"#utility.yul\":5667:5674   */\n      dup11\n        /* \"#utility.yul\":5658:5664   */\n      dup3\n        /* \"#utility.yul\":5647:5656   */\n      dup12\n        /* \"#utility.yul\":5643:5665   */\n      add\n        /* \"#utility.yul\":5622:5675   */\n      tag_67\n      jump\t// in\n    tag_164:\n        /* \"#utility.yul\":5612:5675   */\n      swap5\n      pop\n        /* \"#utility.yul\":5567:5685   */\n      pop\n        /* \"#utility.yul\":5752:5755   */\n      0x80\n        /* \"#utility.yul\":5741:5750   */\n      dup9\n        /* \"#utility.yul\":5737:5756   */\n      add\n        /* \"#utility.yul\":5724:5757   */\n      calldataload\n        /* \"#utility.yul\":5784:5802   */\n      0xffffffffffffffff\n        /* \"#utility.yul\":5776:5782   */\n      dup2\n        /* \"#utility.yul\":5773:5803   */\n      gt\n        /* \"#utility.yul\":5770:5887   */\n      iszero\n      tag_165\n      jumpi\n        /* \"#utility.yul\":5806:5885   */\n      tag_166\n      tag_53\n      jump\t// in\n    tag_166:\n        /* \"#utility.yul\":5770:5887   */\n    tag_165:\n        /* \"#utility.yul\":5911:5974   */\n      tag_167\n        /* \"#utility.yul\":5966:5973   */\n      dup11\n        /* \"#utility.yul\":5957:5963   */\n      dup3\n        /* \"#utility.yul\":5946:5955   */\n      dup12\n        /* \"#utility.yul\":5942:5964   */\n      add\n        /* \"#utility.yul\":5911:5974   */\n      tag_63\n      jump\t// in\n    tag_167:\n        /* \"#utility.yul\":5901:5974   */\n      swap4\n      pop\n        /* \"#utility.yul\":5695:5984   */\n      pop\n        /* \"#utility.yul\":6023:6026   */\n      0xa0\n        /* \"#utility.yul\":6050:6103   */\n      tag_168\n        /* \"#utility.yul\":6095:6102   */\n      dup11\n        /* \"#utility.yul\":6086:6092   */\n      dup3\n        /* \"#utility.yul\":6075:6084   */\n      dup12\n        /* \"#utility.yul\":6071:6093   */\n      add\n        /* \"#utility.yul\":6050:6103   */\n      tag_70\n      jump\t// in\n    tag_168:\n        /* \"#utility.yul\":6040:6103   */\n      swap3\n      pop\n        /* \"#utility.yul\":5994:6113   */\n      pop\n        /* \"#utility.yul\":6180:6183   */\n      0xc0\n        /* \"#utility.yul\":6169:6178   */\n      dup9\n        /* \"#utility.yul\":6165:6184   */\n      add\n        /* \"#utility.yul\":6152:6185   */\n      calldataload\n        /* \"#utility.yul\":6212:6230   */\n      0xffffffffffffffff\n        /* \"#utility.yul\":6204:6210   */\n      dup2\n        /* \"#utility.yul\":6201:6231   */\n      gt\n        /* \"#utility.yul\":6198:6315   */\n      iszero\n      tag_169\n      jumpi\n        /* \"#utility.yul\":6234:6313   */\n      tag_170\n      tag_53\n      jump\t// in\n    tag_170:\n        /* \"#utility.yul\":6198:6315   */\n    tag_169:\n        /* \"#utility.yul\":6339:6401   */\n      tag_171\n        /* \"#utility.yul\":6393:6400   */\n      dup11\n        /* \"#utility.yul\":6384:6390   */\n      dup3\n        /* \"#utility.yul\":6373:6382   */\n      dup12\n        /* \"#utility.yul\":6369:6391   */\n      add\n        /* \"#utility.yul\":6339:6401   */\n      tag_73\n      jump\t// in\n    tag_171:\n        /* \"#utility.yul\":6329:6401   */\n      swap2\n      pop\n        /* \"#utility.yul\":6123:6411   */\n      pop\n        /* \"#utility.yul\":4497:6418   */\n      swap3\n      swap6\n      swap9\n      swap2\n      swap5\n      swap8\n      pop\n      swap3\n      swap6\n      pop\n      jump\t// out\n        /* \"#utility.yul\":6424:6542   */\n    tag_74:\n        /* \"#utility.yul\":6511:6535   */\n      tag_173\n        /* \"#utility.yul\":6529:6534   */\n      dup2\n        /* \"#utility.yul\":6511:6535   */\n      tag_65\n      jump\t// in\n    tag_173:\n        /* \"#utility.yul\":6506:6509   */\n      dup3\n        /* \"#utility.yul\":6499:6536   */\n      mstore\n        /* \"#utility.yul\":6424:6542   */\n      pop\n      pop\n      jump\t// out\n        /* \"#utility.yul\":6548:6770   */\n    tag_12:\n        /* \"#utility.yul\":6641:6645   */\n      0x00\n        /* \"#utility.yul\":6679:6681   */\n      0x20\n        /* \"#utility.yul\":6668:6677   */\n      dup3\n        /* \"#utility.yul\":6664:6682   */\n      add\n        /* \"#utility.yul\":6656:6682   */\n      swap1\n      pop\n        /* \"#utility.yul\":6692:6763   */\n      tag_175\n        /* \"#utility.yul\":6760:6761   */\n      0x00\n        /* \"#utility.yul\":6749:6758   */\n      dup4\n        /* \"#utility.yul\":6745:6762   */\n      add\n        /* \"#utility.yul\":6736:6742   */\n      dup5\n        /* \"#utility.yul\":6692:6763   */\n      tag_74\n      jump\t// in\n    tag_175:\n        /* \"#utility.yul\":6548:6770   */\n      swap3\n      swap2\n      pop\n      pop\n      jump\t// out\n        /* \"#utility.yul\":6776:8373   */\n    tag_15:\n        /* \"#utility.yul\":6910:6916   */\n      0x00\n        /* \"#utility.yul\":6918:6924   */\n      dup1\n        /* \"#utility.yul\":6926:6932   */\n      0x00\n        /* \"#utility.yul\":6934:6940   */\n      dup1\n        /* \"#utility.yul\":6942:6948   */\n      0x00\n        /* \"#utility.yul\":6950:6956   */\n      dup1\n        /* \"#utility.yul\":6999:7002   */\n      0xc0\n        /* \"#utility.yul\":6987:6996   */\n      dup8\n        /* \"#utility.yul\":6978:6985   */\n      dup10\n        /* \"#utility.yul\":6974:6997   */\n      sub\n        /* \"#utility.yul\":6970:7003   */\n      slt\n        /* \"#utility.yul\":6967:7087   */\n      iszero\n      tag_177\n      jumpi\n        /* \"#utility.yul\":7006:7085   */\n      tag_178\n      tag_52\n      jump\t// in\n    tag_178:\n        /* \"#utility.yul\":6967:7087   */\n    tag_177:\n        /* \"#utility.yul\":7154:7155   */\n      0x00\n        /* \"#utility.yul\":7143:7152   */\n      dup8\n        /* \"#utility.yul\":7139:7156   */\n      add\n        /* \"#utility.yul\":7126:7157   */\n      calldataload\n        /* \"#utility.yul\":7184:7202   */\n      0xffffffffffffffff\n        /* \"#utility.yul\":7176:7182   */\n      dup2\n        /* \"#utility.yul\":7173:7203   */\n      gt\n        /* \"#utility.yul\":7170:7287   */\n      iszero\n      tag_179\n      jumpi\n        /* \"#utility.yul\":7206:7285   */\n      tag_180\n      tag_53\n      jump\t// in\n    tag_180:\n        /* \"#utility.yul\":7170:7287   */\n    tag_179:\n        /* \"#utility.yul\":7311:7374   */\n      tag_181\n        /* \"#utility.yul\":7366:7373   */\n      dup10\n        /* \"#utility.yul\":7357:7363   */\n      dup3\n        /* \"#utility.yul\":7346:7355   */\n      dup11\n        /* \"#utility.yul\":7342:7364   */\n      add\n        /* \"#utility.yul\":7311:7374   */\n      tag_63\n      jump\t// in\n    tag_181:\n        /* \"#utility.yul\":7301:7374   */\n      swap7\n      pop\n        /* \"#utility.yul\":7097:7384   */\n      pop\n        /* \"#utility.yul\":7423:7425   */\n      0x20\n        /* \"#utility.yul\":7449:7502   */\n      tag_182\n        /* \"#utility.yul\":7494:7501   */\n      dup10\n        /* \"#utility.yul\":7485:7491   */\n      dup3\n        /* \"#utility.yul\":7474:7483   */\n      dup11\n        /* \"#utility.yul\":7470:7492   */\n      add\n        /* \"#utility.yul\":7449:7502   */\n      tag_67\n      jump\t// in\n    tag_182:\n        /* \"#utility.yul\":7439:7502   */\n      swap6\n      pop\n        /* \"#utility.yul\":7394:7512   */\n      pop\n        /* \"#utility.yul\":7579:7581   */\n      0x40\n        /* \"#utility.yul\":7568:7577   */\n      dup8\n        /* \"#utility.yul\":7564:7582   */\n      add\n        /* \"#utility.yul\":7551:7583   */\n      calldataload\n        /* \"#utility.yul\":7610:7628   */\n      0xffffffffffffffff\n        /* \"#utility.yul\":7602:7608   */\n      dup2\n        /* \"#utility.yul\":7599:7629   */\n      gt\n        /* \"#utility.yul\":7596:7713   */\n      iszero\n      tag_183\n      jumpi\n        /* \"#utility.yul\":7632:7711   */\n      tag_184\n      tag_53\n      jump\t// in\n    tag_184:\n        /* \"#utility.yul\":7596:7713   */\n    tag_183:\n        /* \"#utility.yul\":7737:7800   */\n      tag_185\n        /* \"#utility.yul\":7792:7799   */\n      dup10\n        /* \"#utility.yul\":7783:7789   */\n      dup3\n        /* \"#utility.yul\":7772:7781   */\n      dup11\n        /* \"#utility.yul\":7768:7790   */\n      add\n        /* \"#utility.yul\":7737:7800   */\n      tag_63\n      jump\t// in\n    tag_185:\n        /* \"#utility.yul\":7727:7800   */\n      swap5\n      pop\n        /* \"#utility.yul\":7522:7810   */\n      pop\n        /* \"#utility.yul\":7849:7851   */\n      0x60\n        /* \"#utility.yul\":7875:7928   */\n      tag_186\n        /* \"#utility.yul\":7920:7927   */\n      dup10\n        /* \"#utility.yul\":7911:7917   */\n      dup3\n        /* \"#utility.yul\":7900:7909   */\n      dup11\n        /* \"#utility.yul\":7896:7918   */\n      add\n        /* \"#utility.yul\":7875:7928   */\n      tag_67\n      jump\t// in\n    tag_186:\n        /* \"#utility.yul\":7865:7928   */\n      swap4\n      pop\n        /* \"#utility.yul\":7820:7938   */\n      pop\n        /* \"#utility.yul\":8005:8008   */\n      0x80\n        /* \"#utility.yul\":7994:8003   */\n      dup8\n        /* \"#utility.yul\":7990:8009   */\n      add\n        /* \"#utility.yul\":7977:8010   */\n      calldataload\n        /* \"#utility.yul\":8037:8055   */\n      0xffffffffffffffff\n        /* \"#utility.yul\":8029:8035   */\n      dup2\n        /* \"#utility.yul\":8026:8056   */\n      gt\n        /* \"#utility.yul\":8023:8140   */\n      iszero\n      tag_187\n      jumpi\n        /* \"#utility.yul\":8059:8138   */\n      tag_188\n      tag_53\n      jump\t// in\n    tag_188:\n        /* \"#utility.yul\":8023:8140   */\n    tag_187:\n        /* \"#utility.yul\":8164:8227   */\n      tag_189\n        /* \"#utility.yul\":8219:8226   */\n      dup10\n        /* \"#utility.yul\":8210:8216   */\n      dup3\n        /* \"#utility.yul\":8199:8208   */\n      dup11\n        /* \"#utility.yul\":8195:8217   */\n      add\n        /* \"#utility.yul\":8164:8227   */\n      tag_63\n      jump\t// in\n    tag_189:\n        /* \"#utility.yul\":8154:8227   */\n      swap3\n      pop\n        /* \"#utility.yul\":7948:8237   */\n      pop\n        /* \"#utility.yul\":8276:8279   */\n      0xa0\n        /* \"#utility.yul\":8303:8356   */\n      tag_190\n        /* \"#utility.yul\":8348:8355   */\n      dup10\n        /* \"#utility.yul\":8339:8345   */\n      dup3\n        /* \"#utility.yul\":8328:8337   */\n      dup11\n        /* \"#utility.yul\":8324:8346   */\n      add\n        /* \"#utility.yul\":8303:8356   */\n      tag_70\n      jump\t// in\n    tag_190:\n        /* \"#utility.yul\":8293:8356   */\n      swap2\n      pop\n        /* \"#utility.yul\":8247:8366   */\n      pop\n        /* \"#utility.yul\":6776:8373   */\n      swap3\n      swap6\n      pop\n      swap3\n      swap6\n      pop\n      swap3\n      swap6\n      jump\t// out\n        /* \"#utility.yul\":8379:8456   */\n    tag_75:\n        /* \"#utility.yul\":8416:8423   */\n      0x00\n        /* \"#utility.yul\":8445:8450   */\n      dup2\n        /* \"#utility.yul\":8434:8450   */\n      swap1\n      pop\n        /* \"#utility.yul\":8379:8456   */\n      swap2\n      swap1\n      pop\n      jump\t// out\n        /* \"#utility.yul\":8462:8580   */\n    tag_76:\n        /* \"#utility.yul\":8549:8573   */\n      tag_193\n        /* \"#utility.yul\":8567:8572   */\n      dup2\n        /* \"#utility.yul\":8549:8573   */\n      tag_75\n      jump\t// in\n    tag_193:\n        /* \"#utility.yul\":8544:8547   */\n      dup3\n        /* \"#utility.yul\":8537:8574   */\n      mstore\n        /* \"#utility.yul\":8462:8580   */\n      pop\n      pop\n      jump\t// out\n        /* \"#utility.yul\":8586:8808   */\n    tag_18:\n        /* \"#utility.yul\":8679:8683   */\n      0x00\n        /* \"#utility.yul\":8717:8719   */\n      0x20\n        /* \"#utility.yul\":8706:8715   */\n      dup3\n        /* \"#utility.yul\":8702:8720   */\n      add\n        /* \"#utility.yul\":8694:8720   */\n      swap1\n      pop\n        /* \"#utility.yul\":8730:8801   */\n      tag_195\n        /* \"#utility.yul\":8798:8799   */\n      0x00\n        /* \"#utility.yul\":8787:8796   */\n      dup4\n        /* \"#utility.yul\":8783:8800   */\n      add\n        /* \"#utility.yul\":8774:8780   */\n      dup5\n        /* \"#utility.yul\":8730:8801   */\n      tag_76\n      jump\t// in\n    tag_195:\n        /* \"#utility.yul\":8586:8808   */\n      swap3\n      swap2\n      pop\n      pop\n      jump\t// out\n        /* \"#utility.yul\":8814:8936   */\n    tag_77:\n        /* \"#utility.yul\":8887:8911   */\n      tag_197\n        /* \"#utility.yul\":8905:8910   */\n      dup2\n        /* \"#utility.yul\":8887:8911   */\n      tag_75\n      jump\t// in\n    tag_197:\n        /* \"#utility.yul\":8880:8885   */\n      dup2\n        /* \"#utility.yul\":8877:8912   */\n      eq\n        /* \"#utility.yul\":8867:8930   */\n      tag_198\n      jumpi\n        /* \"#utility.yul\":8926:8927   */\n      0x00\n        /* \"#utility.yul\":8923:8924   */\n      dup1\n        /* \"#utility.yul\":8916:8928   */\n      revert\n        /* \"#utility.yul\":8867:8930   */\n    tag_198:\n        /* \"#utility.yul\":8814:8936   */\n      pop\n      jump\t// out\n        /* \"#utility.yul\":8942:9081   */\n    tag_78:\n        /* \"#utility.yul\":8988:8993   */\n      0x00\n        /* \"#utility.yul\":9026:9032   */\n      dup2\n        /* \"#utility.yul\":9013:9033   */\n      calldataload\n        /* \"#utility.yul\":9004:9033   */\n      swap1\n      pop\n        /* \"#utility.yul\":9042:9075   */\n      tag_200\n        /* \"#utility.yul\":9069:9074   */\n      dup2\n        /* \"#utility.yul\":9042:9075   */\n      tag_77\n      jump\t// in\n    tag_200:\n        /* \"#utility.yul\":8942:9081   */\n      swap3\n      swap2\n      pop\n      pop\n      jump\t// out\n        /* \"#utility.yul\":9087:9739   */\n    tag_21:\n        /* \"#utility.yul\":9164:9170   */\n      0x00\n        /* \"#utility.yul\":9172:9178   */\n      dup1\n        /* \"#utility.yul\":9221:9223   */\n      0x40\n        /* \"#utility.yul\":9209:9218   */\n      dup4\n        /* \"#utility.yul\":9200:9207   */\n      dup6\n        /* \"#utility.yul\":9196:9219   */\n      sub\n        /* \"#utility.yul\":9192:9224   */\n      slt\n        /* \"#utility.yul\":9189:9308   */\n      iszero\n      tag_202\n      jumpi\n        /* \"#utility.yul\":9227:9306   */\n      tag_203\n      tag_52\n      jump\t// in\n    tag_203:\n        /* \"#utility.yul\":9189:9308   */\n    tag_202:\n        /* \"#utility.yul\":9347:9348   */\n      0x00\n        /* \"#utility.yul\":9372:9425   */\n      tag_204\n        /* \"#utility.yul\":9417:9424   */\n      dup6\n        /* \"#utility.yul\":9408:9414   */\n      dup3\n        /* \"#utility.yul\":9397:9406   */\n      dup7\n        /* \"#utility.yul\":9393:9415   */\n      add\n        /* \"#utility.yul\":9372:9425   */\n      tag_78\n      jump\t// in\n    tag_204:\n        /* \"#utility.yul\":9362:9425   */\n      swap3\n      pop\n        /* \"#utility.yul\":9318:9435   */\n      pop\n        /* \"#utility.yul\":9502:9504   */\n      0x20\n        /* \"#utility.yul\":9491:9500   */\n      dup4\n        /* \"#utility.yul\":9487:9505   */\n      add\n        /* \"#utility.yul\":9474:9506   */\n      calldataload\n        /* \"#utility.yul\":9533:9551   */\n      0xffffffffffffffff\n        /* \"#utility.yul\":9525:9531   */\n      dup2\n        /* \"#utility.yul\":9522:9552   */\n      gt\n        /* \"#utility.yul\":9519:9636   */\n      iszero\n      tag_205\n      jumpi\n        /* \"#utility.yul\":9555:9634   */\n      tag_206\n      tag_53\n      jump\t// in\n    tag_206:\n        /* \"#utility.yul\":9519:9636   */\n    tag_205:\n        /* \"#utility.yul\":9660:9722   */\n      tag_207\n        /* \"#utility.yul\":9714:9721   */\n      dup6\n        /* \"#utility.yul\":9705:9711   */\n      dup3\n        /* \"#utility.yul\":9694:9703   */\n      dup7\n        /* \"#utility.yul\":9690:9712   */\n      add\n        /* \"#utility.yul\":9660:9722   */\n      tag_73\n      jump\t// in\n    tag_207:\n        /* \"#utility.yul\":9650:9722   */\n      swap2\n      pop\n        /* \"#utility.yul\":9445:9732   */\n      pop\n        /* \"#utility.yul\":9087:9739   */\n      swap3\n      pop\n      swap3\n      swap1\n      pop\n      jump\t// out\n        /* \"#utility.yul\":9745:10074   */\n    tag_26:\n        /* \"#utility.yul\":9804:9810   */\n      0x00\n        /* \"#utility.yul\":9853:9855   */\n      0x20\n        /* \"#utility.yul\":9841:9850   */\n      dup3\n        /* \"#utility.yul\":9832:9839   */\n      dup5\n        /* \"#utility.yul\":9828:9851   */\n      sub\n        /* \"#utility.yul\":9824:9856   */\n      slt\n        /* \"#utility.yul\":9821:9940   */\n      iszero\n      tag_209\n      jumpi\n        /* \"#utility.yul\":9859:9938   */\n      tag_210\n      tag_52\n      jump\t// in\n    tag_210:\n        /* \"#utility.yul\":9821:9940   */\n    tag_209:\n        /* \"#utility.yul\":9979:9980   */\n      0x00\n        /* \"#utility.yul\":10004:10057   */\n      tag_211\n        /* \"#utility.yul\":10049:10056   */\n      dup5\n        /* \"#utility.yul\":10040:10046   */\n      dup3\n        /* \"#utility.yul\":10029:10038   */\n      dup6\n        /* \"#utility.yul\":10025:10047   */\n      add\n        /* \"#utility.yul\":10004:10057   */\n      tag_78\n      jump\t// in\n    tag_211:\n        /* \"#utility.yul\":9994:10057   */\n      swap2\n      pop\n        /* \"#utility.yul\":9950:10067   */\n      pop\n        /* \"#utility.yul\":9745:10074   */\n      swap3\n      swap2\n      pop\n      pop\n      jump\t// out\n        /* \"#utility.yul\":10080:10179   */\n    tag_79:\n        /* \"#utility.yul\":10132:10138   */\n      0x00\n        /* \"#utility.yul\":10166:10171   */\n      dup2\n        /* \"#utility.yul\":10160:10172   */\n      mload\n        /* \"#utility.yul\":10150:10172   */\n      swap1\n      pop\n        /* \"#utility.yul\":10080:10179   */\n      swap2\n      swap1\n      pop\n      jump\t// out\n        /* \"#utility.yul\":10185:10333   */\n    tag_80:\n        /* \"#utility.yul\":10287:10298   */\n      0x00\n        /* \"#utility.yul\":10324:10327   */\n      dup2\n        /* \"#utility.yul\":10309:10327   */\n      swap1\n      pop\n        /* \"#utility.yul\":10185:10333   */\n      swap3\n      swap2\n      pop\n      pop\n      jump\t// out\n        /* \"#utility.yul\":10339:10646   */\n    tag_81:\n        /* \"#utility.yul\":10407:10408   */\n      0x00\n        /* \"#utility.yul\":10417:10530   */\n    tag_215:\n        /* \"#utility.yul\":10431:10437   */\n      dup4\n        /* \"#utility.yul\":10428:10429   */\n      dup2\n        /* \"#utility.yul\":10425:10438   */\n      lt\n        /* \"#utility.yul\":10417:10530   */\n      iszero\n      tag_217\n      jumpi\n        /* \"#utility.yul\":10516:10517   */\n      dup1\n        /* \"#utility.yul\":10511:10514   */\n      dup3\n        /* \"#utility.yul\":10507:10518   */\n      add\n        /* \"#utility.yul\":10501:10519   */\n      mload\n        /* \"#utility.yul\":10497:10498   */\n      dup2\n        /* \"#utility.yul\":10492:10495   */\n      dup5\n        /* \"#utility.yul\":10488:10499   */\n      add\n        /* \"#utility.yul\":10481:10520   */\n      mstore\n        /* \"#utility.yul\":10453:10455   */\n      0x20\n        /* \"#utility.yul\":10450:10451   */\n      dup2\n        /* \"#utility.yul\":10446:10456   */\n      add\n        /* \"#utility.yul\":10441:10456   */\n      swap1\n      pop\n        /* \"#utility.yul\":10417:10530   */\n      jump(tag_215)\n    tag_217:\n        /* \"#utility.yul\":10548:10554   */\n      dup4\n        /* \"#utility.yul\":10545:10546   */\n      dup2\n        /* \"#utility.yul\":10542:10555   */\n      gt\n        /* \"#utility.yul\":10539:10640   */\n      iszero\n      tag_218\n      jumpi\n        /* \"#utility.yul\":10628:10629   */\n      0x00\n        /* \"#utility.yul\":10619:10625   */\n      dup5\n        /* \"#utility.yul\":10614:10617   */\n      dup5\n        /* \"#utility.yul\":10610:10626   */\n      add\n        /* \"#utility.yul\":10603:10630   */\n      mstore\n        /* \"#utility.yul\":10539:10640   */\n    tag_218:\n        /* \"#utility.yul\":10388:10646   */\n      pop\n        /* \"#utility.yul\":10339:10646   */\n      pop\n      pop\n      pop\n      jump\t// out\n        /* \"#utility.yul\":10652:11029   */\n    tag_82:\n        /* \"#utility.yul\":10758:10761   */\n      0x00\n        /* \"#utility.yul\":10786:10825   */\n      tag_220\n        /* \"#utility.yul\":10819:10824   */\n      dup3\n        /* \"#utility.yul\":10786:10825   */\n      tag_79\n      jump\t// in\n    tag_220:\n        /* \"#utility.yul\":10841:10930   */\n      tag_221\n        /* \"#utility.yul\":10923:10929   */\n      dup2\n        /* \"#utility.yul\":10918:10921   */\n      dup6\n        /* \"#utility.yul\":10841:10930   */\n      tag_80\n      jump\t// in\n    tag_221:\n        /* \"#utility.yul\":10834:10930   */\n      swap4\n      pop\n        /* \"#utility.yul\":10939:10991   */\n      tag_222\n        /* \"#utility.yul\":10984:10990   */\n      dup2\n        /* \"#utility.yul\":10979:10982   */\n      dup6\n        /* \"#utility.yul\":10972:10976   */\n      0x20\n        /* \"#utility.yul\":10965:10970   */\n      dup7\n        /* \"#utility.yul\":10961:10977   */\n      add\n        /* \"#utility.yul\":10939:10991   */\n      tag_81\n      jump\t// in\n    tag_222:\n        /* \"#utility.yul\":11016:11022   */\n      dup1\n        /* \"#utility.yul\":11011:11014   */\n      dup5\n        /* \"#utility.yul\":11007:11023   */\n      add\n        /* \"#utility.yul\":11000:11023   */\n      swap2\n      pop\n        /* \"#utility.yul\":10762:11029   */\n      pop\n        /* \"#utility.yul\":10652:11029   */\n      swap3\n      swap2\n      pop\n      pop\n      jump\t// out\n        /* \"#utility.yul\":11035:11129   */\n    tag_83:\n        /* \"#utility.yul\":11068:11076   */\n      0x00\n        /* \"#utility.yul\":11116:11121   */\n      dup2\n        /* \"#utility.yul\":11112:11114   */\n      0x60\n        /* \"#utility.yul\":11108:11122   */\n      shl\n        /* \"#utility.yul\":11087:11122   */\n      swap1\n      pop\n        /* \"#utility.yul\":11035:11129   */\n      swap2\n      swap1\n      pop\n      jump\t// out\n        /* \"#utility.yul\":11135:11229   */\n    tag_84:\n        /* \"#utility.yul\":11174:11181   */\n      0x00\n        /* \"#utility.yul\":11203:11223   */\n      tag_225\n        /* \"#utility.yul\":11217:11222   */\n      dup3\n        /* \"#utility.yul\":11203:11223   */\n      tag_83\n      jump\t// in\n    tag_225:\n        /* \"#utility.yul\":11192:11223   */\n      swap1\n      pop\n        /* \"#utility.yul\":11135:11229   */\n      swap2\n      swap1\n      pop\n      jump\t// out\n        /* \"#utility.yul\":11235:11335   */\n    tag_85:\n        /* \"#utility.yul\":11274:11281   */\n      0x00\n        /* \"#utility.yul\":11303:11329   */\n      tag_227\n        /* \"#utility.yul\":11323:11328   */\n      dup3\n        /* \"#utility.yul\":11303:11329   */\n      tag_84\n      jump\t// in\n    tag_227:\n        /* \"#utility.yul\":11292:11329   */\n      swap1\n      pop\n        /* \"#utility.yul\":11235:11335   */\n      swap2\n      swap1\n      pop\n      jump\t// out\n        /* \"#utility.yul\":11341:11498   */\n    tag_86:\n        /* \"#utility.yul\":11446:11491   */\n      tag_229\n        /* \"#utility.yul\":11466:11490   */\n      tag_230\n        /* \"#utility.yul\":11484:11489   */\n      dup3\n        /* \"#utility.yul\":11466:11490   */\n      tag_65\n      jump\t// in\n    tag_230:\n        /* \"#utility.yul\":11446:11491   */\n      tag_85\n      jump\t// in\n    tag_229:\n        /* \"#utility.yul\":11441:11444   */\n      dup3\n        /* \"#utility.yul\":11434:11492   */\n      mstore\n        /* \"#utility.yul\":11341:11498   */\n      pop\n      pop\n      jump\t// out\n        /* \"#utility.yul\":11504:11583   */\n    tag_87:\n        /* \"#utility.yul\":11543:11550   */\n      0x00\n        /* \"#utility.yul\":11572:11577   */\n      dup2\n        /* \"#utility.yul\":11561:11577   */\n      swap1\n      pop\n        /* \"#utility.yul\":11504:11583   */\n      swap2\n      swap1\n      pop\n      jump\t// out\n        /* \"#utility.yul\":11589:11746   */\n    tag_88:\n        /* \"#utility.yul\":11694:11739   */\n      tag_233\n        /* \"#utility.yul\":11714:11738   */\n      tag_234\n        /* \"#utility.yul\":11732:11737   */\n      dup3\n        /* \"#utility.yul\":11714:11738   */\n      tag_68\n      jump\t// in\n    tag_234:\n        /* \"#utility.yul\":11694:11739   */\n      tag_87\n      jump\t// in\n    tag_233:\n        /* \"#utility.yul\":11689:11692   */\n      dup3\n        /* \"#utility.yul\":11682:11740   */\n      mstore\n        /* \"#utility.yul\":11589:11746   */\n      pop\n      pop\n      jump\t// out\n        /* \"#utility.yul\":11752:12770   */\n    tag_35:\n        /* \"#utility.yul\":12064:12067   */\n      0x00\n        /* \"#utility.yul\":12086:12181   */\n      tag_236\n        /* \"#utility.yul\":12177:12180   */\n      dup3\n        /* \"#utility.yul\":12168:12174   */\n      dup10\n        /* \"#utility.yul\":12086:12181   */\n      tag_82\n      jump\t// in\n    tag_236:\n        /* \"#utility.yul\":12079:12181   */\n      swap2\n      pop\n        /* \"#utility.yul\":12191:12266   */\n      tag_237\n        /* \"#utility.yul\":12262:12265   */\n      dup3\n        /* \"#utility.yul\":12253:12259   */\n      dup9\n        /* \"#utility.yul\":12191:12266   */\n      tag_86\n      jump\t// in\n    tag_237:\n        /* \"#utility.yul\":12291:12293   */\n      0x14\n        /* \"#utility.yul\":12286:12289   */\n      dup3\n        /* \"#utility.yul\":12282:12294   */\n      add\n        /* \"#utility.yul\":12275:12294   */\n      swap2\n      pop\n        /* \"#utility.yul\":12311:12406   */\n      tag_238\n        /* \"#utility.yul\":12402:12405   */\n      dup3\n        /* \"#utility.yul\":12393:12399   */\n      dup8\n        /* \"#utility.yul\":12311:12406   */\n      tag_82\n      jump\t// in\n    tag_238:\n        /* \"#utility.yul\":12304:12406   */\n      swap2\n      pop\n        /* \"#utility.yul\":12416:12491   */\n      tag_239\n        /* \"#utility.yul\":12487:12490   */\n      dup3\n        /* \"#utility.yul\":12478:12484   */\n      dup7\n        /* \"#utility.yul\":12416:12491   */\n      tag_86\n      jump\t// in\n    tag_239:\n        /* \"#utility.yul\":12516:12518   */\n      0x14\n        /* \"#utility.yul\":12511:12514   */\n      dup3\n        /* \"#utility.yul\":12507:12519   */\n      add\n        /* \"#utility.yul\":12500:12519   */\n      swap2\n      pop\n        /* \"#utility.yul\":12536:12631   */\n      tag_240\n        /* \"#utility.yul\":12627:12630   */\n      dup3\n        /* \"#utility.yul\":12618:12624   */\n      dup6\n        /* \"#utility.yul\":12536:12631   */\n      tag_82\n      jump\t// in\n    tag_240:\n        /* \"#utility.yul\":12529:12631   */\n      swap2\n      pop\n        /* \"#utility.yul\":12641:12716   */\n      tag_241\n        /* \"#utility.yul\":12712:12715   */\n      dup3\n        /* \"#utility.yul\":12703:12709   */\n      dup5\n        /* \"#utility.yul\":12641:12716   */\n      tag_88\n      jump\t// in\n    tag_241:\n        /* \"#utility.yul\":12741:12743   */\n      0x20\n        /* \"#utility.yul\":12736:12739   */\n      dup3\n        /* \"#utility.yul\":12732:12744   */\n      add\n        /* \"#utility.yul\":12725:12744   */\n      swap2\n      pop\n        /* \"#utility.yul\":12761:12764   */\n      dup2\n        /* \"#utility.yul\":12754:12764   */\n      swap1\n      pop\n        /* \"#utility.yul\":11752:12770   */\n      swap8\n      swap7\n      pop\n      pop\n      pop\n      pop\n      pop\n      pop\n      pop\n      jump\t// out\n        /* \"#utility.yul\":12776:12862   */\n    tag_89:\n        /* \"#utility.yul\":12811:12818   */\n      0x00\n        /* \"#utility.yul\":12851:12855   */\n      0xff\n        /* \"#utility.yul\":12844:12849   */\n      dup3\n        /* \"#utility.yul\":12840:12856   */\n      and\n        /* \"#utility.yul\":12829:12856   */\n      swap1\n      pop\n        /* \"#utility.yul\":12776:12862   */\n      swap2\n      swap1\n      pop\n      jump\t// out\n        /* \"#utility.yul\":12868:13048   */\n    tag_90:\n        /* \"#utility.yul\":12916:12993   */\n      0x4e487b7100000000000000000000000000000000000000000000000000000000\n        /* \"#utility.yul\":12913:12914   */\n      0x00\n        /* \"#utility.yul\":12906:12994   */\n      mstore\n        /* \"#utility.yul\":13013:13017   */\n      0x11\n        /* \"#utility.yul\":13010:13011   */\n      0x04\n        /* \"#utility.yul\":13003:13018   */\n      mstore\n        /* \"#utility.yul\":13037:13041   */\n      0x24\n        /* \"#utility.yul\":13034:13035   */\n      0x00\n        /* \"#utility.yul\":13027:13042   */\n      revert\n        /* \"#utility.yul\":13054:13291   */\n    tag_40:\n        /* \"#utility.yul\":13092:13095   */\n      0x00\n        /* \"#utility.yul\":13111:13129   */\n      tag_245\n        /* \"#utility.yul\":13127:13128   */\n      dup3\n        /* \"#utility.yul\":13111:13129   */\n      tag_89\n      jump\t// in\n    tag_245:\n        /* \"#utility.yul\":13106:13129   */\n      swap2\n      pop\n        /* \"#utility.yul\":13143:13161   */\n      tag_246\n        /* \"#utility.yul\":13159:13160   */\n      dup4\n        /* \"#utility.yul\":13143:13161   */\n      tag_89\n      jump\t// in\n    tag_246:\n        /* \"#utility.yul\":13138:13161   */\n      swap3\n      pop\n        /* \"#utility.yul\":13233:13234   */\n      dup3\n        /* \"#utility.yul\":13227:13231   */\n      0xff\n        /* \"#utility.yul\":13223:13235   */\n      sub\n        /* \"#utility.yul\":13220:13221   */\n      dup3\n        /* \"#utility.yul\":13217:13236   */\n      gt\n        /* \"#utility.yul\":13214:13259   */\n      iszero\n      tag_247\n      jumpi\n        /* \"#utility.yul\":13239:13257   */\n      tag_248\n      tag_90\n      jump\t// in\n    tag_248:\n        /* \"#utility.yul\":13214:13259   */\n    tag_247:\n        /* \"#utility.yul\":13283:13284   */\n      dup3\n        /* \"#utility.yul\":13280:13281   */\n      dup3\n        /* \"#utility.yul\":13276:13285   */\n      add\n        /* \"#utility.yul\":13269:13285   */\n      swap1\n      pop\n        /* \"#utility.yul\":13054:13291   */\n      swap3\n      swap2\n      pop\n      pop\n      jump\t// out\n        /* \"#utility.yul\":13297:13409   */\n    tag_91:\n        /* \"#utility.yul\":13380:13402   */\n      tag_250\n        /* \"#utility.yul\":13396:13401   */\n      dup2\n        /* \"#utility.yul\":13380:13402   */\n      tag_89\n      jump\t// in\n    tag_250:\n        /* \"#utility.yul\":13375:13378   */\n      dup3\n        /* \"#utility.yul\":13368:13403   */\n      mstore\n        /* \"#utility.yul\":13297:13409   */\n      pop\n      pop\n      jump\t// out\n        /* \"#utility.yul\":13415:13960   */\n    tag_45:\n        /* \"#utility.yul\":13588:13592   */\n      0x00\n        /* \"#utility.yul\":13626:13629   */\n      0x80\n        /* \"#utility.yul\":13615:13624   */\n      dup3\n        /* \"#utility.yul\":13611:13630   */\n      add\n        /* \"#utility.yul\":13603:13630   */\n      swap1\n      pop\n        /* \"#utility.yul\":13640:13711   */\n      tag_252\n        /* \"#utility.yul\":13708:13709   */\n      0x00\n        /* \"#utility.yul\":13697:13706   */\n      dup4\n        /* \"#utility.yul\":13693:13710   */\n      add\n        /* \"#utility.yul\":13684:13690   */\n      dup8\n        /* \"#utility.yul\":13640:13711   */\n      tag_76\n      jump\t// in\n    tag_252:\n        /* \"#utility.yul\":13721:13789   */\n      tag_253\n        /* \"#utility.yul\":13785:13787   */\n      0x20\n        /* \"#utility.yul\":13774:13783   */\n      dup4\n        /* \"#utility.yul\":13770:13788   */\n      add\n        /* \"#utility.yul\":13761:13767   */\n      dup7\n        /* \"#utility.yul\":13721:13789   */\n      tag_91\n      jump\t// in\n    tag_253:\n        /* \"#utility.yul\":13799:13871   */\n      tag_254\n        /* \"#utility.yul\":13867:13869   */\n      0x40\n        /* \"#utility.yul\":13856:13865   */\n      dup4\n        /* \"#utility.yul\":13852:13870   */\n      add\n        /* \"#utility.yul\":13843:13849   */\n      dup6\n        /* \"#utility.yul\":13799:13871   */\n      tag_76\n      jump\t// in\n    tag_254:\n        /* \"#utility.yul\":13881:13953   */\n      tag_255\n        /* \"#utility.yul\":13949:13951   */\n      0x60\n        /* \"#utility.yul\":13938:13947   */\n      dup4\n        /* \"#utility.yul\":13934:13952   */\n      add\n        /* \"#utility.yul\":13925:13931   */\n      dup5\n        /* \"#utility.yul\":13881:13953   */\n      tag_76\n      jump\t// in\n    tag_255:\n        /* \"#utility.yul\":13415:13960   */\n      swap6\n      swap5\n      pop\n      pop\n      pop\n      pop\n      pop\n      jump\t// out\n        /* \"#utility.yul\":13966:14180   */\n    tag_92:\n        /* \"#utility.yul\":14106:14172   */\n      0x19457468657265756d205369676e6564204d6573736167653a0a333200000000\n        /* \"#utility.yul\":14102:14103   */\n      0x00\n        /* \"#utility.yul\":14094:14100   */\n      dup3\n        /* \"#utility.yul\":14090:14104   */\n      add\n        /* \"#utility.yul\":14083:14173   */\n      mstore\n        /* \"#utility.yul\":13966:14180   */\n      pop\n      jump\t// out\n        /* \"#utility.yul\":14186:14588   */\n    tag_93:\n        /* \"#utility.yul\":14346:14349   */\n      0x00\n        /* \"#utility.yul\":14367:14452   */\n      tag_258\n        /* \"#utility.yul\":14449:14451   */\n      0x1c\n        /* \"#utility.yul\":14444:14447   */\n      dup4\n        /* \"#utility.yul\":14367:14452   */\n      tag_80\n      jump\t// in\n    tag_258:\n        /* \"#utility.yul\":14360:14452   */\n      swap2\n      pop\n        /* \"#utility.yul\":14461:14554   */\n      tag_259\n        /* \"#utility.yul\":14550:14553   */\n      dup3\n        /* \"#utility.yul\":14461:14554   */\n      tag_92\n      jump\t// in\n    tag_259:\n        /* \"#utility.yul\":14579:14581   */\n      0x1c\n        /* \"#utility.yul\":14574:14577   */\n      dup3\n        /* \"#utility.yul\":14570:14582   */\n      add\n        /* \"#utility.yul\":14563:14582   */\n      swap1\n      pop\n        /* \"#utility.yul\":14186:14588   */\n      swap2\n      swap1\n      pop\n      jump\t// out\n        /* \"#utility.yul\":14594:14673   */\n    tag_94:\n        /* \"#utility.yul\":14633:14640   */\n      0x00\n        /* \"#utility.yul\":14662:14667   */\n      dup2\n        /* \"#utility.yul\":14651:14667   */\n      swap1\n      pop\n        /* \"#utility.yul\":14594:14673   */\n      swap2\n      swap1\n      pop\n      jump\t// out\n        /* \"#utility.yul\":14679:14836   */\n    tag_95:\n        /* \"#utility.yul\":14784:14829   */\n      tag_262\n        /* \"#utility.yul\":14804:14828   */\n      tag_263\n        /* \"#utility.yul\":14822:14827   */\n      dup3\n        /* \"#utility.yul\":14804:14828   */\n      tag_75\n      jump\t// in\n    tag_263:\n        /* \"#utility.yul\":14784:14829   */\n      tag_94\n      jump\t// in\n    tag_262:\n        /* \"#utility.yul\":14779:14782   */\n      dup3\n        /* \"#utility.yul\":14772:14830   */\n      mstore\n        /* \"#utility.yul\":14679:14836   */\n      pop\n      pop\n      jump\t// out\n        /* \"#utility.yul\":14842:15364   */\n    tag_50:\n        /* \"#utility.yul\":15055:15058   */\n      0x00\n        /* \"#utility.yul\":15077:15225   */\n      tag_265\n        /* \"#utility.yul\":15221:15224   */\n      dup3\n        /* \"#utility.yul\":15077:15225   */\n      tag_93\n      jump\t// in\n    tag_265:\n        /* \"#utility.yul\":15070:15225   */\n      swap2\n      pop\n        /* \"#utility.yul\":15235:15310   */\n      tag_266\n        /* \"#utility.yul\":15306:15309   */\n      dup3\n        /* \"#utility.yul\":15297:15303   */\n      dup5\n        /* \"#utility.yul\":15235:15310   */\n      tag_95\n      jump\t// in\n    tag_266:\n        /* \"#utility.yul\":15335:15337   */\n      0x20\n        /* \"#utility.yul\":15330:15333   */\n      dup3\n        /* \"#utility.yul\":15326:15338   */\n      add\n        /* \"#utility.yul\":15319:15338   */\n      swap2\n      pop\n        /* \"#utility.yul\":15355:15358   */\n      dup2\n        /* \"#utility.yul\":15348:15358   */\n      swap1\n      pop\n        /* \"#utility.yul\":14842:15364   */\n      swap3\n      swap2\n      pop\n      pop\n      jump\t// out\n\n    auxdata: 0xa2646970667358221220a8ba7f4836c7dde6ad30f292c64f28ab4896f574036f00bacd27d743aeadf30564736f6c634300080a0033\n}\n",
				"bytecode": {
					"linkReferences": {},
					"object": "608060405234801561001057600080fd5b50610af8806100206000396000f3fe608060405234801561001057600080fd5b506004361061004c5760003560e01c80632c78e90b146100515780637b8e34741461008157806397aba7f9146100b1578063fa540801146100e1575b600080fd5b61006b6004803603810190610066919061051b565b610111565b604051610078919061063c565b60405180910390f35b61009b60048036038101906100969190610657565b61014a565b6040516100a89190610751565b60405180910390f35b6100cb60048036038101906100c69190610798565b610189565b6040516100d8919061063c565b60405180910390f35b6100fb60048036038101906100f691906107f4565b61025c565b6040516101089190610751565b60405180910390f35b60008061012289898989898961014a565b9050600061012f8261025c565b905061013b8185610189565b92505050979650505050505050565b600086868686868660405160200161016796959493929190610904565b6040516020818303038152906040528051906020012090509695505050505050565b60008060008060418551146101a45760009350505050610256565b6020850151925060408501519150606085015160001a9050601b8160ff1610156101d857601b816101d591906109a4565b90505b601b8160ff16141580156101f05750601c8160ff1614155b156102015760009350505050610256565b6001868285856040516000815260200160405260405161022494939291906109ea565b6020604051602081039080840390855afa158015610246573d6000803e3d6000fd5b5050506020604051035193505050505b92915050565b60008160405160200161026f9190610a9c565b604051602081830303815290604052805190602001209050919050565b6000604051905090565b600080fd5b600080fd5b600080fd5b600080fd5b6000601f19601f8301169050919050565b7f4e487b7100000000000000000000000000000000000000000000000000000000600052604160045260246000fd5b6102f3826102aa565b810181811067ffffffffffffffff82111715610312576103116102bb565b5b80604052505050565b600061032561028c565b905061033182826102ea565b919050565b600067ffffffffffffffff821115610351576103506102bb565b5b61035a826102aa565b9050602081019050919050565b82818337600083830152505050565b600061038961038484610336565b61031b565b9050828152602081018484840111156103a5576103a46102a5565b5b6103b0848285610367565b509392505050565b600082601f8301126103cd576103cc6102a0565b5b81356103dd848260208601610376565b91505092915050565b600073ffffffffffffffffffffffffffffffffffffffff82169050919050565b6000610411826103e6565b9050919050565b61042181610406565b811461042c57600080fd5b50565b60008135905061043e81610418565b92915050565b6000819050919050565b61045781610444565b811461046257600080fd5b50565b6000813590506104748161044e565b92915050565b600067ffffffffffffffff821115610495576104946102bb565b5b61049e826102aa565b9050602081019050919050565b60006104be6104b98461047a565b61031b565b9050828152602081018484840111156104da576104d96102a5565b5b6104e5848285610367565b509392505050565b600082601f830112610502576105016102a0565b5b81356105128482602086016104ab565b91505092915050565b600080600080600080600060e0888a03121561053a57610539610296565b5b600088013567ffffffffffffffff8111156105585761055761029b565b5b6105648a828b016103b8565b97505060206105758a828b0161042f565b965050604088013567ffffffffffffffff8111156105965761059561029b565b5b6105a28a828b016103b8565b95505060606105b38a828b0161042f565b945050608088013567ffffffffffffffff8111156105d4576105d361029b565b5b6105e08a828b016103b8565b93505060a06105f18a828b01610465565b92505060c088013567ffffffffffffffff8111156106125761061161029b565b5b61061e8a828b016104ed565b91505092959891949750929550565b61063681610406565b82525050565b6000602082019050610651600083018461062d565b92915050565b60008060008060008060c0878903121561067457610673610296565b5b600087013567ffffffffffffffff8111156106925761069161029b565b5b61069e89828a016103b8565b96505060206106af89828a0161042f565b955050604087013567ffffffffffffffff8111156106d0576106cf61029b565b5b6106dc89828a016103b8565b94505060606106ed89828a0161042f565b935050608087013567ffffffffffffffff81111561070e5761070d61029b565b5b61071a89828a016103b8565b92505060a061072b89828a01610465565b9150509295509295509295565b6000819050919050565b61074b81610738565b82525050565b60006020820190506107666000830184610742565b92915050565b61077581610738565b811461078057600080fd5b50565b6000813590506107928161076c565b92915050565b600080604083850312156107af576107ae610296565b5b60006107bd85828601610783565b925050602083013567ffffffffffffffff8111156107de576107dd61029b565b5b6107ea858286016104ed565b9150509250929050565b60006020828403121561080a57610809610296565b5b600061081884828501610783565b91505092915050565b600081519050919050565b600081905092915050565b60005b8381101561085557808201518184015260208101905061083a565b83811115610864576000848401525b50505050565b600061087582610821565b61087f818561082c565b935061088f818560208601610837565b80840191505092915050565b60008160601b9050919050565b60006108b38261089b565b9050919050565b60006108c5826108a8565b9050919050565b6108dd6108d882610406565b6108ba565b82525050565b6000819050919050565b6108fe6108f982610444565b6108e3565b82525050565b6000610910828961086a565b915061091c82886108cc565b60148201915061092c828761086a565b915061093882866108cc565b601482019150610948828561086a565b915061095482846108ed565b602082019150819050979650505050505050565b600060ff82169050919050565b7f4e487b7100000000000000000000000000000000000000000000000000000000600052601160045260246000fd5b60006109af82610968565b91506109ba83610968565b92508260ff038211156109d0576109cf610975565b5b828201905092915050565b6109e481610968565b82525050565b60006080820190506109ff6000830187610742565b610a0c60208301866109db565b610a196040830185610742565b610a266060830184610742565b95945050505050565b7f19457468657265756d205369676e6564204d6573736167653a0a333200000000600082015250565b6000610a65601c8361082c565b9150610a7082610a2f565b601c82019050919050565b6000819050919050565b610a96610a9182610738565b610a7b565b82525050565b6000610aa782610a58565b9150610ab38284610a85565b6020820191508190509291505056fea2646970667358221220a8ba7f4836c7dde6ad30f292c64f28ab4896f574036f00bacd27d743aeadf30564736f6c634300080a0033",
					"opcodes": "PUSH1 0x80 PUSH1 0x40 MSTORE CALLVALUE DUP1 ISZERO PUSH2 0x10 JUMPI PUSH1 0x0 DUP1 REVERT JUMPDEST POP PUSH2 0xAF8 DUP1 PUSH2 0x20 PUSH1 0x0 CODECOPY PUSH1 0x0 RETURN INVALID PUSH1 0x80 PUSH1 0x40 MSTORE CALLVALUE DUP1 ISZERO PUSH2 0x10 JUMPI PUSH1 0x0 DUP1 REVERT JUMPDEST POP PUSH1 0x4 CALLDATASIZE LT PUSH2 0x4C JUMPI PUSH1 0x0 CALLDATALOAD PUSH1 0xE0 SHR DUP1 PUSH4 0x2C78E90B EQ PUSH2 0x51 JUMPI DUP1 PUSH4 0x7B8E3474 EQ PUSH2 0x81 JUMPI DUP1 PUSH4 0x97ABA7F9 EQ PUSH2 0xB1 JUMPI DUP1 PUSH4 0xFA540801 EQ PUSH2 0xE1 JUMPI JUMPDEST PUSH1 0x0 DUP1 REVERT JUMPDEST PUSH2 0x6B PUSH1 0x4 DUP1 CALLDATASIZE SUB DUP2 ADD SWAP1 PUSH2 0x66 SWAP2 SWAP1 PUSH2 0x51B JUMP JUMPDEST PUSH2 0x111 JUMP JUMPDEST PUSH1 0x40 MLOAD PUSH2 0x78 SWAP2 SWAP1 PUSH2 0x63C JUMP JUMPDEST PUSH1 0x40 MLOAD DUP1 SWAP2 SUB SWAP1 RETURN JUMPDEST PUSH2 0x9B PUSH1 0x4 DUP1 CALLDATASIZE SUB DUP2 ADD SWAP1 PUSH2 0x96 SWAP2 SWAP1 PUSH2 0x657 JUMP JUMPDEST PUSH2 0x14A JUMP JUMPDEST PUSH1 0x40 MLOAD PUSH2 0xA8 SWAP2 SWAP1 PUSH2 0x751 JUMP JUMPDEST PUSH1 0x40 MLOAD DUP1 SWAP2 SUB SWAP1 RETURN JUMPDEST PUSH2 0xCB PUSH1 0x4 DUP1 CALLDATASIZE SUB DUP2 ADD SWAP1 PUSH2 0xC6 SWAP2 SWAP1 PUSH2 0x798 JUMP JUMPDEST PUSH2 0x189 JUMP JUMPDEST PUSH1 0x40 MLOAD PUSH2 0xD8 SWAP2 SWAP1 PUSH2 0x63C JUMP JUMPDEST PUSH1 0x40 MLOAD DUP1 SWAP2 SUB SWAP1 RETURN JUMPDEST PUSH2 0xFB PUSH1 0x4 DUP1 CALLDATASIZE SUB DUP2 ADD SWAP1 PUSH2 0xF6 SWAP2 SWAP1 PUSH2 0x7F4 JUMP JUMPDEST PUSH2 0x25C JUMP JUMPDEST PUSH1 0x40 MLOAD PUSH2 0x108 SWAP2 SWAP1 PUSH2 0x751 JUMP JUMPDEST PUSH1 0x40 MLOAD DUP1 SWAP2 SUB SWAP1 RETURN JUMPDEST PUSH1 0x0 DUP1 PUSH2 0x122 DUP10 DUP10 DUP10 DUP10 DUP10 DUP10 PUSH2 0x14A JUMP JUMPDEST SWAP1 POP PUSH1 0x0 PUSH2 0x12F DUP3 PUSH2 0x25C JUMP JUMPDEST SWAP1 POP PUSH2 0x13B DUP2 DUP6 PUSH2 0x189 JUMP JUMPDEST SWAP3 POP POP POP SWAP8 SWAP7 POP POP POP POP POP POP POP JUMP JUMPDEST PUSH1 0x0 DUP7 DUP7 DUP7 DUP7 DUP7 DUP7 PUSH1 0x40 MLOAD PUSH1 0x20 ADD PUSH2 0x167 SWAP7 SWAP6 SWAP5 SWAP4 SWAP3 SWAP2 SWAP1 PUSH2 0x904 JUMP JUMPDEST PUSH1 0x40 MLOAD PUSH1 0x20 DUP2 DUP4 SUB SUB DUP2 MSTORE SWAP1 PUSH1 0x40 MSTORE DUP1 MLOAD SWAP1 PUSH1 0x20 ADD KECCAK256 SWAP1 POP SWAP7 SWAP6 POP POP POP POP POP POP JUMP JUMPDEST PUSH1 0x0 DUP1 PUSH1 0x0 DUP1 PUSH1 0x41 DUP6 MLOAD EQ PUSH2 0x1A4 JUMPI PUSH1 0x0 SWAP4 POP POP POP POP PUSH2 0x256 JUMP JUMPDEST PUSH1 0x20 DUP6 ADD MLOAD SWAP3 POP PUSH1 0x40 DUP6 ADD MLOAD SWAP2 POP PUSH1 0x60 DUP6 ADD MLOAD PUSH1 0x0 BYTE SWAP1 POP PUSH1 0x1B DUP2 PUSH1 0xFF AND LT ISZERO PUSH2 0x1D8 JUMPI PUSH1 0x1B DUP2 PUSH2 0x1D5 SWAP2 SWAP1 PUSH2 0x9A4 JUMP JUMPDEST SWAP1 POP JUMPDEST PUSH1 0x1B DUP2 PUSH1 0xFF AND EQ ISZERO DUP1 ISZERO PUSH2 0x1F0 JUMPI POP PUSH1 0x1C DUP2 PUSH1 0xFF AND EQ ISZERO JUMPDEST ISZERO PUSH2 0x201 JUMPI PUSH1 0x0 SWAP4 POP POP POP POP PUSH2 0x256 JUMP JUMPDEST PUSH1 0x1 DUP7 DUP3 DUP6 DUP6 PUSH1 0x40 MLOAD PUSH1 0x0 DUP2 MSTORE PUSH1 0x20 ADD PUSH1 0x40 MSTORE PUSH1 0x40 MLOAD PUSH2 0x224 SWAP5 SWAP4 SWAP3 SWAP2 SWAP1 PUSH2 0x9EA JUMP JUMPDEST PUSH1 0x20 PUSH1 0x40 MLOAD PUSH1 0x20 DUP2 SUB SWAP1 DUP1 DUP5 SUB SWAP1 DUP6 GAS STATICCALL ISZERO DUP1 ISZERO PUSH2 0x246 JUMPI RETURNDATASIZE PUSH1 0x0 DUP1 RETURNDATACOPY RETURNDATASIZE PUSH1 0x0 REVERT JUMPDEST POP POP POP PUSH1 0x20 PUSH1 0x40 MLOAD SUB MLOAD SWAP4 POP POP POP POP JUMPDEST SWAP3 SWAP2 POP POP JUMP JUMPDEST PUSH1 0x0 DUP2 PUSH1 0x40 MLOAD PUSH1 0x20 ADD PUSH2 0x26F SWAP2 SWAP1 PUSH2 0xA9C JUMP JUMPDEST PUSH1 0x40 MLOAD PUSH1 0x20 DUP2 DUP4 SUB SUB DUP2 MSTORE SWAP1 PUSH1 0x40 MSTORE DUP1 MLOAD SWAP1 PUSH1 0x20 ADD KECCAK256 SWAP1 POP SWAP2 SWAP1 POP JUMP JUMPDEST PUSH1 0x0 PUSH1 0x40 MLOAD SWAP1 POP SWAP1 JUMP JUMPDEST PUSH1 0x0 DUP1 REVERT JUMPDEST PUSH1 0x0 DUP1 REVERT JUMPDEST PUSH1 0x0 DUP1 REVERT JUMPDEST PUSH1 0x0 DUP1 REVERT JUMPDEST PUSH1 0x0 PUSH1 0x1F NOT PUSH1 0x1F DUP4 ADD AND SWAP1 POP SWAP2 SWAP1 POP JUMP JUMPDEST PUSH32 0x4E487B7100000000000000000000000000000000000000000000000000000000 PUSH1 0x0 MSTORE PUSH1 0x41 PUSH1 0x4 MSTORE PUSH1 0x24 PUSH1 0x0 REVERT JUMPDEST PUSH2 0x2F3 DUP3 PUSH2 0x2AA JUMP JUMPDEST DUP2 ADD DUP2 DUP2 LT PUSH8 0xFFFFFFFFFFFFFFFF DUP3 GT OR ISZERO PUSH2 0x312 JUMPI PUSH2 0x311 PUSH2 0x2BB JUMP JUMPDEST JUMPDEST DUP1 PUSH1 0x40 MSTORE POP POP POP JUMP JUMPDEST PUSH1 0x0 PUSH2 0x325 PUSH2 0x28C JUMP JUMPDEST SWAP1 POP PUSH2 0x331 DUP3 DUP3 PUSH2 0x2EA JUMP JUMPDEST SWAP2 SWAP1 POP JUMP JUMPDEST PUSH1 0x0 PUSH8 0xFFFFFFFFFFFFFFFF DUP3 GT ISZERO PUSH2 0x351 JUMPI PUSH2 0x350 PUSH2 0x2BB JUMP JUMPDEST JUMPDEST PUSH2 0x35A DUP3 PUSH2 0x2AA JUMP JUMPDEST SWAP1 POP PUSH1 0x20 DUP2 ADD SWAP1 POP SWAP2 SWAP1 POP JUMP JUMPDEST DUP3 DUP2 DUP4 CALLDATACOPY PUSH1 0x0 DUP4 DUP4 ADD MSTORE POP POP POP JUMP JUMPDEST PUSH1 0x0 PUSH2 0x389 PUSH2 0x384 DUP5 PUSH2 0x336 JUMP JUMPDEST PUSH2 0x31B JUMP JUMPDEST SWAP1 POP DUP3 DUP2 MSTORE PUSH1 0x20 DUP2 ADD DUP5 DUP5 DUP5 ADD GT ISZERO PUSH2 0x3A5 JUMPI PUSH2 0x3A4 PUSH2 0x2A5 JUMP JUMPDEST JUMPDEST PUSH2 0x3B0 DUP5 DUP3 DUP6 PUSH2 0x367 JUMP JUMPDEST POP SWAP4 SWAP3 POP POP POP JUMP JUMPDEST PUSH1 0x0 DUP3 PUSH1 0x1F DUP4 ADD SLT PUSH2 0x3CD JUMPI PUSH2 0x3CC PUSH2 0x2A0 JUMP JUMPDEST JUMPDEST DUP2 CALLDATALOAD PUSH2 0x3DD DUP5 DUP3 PUSH1 0x20 DUP7 ADD PUSH2 0x376 JUMP JUMPDEST SWAP2 POP POP SWAP3 SWAP2 POP POP JUMP JUMPDEST PUSH1 0x0 PUSH20 0xFFFFFFFFFFFFFFFFFFFFFFFFFFFFFFFFFFFFFFFF DUP3 AND SWAP1 POP SWAP2 SWAP1 POP JUMP JUMPDEST PUSH1 0x0 PUSH2 0x411 DUP3 PUSH2 0x3E6 JUMP JUMPDEST SWAP1 POP SWAP2 SWAP1 POP JUMP JUMPDEST PUSH2 0x421 DUP2 PUSH2 0x406 JUMP JUMPDEST DUP2 EQ PUSH2 0x42C JUMPI PUSH1 0x0 DUP1 REVERT JUMPDEST POP JUMP JUMPDEST PUSH1 0x0 DUP2 CALLDATALOAD SWAP1 POP PUSH2 0x43E DUP2 PUSH2 0x418 JUMP JUMPDEST SWAP3 SWAP2 POP POP JUMP JUMPDEST PUSH1 0x0 DUP2 SWAP1 POP SWAP2 SWAP1 POP JUMP JUMPDEST PUSH2 0x457 DUP2 PUSH2 0x444 JUMP JUMPDEST DUP2 EQ PUSH2 0x462 JUMPI PUSH1 0x0 DUP1 REVERT JUMPDEST POP JUMP JUMPDEST PUSH1 0x0 DUP2 CALLDATALOAD SWAP1 POP PUSH2 0x474 DUP2 PUSH2 0x44E JUMP JUMPDEST SWAP3 SWAP2 POP POP JUMP JUMPDEST PUSH1 0x0 PUSH8 0xFFFFFFFFFFFFFFFF DUP3 GT ISZERO PUSH2 0x495 JUMPI PUSH2 0x494 PUSH2 0x2BB JUMP JUMPDEST JUMPDEST PUSH2 0x49E DUP3 PUSH2 0x2AA JUMP JUMPDEST SWAP1 POP PUSH1 0x20 DUP2 ADD SWAP1 POP SWAP2 SWAP1 POP JUMP JUMPDEST PUSH1 0x0 PUSH2 0x4BE PUSH2 0x4B9 DUP5 PUSH2 0x47A JUMP JUMPDEST PUSH2 0x31B JUMP JUMPDEST SWAP1 POP DUP3 DUP2 MSTORE PUSH1 0x20 DUP2 ADD DUP5 DUP5 DUP5 ADD GT ISZERO PUSH2 0x4DA JUMPI PUSH2 0x4D9 PUSH2 0x2A5 JUMP JUMPDEST JUMPDEST PUSH2 0x4E5 DUP5 DUP3 DUP6 PUSH2 0x367 JUMP JUMPDEST POP SWAP4 SWAP3 POP POP POP JUMP JUMPDEST PUSH1 0x0 DUP3 PUSH1 0x1F DUP4 ADD SLT PUSH2 0x502 JUMPI PUSH2 0x501 PUSH2 0x2A0 JUMP JUMPDEST JUMPDEST DUP2 CALLDATALOAD PUSH2 0x512 DUP5 DUP3 PUSH1 0x20 DUP7 ADD PUSH2 0x4AB JUMP JUMPDEST SWAP2 POP POP SWAP3 SWAP2 POP POP JUMP JUMPDEST PUSH1 0x0 DUP1 PUSH1 0x0 DUP1 PUSH1 0x0 DUP1 PUSH1 0x0 PUSH1 0xE0 DUP9 DUP11 SUB SLT ISZERO PUSH2 0x53A JUMPI PUSH2 0x539 PUSH2 0x296 JUMP JUMPDEST JUMPDEST PUSH1 0x0 DUP9 ADD CALLDATALOAD PUSH8 0xFFFFFFFFFFFFFFFF DUP2 GT ISZERO PUSH2 0x558 JUMPI PUSH2 0x557 PUSH2 0x29B JUMP JUMPDEST JUMPDEST PUSH2 0x564 DUP11 DUP3 DUP12 ADD PUSH2 0x3B8 JUMP JUMPDEST SWAP8 POP POP PUSH1 0x20 PUSH2 0x575 DUP11 DUP3 DUP12 ADD PUSH2 0x42F JUMP JUMPDEST SWAP7 POP POP PUSH1 0x40 DUP9 ADD CALLDATALOAD PUSH8 0xFFFFFFFFFFFFFFFF DUP2 GT ISZERO PUSH2 0x596 JUMPI PUSH2 0x595 PUSH2 0x29B JUMP JUMPDEST JUMPDEST PUSH2 0x5A2 DUP11 DUP3 DUP12 ADD PUSH2 0x3B8 JUMP JUMPDEST SWAP6 POP POP PUSH1 0x60 PUSH2 0x5B3 DUP11 DUP3 DUP12 ADD PUSH2 0x42F JUMP JUMPDEST SWAP5 POP POP PUSH1 0x80 DUP9 ADD CALLDATALOAD PUSH8 0xFFFFFFFFFFFFFFFF DUP2 GT ISZERO PUSH2 0x5D4 JUMPI PUSH2 0x5D3 PUSH2 0x29B JUMP JUMPDEST JUMPDEST PUSH2 0x5E0 DUP11 DUP3 DUP12 ADD PUSH2 0x3B8 JUMP JUMPDEST SWAP4 POP POP PUSH1 0xA0 PUSH2 0x5F1 DUP11 DUP3 DUP12 ADD PUSH2 0x465 JUMP JUMPDEST SWAP3 POP POP PUSH1 0xC0 DUP9 ADD CALLDATALOAD PUSH8 0xFFFFFFFFFFFFFFFF DUP2 GT ISZERO PUSH2 0x612 JUMPI PUSH2 0x611 PUSH2 0x29B JUMP JUMPDEST JUMPDEST PUSH2 0x61E DUP11 DUP3 DUP12 ADD PUSH2 0x4ED JUMP JUMPDEST SWAP2 POP POP SWAP3 SWAP6 SWAP9 SWAP2 SWAP5 SWAP8 POP SWAP3 SWAP6 POP JUMP JUMPDEST PUSH2 0x636 DUP2 PUSH2 0x406 JUMP JUMPDEST DUP3 MSTORE POP POP JUMP JUMPDEST PUSH1 0x0 PUSH1 0x20 DUP3 ADD SWAP1 POP PUSH2 0x651 PUSH1 0x0 DUP4 ADD DUP5 PUSH2 0x62D JUMP JUMPDEST SWAP3 SWAP2 POP POP JUMP JUMPDEST PUSH1 0x0 DUP1 PUSH1 0x0 DUP1 PUSH1 0x0 DUP1 PUSH1 0xC0 DUP8 DUP10 SUB SLT ISZERO PUSH2 0x674 JUMPI PUSH2 0x673 PUSH2 0x296 JUMP JUMPDEST JUMPDEST PUSH1 0x0 DUP8 ADD CALLDATALOAD PUSH8 0xFFFFFFFFFFFFFFFF DUP2 GT ISZERO PUSH2 0x692 JUMPI PUSH2 0x691 PUSH2 0x29B JUMP JUMPDEST JUMPDEST PUSH2 0x69E DUP10 DUP3 DUP11 ADD PUSH2 0x3B8 JUMP JUMPDEST SWAP7 POP POP PUSH1 0x20 PUSH2 0x6AF DUP10 DUP3 DUP11 ADD PUSH2 0x42F JUMP JUMPDEST SWAP6 POP POP PUSH1 0x40 DUP8 ADD CALLDATALOAD PUSH8 0xFFFFFFFFFFFFFFFF DUP2 GT ISZERO PUSH2 0x6D0 JUMPI PUSH2 0x6CF PUSH2 0x29B JUMP JUMPDEST JUMPDEST PUSH2 0x6DC DUP10 DUP3 DUP11 ADD PUSH2 0x3B8 JUMP JUMPDEST SWAP5 POP POP PUSH1 0x60 PUSH2 0x6ED DUP10 DUP3 DUP11 ADD PUSH2 0x42F JUMP JUMPDEST SWAP4 POP POP PUSH1 0x80 DUP8 ADD CALLDATALOAD PUSH8 0xFFFFFFFFFFFFFFFF DUP2 GT ISZERO PUSH2 0x70E JUMPI PUSH2 0x70D PUSH2 0x29B JUMP JUMPDEST JUMPDEST PUSH2 0x71A DUP10 DUP3 DUP11 ADD PUSH2 0x3B8 JUMP JUMPDEST SWAP3 POP POP PUSH1 0xA0 PUSH2 0x72B DUP10 DUP3 DUP11 ADD PUSH2 0x465 JUMP JUMPDEST SWAP2 POP POP SWAP3 SWAP6 POP SWAP3 SWAP6 POP SWAP3 SWAP6 JUMP JUMPDEST PUSH1 0x0 DUP2 SWAP1 POP SWAP2 SWAP1 POP JUMP JUMPDEST PUSH2 0x74B DUP2 PUSH2 0x738 JUMP JUMPDEST DUP3 MSTORE POP POP JUMP JUMPDEST PUSH1 0x0 PUSH1 0x20 DUP3 ADD SWAP1 POP PUSH2 0x766 PUSH1 0x0 DUP4 ADD DUP5 PUSH2 0x742 JUMP JUMPDEST SWAP3 SWAP2 POP POP JUMP JUMPDEST PUSH2 0x775 DUP2 PUSH2 0x738 JUMP JUMPDEST DUP2 EQ PUSH2 0x780 JUMPI PUSH1 0x0 DUP1 REVERT JUMPDEST POP JUMP JUMPDEST PUSH1 0x0 DUP2 CALLDATALOAD SWAP1 POP PUSH2 0x792 DUP2 PUSH2 0x76C JUMP JUMPDEST SWAP3 SWAP2 POP POP JUMP JUMPDEST PUSH1 0x0 DUP1 PUSH1 0x40 DUP4 DUP6 SUB SLT ISZERO PUSH2 0x7AF JUMPI PUSH2 0x7AE PUSH2 0x296 JUMP JUMPDEST JUMPDEST PUSH1 0x0 PUSH2 0x7BD DUP6 DUP3 DUP7 ADD PUSH2 0x783 JUMP JUMPDEST SWAP3 POP POP PUSH1 0x20 DUP4 ADD CALLDATALOAD PUSH8 0xFFFFFFFFFFFFFFFF DUP2 GT ISZERO PUSH2 0x7DE JUMPI PUSH2 0x7DD PUSH2 0x29B JUMP JUMPDEST JUMPDEST PUSH2 0x7EA DUP6 DUP3 DUP7 ADD PUSH2 0x4ED JUMP JUMPDEST SWAP2 POP POP SWAP3 POP SWAP3 SWAP1 POP JUMP JUMPDEST PUSH1 0x0 PUSH1 0x20 DUP3 DUP5 SUB SLT ISZERO PUSH2 0x80A JUMPI PUSH2 0x809 PUSH2 0x296 JUMP JUMPDEST JUMPDEST PUSH1 0x0 PUSH2 0x818 DUP5 DUP3 DUP6 ADD PUSH2 0x783 JUMP JUMPDEST SWAP2 POP POP SWAP3 SWAP2 POP POP JUMP JUMPDEST PUSH1 0x0 DUP2 MLOAD SWAP1 POP SWAP2 SWAP1 POP JUMP JUMPDEST PUSH1 0x0 DUP2 SWAP1 POP SWAP3 SWAP2 POP POP JUMP JUMPDEST PUSH1 0x0 JUMPDEST DUP4 DUP2 LT ISZERO PUSH2 0x855 JUMPI DUP1 DUP3 ADD MLOAD DUP2 DUP5 ADD MSTORE PUSH1 0x20 DUP2 ADD SWAP1 POP PUSH2 0x83A JUMP JUMPDEST DUP4 DUP2 GT ISZERO PUSH2 0x864 JUMPI PUSH1 0x0 DUP5 DUP5 ADD MSTORE JUMPDEST POP POP POP POP JUMP JUMPDEST PUSH1 0x0 PUSH2 0x875 DUP3 PUSH2 0x821 JUMP JUMPDEST PUSH2 0x87F DUP2 DUP6 PUSH2 0x82C JUMP JUMPDEST SWAP4 POP PUSH2 0x88F DUP2 DUP6 PUSH1 0x20 DUP7 ADD PUSH2 0x837 JUMP JUMPDEST DUP1 DUP5 ADD SWAP2 POP POP SWAP3 SWAP2 POP POP JUMP JUMPDEST PUSH1 0x0 DUP2 PUSH1 0x60 SHL SWAP1 POP SWAP2 SWAP1 POP JUMP JUMPDEST PUSH1 0x0 PUSH2 0x8B3 DUP3 PUSH2 0x89B JUMP JUMPDEST SWAP1 POP SWAP2 SWAP1 POP JUMP JUMPDEST PUSH1 0x0 PUSH2 0x8C5 DUP3 PUSH2 0x8A8 JUMP JUMPDEST SWAP1 POP SWAP2 SWAP1 POP JUMP JUMPDEST PUSH2 0x8DD PUSH2 0x8D8 DUP3 PUSH2 0x406 JUMP JUMPDEST PUSH2 0x8BA JUMP JUMPDEST DUP3 MSTORE POP POP JUMP JUMPDEST PUSH1 0x0 DUP2 SWAP1 POP SWAP2 SWAP1 POP JUMP JUMPDEST PUSH2 0x8FE PUSH2 0x8F9 DUP3 PUSH2 0x444 JUMP JUMPDEST PUSH2 0x8E3 JUMP JUMPDEST DUP3 MSTORE POP POP JUMP JUMPDEST PUSH1 0x0 PUSH2 0x910 DUP3 DUP10 PUSH2 0x86A JUMP JUMPDEST SWAP2 POP PUSH2 0x91C DUP3 DUP9 PUSH2 0x8CC JUMP JUMPDEST PUSH1 0x14 DUP3 ADD SWAP2 POP PUSH2 0x92C DUP3 DUP8 PUSH2 0x86A JUMP JUMPDEST SWAP2 POP PUSH2 0x938 DUP3 DUP7 PUSH2 0x8CC JUMP JUMPDEST PUSH1 0x14 DUP3 ADD SWAP2 POP PUSH2 0x948 DUP3 DUP6 PUSH2 0x86A JUMP JUMPDEST SWAP2 POP PUSH2 0x954 DUP3 DUP5 PUSH2 0x8ED JUMP JUMPDEST PUSH1 0x20 DUP3 ADD SWAP2 POP DUP2 SWAP1 POP SWAP8 SWAP7 POP POP POP POP POP POP POP JUMP JUMPDEST PUSH1 0x0 PUSH1 0xFF DUP3 AND SWAP1 POP SWAP2 SWAP1 POP JUMP JUMPDEST PUSH32 0x4E487B7100000000000000000000000000000000000000000000000000000000 PUSH1 0x0 MSTORE PUSH1 0x11 PUSH1 0x4 MSTORE PUSH1 0x24 PUSH1 0x0 REVERT JUMPDEST PUSH1 0x0 PUSH2 0x9AF DUP3 PUSH2 0x968 JUMP JUMPDEST SWAP2 POP PUSH2 0x9BA DUP4 PUSH2 0x968 JUMP JUMPDEST SWAP3 POP DUP3 PUSH1 0xFF SUB DUP3 GT ISZERO PUSH2 0x9D0 JUMPI PUSH2 0x9CF PUSH2 0x975 JUMP JUMPDEST JUMPDEST DUP3 DUP3 ADD SWAP1 POP SWAP3 SWAP2 POP POP JUMP JUMPDEST PUSH2 0x9E4 DUP2 PUSH2 0x968 JUMP JUMPDEST DUP3 MSTORE POP POP JUMP JUMPDEST PUSH1 0x0 PUSH1 0x80 DUP3 ADD SWAP1 POP PUSH2 0x9FF PUSH1 0x0 DUP4 ADD DUP8 PUSH2 0x742 JUMP JUMPDEST PUSH2 0xA0C PUSH1 0x20 DUP4 ADD DUP7 PUSH2 0x9DB JUMP JUMPDEST PUSH2 0xA19 PUSH1 0x40 DUP4 ADD DUP6 PUSH2 0x742 JUMP JUMPDEST PUSH2 0xA26 PUSH1 0x60 DUP4 ADD DUP5 PUSH2 0x742 JUMP JUMPDEST SWAP6 SWAP5 POP POP POP POP POP JUMP JUMPDEST PUSH32 0x19457468657265756D205369676E6564204D6573736167653A0A333200000000 PUSH1 0x0 DUP3 ADD MSTORE POP JUMP JUMPDEST PUSH1 0x0 PUSH2 0xA65 PUSH1 0x1C DUP4 PUSH2 0x82C JUMP JUMPDEST SWAP2 POP PUSH2 0xA70 DUP3 PUSH2 0xA2F JUMP JUMPDEST PUSH1 0x1C DUP3 ADD SWAP1 POP SWAP2 SWAP1 POP JUMP JUMPDEST PUSH1 0x0 DUP2 SWAP1 POP SWAP2 SWAP1 POP JUMP JUMPDEST PUSH2 0xA96 PUSH2 0xA91 DUP3 PUSH2 0x738 JUMP JUMPDEST PUSH2 0xA7B JUMP JUMPDEST DUP3 MSTORE POP POP JUMP JUMPDEST PUSH1 0x0 PUSH2 0xAA7 DUP3 PUSH2 0xA58 JUMP JUMPDEST SWAP2 POP PUSH2 0xAB3 DUP3 DUP5 PUSH2 0xA85 JUMP JUMPDEST PUSH1 0x20 DUP3 ADD SWAP2 POP DUP2 SWAP1 POP SWAP3 SWAP2 POP POP JUMP INVALID LOG2 PUSH5 0x6970667358 0x22 SLT KECCAK256 0xA8 0xBA PUSH32 0x4836C7DDE6AD30F292C64F28AB4896F574036F00BACD27D743AEADF30564736F PUSH13 0x634300080A0033000000000000 "
				},
				"gasEstimates": {
					"creation": {
						"codeDepositCost": "561600",
						"executionCost": "594",
						"totalCost": "562194"
					},
					"external": {
						"getEthSignedMessageHash(bytes32)": "infinite",
						"getMessageHash(string,address,string,address,string,uint256)": "infinite",
						"recoverSigner(bytes32,bytes)": "infinite",
						"verify(string,address,string,address,string,uint256,bytes)": "infinite"
					}
				},
				"methodIdentifiers": {
					"getEthSignedMessageHash(bytes32)": "fa540801",
					"getMessageHash(string,address,string,address,string,uint256)": "7b8e3474",
					"recoverSigner(bytes32,bytes)": "97aba7f9",
					"verify(string,address,string,address,string,uint256,bytes)": "2c78e90b"
				}
			},
			"userdoc": {
				"kind": "user",
				"methods": {},
				"version": 1
			}
		}
	}
}