{
  "_format": "hh-sol-artifact-1",
  "contractName": "SignatureUtils",
  "sourceName": "contracts/utils/SignatureUtils.sol",
  "abi": [
    {
      "inputs": [
        {
          "internalType": "string",
          "name": "transactionId_",
          "type": "string"
        },
        {
          "internalType": "address",
          "name": "curToken_",
          "type": "address"
        },
        {
          "internalType": "string",
          "name": "desToken_",
          "type": "string"
        },
        {
          "internalType": "address",
          "name": "curUser_",
          "type": "address"
        },
        {
          "internalType": "string",
          "name": "desUser_",
          "type": "string"
        },
        {
          "internalType": "uint256",
          "name": "amount_",
          "type": "uint256"
        }
      ],
      "name": "getMessageHash",
      "outputs": [
        {
          "internalType": "bytes32",
          "name": "",
          "type": "bytes32"
        }
      ],
      "stateMutability": "pure",
      "type": "function"
    },
    {
      "inputs": [
        {
          "internalType": "bytes32",
          "name": "hash",
          "type": "bytes32"
        },
        {
          "internalType": "bytes",
          "name": "signature",
          "type": "bytes"
        }
      ],
      "name": "recoverSigner",
      "outputs": [
        {
          "internalType": "address",
          "name": "",
          "type": "address"
        }
      ],
      "stateMutability": "pure",
      "type": "function"
    },
    {
      "inputs": [
        {
          "internalType": "string",
          "name": "transactionId_",
          "type": "string"
        },
        {
          "internalType": "address",
          "name": "curToken_",
          "type": "address"
        },
        {
          "internalType": "string",
          "name": "desToken_",
          "type": "string"
        },
        {
          "internalType": "address",
          "name": "curUser_",
          "type": "address"
        },
        {
          "internalType": "string",
          "name": "desUser_",
          "type": "string"
        },
        {
          "internalType": "uint256",
          "name": "amount_",
          "type": "uint256"
        },
        {
          "internalType": "bytes",
          "name": "signature",
          "type": "bytes"
        }
      ],
      "name": "verify",
      "outputs": [
        {
          "internalType": "address",
          "name": "",
          "type": "address"
        }
      ],
      "stateMutability": "pure",
      "type": "function"
    }
  ],
  "bytecode": "0x608060405234801561001057600080fd5b50610a40806100206000396000f3fe608060405234801561001057600080fd5b50600436106100415760003560e01c80632c78e90b146100465780637b8e34741461007657806397aba7f9146100a6575b600080fd5b610060600480360381019061005b9190610485565b6100d6565b60405161006d91906106d3565b60405180910390f35b610090600480360381019061008b91906103b4565b61010f565b60405161009d91906106ee565b60405180910390f35b6100c060048036038101906100bb9190610360565b61014e565b6040516100cd91906106d3565b60405180910390f35b6000806100e789898989898961010f565b905060006100f482610221565b9050610100818561014e565b92505050979650505050505050565b600086868686868660405160200161012c96959493929190610649565b6040516020818303038152906040528051906020012090509695505050505050565b6000806000806041855114610169576000935050505061021b565b6020850151925060408501519150606085015160001a9050601b8160ff16101561019d57601b8161019a91906107eb565b90505b601b8160ff16141580156101b55750601c8160ff1614155b156101c6576000935050505061021b565b600186828585604051600081526020016040526040516101e99493929190610709565b6020604051602081039080840390855afa15801561020b573d6000803e3d6000fd5b5050506020604051035193505050505b92915050565b60008160405160200161023491906106ad565b604051602081830303815290604052805190602001209050919050565b600061026461025f84610773565b61074e565b90508281526020810184848401111561027c57600080fd5b610287848285610875565b509392505050565b60006102a261029d846107a4565b61074e565b9050828152602081018484840111156102ba57600080fd5b6102c5848285610875565b509392505050565b6000813590506102dc816109c5565b92915050565b6000813590506102f1816109dc565b92915050565b600082601f83011261030857600080fd5b8135610318848260208601610251565b91505092915050565b600082601f83011261033257600080fd5b813561034284826020860161028f565b91505092915050565b60008135905061035a816109f3565b92915050565b6000806040838503121561037357600080fd5b6000610381858286016102e2565b925050602083013567ffffffffffffffff81111561039e57600080fd5b6103aa858286016102f7565b9150509250929050565b60008060008060008060c087890312156103cd57600080fd5b600087013567ffffffffffffffff8111156103e757600080fd5b6103f389828a01610321565b965050602061040489828a016102cd565b955050604087013567ffffffffffffffff81111561042157600080fd5b61042d89828a01610321565b945050606061043e89828a016102cd565b935050608087013567ffffffffffffffff81111561045b57600080fd5b61046789828a01610321565b92505060a061047889828a0161034b565b9150509295509295509295565b600080600080600080600060e0888a0312156104a057600080fd5b600088013567ffffffffffffffff8111156104ba57600080fd5b6104c68a828b01610321565b97505060206104d78a828b016102cd565b965050604088013567ffffffffffffffff8111156104f457600080fd5b6105008a828b01610321565b95505060606105118a828b016102cd565b945050608088013567ffffffffffffffff81111561052e57600080fd5b61053a8a828b01610321565b93505060a061054b8a828b0161034b565b92505060c088013567ffffffffffffffff81111561056857600080fd5b6105748a828b016102f7565b91505092959891949750929550565b61058c81610822565b82525050565b6105a361059e82610822565b6108e8565b82525050565b6105b281610834565b82525050565b6105c96105c482610834565b6108fa565b82525050565b60006105da826107d5565b6105e481856107e0565b93506105f4818560208601610884565b80840191505092915050565b600061060d601c836107e0565b91506106188261099c565b601c82019050919050565b61063461062f8261085e565b610916565b82525050565b61064381610868565b82525050565b600061065582896105cf565b91506106618288610592565b60148201915061067182876105cf565b915061067d8286610592565b60148201915061068d82856105cf565b91506106998284610623565b602082019150819050979650505050505050565b60006106b882610600565b91506106c482846105b8565b60208201915081905092915050565b60006020820190506106e86000830184610583565b92915050565b600060208201905061070360008301846105a9565b92915050565b600060808201905061071e60008301876105a9565b61072b602083018661063a565b61073860408301856105a9565b61074560608301846105a9565b95945050505050565b6000610758610769565b905061076482826108b7565b919050565b6000604051905090565b600067ffffffffffffffff82111561078e5761078d61094f565b5b6107978261097e565b9050602081019050919050565b600067ffffffffffffffff8211156107bf576107be61094f565b5b6107c88261097e565b9050602081019050919050565b600081519050919050565b600081905092915050565b60006107f682610868565b915061080183610868565b92508260ff0382111561081757610816610920565b5b828201905092915050565b600061082d8261083e565b9050919050565b6000819050919050565b600073ffffffffffffffffffffffffffffffffffffffff82169050919050565b6000819050919050565b600060ff82169050919050565b82818337600083830152505050565b60005b838110156108a2578082015181840152602081019050610887565b838111156108b1576000848401525b50505050565b6108c08261097e565b810181811067ffffffffffffffff821117156108df576108de61094f565b5b80604052505050565b60006108f382610904565b9050919050565b6000819050919050565b600061090f8261098f565b9050919050565b6000819050919050565b7f4e487b7100000000000000000000000000000000000000000000000000000000600052601160045260246000fd5b7f4e487b7100000000000000000000000000000000000000000000000000000000600052604160045260246000fd5b6000601f19601f8301169050919050565b60008160601b9050919050565b7f19457468657265756d205369676e6564204d6573736167653a0a333200000000600082015250565b6109ce81610822565b81146109d957600080fd5b50565b6109e581610834565b81146109f057600080fd5b50565b6109fc8161085e565b8114610a0757600080fd5b5056fea26469706673582212204ad8e6f475919292d2945ab3496ec6d742764b387e8757f0ba42766c4dfe968164736f6c63430008020033",
  "linkReferences": {},
  "deployedLinkReferences": {}
}