{
  "_format": "hh-sol-artifact-1",
  "contractName": "SignatureUtils",
  "sourceName": "contracts/utils/SignatureUtils.sol",
  "abi": [
    {
      "inputs": [
        {
          "internalType": "string",
          "name": "transactionId_",
          "type": "string"
        },
        {
          "internalType": "address",
          "name": "curToken_",
          "type": "address"
        },
        {
          "internalType": "string",
          "name": "desToken_",
          "type": "string"
        },
        {
          "internalType": "address",
          "name": "curUser_",
          "type": "address"
        },
        {
          "internalType": "string",
          "name": "desUser_",
          "type": "string"
        },
        {
          "internalType": "uint256",
          "name": "amount_",
          "type": "uint256"
        }
      ],
      "name": "getMessageHash",
      "outputs": [
        {
          "internalType": "bytes32",
          "name": "",
          "type": "bytes32"
        }
      ],
      "stateMutability": "pure",
      "type": "function"
    },
    {
      "inputs": [
        {
          "internalType": "bytes32",
          "name": "hash",
          "type": "bytes32"
        },
        {
          "internalType": "bytes",
          "name": "signature",
          "type": "bytes"
        }
      ],
      "name": "recoverSigner",
      "outputs": [
        {
          "internalType": "address",
          "name": "",
          "type": "address"
        }
      ],
      "stateMutability": "pure",
      "type": "function"
    },
    {
      "inputs": [
        {
          "internalType": "string",
          "name": "transactionId_",
          "type": "string"
        },
        {
          "internalType": "address",
          "name": "curToken_",
          "type": "address"
        },
        {
          "internalType": "string",
          "name": "desToken_",
          "type": "string"
        },
        {
          "internalType": "address",
          "name": "curUser_",
          "type": "address"
        },
        {
          "internalType": "string",
          "name": "desUser_",
          "type": "string"
        },
        {
          "internalType": "uint256",
          "name": "amount_",
          "type": "uint256"
        },
        {
          "internalType": "bytes",
          "name": "signature",
          "type": "bytes"
        }
      ],
      "name": "verify",
      "outputs": [
        {
          "internalType": "address",
          "name": "",
          "type": "address"
        }
      ],
      "stateMutability": "pure",
      "type": "function"
    }
  ],
  "bytecode": "0x608060405234801561001057600080fd5b50610a90806100206000396000f3fe608060405234801561001057600080fd5b50600436106100415760003560e01c80632c78e90b146100465780637b8e34741461007657806397aba7f9146100a6575b600080fd5b610060600480360381019061005b91906104e0565b6100d6565b60405161006d9190610601565b60405180910390f35b610090600480360381019061008b919061061c565b61010f565b60405161009d9190610716565b60405180910390f35b6100c060048036038101906100bb919061075d565b61014e565b6040516100cd9190610601565b60405180910390f35b6000806100e789898989898961010f565b905060006100f482610221565b9050610100818561014e565b92505050979650505050505050565b600086868686868660405160200161012c9695949392919061089c565b6040516020818303038152906040528051906020012090509695505050505050565b6000806000806041855114610169576000935050505061021b565b6020850151925060408501519150606085015160001a9050601b8160ff16101561019d57601b8161019a919061093c565b90505b601b8160ff16141580156101b55750601c8160ff1614155b156101c6576000935050505061021b565b600186828585604051600081526020016040526040516101e99493929190610982565b6020604051602081039080840390855afa15801561020b573d6000803e3d6000fd5b5050506020604051035193505050505b92915050565b6000816040516020016102349190610a34565b604051602081830303815290604052805190602001209050919050565b6000604051905090565b600080fd5b600080fd5b600080fd5b600080fd5b6000601f19601f8301169050919050565b7f4e487b7100000000000000000000000000000000000000000000000000000000600052604160045260246000fd5b6102b88261026f565b810181811067ffffffffffffffff821117156102d7576102d6610280565b5b80604052505050565b60006102ea610251565b90506102f682826102af565b919050565b600067ffffffffffffffff82111561031657610315610280565b5b61031f8261026f565b9050602081019050919050565b82818337600083830152505050565b600061034e610349846102fb565b6102e0565b90508281526020810184848401111561036a5761036961026a565b5b61037584828561032c565b509392505050565b600082601f83011261039257610391610265565b5b81356103a284826020860161033b565b91505092915050565b600073ffffffffffffffffffffffffffffffffffffffff82169050919050565b60006103d6826103ab565b9050919050565b6103e6816103cb565b81146103f157600080fd5b50565b600081359050610403816103dd565b92915050565b6000819050919050565b61041c81610409565b811461042757600080fd5b50565b60008135905061043981610413565b92915050565b600067ffffffffffffffff82111561045a57610459610280565b5b6104638261026f565b9050602081019050919050565b600061048361047e8461043f565b6102e0565b90508281526020810184848401111561049f5761049e61026a565b5b6104aa84828561032c565b509392505050565b600082601f8301126104c7576104c6610265565b5b81356104d7848260208601610470565b91505092915050565b600080600080600080600060e0888a0312156104ff576104fe61025b565b5b600088013567ffffffffffffffff81111561051d5761051c610260565b5b6105298a828b0161037d565b975050602061053a8a828b016103f4565b965050604088013567ffffffffffffffff81111561055b5761055a610260565b5b6105678a828b0161037d565b95505060606105788a828b016103f4565b945050608088013567ffffffffffffffff81111561059957610598610260565b5b6105a58a828b0161037d565b93505060a06105b68a828b0161042a565b92505060c088013567ffffffffffffffff8111156105d7576105d6610260565b5b6105e38a828b016104b2565b91505092959891949750929550565b6105fb816103cb565b82525050565b600060208201905061061660008301846105f2565b92915050565b60008060008060008060c087890312156106395761063861025b565b5b600087013567ffffffffffffffff81111561065757610656610260565b5b61066389828a0161037d565b965050602061067489828a016103f4565b955050604087013567ffffffffffffffff81111561069557610694610260565b5b6106a189828a0161037d565b94505060606106b289828a016103f4565b935050608087013567ffffffffffffffff8111156106d3576106d2610260565b5b6106df89828a0161037d565b92505060a06106f089828a0161042a565b9150509295509295509295565b6000819050919050565b610710816106fd565b82525050565b600060208201905061072b6000830184610707565b92915050565b61073a816106fd565b811461074557600080fd5b50565b60008135905061075781610731565b92915050565b600080604083850312156107745761077361025b565b5b600061078285828601610748565b925050602083013567ffffffffffffffff8111156107a3576107a2610260565b5b6107af858286016104b2565b9150509250929050565b600081519050919050565b600081905092915050565b60005b838110156107ed5780820151818401526020810190506107d2565b838111156107fc576000848401525b50505050565b600061080d826107b9565b61081781856107c4565b93506108278185602086016107cf565b80840191505092915050565b60008160601b9050919050565b600061084b82610833565b9050919050565b600061085d82610840565b9050919050565b610875610870826103cb565b610852565b82525050565b6000819050919050565b61089661089182610409565b61087b565b82525050565b60006108a88289610802565b91506108b48288610864565b6014820191506108c48287610802565b91506108d08286610864565b6014820191506108e08285610802565b91506108ec8284610885565b602082019150819050979650505050505050565b600060ff82169050919050565b7f4e487b7100000000000000000000000000000000000000000000000000000000600052601160045260246000fd5b600061094782610900565b915061095283610900565b92508260ff038211156109685761096761090d565b5b828201905092915050565b61097c81610900565b82525050565b60006080820190506109976000830187610707565b6109a46020830186610973565b6109b16040830185610707565b6109be6060830184610707565b95945050505050565b7f19457468657265756d205369676e6564204d6573736167653a0a333200000000600082015250565b60006109fd601c836107c4565b9150610a08826109c7565b601c82019050919050565b6000819050919050565b610a2e610a29826106fd565b610a13565b82525050565b6000610a3f826109f0565b9150610a4b8284610a1d565b6020820191508190509291505056fea2646970667358221220c201b0ac9b62eb2ac6478f2a60fdd03ca07e1e9fee8b5f038a7bd99c572e990264736f6c634300080a0033",
  "linkReferences": {},
  "deployedLinkReferences": {}
}