{
  "_format": "hh-sol-artifact-1",
  "contractName": "Monsterra",
  "sourceName": "contracts/Monsterra.sol",
  "abi": [
    {
      "anonymous": false,
      "inputs": [
        {
          "indexed": false,
          "internalType": "address",
          "name": "previousAdmin",
          "type": "address"
        },
        {
          "indexed": false,
          "internalType": "address",
          "name": "newAdmin",
          "type": "address"
        }
      ],
      "name": "AdminChanged",
      "type": "event"
    },
    {
      "anonymous": false,
      "inputs": [
        {
          "indexed": false,
          "internalType": "string[]",
          "name": "internalTxs",
          "type": "string[]"
        },
        {
          "indexed": false,
          "internalType": "bool",
          "name": "status",
          "type": "bool"
        }
      ],
      "name": "ApprovedTxsByAmountEvent",
      "type": "event"
    },
    {
      "anonymous": false,
      "inputs": [
        {
          "indexed": true,
          "internalType": "address",
          "name": "beacon",
          "type": "address"
        }
      ],
      "name": "BeaconUpgraded",
      "type": "event"
    },
    {
      "anonymous": false,
      "inputs": [
        {
          "indexed": false,
          "internalType": "uint8",
          "name": "version",
          "type": "uint8"
        }
      ],
      "name": "Initialized",
      "type": "event"
    },
    {
      "anonymous": false,
      "inputs": [
        {
          "indexed": true,
          "internalType": "address",
          "name": "previousOwner",
          "type": "address"
        },
        {
          "indexed": true,
          "internalType": "address",
          "name": "newOwner",
          "type": "address"
        }
      ],
      "name": "OwnershipTransferred",
      "type": "event"
    },
    {
      "anonymous": false,
      "inputs": [
        {
          "indexed": false,
          "internalType": "address",
          "name": "setter",
          "type": "address"
        },
        {
          "indexed": false,
          "internalType": "bool",
          "name": "status",
          "type": "bool"
        }
      ],
      "name": "PauseEvent",
      "type": "event"
    },
    {
      "anonymous": false,
      "inputs": [
        {
          "indexed": false,
          "internalType": "string",
          "name": "eventType",
          "type": "string"
        },
        {
          "indexed": false,
          "internalType": "address",
          "name": "user",
          "type": "address"
        },
        {
          "indexed": false,
          "internalType": "bool",
          "name": "status",
          "type": "bool"
        }
      ],
      "name": "RoleEvent",
      "type": "event"
    },
    {
      "anonymous": false,
      "inputs": [
        {
          "indexed": false,
          "internalType": "address",
          "name": "setter",
          "type": "address"
        },
        {
          "indexed": false,
          "internalType": "address",
          "name": "token",
          "type": "address"
        },
        {
          "indexed": false,
          "internalType": "uint256",
          "name": "amount",
          "type": "uint256"
        }
      ],
      "name": "SetMaxSwapEvent",
      "type": "event"
    },
    {
      "anonymous": false,
      "inputs": [
        {
          "indexed": false,
          "internalType": "string",
          "name": "transactionId",
          "type": "string"
        },
        {
          "indexed": true,
          "internalType": "address",
          "name": "curToken",
          "type": "address"
        },
        {
          "indexed": false,
          "internalType": "string",
          "name": "desToken",
          "type": "string"
        },
        {
          "indexed": true,
          "internalType": "address",
          "name": "curUser",
          "type": "address"
        },
        {
          "indexed": false,
          "internalType": "string",
          "name": "desUser",
          "type": "string"
        },
        {
          "indexed": false,
          "internalType": "uint256",
          "name": "amount",
          "type": "uint256"
        },
        {
          "indexed": false,
          "internalType": "string",
          "name": "side",
          "type": "string"
        }
      ],
      "name": "SwapEvent",
      "type": "event"
    },
    {
      "anonymous": false,
      "inputs": [
        {
          "indexed": true,
          "internalType": "address",
          "name": "implementation",
          "type": "address"
        }
      ],
      "name": "Upgraded",
      "type": "event"
    },
    {
      "inputs": [
        {
          "internalType": "string",
          "name": "",
          "type": "string"
        }
      ],
      "name": "acceptedDesTokens",
      "outputs": [
        {
          "internalType": "bool",
          "name": "",
          "type": "bool"
        }
      ],
      "stateMutability": "view",
      "type": "function"
    },
    {
      "inputs": [
        {
          "internalType": "address",
          "name": "",
          "type": "address"
        }
      ],
      "name": "acceptedTokens",
      "outputs": [
        {
          "internalType": "bool",
          "name": "",
          "type": "bool"
        }
      ],
      "stateMutability": "view",
      "type": "function"
    },
    {
      "inputs": [
        {
          "internalType": "address",
          "name": "",
          "type": "address"
        }
      ],
      "name": "adminLists",
      "outputs": [
        {
          "internalType": "bool",
          "name": "",
          "type": "bool"
        }
      ],
      "stateMutability": "view",
      "type": "function"
    },
    {
      "inputs": [
        {
          "internalType": "address",
          "name": "token_",
          "type": "address"
        },
        {
          "internalType": "uint256",
          "name": "amount_",
          "type": "uint256"
        }
      ],
      "name": "emergencyWithdraw",
      "outputs": [],
      "stateMutability": "nonpayable",
      "type": "function"
    },
    {
      "inputs": [
        {
          "internalType": "string",
          "name": "transactionId_",
          "type": "string"
        },
        {
          "internalType": "address",
          "name": "curToken_",
          "type": "address"
        },
        {
          "internalType": "string",
          "name": "desToken_",
          "type": "string"
        },
        {
          "internalType": "address",
          "name": "curUser_",
          "type": "address"
        },
        {
          "internalType": "string",
          "name": "desUser_",
          "type": "string"
        },
        {
          "internalType": "uint256",
          "name": "amount_",
          "type": "uint256"
        }
      ],
      "name": "getMessageHash",
      "outputs": [
        {
          "internalType": "bytes32",
          "name": "",
          "type": "bytes32"
        }
      ],
      "stateMutability": "pure",
      "type": "function"
    },
    {
      "inputs": [],
      "name": "getSigner",
      "outputs": [
        {
          "internalType": "address",
          "name": "",
          "type": "address"
        }
      ],
      "stateMutability": "view",
      "type": "function"
    },
    {
      "inputs": [],
      "name": "initialize",
      "outputs": [],
      "stateMutability": "nonpayable",
      "type": "function"
    },
    {
      "inputs": [
        {
          "internalType": "string",
          "name": "transactionId_",
          "type": "string"
        }
      ],
      "name": "isTransactionExisted",
      "outputs": [
        {
          "internalType": "bool",
          "name": "",
          "type": "bool"
        }
      ],
      "stateMutability": "view",
      "type": "function"
    },
    {
      "inputs": [
        {
          "internalType": "string",
          "name": "transactionId_",
          "type": "string"
        },
        {
          "internalType": "address",
          "name": "curToken_",
          "type": "address"
        },
        {
          "internalType": "string",
          "name": "desToken_",
          "type": "string"
        },
        {
          "internalType": "string",
          "name": "desUser_",
          "type": "string"
        },
        {
          "internalType": "uint256",
          "name": "amount_",
          "type": "uint256"
        }
      ],
      "name": "lock",
      "outputs": [],
      "stateMutability": "nonpayable",
      "type": "function"
    },
    {
      "inputs": [
        {
          "internalType": "address",
          "name": "",
          "type": "address"
        }
      ],
      "name": "maxSwapAmounts",
      "outputs": [
        {
          "internalType": "uint256",
          "name": "",
          "type": "uint256"
        }
      ],
      "stateMutability": "view",
      "type": "function"
    },
    {
      "inputs": [],
      "name": "owner",
      "outputs": [
        {
          "internalType": "address",
          "name": "",
          "type": "address"
        }
      ],
      "stateMutability": "view",
      "type": "function"
    },
    {
      "inputs": [],
      "name": "paused",
      "outputs": [
        {
          "internalType": "bool",
          "name": "",
          "type": "bool"
        }
      ],
      "stateMutability": "view",
      "type": "function"
    },
    {
      "inputs": [],
      "name": "proxiableUUID",
      "outputs": [
        {
          "internalType": "bytes32",
          "name": "",
          "type": "bytes32"
        }
      ],
      "stateMutability": "view",
      "type": "function"
    },
    {
      "inputs": [
        {
          "internalType": "bytes32",
          "name": "hash",
          "type": "bytes32"
        },
        {
          "internalType": "bytes",
          "name": "signature",
          "type": "bytes"
        }
      ],
      "name": "recoverSigner",
      "outputs": [
        {
          "internalType": "address",
          "name": "",
          "type": "address"
        }
      ],
      "stateMutability": "pure",
      "type": "function"
    },
    {
      "inputs": [],
      "name": "renounceOwnership",
      "outputs": [],
      "stateMutability": "nonpayable",
      "type": "function"
    },
    {
      "inputs": [
        {
          "internalType": "string",
          "name": "token_",
          "type": "string"
        },
        {
          "internalType": "bool",
          "name": "status_",
          "type": "bool"
        }
      ],
      "name": "setAcceptedDesToken",
      "outputs": [],
      "stateMutability": "nonpayable",
      "type": "function"
    },
    {
      "inputs": [
        {
          "internalType": "address",
          "name": "tokenAddress_",
          "type": "address"
        },
        {
          "internalType": "bool",
          "name": "status_",
          "type": "bool"
        }
      ],
      "name": "setAcceptedToken",
      "outputs": [],
      "stateMutability": "nonpayable",
      "type": "function"
    },
    {
      "inputs": [
        {
          "internalType": "address",
          "name": "user_",
          "type": "address"
        },
        {
          "internalType": "bool",
          "name": "status_",
          "type": "bool"
        }
      ],
      "name": "setAdmin",
      "outputs": [],
      "stateMutability": "nonpayable",
      "type": "function"
    },
    {
      "inputs": [
        {
          "internalType": "address",
          "name": "approver_",
          "type": "address"
        },
        {
          "internalType": "bool",
          "name": "status_",
          "type": "bool"
        }
      ],
      "name": "setAmountApprover",
      "outputs": [],
      "stateMutability": "nonpayable",
      "type": "function"
    },
    {
      "inputs": [
        {
          "internalType": "string[]",
          "name": "internalTxs_",
          "type": "string[]"
        },
        {
          "internalType": "bool",
          "name": "status_",
          "type": "bool"
        }
      ],
      "name": "setApprovedTxByAmount",
      "outputs": [],
      "stateMutability": "nonpayable",
      "type": "function"
    },
    {
      "inputs": [
        {
          "internalType": "address",
          "name": "token_",
          "type": "address"
        },
        {
          "internalType": "uint256",
          "name": "maxAmount_",
          "type": "uint256"
        }
      ],
      "name": "setMaxSwapAmount",
      "outputs": [],
      "stateMutability": "nonpayable",
      "type": "function"
    },
    {
      "inputs": [
        {
          "internalType": "bool",
          "name": "status_",
          "type": "bool"
        }
      ],
      "name": "setPauseStatus",
      "outputs": [],
      "stateMutability": "nonpayable",
      "type": "function"
    },
    {
      "inputs": [
        {
          "internalType": "address",
          "name": "user_",
          "type": "address"
        }
      ],
      "name": "setSigner",
      "outputs": [],
      "stateMutability": "nonpayable",
      "type": "function"
    },
    {
      "inputs": [
        {
          "internalType": "string",
          "name": "",
          "type": "string"
        }
      ],
      "name": "swapDatas",
      "outputs": [
        {
          "internalType": "address",
          "name": "curToken",
          "type": "address"
        },
        {
          "internalType": "string",
          "name": "desToken",
          "type": "string"
        },
        {
          "internalType": "address",
          "name": "curUser",
          "type": "address"
        },
        {
          "internalType": "string",
          "name": "desUser",
          "type": "string"
        },
        {
          "internalType": "address",
          "name": "signer",
          "type": "address"
        },
        {
          "internalType": "uint256",
          "name": "amount",
          "type": "uint256"
        },
        {
          "internalType": "string",
          "name": "side",
          "type": "string"
        }
      ],
      "stateMutability": "view",
      "type": "function"
    },
    {
      "inputs": [
        {
          "internalType": "address",
          "name": "newOwner",
          "type": "address"
        }
      ],
      "name": "transferOwnership",
      "outputs": [],
      "stateMutability": "nonpayable",
      "type": "function"
    },
    {
      "inputs": [
        {
          "internalType": "string",
          "name": "transactionId_",
          "type": "string"
        },
        {
          "internalType": "address",
          "name": "curToken_",
          "type": "address"
        },
        {
          "internalType": "string",
          "name": "desToken_",
          "type": "string"
        },
        {
          "internalType": "address",
          "name": "curUser_",
          "type": "address"
        },
        {
          "internalType": "string",
          "name": "desUser_",
          "type": "string"
        },
        {
          "internalType": "uint256",
          "name": "amount_",
          "type": "uint256"
        },
        {
          "internalType": "bytes",
          "name": "signature_",
          "type": "bytes"
        }
      ],
      "name": "unlock",
      "outputs": [],
      "stateMutability": "nonpayable",
      "type": "function"
    },
    {
      "inputs": [
        {
          "internalType": "address",
          "name": "newImplementation",
          "type": "address"
        }
      ],
      "name": "upgradeTo",
      "outputs": [],
      "stateMutability": "nonpayable",
      "type": "function"
    },
    {
      "inputs": [
        {
          "internalType": "address",
          "name": "newImplementation",
          "type": "address"
        },
        {
          "internalType": "bytes",
          "name": "data",
          "type": "bytes"
        }
      ],
      "name": "upgradeToAndCall",
      "outputs": [],
      "stateMutability": "payable",
      "type": "function"
    },
    {
      "inputs": [
        {
          "internalType": "string",
          "name": "transactionId_",
          "type": "string"
        },
        {
          "internalType": "address",
          "name": "curToken_",
          "type": "address"
        },
        {
          "internalType": "string",
          "name": "desToken_",
          "type": "string"
        },
        {
          "internalType": "address",
          "name": "curUser_",
          "type": "address"
        },
        {
          "internalType": "string",
          "name": "desUser_",
          "type": "string"
        },
        {
          "internalType": "uint256",
          "name": "amount_",
          "type": "uint256"
        },
        {
          "internalType": "bytes",
          "name": "signature",
          "type": "bytes"
        }
      ],
      "name": "verify",
      "outputs": [
        {
          "internalType": "address",
          "name": "",
          "type": "address"
        }
      ],
      "stateMutability": "pure",
      "type": "function"
    }
  ],
  "bytecode": "0x60a06040523073ffffffffffffffffffffffffffffffffffffffff1660809073ffffffffffffffffffffffffffffffffffffffff1681525034801561004357600080fd5b506080516157c66200007c60003960008181610e2501528181610eb4015281816110d801528181611167015261146701526157c66000f3fe6080604052600436106101c25760003560e01c80637ac3c02f116100f7578063a589d31911610095578063cd6ec99e11610064578063cd6ec99e14610645578063d898be5b1461066e578063da26742b14610697578063f2fde38b146106d4576101c2565b8063a589d319146105a1578063c38bb537146105ca578063c6edf690146105f3578063c997dbca1461061c576101c2565b806382dc4a05116100d157806382dc4a05146104d35780638da5cb5b1461051057806395ccea671461053b57806397aba7f914610564576101c2565b80637ac3c02f146104545780637b8e34741461047f5780638129fc1c146104bc576101c2565b80634ebd25a51161016457806352d1902d1161013e57806352d1902d146103be5780635c975abb146103e95780636c19e78314610414578063715018a61461043d576101c2565b80634ebd25a5146103225780634f1ef2861461035f5780635163e2cc1461037b576101c2565b80632c102c48116101a05780632c102c48146102565780632c78e90b146102935780633659cfe6146102d05780634b0bddd2146102f9576101c2565b8063089dd512146101c757806309cf80e014610204578063212165791461022d575b600080fd5b3480156101d357600080fd5b506101ee60048036038101906101e99190613595565b6106fd565b6040516101fb91906135f9565b60405180910390f35b34801561021057600080fd5b5061022b60048036038101906102269190613726565b610733565b005b34801561023957600080fd5b50610254600480360381019061024f9190613816565b6108b2565b005b34801561026257600080fd5b5061027d60048036038101906102789190613595565b610dbc565b60405161028a91906135f9565b60405180910390f35b34801561029f57600080fd5b506102ba60048036038101906102b59190613986565b610dea565b6040516102c79190613aa7565b60405180910390f35b3480156102dc57600080fd5b506102f760048036038101906102f29190613ac2565b610e23565b005b34801561030557600080fd5b50610320600480360381019061031b9190613aef565b610fac565b005b34801561032e57600080fd5b5061034960048036038101906103449190613ac2565b6110bd565b6040516103569190613b3e565b60405180910390f35b61037960048036038101906103749190613b59565b6110d6565b005b34801561038757600080fd5b506103a2600480360381019061039d9190613595565b611213565b6040516103b59796959493929190613c3d565b60405180910390f35b3480156103ca57600080fd5b506103d3611463565b6040516103e09190613cda565b60405180910390f35b3480156103f557600080fd5b506103fe61151c565b60405161040b91906135f9565b60405180910390f35b34801561042057600080fd5b5061043b60048036038101906104369190613ac2565b611530565b005b34801561044957600080fd5b5061045261162a565b005b34801561046057600080fd5b506104696116b2565b6040516104769190613aa7565b60405180910390f35b34801561048b57600080fd5b506104a660048036038101906104a19190613cf5565b6116dc565b6040516104b39190613cda565b60405180910390f35b3480156104c857600080fd5b506104d161171b565b005b3480156104df57600080fd5b506104fa60048036038101906104f59190613ac2565b611864565b60405161050791906135f9565b60405180910390f35b34801561051c57600080fd5b50610525611884565b6040516105329190613aa7565b60405180910390f35b34801561054757600080fd5b50610562600480360381019061055d9190613dd6565b6118ae565b005b34801561057057600080fd5b5061058b60048036038101906105869190613e42565b611a15565b6040516105989190613aa7565b60405180910390f35b3480156105ad57600080fd5b506105c860048036038101906105c39190613dd6565b611ae8565b005b3480156105d657600080fd5b506105f160048036038101906105ec9190613e9e565b611bff565b005b3480156105ff57600080fd5b5061061a60048036038101906106159190613986565b611cd2565b005b34801561062857600080fd5b50610643600480360381019061063e9190613aef565b6122eb565b005b34801561065157600080fd5b5061066c60048036038101906106679190613ecb565b6123d9565b005b34801561067a57600080fd5b5061069560048036038101906106909190613aef565b6124a6565b005b3480156106a357600080fd5b506106be60048036038101906106b99190613ac2565b6125b8565b6040516106cb91906135f9565b60405180910390f35b3480156106e057600080fd5b506106fb60048036038101906106f69190613ac2565b6125d8565b005b60fe818051602081018201805184825260208301602085012081835280955050505050506000915054906101000a900460ff1681565b6001151561010060003373ffffffffffffffffffffffffffffffffffffffff1673ffffffffffffffffffffffffffffffffffffffff16815260200190815260200160002060009054906101000a900460ff16151514806107c55750610796611884565b73ffffffffffffffffffffffffffffffffffffffff163373ffffffffffffffffffffffffffffffffffffffff16145b610804576040517f08c379a00000000000000000000000000000000000000000000000000000000081526004016107fb90613f99565b60405180910390fd5b60005b8251811015610874578161010184838151811061082757610826613fb9565b5b602002602001015160405161083c9190614024565b908152602001604051809103902060006101000a81548160ff021916908315150217905550808061086c9061406a565b915050610807565b507f06f0b9169c47e9be13d325cf7a841fc05eb16aba19b8ab19026f598a2172b45582826040516108a69291906141bf565b60405180910390a15050565b6000151561010360009054906101000a900460ff16151514610909576040517f08c379a00000000000000000000000000000000000000000000000000000000081526004016109009061423b565b60405180910390fd5b6001151561091686610dbc565b15151415610959576040517f08c379a0000000000000000000000000000000000000000000000000000000008152600401610950906142a7565b60405180910390fd5b6109648484836126d0565b808473ffffffffffffffffffffffffffffffffffffffff166370a08231336040518263ffffffff1660e01b815260040161099e9190613aa7565b602060405180830381865afa1580156109bb573d6000803e3d6000fd5b505050506040513d601f19601f820116820180604052508101906109df91906142dc565b1015610a20576040517f08c379a0000000000000000000000000000000000000000000000000000000008152600401610a179061437b565b60405180910390fd5b808473ffffffffffffffffffffffffffffffffffffffff1663dd62ed3e33306040518363ffffffff1660e01b8152600401610a5c92919061439b565b602060405180830381865afa158015610a79573d6000803e3d6000fd5b505050506040513d601f19601f82011682018060405250810190610a9d91906142dc565b1015610ade576040517f08c379a0000000000000000000000000000000000000000000000000000000008152600401610ad590614436565b60405180910390fd5b610b0b3330838773ffffffffffffffffffffffffffffffffffffffff1661281e909392919063ffffffff16565b60006040518060e001604052808673ffffffffffffffffffffffffffffffffffffffff1681526020018581526020013373ffffffffffffffffffffffffffffffffffffffff168152602001848152602001600073ffffffffffffffffffffffffffffffffffffffff1681526020018381526020016040518060400160405280600481526020017f6c6f636b0000000000000000000000000000000000000000000000000000000081525081525090508060fb87604051610bcb9190614024565b908152602001604051809103902060008201518160000160006101000a81548173ffffffffffffffffffffffffffffffffffffffff021916908373ffffffffffffffffffffffffffffffffffffffff1602179055506020820151816001019080519060200190610c3c929190613398565b5060408201518160020160006101000a81548173ffffffffffffffffffffffffffffffffffffffff021916908373ffffffffffffffffffffffffffffffffffffffff1602179055506060820151816003019080519060200190610ca0929190613398565b5060808201518160040160006101000a81548173ffffffffffffffffffffffffffffffffffffffff021916908373ffffffffffffffffffffffffffffffffffffffff16021790555060a0820151816005015560c0820151816006019080519060200190610d0e929190613398565b509050503373ffffffffffffffffffffffffffffffffffffffff168573ffffffffffffffffffffffffffffffffffffffff167fad71aa4c2c93767a2df6f50aa44c85590c8822f1b02c7ab9c534cf4daad7ab74888787876040518060400160405280600481526020017f6c6f636b00000000000000000000000000000000000000000000000000000000815250604051610dac959493929190614456565b60405180910390a3505050505050565b60008060fb83604051610dcf9190614024565b90815260200160405180910390206005015414159050919050565b600080610dfb8989898989896116dc565b90506000610e08826128a7565b9050610e148185611a15565b92505050979650505050505050565b7f000000000000000000000000000000000000000000000000000000000000000073ffffffffffffffffffffffffffffffffffffffff163073ffffffffffffffffffffffffffffffffffffffff161415610eb2576040517f08c379a0000000000000000000000000000000000000000000000000000000008152600401610ea990614537565b60405180910390fd5b7f000000000000000000000000000000000000000000000000000000000000000073ffffffffffffffffffffffffffffffffffffffff16610ef16128d7565b73ffffffffffffffffffffffffffffffffffffffff1614610f47576040517f08c379a0000000000000000000000000000000000000000000000000000000008152600401610f3e906145c9565b60405180910390fd5b610f508161292e565b610fa981600067ffffffffffffffff811115610f6f57610f6e61346a565b5b6040519080825280601f01601f191660200182016040528015610fa15781602001600182028036833780820191505090505b5060006129ad565b50565b610fb4612b1b565b73ffffffffffffffffffffffffffffffffffffffff16610fd2611884565b73ffffffffffffffffffffffffffffffffffffffff1614611028576040517f08c379a000000000000000000000000000000000000000000000000000000000815260040161101f90614635565b60405180910390fd5b8060ff60008473ffffffffffffffffffffffffffffffffffffffff1673ffffffffffffffffffffffffffffffffffffffff16815260200190815260200160002060006101000a81548160ff0219169083151502179055507f2cfb57781d9c154e822ff0da753be77d4aa8c03bec8436de4c4261b3604c13738260016040516110b19291906146a1565b60405180910390a15050565b6101026020528060005260406000206000915090505481565b7f000000000000000000000000000000000000000000000000000000000000000073ffffffffffffffffffffffffffffffffffffffff163073ffffffffffffffffffffffffffffffffffffffff161415611165576040517f08c379a000000000000000000000000000000000000000000000000000000000815260040161115c90614537565b60405180910390fd5b7f000000000000000000000000000000000000000000000000000000000000000073ffffffffffffffffffffffffffffffffffffffff166111a46128d7565b73ffffffffffffffffffffffffffffffffffffffff16146111fa576040517f08c379a00000000000000000000000000000000000000000000000000000000081526004016111f1906145c9565b60405180910390fd5b6112038261292e565b61120f828260016129ad565b5050565b60fb818051602081018201805184825260208301602085012081835280955050505050506000915090508060000160009054906101000a900473ffffffffffffffffffffffffffffffffffffffff16908060010180546112729061470c565b80601f016020809104026020016040519081016040528092919081815260200182805461129e9061470c565b80156112eb5780601f106112c0576101008083540402835291602001916112eb565b820191906000526020600020905b8154815290600101906020018083116112ce57829003601f168201915b5050505050908060020160009054906101000a900473ffffffffffffffffffffffffffffffffffffffff16908060030180546113269061470c565b80601f01602080910402602001604051908101604052809291908181526020018280546113529061470c565b801561139f5780601f106113745761010080835404028352916020019161139f565b820191906000526020600020905b81548152906001019060200180831161138257829003601f168201915b5050505050908060040160009054906101000a900473ffffffffffffffffffffffffffffffffffffffff16908060050154908060060180546113e09061470c565b80601f016020809104026020016040519081016040528092919081815260200182805461140c9061470c565b80156114595780601f1061142e57610100808354040283529160200191611459565b820191906000526020600020905b81548152906001019060200180831161143c57829003601f168201915b5050505050905087565b60007f000000000000000000000000000000000000000000000000000000000000000073ffffffffffffffffffffffffffffffffffffffff163073ffffffffffffffffffffffffffffffffffffffff16146114f3576040517f08c379a00000000000000000000000000000000000000000000000000000000081526004016114ea906147b0565b60405180910390fd5b7f360894a13ba1a3210667c828492db98dca3e2076cc3735a920a3ca505d382bbc60001b905090565b61010360009054906101000a900460ff1681565b611538612b1b565b73ffffffffffffffffffffffffffffffffffffffff16611556611884565b73ffffffffffffffffffffffffffffffffffffffff16146115ac576040517f08c379a00000000000000000000000000000000000000000000000000000000081526004016115a390614635565b60405180910390fd5b8060fc60006101000a81548173ffffffffffffffffffffffffffffffffffffffff021916908373ffffffffffffffffffffffffffffffffffffffff1602179055507f2cfb57781d9c154e822ff0da753be77d4aa8c03bec8436de4c4261b3604c137381600160405161161f92919061481c565b60405180910390a150565b611632612b1b565b73ffffffffffffffffffffffffffffffffffffffff16611650611884565b73ffffffffffffffffffffffffffffffffffffffff16146116a6576040517f08c379a000000000000000000000000000000000000000000000000000000000815260040161169d90614635565b60405180910390fd5b6116b06000612b23565b565b600060fc60009054906101000a900473ffffffffffffffffffffffffffffffffffffffff16905090565b60008686868686866040516020016116f9969594939291906148c1565b6040516020818303038152906040528051906020012090509695505050505050565b60006117276001612be9565b9050801561174b576001600060016101000a81548160ff0219169083151502179055505b611753612cd9565b600160ff60003373ffffffffffffffffffffffffffffffffffffffff1673ffffffffffffffffffffffffffffffffffffffff16815260200190815260200160002060006101000a81548160ff0219169083151502179055503360fc60006101000a81548173ffffffffffffffffffffffffffffffffffffffff021916908373ffffffffffffffffffffffffffffffffffffffff160217905550600061010360006101000a81548160ff02191690831515021790555080156118615760008060016101000a81548160ff0219169083151502179055507f7f26b83ff96e1f2b6a682f133852f6798a09c465da95921460cefb384740249860016040516118589190614977565b60405180910390a15b50565b60fd6020528060005260406000206000915054906101000a900460ff1681565b6000609760009054906101000a900473ffffffffffffffffffffffffffffffffffffffff16905090565b6118b6612b1b565b73ffffffffffffffffffffffffffffffffffffffff166118d4611884565b73ffffffffffffffffffffffffffffffffffffffff161461192a576040517f08c379a000000000000000000000000000000000000000000000000000000000815260040161192190614635565b60405180910390fd5b808273ffffffffffffffffffffffffffffffffffffffff166370a08231306040518263ffffffff1660e01b81526004016119649190613aa7565b602060405180830381865afa158015611981573d6000803e3d6000fd5b505050506040513d601f19601f820116820180604052508101906119a591906142dc565b10156119e6576040517f08c379a00000000000000000000000000000000000000000000000000000000081526004016119dd90614a04565b60405180910390fd5b611a1133828473ffffffffffffffffffffffffffffffffffffffff16612d329092919063ffffffff16565b5050565b6000806000806041855114611a305760009350505050611ae2565b6020850151925060408501519150606085015160001a9050601b8160ff161015611a6457601b81611a619190614a24565b90505b601b8160ff1614158015611a7c5750601c8160ff1614155b15611a8d5760009350505050611ae2565b60018682858560405160008152602001604052604051611ab09493929190614a6a565b6020604051602081039080840390855afa158015611ad2573d6000803e3d6000fd5b5050506020604051035193505050505b92915050565b6001151560ff60003373ffffffffffffffffffffffffffffffffffffffff1673ffffffffffffffffffffffffffffffffffffffff16815260200190815260200160002060009054906101000a900460ff16151514611b7b576040517f08c379a0000000000000000000000000000000000000000000000000000000008152600401611b7290614afb565b60405180910390fd5b8061010260008473ffffffffffffffffffffffffffffffffffffffff1673ffffffffffffffffffffffffffffffffffffffff168152602001908152602001600020819055507f6e21da456d7a73e8a2179f893cc544b7b11d2cfe97400954cacbdc7a96f267e5338383604051611bf393929190614b1b565b60405180910390a15050565b611c07612b1b565b73ffffffffffffffffffffffffffffffffffffffff16611c25611884565b73ffffffffffffffffffffffffffffffffffffffff1614611c7b576040517f08c379a0000000000000000000000000000000000000000000000000000000008152600401611c7290614635565b60405180910390fd5b8061010360006101000a81548160ff0219169083151502179055507f36e736b0a0c9977c2788e71eb3fb657ed2eea0db97df25e206a8add580fab4973382604051611cc7929190614b52565b60405180910390a150565b6000151561010360009054906101000a900460ff16151514611d29576040517f08c379a0000000000000000000000000000000000000000000000000000000008152600401611d209061423b565b60405180910390fd5b600260c9541415611d6f576040517f08c379a0000000000000000000000000000000000000000000000000000000008152600401611d6690614bc7565b60405180910390fd5b600260c98190555060011515611d8488610dbc565b15151415611dc7576040517f08c379a0000000000000000000000000000000000000000000000000000000008152600401611dbe90614c33565b60405180910390fd5b611dd28686846126d0565b611ddd878784612db8565b611e1c576040517f08c379a0000000000000000000000000000000000000000000000000000000008152600401611e1390614cc5565b60405180910390fd5b611e2b87878787878787610dea565b73ffffffffffffffffffffffffffffffffffffffff1660fc60009054906101000a900473ffffffffffffffffffffffffffffffffffffffff1673ffffffffffffffffffffffffffffffffffffffff1614611eba576040517f08c379a0000000000000000000000000000000000000000000000000000000008152600401611eb190614d31565b60405180910390fd5b3373ffffffffffffffffffffffffffffffffffffffff168473ffffffffffffffffffffffffffffffffffffffff1614611f28576040517f08c379a0000000000000000000000000000000000000000000000000000000008152600401611f1f90614d9d565b60405180910390fd5b818673ffffffffffffffffffffffffffffffffffffffff166370a08231306040518263ffffffff1660e01b8152600401611f629190613aa7565b602060405180830381865afa158015611f7f573d6000803e3d6000fd5b505050506040513d601f19601f82011682018060405250810190611fa391906142dc565b1015611fe4576040517f08c379a0000000000000000000000000000000000000000000000000000000008152600401611fdb90614e2f565b60405180910390fd5b61200f33838873ffffffffffffffffffffffffffffffffffffffff16612d329092919063ffffffff16565b60006040518060e001604052808873ffffffffffffffffffffffffffffffffffffffff1681526020018781526020018673ffffffffffffffffffffffffffffffffffffffff16815260200185815260200160fc60009054906101000a900473ffffffffffffffffffffffffffffffffffffffff1673ffffffffffffffffffffffffffffffffffffffff1681526020018481526020016040518060400160405280600681526020017f756e6c6f636b000000000000000000000000000000000000000000000000000081525081525090508060fb896040516120f09190614024565b908152602001604051809103902060008201518160000160006101000a81548173ffffffffffffffffffffffffffffffffffffffff021916908373ffffffffffffffffffffffffffffffffffffffff1602179055506020820151816001019080519060200190612161929190613398565b5060408201518160020160006101000a81548173ffffffffffffffffffffffffffffffffffffffff021916908373ffffffffffffffffffffffffffffffffffffffff16021790555060608201518160030190805190602001906121c5929190613398565b5060808201518160040160006101000a81548173ffffffffffffffffffffffffffffffffffffffff021916908373ffffffffffffffffffffffffffffffffffffffff16021790555060a0820151816005015560c0820151816006019080519060200190612233929190613398565b509050503373ffffffffffffffffffffffffffffffffffffffff168773ffffffffffffffffffffffffffffffffffffffff167fad71aa4c2c93767a2df6f50aa44c85590c8822f1b02c7ab9c534cf4daad7ab748a8988886040518060400160405280600681526020017f756e6c6f636b00000000000000000000000000000000000000000000000000008152506040516122d1959493929190614456565b60405180910390a350600160c98190555050505050505050565b6001151560ff60003373ffffffffffffffffffffffffffffffffffffffff1673ffffffffffffffffffffffffffffffffffffffff16815260200190815260200160002060009054906101000a900460ff1615151461237e576040517f08c379a000000000000000000000000000000000000000000000000000000000815260040161237590614afb565b60405180910390fd5b8060fd60008473ffffffffffffffffffffffffffffffffffffffff1673ffffffffffffffffffffffffffffffffffffffff16815260200190815260200160002060006101000a81548160ff0219169083151502179055505050565b6001151560ff60003373ffffffffffffffffffffffffffffffffffffffff1673ffffffffffffffffffffffffffffffffffffffff16815260200190815260200160002060009054906101000a900460ff1615151461246c576040517f08c379a000000000000000000000000000000000000000000000000000000000815260040161246390614afb565b60405180910390fd5b8060fe8360405161247d9190614024565b908152602001604051809103902060006101000a81548160ff0219169083151502179055505050565b6124ae612b1b565b73ffffffffffffffffffffffffffffffffffffffff166124cc611884565b73ffffffffffffffffffffffffffffffffffffffff1614612522576040517f08c379a000000000000000000000000000000000000000000000000000000000815260040161251990614635565b60405180910390fd5b8061010060008473ffffffffffffffffffffffffffffffffffffffff1673ffffffffffffffffffffffffffffffffffffffff16815260200190815260200160002060006101000a81548160ff0219169083151502179055507f2cfb57781d9c154e822ff0da753be77d4aa8c03bec8436de4c4261b3604c13738260016040516125ac929190614e9b565b60405180910390a15050565b60ff6020528060005260406000206000915054906101000a900460ff1681565b6125e0612b1b565b73ffffffffffffffffffffffffffffffffffffffff166125fe611884565b73ffffffffffffffffffffffffffffffffffffffff1614612654576040517f08c379a000000000000000000000000000000000000000000000000000000000815260040161264b90614635565b60405180910390fd5b600073ffffffffffffffffffffffffffffffffffffffff168173ffffffffffffffffffffffffffffffffffffffff1614156126c4576040517f08c379a00000000000000000000000000000000000000000000000000000000081526004016126bb90614f49565b60405180910390fd5b6126cd81612b23565b50565b6000811015612714576040517f08c379a000000000000000000000000000000000000000000000000000000000815260040161270b90614fb5565b60405180910390fd5b6001151560fd60008573ffffffffffffffffffffffffffffffffffffffff1673ffffffffffffffffffffffffffffffffffffffff16815260200190815260200160002060009054906101000a900460ff161515146127a7576040517f08c379a000000000000000000000000000000000000000000000000000000000815260040161279e90615021565b60405180910390fd5b6001151560fe836040516127bb9190614024565b908152602001604051809103902060009054906101000a900460ff16151514612819576040517f08c379a00000000000000000000000000000000000000000000000000000000081526004016128109061508d565b60405180910390fd5b505050565b6128a1846323b872dd60e01b85858560405160240161283f93929190614b1b565b604051602081830303815290604052907bffffffffffffffffffffffffffffffffffffffffffffffffffffffff19166020820180517bffffffffffffffffffffffffffffffffffffffffffffffffffffffff8381831617835250505050612e8e565b50505050565b6000816040516020016128ba919061511a565b604051602081830303815290604052805190602001209050919050565b60006129057f360894a13ba1a3210667c828492db98dca3e2076cc3735a920a3ca505d382bbc60001b612f55565b60000160009054906101000a900473ffffffffffffffffffffffffffffffffffffffff16905090565b612936612b1b565b73ffffffffffffffffffffffffffffffffffffffff16612954611884565b73ffffffffffffffffffffffffffffffffffffffff16146129aa576040517f08c379a00000000000000000000000000000000000000000000000000000000081526004016129a190614635565b60405180910390fd5b50565b6129d97f4910fdfa16fed3260ed0e7147f7cc6da11a60208b5b9406d12a635614ffd914360001b612f5f565b60000160009054906101000a900460ff16156129fd576129f883612f69565b612b16565b8273ffffffffffffffffffffffffffffffffffffffff166352d1902d6040518163ffffffff1660e01b8152600401602060405180830381865afa925050508015612a6557506040513d601f19601f82011682018060405250810190612a629190615155565b60015b612aa4576040517f08c379a0000000000000000000000000000000000000000000000000000000008152600401612a9b906151f4565b60405180910390fd5b7f360894a13ba1a3210667c828492db98dca3e2076cc3735a920a3ca505d382bbc60001b8114612b09576040517f08c379a0000000000000000000000000000000000000000000000000000000008152600401612b0090615286565b60405180910390fd5b50612b15838383613022565b5b505050565b600033905090565b6000609760009054906101000a900473ffffffffffffffffffffffffffffffffffffffff16905081609760006101000a81548173ffffffffffffffffffffffffffffffffffffffff021916908373ffffffffffffffffffffffffffffffffffffffff1602179055508173ffffffffffffffffffffffffffffffffffffffff168173ffffffffffffffffffffffffffffffffffffffff167f8be0079c531659141344cd1fd0a4f28419497f9722a3daafe3b4186f6b6457e060405160405180910390a35050565b60008060019054906101000a900460ff1615612c605760018260ff16148015612c185750612c163061304e565b155b612c57576040517f08c379a0000000000000000000000000000000000000000000000000000000008152600401612c4e90615318565b60405180910390fd5b60009050612cd4565b8160ff1660008054906101000a900460ff1660ff1610612cb5576040517f08c379a0000000000000000000000000000000000000000000000000000000008152600401612cac90615318565b60405180910390fd5b816000806101000a81548160ff021916908360ff160217905550600190505b919050565b600060019054906101000a900460ff16612d28576040517f08c379a0000000000000000000000000000000000000000000000000000000008152600401612d1f906153aa565b60405180910390fd5b612d30613071565b565b612db38363a9059cbb60e01b8484604051602401612d519291906153ca565b604051602081830303815290604052907bffffffffffffffffffffffffffffffffffffffffffffffffffffffff19166020820180517bffffffffffffffffffffffffffffffffffffffffffffffffffffffff8381831617835250505050612e8e565b505050565b600061010260008473ffffffffffffffffffffffffffffffffffffffff1673ffffffffffffffffffffffffffffffffffffffff1681526020019081526020016000205482111580612e495750600061010260008573ffffffffffffffffffffffffffffffffffffffff1673ffffffffffffffffffffffffffffffffffffffff16815260200190815260200160002054145b15612e575760019050612e87565b61010184604051612e689190614024565b908152602001604051809103902060009054906101000a900460ff1690505b9392505050565b6000612ef0826040518060400160405280602081526020017f5361666545524332303a206c6f772d6c6576656c2063616c6c206661696c65648152508573ffffffffffffffffffffffffffffffffffffffff166130d29092919063ffffffff16565b9050600081511115612f505780806020019051810190612f109190615408565b612f4f576040517f08c379a0000000000000000000000000000000000000000000000000000000008152600401612f46906154a7565b60405180910390fd5b5b505050565b6000819050919050565b6000819050919050565b612f728161304e565b612fb1576040517f08c379a0000000000000000000000000000000000000000000000000000000008152600401612fa890615539565b60405180910390fd5b80612fde7f360894a13ba1a3210667c828492db98dca3e2076cc3735a920a3ca505d382bbc60001b612f55565b60000160006101000a81548173ffffffffffffffffffffffffffffffffffffffff021916908373ffffffffffffffffffffffffffffffffffffffff16021790555050565b61302b836130ea565b6000825111806130385750805b15613049576130478383613139565b505b505050565b6000808273ffffffffffffffffffffffffffffffffffffffff163b119050919050565b600060019054906101000a900460ff166130c0576040517f08c379a00000000000000000000000000000000000000000000000000000000081526004016130b7906153aa565b60405180910390fd5b6130d06130cb612b1b565b612b23565b565b60606130e1848460008561321d565b90509392505050565b6130f381612f69565b8073ffffffffffffffffffffffffffffffffffffffff167fbc7cd75a20ee27fd9adebab32041f755214dbc6bffa90cc0225b39da2e5c2d3b60405160405180910390a250565b60606131448361304e565b613183576040517f08c379a000000000000000000000000000000000000000000000000000000000815260040161317a906155cb565b60405180910390fd5b6000808473ffffffffffffffffffffffffffffffffffffffff16846040516131ab9190615632565b600060405180830381855af49150503d80600081146131e6576040519150601f19603f3d011682016040523d82523d6000602084013e6131eb565b606091505b5091509150613213828260405180606001604052806027815260200161576a60279139613331565b9250505092915050565b606082471015613262576040517f08c379a0000000000000000000000000000000000000000000000000000000008152600401613259906156bb565b60405180910390fd5b61326b8561304e565b6132aa576040517f08c379a00000000000000000000000000000000000000000000000000000000081526004016132a190615727565b60405180910390fd5b6000808673ffffffffffffffffffffffffffffffffffffffff1685876040516132d39190615632565b60006040518083038185875af1925050503d8060008114613310576040519150601f19603f3d011682016040523d82523d6000602084013e613315565b606091505b5091509150613325828286613331565b92505050949350505050565b6060831561334157829050613391565b6000835111156133545782518084602001fd5b816040517f08c379a00000000000000000000000000000000000000000000000000000000081526004016133889190615747565b60405180910390fd5b9392505050565b8280546133a49061470c565b90600052602060002090601f0160209004810192826133c6576000855561340d565b82601f106133df57805160ff191683800117855561340d565b8280016001018555821561340d579182015b8281111561340c5782518255916020019190600101906133f1565b5b50905061341a919061341e565b5090565b5b8082111561343757600081600090555060010161341f565b5090565b6000604051905090565b600080fd5b600080fd5b600080fd5b600080fd5b6000601f19601f8301169050919050565b7f4e487b7100000000000000000000000000000000000000000000000000000000600052604160045260246000fd5b6134a282613459565b810181811067ffffffffffffffff821117156134c1576134c061346a565b5b80604052505050565b60006134d461343b565b90506134e08282613499565b919050565b600067ffffffffffffffff821115613500576134ff61346a565b5b61350982613459565b9050602081019050919050565b82818337600083830152505050565b6000613538613533846134e5565b6134ca565b90508281526020810184848401111561355457613553613454565b5b61355f848285613516565b509392505050565b600082601f83011261357c5761357b61344f565b5b813561358c848260208601613525565b91505092915050565b6000602082840312156135ab576135aa613445565b5b600082013567ffffffffffffffff8111156135c9576135c861344a565b5b6135d584828501613567565b91505092915050565b60008115159050919050565b6135f3816135de565b82525050565b600060208201905061360e60008301846135ea565b92915050565b600067ffffffffffffffff82111561362f5761362e61346a565b5b602082029050602081019050919050565b600080fd5b600061365861365384613614565b6134ca565b9050808382526020820190506020840283018581111561367b5761367a613640565b5b835b818110156136c257803567ffffffffffffffff8111156136a05761369f61344f565b5b8086016136ad8982613567565b8552602085019450505060208101905061367d565b5050509392505050565b600082601f8301126136e1576136e061344f565b5b81356136f1848260208601613645565b91505092915050565b613703816135de565b811461370e57600080fd5b50565b600081359050613720816136fa565b92915050565b6000806040838503121561373d5761373c613445565b5b600083013567ffffffffffffffff81111561375b5761375a61344a565b5b613767858286016136cc565b925050602061377885828601613711565b9150509250929050565b600073ffffffffffffffffffffffffffffffffffffffff82169050919050565b60006137ad82613782565b9050919050565b6137bd816137a2565b81146137c857600080fd5b50565b6000813590506137da816137b4565b92915050565b6000819050919050565b6137f3816137e0565b81146137fe57600080fd5b50565b600081359050613810816137ea565b92915050565b600080600080600060a0868803121561383257613831613445565b5b600086013567ffffffffffffffff8111156138505761384f61344a565b5b61385c88828901613567565b955050602061386d888289016137cb565b945050604086013567ffffffffffffffff81111561388e5761388d61344a565b5b61389a88828901613567565b935050606086013567ffffffffffffffff8111156138bb576138ba61344a565b5b6138c788828901613567565b92505060806138d888828901613801565b9150509295509295909350565b600067ffffffffffffffff821115613900576138ff61346a565b5b61390982613459565b9050602081019050919050565b6000613929613924846138e5565b6134ca565b90508281526020810184848401111561394557613944613454565b5b613950848285613516565b509392505050565b600082601f83011261396d5761396c61344f565b5b813561397d848260208601613916565b91505092915050565b600080600080600080600060e0888a0312156139a5576139a4613445565b5b600088013567ffffffffffffffff8111156139c3576139c261344a565b5b6139cf8a828b01613567565b97505060206139e08a828b016137cb565b965050604088013567ffffffffffffffff811115613a0157613a0061344a565b5b613a0d8a828b01613567565b9550506060613a1e8a828b016137cb565b945050608088013567ffffffffffffffff811115613a3f57613a3e61344a565b5b613a4b8a828b01613567565b93505060a0613a5c8a828b01613801565b92505060c088013567ffffffffffffffff811115613a7d57613a7c61344a565b5b613a898a828b01613958565b91505092959891949750929550565b613aa1816137a2565b82525050565b6000602082019050613abc6000830184613a98565b92915050565b600060208284031215613ad857613ad7613445565b5b6000613ae6848285016137cb565b91505092915050565b60008060408385031215613b0657613b05613445565b5b6000613b14858286016137cb565b9250506020613b2585828601613711565b9150509250929050565b613b38816137e0565b82525050565b6000602082019050613b536000830184613b2f565b92915050565b60008060408385031215613b7057613b6f613445565b5b6000613b7e858286016137cb565b925050602083013567ffffffffffffffff811115613b9f57613b9e61344a565b5b613bab85828601613958565b9150509250929050565b600081519050919050565b600082825260208201905092915050565b60005b83811015613bef578082015181840152602081019050613bd4565b83811115613bfe576000848401525b50505050565b6000613c0f82613bb5565b613c198185613bc0565b9350613c29818560208601613bd1565b613c3281613459565b840191505092915050565b600060e082019050613c52600083018a613a98565b8181036020830152613c648189613c04565b9050613c736040830188613a98565b8181036060830152613c858187613c04565b9050613c946080830186613a98565b613ca160a0830185613b2f565b81810360c0830152613cb38184613c04565b905098975050505050505050565b6000819050919050565b613cd481613cc1565b82525050565b6000602082019050613cef6000830184613ccb565b92915050565b60008060008060008060c08789031215613d1257613d11613445565b5b600087013567ffffffffffffffff811115613d3057613d2f61344a565b5b613d3c89828a01613567565b9650506020613d4d89828a016137cb565b955050604087013567ffffffffffffffff811115613d6e57613d6d61344a565b5b613d7a89828a01613567565b9450506060613d8b89828a016137cb565b935050608087013567ffffffffffffffff811115613dac57613dab61344a565b5b613db889828a01613567565b92505060a0613dc989828a01613801565b9150509295509295509295565b60008060408385031215613ded57613dec613445565b5b6000613dfb858286016137cb565b9250506020613e0c85828601613801565b9150509250929050565b613e1f81613cc1565b8114613e2a57600080fd5b50565b600081359050613e3c81613e16565b92915050565b60008060408385031215613e5957613e58613445565b5b6000613e6785828601613e2d565b925050602083013567ffffffffffffffff811115613e8857613e8761344a565b5b613e9485828601613958565b9150509250929050565b600060208284031215613eb457613eb3613445565b5b6000613ec284828501613711565b91505092915050565b60008060408385031215613ee257613ee1613445565b5b600083013567ffffffffffffffff811115613f0057613eff61344a565b5b613f0c85828601613567565b9250506020613f1d85828601613711565b9150509250929050565b7f41757468656e7469636174696f6e3a205265717569726520616d6f756e74206160008201527f7070726f76657200000000000000000000000000000000000000000000000000602082015250565b6000613f83602783613bc0565b9150613f8e82613f27565b604082019050919050565b60006020820190508181036000830152613fb281613f76565b9050919050565b7f4e487b7100000000000000000000000000000000000000000000000000000000600052603260045260246000fd5b600081905092915050565b6000613ffe82613bb5565b6140088185613fe8565b9350614018818560208601613bd1565b80840191505092915050565b60006140308284613ff3565b915081905092915050565b7f4e487b7100000000000000000000000000000000000000000000000000000000600052601160045260246000fd5b6000614075826137e0565b91507fffffffffffffffffffffffffffffffffffffffffffffffffffffffffffffffff8214156140a8576140a761403b565b5b600182019050919050565b600081519050919050565b600082825260208201905092915050565b6000819050602082019050919050565b600082825260208201905092915050565b60006140fb82613bb5565b61410581856140df565b9350614115818560208601613bd1565b61411e81613459565b840191505092915050565b600061413583836140f0565b905092915050565b6000602082019050919050565b6000614155826140b3565b61415f81856140be565b935083602082028501614171856140cf565b8060005b858110156141ad578484038952815161418e8582614129565b94506141998361413d565b925060208a01995050600181019050614175565b50829750879550505050505092915050565b600060408201905081810360008301526141d9818561414a565b90506141e860208301846135ea565b9392505050565b7f53797374656d3a20506175736564000000000000000000000000000000000000600082015250565b6000614225600e83613bc0565b9150614230826141ef565b602082019050919050565b6000602082019050818103600083015261425481614218565b9050919050565b7f4c6f636b3a205472616e73616374696f6e206578697374656400000000000000600082015250565b6000614291601983613bc0565b915061429c8261425b565b602082019050919050565b600060208201905081810360008301526142c081614284565b9050919050565b6000815190506142d6816137ea565b92915050565b6000602082840312156142f2576142f1613445565b5b6000614300848285016142c7565b91505092915050565b7f4c6f636b3a205472616e7366657220616d6f756e74206578636565647320626160008201527f6c616e6365000000000000000000000000000000000000000000000000000000602082015250565b6000614365602583613bc0565b915061437082614309565b604082019050919050565b6000602082019050818103600083015261439481614358565b9050919050565b60006040820190506143b06000830185613a98565b6143bd6020830184613a98565b9392505050565b7f4c6f636b3a205472616e7366657220616d6f756e74206578636565647320616c60008201527f6c6f77616e636500000000000000000000000000000000000000000000000000602082015250565b6000614420602783613bc0565b915061442b826143c4565b604082019050919050565b6000602082019050818103600083015261444f81614413565b9050919050565b600060a08201905081810360008301526144708188613c04565b905081810360208301526144848187613c04565b905081810360408301526144988186613c04565b90506144a76060830185613b2f565b81810360808301526144b98184613c04565b90509695505050505050565b7f46756e6374696f6e206d7573742062652063616c6c6564207468726f7567682060008201527f64656c656761746563616c6c0000000000000000000000000000000000000000602082015250565b6000614521602c83613bc0565b915061452c826144c5565b604082019050919050565b6000602082019050818103600083015261455081614514565b9050919050565b7f46756e6374696f6e206d7573742062652063616c6c6564207468726f7567682060008201527f6163746976652070726f78790000000000000000000000000000000000000000602082015250565b60006145b3602c83613bc0565b91506145be82614557565b604082019050919050565b600060208201905081810360008301526145e2816145a6565b9050919050565b7f4f776e61626c653a2063616c6c6572206973206e6f7420746865206f776e6572600082015250565b600061461f602083613bc0565b915061462a826145e9565b602082019050919050565b6000602082019050818103600083015261464e81614612565b9050919050565b7f7365745f61646d696e0000000000000000000000000000000000000000000000600082015250565b600061468b600983613bc0565b915061469682614655565b602082019050919050565b600060608201905081810360008301526146ba8161467e565b90506146c96020830185613a98565b6146d660408301846135ea565b9392505050565b7f4e487b7100000000000000000000000000000000000000000000000000000000600052602260045260246000fd5b6000600282049050600182168061472457607f821691505b60208210811415614738576147376146dd565b5b50919050565b7f555550535570677261646561626c653a206d757374206e6f742062652063616c60008201527f6c6564207468726f7567682064656c656761746563616c6c0000000000000000602082015250565b600061479a603883613bc0565b91506147a58261473e565b604082019050919050565b600060208201905081810360008301526147c98161478d565b9050919050565b7f7365745f7369676e657200000000000000000000000000000000000000000000600082015250565b6000614806600a83613bc0565b9150614811826147d0565b602082019050919050565b60006060820190508181036000830152614835816147f9565b90506148446020830185613a98565b61485160408301846135ea565b9392505050565b60008160601b9050919050565b600061487082614858565b9050919050565b600061488282614865565b9050919050565b61489a614895826137a2565b614877565b82525050565b6000819050919050565b6148bb6148b6826137e0565b6148a0565b82525050565b60006148cd8289613ff3565b91506148d98288614889565b6014820191506148e98287613ff3565b91506148f58286614889565b6014820191506149058285613ff3565b915061491182846148aa565b602082019150819050979650505050505050565b6000819050919050565b600060ff82169050919050565b6000819050919050565b600061496161495c61495784614925565b61493c565b61492f565b9050919050565b61497181614946565b82525050565b600060208201905061498c6000830184614968565b92915050565b7f456d657267656e637957697468647261773a205472616e7366657220616d6f7560008201527f6e74206578636565642062616c616e6365000000000000000000000000000000602082015250565b60006149ee603183613bc0565b91506149f982614992565b604082019050919050565b60006020820190508181036000830152614a1d816149e1565b9050919050565b6000614a2f8261492f565b9150614a3a8361492f565b92508260ff03821115614a5057614a4f61403b565b5b828201905092915050565b614a648161492f565b82525050565b6000608082019050614a7f6000830187613ccb565b614a8c6020830186614a5b565b614a996040830185613ccb565b614aa66060830184613ccb565b95945050505050565b7f41757468656e7469636174696f6e3a20526571756972652061646d696e730000600082015250565b6000614ae5601e83613bc0565b9150614af082614aaf565b602082019050919050565b60006020820190508181036000830152614b1481614ad8565b9050919050565b6000606082019050614b306000830186613a98565b614b3d6020830185613a98565b614b4a6040830184613b2f565b949350505050565b6000604082019050614b676000830185613a98565b614b7460208301846135ea565b9392505050565b7f5265656e7472616e637947756172643a207265656e7472616e742063616c6c00600082015250565b6000614bb1601f83613bc0565b9150614bbc82614b7b565b602082019050919050565b60006020820190508181036000830152614be081614ba4565b9050919050565b7f556e6c6f636b3a205472616e73616374696f6e20657869737465640000000000600082015250565b6000614c1d601b83613bc0565b9150614c2882614be7565b602082019050919050565b60006020820190508181036000830152614c4c81614c10565b9050919050565b7f556e6c6f636b3a205377617020616d6f756e7420756e617070726f766564206160008201527f6e6420657863656564206d6178207377617020616d6f756e7420000000000000602082015250565b6000614caf603a83613bc0565b9150614cba82614c53565b604082019050919050565b60006020820190508181036000830152614cde81614ca2565b9050919050565b7f556e6c6f636b3a20496e76616c6964207369676e617475726500000000000000600082015250565b6000614d1b601983613bc0565b9150614d2682614ce5565b602082019050919050565b60006020820190508181036000830152614d4a81614d0e565b9050919050565b7f556e6c6f636b3a206e6f742074686520636f7272656374207573657200000000600082015250565b6000614d87601c83613bc0565b9150614d9282614d51565b602082019050919050565b60006020820190508181036000830152614db681614d7a565b9050919050565b7f556e6c6f636b3a205472616e7366657220616d6f756e7420657863656564732060008201527f62616c616e636500000000000000000000000000000000000000000000000000602082015250565b6000614e19602783613bc0565b9150614e2482614dbd565b604082019050919050565b60006020820190508181036000830152614e4881614e0c565b9050919050565b7f7365745f616d6f756e745f617070726f76657200000000000000000000000000600082015250565b6000614e85601383613bc0565b9150614e9082614e4f565b602082019050919050565b60006060820190508181036000830152614eb481614e78565b9050614ec36020830185613a98565b614ed060408301846135ea565b9392505050565b7f4f776e61626c653a206e6577206f776e657220697320746865207a65726f206160008201527f6464726573730000000000000000000000000000000000000000000000000000602082015250565b6000614f33602683613bc0565b9150614f3e82614ed7565b604082019050919050565b60006020820190508181036000830152614f6281614f26565b9050919050565b7f4c6f636b3a20416d6f756e74206e6f742076616c696400000000000000000000600082015250565b6000614f9f601683613bc0565b9150614faa82614f69565b602082019050919050565b60006020820190508181036000830152614fce81614f92565b9050919050565b7f4c6f636b3a20496e76616c696420637572206e6574776f726b20746f6b656e00600082015250565b600061500b601f83613bc0565b915061501682614fd5565b602082019050919050565b6000602082019050818103600083015261503a81614ffe565b9050919050565b7f4c6f636b3a20496e76616c696420646573206e6574776f726b20746f6b656e00600082015250565b6000615077601f83613bc0565b915061508282615041565b602082019050919050565b600060208201905081810360008301526150a68161506a565b9050919050565b7f19457468657265756d205369676e6564204d6573736167653a0a333200000000600082015250565b60006150e3601c83613fe8565b91506150ee826150ad565b601c82019050919050565b6000819050919050565b61511461510f82613cc1565b6150f9565b82525050565b6000615125826150d6565b91506151318284615103565b60208201915081905092915050565b60008151905061514f81613e16565b92915050565b60006020828403121561516b5761516a613445565b5b600061517984828501615140565b91505092915050565b7f45524331393637557067726164653a206e657720696d706c656d656e7461746960008201527f6f6e206973206e6f742055555053000000000000000000000000000000000000602082015250565b60006151de602e83613bc0565b91506151e982615182565b604082019050919050565b6000602082019050818103600083015261520d816151d1565b9050919050565b7f45524331393637557067726164653a20756e737570706f727465642070726f7860008201527f6961626c65555549440000000000000000000000000000000000000000000000602082015250565b6000615270602983613bc0565b915061527b82615214565b604082019050919050565b6000602082019050818103600083015261529f81615263565b9050919050565b7f496e697469616c697a61626c653a20636f6e747261637420697320616c72656160008201527f647920696e697469616c697a6564000000000000000000000000000000000000602082015250565b6000615302602e83613bc0565b915061530d826152a6565b604082019050919050565b60006020820190508181036000830152615331816152f5565b9050919050565b7f496e697469616c697a61626c653a20636f6e7472616374206973206e6f74206960008201527f6e697469616c697a696e67000000000000000000000000000000000000000000602082015250565b6000615394602b83613bc0565b915061539f82615338565b604082019050919050565b600060208201905081810360008301526153c381615387565b9050919050565b60006040820190506153df6000830185613a98565b6153ec6020830184613b2f565b9392505050565b600081519050615402816136fa565b92915050565b60006020828403121561541e5761541d613445565b5b600061542c848285016153f3565b91505092915050565b7f5361666545524332303a204552433230206f7065726174696f6e20646964206e60008201527f6f74207375636365656400000000000000000000000000000000000000000000602082015250565b6000615491602a83613bc0565b915061549c82615435565b604082019050919050565b600060208201905081810360008301526154c081615484565b9050919050565b7f455243313936373a206e657720696d706c656d656e746174696f6e206973206e60008201527f6f74206120636f6e747261637400000000000000000000000000000000000000602082015250565b6000615523602d83613bc0565b915061552e826154c7565b604082019050919050565b6000602082019050818103600083015261555281615516565b9050919050565b7f416464726573733a2064656c65676174652063616c6c20746f206e6f6e2d636f60008201527f6e74726163740000000000000000000000000000000000000000000000000000602082015250565b60006155b5602683613bc0565b91506155c082615559565b604082019050919050565b600060208201905081810360008301526155e4816155a8565b9050919050565b600081519050919050565b600081905092915050565b600061560c826155eb565b61561681856155f6565b9350615626818560208601613bd1565b80840191505092915050565b600061563e8284615601565b915081905092915050565b7f416464726573733a20696e73756666696369656e742062616c616e636520666f60008201527f722063616c6c0000000000000000000000000000000000000000000000000000602082015250565b60006156a5602683613bc0565b91506156b082615649565b604082019050919050565b600060208201905081810360008301526156d481615698565b9050919050565b7f416464726573733a2063616c6c20746f206e6f6e2d636f6e7472616374000000600082015250565b6000615711601d83613bc0565b915061571c826156db565b602082019050919050565b6000602082019050818103600083015261574081615704565b9050919050565b600060208201905081810360008301526157618184613c04565b90509291505056fe416464726573733a206c6f772d6c6576656c2064656c65676174652063616c6c206661696c6564a2646970667358221220d09d333db244b5cc918f69b836898e0c1671318c36a76d9f9fe6c73d01738d2b64736f6c634300080a0033",
  "linkReferences": {},
  "deployedLinkReferences": {}
}