{
  "_format": "hh-sol-artifact-1",
  "contractName": "MAGToken",
  "sourceName": "contracts/mocks/MAG.sol",
  "abi": [
    {
      "inputs": [
        {
          "internalType": "address",
          "name": "minter_",
          "type": "address"
        }
      ],
      "stateMutability": "nonpayable",
      "type": "constructor"
    },
    {
      "anonymous": false,
      "inputs": [
        {
          "indexed": true,
          "internalType": "address",
          "name": "owner",
          "type": "address"
        },
        {
          "indexed": true,
          "internalType": "address",
          "name": "spender",
          "type": "address"
        },
        {
          "indexed": false,
          "internalType": "uint256",
          "name": "value",
          "type": "uint256"
        }
      ],
      "name": "Approval",
      "type": "event"
    },
    {
      "anonymous": false,
      "inputs": [
        {
          "indexed": true,
          "internalType": "address",
          "name": "previousOwner",
          "type": "address"
        },
        {
          "indexed": true,
          "internalType": "address",
          "name": "newOwner",
          "type": "address"
        }
      ],
      "name": "OwnershipTransferred",
      "type": "event"
    },
    {
      "anonymous": false,
      "inputs": [
        {
          "indexed": true,
          "internalType": "address",
          "name": "from",
          "type": "address"
        },
        {
          "indexed": true,
          "internalType": "address",
          "name": "to",
          "type": "address"
        },
        {
          "indexed": false,
          "internalType": "uint256",
          "name": "value",
          "type": "uint256"
        }
      ],
      "name": "Transfer",
      "type": "event"
    },
    {
      "inputs": [
        {
          "internalType": "address",
          "name": "owner",
          "type": "address"
        },
        {
          "internalType": "address",
          "name": "spender",
          "type": "address"
        }
      ],
      "name": "allowance",
      "outputs": [
        {
          "internalType": "uint256",
          "name": "",
          "type": "uint256"
        }
      ],
      "stateMutability": "view",
      "type": "function"
    },
    {
      "inputs": [
        {
          "internalType": "address",
          "name": "spender",
          "type": "address"
        },
        {
          "internalType": "uint256",
          "name": "amount",
          "type": "uint256"
        }
      ],
      "name": "approve",
      "outputs": [
        {
          "internalType": "bool",
          "name": "",
          "type": "bool"
        }
      ],
      "stateMutability": "nonpayable",
      "type": "function"
    },
    {
      "inputs": [
        {
          "internalType": "address",
          "name": "account",
          "type": "address"
        }
      ],
      "name": "balanceOf",
      "outputs": [
        {
          "internalType": "uint256",
          "name": "",
          "type": "uint256"
        }
      ],
      "stateMutability": "view",
      "type": "function"
    },
    {
      "inputs": [
        {
          "internalType": "uint256",
          "name": "amount",
          "type": "uint256"
        }
      ],
      "name": "burn",
      "outputs": [],
      "stateMutability": "nonpayable",
      "type": "function"
    },
    {
      "inputs": [
        {
          "internalType": "address",
          "name": "account",
          "type": "address"
        },
        {
          "internalType": "uint256",
          "name": "amount",
          "type": "uint256"
        }
      ],
      "name": "burnFrom",
      "outputs": [],
      "stateMutability": "nonpayable",
      "type": "function"
    },
    {
      "inputs": [],
      "name": "decimals",
      "outputs": [
        {
          "internalType": "uint8",
          "name": "",
          "type": "uint8"
        }
      ],
      "stateMutability": "view",
      "type": "function"
    },
    {
      "inputs": [
        {
          "internalType": "address",
          "name": "spender",
          "type": "address"
        },
        {
          "internalType": "uint256",
          "name": "subtractedValue",
          "type": "uint256"
        }
      ],
      "name": "decreaseAllowance",
      "outputs": [
        {
          "internalType": "bool",
          "name": "",
          "type": "bool"
        }
      ],
      "stateMutability": "nonpayable",
      "type": "function"
    },
    {
      "inputs": [
        {
          "internalType": "address",
          "name": "spender",
          "type": "address"
        },
        {
          "internalType": "uint256",
          "name": "addedValue",
          "type": "uint256"
        }
      ],
      "name": "increaseAllowance",
      "outputs": [
        {
          "internalType": "bool",
          "name": "",
          "type": "bool"
        }
      ],
      "stateMutability": "nonpayable",
      "type": "function"
    },
    {
      "inputs": [
        {
          "internalType": "address",
          "name": "to",
          "type": "address"
        },
        {
          "internalType": "uint256",
          "name": "amount",
          "type": "uint256"
        }
      ],
      "name": "mint",
      "outputs": [],
      "stateMutability": "nonpayable",
      "type": "function"
    },
    {
      "inputs": [],
      "name": "minter",
      "outputs": [
        {
          "internalType": "address",
          "name": "",
          "type": "address"
        }
      ],
      "stateMutability": "view",
      "type": "function"
    },
    {
      "inputs": [],
      "name": "name",
      "outputs": [
        {
          "internalType": "string",
          "name": "",
          "type": "string"
        }
      ],
      "stateMutability": "view",
      "type": "function"
    },
    {
      "inputs": [],
      "name": "owner",
      "outputs": [
        {
          "internalType": "address",
          "name": "",
          "type": "address"
        }
      ],
      "stateMutability": "view",
      "type": "function"
    },
    {
      "inputs": [],
      "name": "renounceOwnership",
      "outputs": [],
      "stateMutability": "nonpayable",
      "type": "function"
    },
    {
      "inputs": [
        {
          "internalType": "address",
          "name": "minter_",
          "type": "address"
        }
      ],
      "name": "setMinter",
      "outputs": [],
      "stateMutability": "nonpayable",
      "type": "function"
    },
    {
      "inputs": [],
      "name": "symbol",
      "outputs": [
        {
          "internalType": "string",
          "name": "",
          "type": "string"
        }
      ],
      "stateMutability": "view",
      "type": "function"
    },
    {
      "inputs": [],
      "name": "totalSupply",
      "outputs": [
        {
          "internalType": "uint256",
          "name": "",
          "type": "uint256"
        }
      ],
      "stateMutability": "view",
      "type": "function"
    },
    {
      "inputs": [
        {
          "internalType": "address",
          "name": "to",
          "type": "address"
        },
        {
          "internalType": "uint256",
          "name": "amount",
          "type": "uint256"
        }
      ],
      "name": "transfer",
      "outputs": [
        {
          "internalType": "bool",
          "name": "",
          "type": "bool"
        }
      ],
      "stateMutability": "nonpayable",
      "type": "function"
    },
    {
      "inputs": [
        {
          "internalType": "address",
          "name": "from",
          "type": "address"
        },
        {
          "internalType": "address",
          "name": "to",
          "type": "address"
        },
        {
          "internalType": "uint256",
          "name": "amount",
          "type": "uint256"
        }
      ],
      "name": "transferFrom",
      "outputs": [
        {
          "internalType": "bool",
          "name": "",
          "type": "bool"
        }
      ],
      "stateMutability": "nonpayable",
      "type": "function"
    },
    {
      "inputs": [
        {
          "internalType": "address",
          "name": "newOwner",
          "type": "address"
        }
      ],
      "name": "transferOwnership",
      "outputs": [],
      "stateMutability": "nonpayable",
      "type": "function"
    }
  ],
  "bytecode": "0x60806040523480156200001157600080fd5b506040516200259038038062002590833981810160405281019062000037919062000473565b6040518060400160405280600981526020017f4d414720546f6b656e00000000000000000000000000000000000000000000008152506040518060400160405280600381526020017f4d414700000000000000000000000000000000000000000000000000000000008152508160039080519060200190620000bb929190620003ac565b508060049080519060200190620000d4929190620003ac565b505050620000f7620000eb6200015b60201b60201c565b6200016360201b60201c565b80600660006101000a81548173ffffffffffffffffffffffffffffffffffffffff021916908373ffffffffffffffffffffffffffffffffffffffff160217905550620001543369d3c21bcecceda10000006200022960201b60201c565b5062000699565b600033905090565b6000600560009054906101000a900473ffffffffffffffffffffffffffffffffffffffff16905081600560006101000a81548173ffffffffffffffffffffffffffffffffffffffff021916908373ffffffffffffffffffffffffffffffffffffffff1602179055508173ffffffffffffffffffffffffffffffffffffffff168173ffffffffffffffffffffffffffffffffffffffff167f8be0079c531659141344cd1fd0a4f28419497f9722a3daafe3b4186f6b6457e060405160405180910390a35050565b600073ffffffffffffffffffffffffffffffffffffffff168273ffffffffffffffffffffffffffffffffffffffff1614156200029c576040517f08c379a00000000000000000000000000000000000000000000000000000000081526004016200029390620004d7565b60405180910390fd5b620002b060008383620003a260201b60201c565b8060026000828254620002c4919062000527565b92505081905550806000808473ffffffffffffffffffffffffffffffffffffffff1673ffffffffffffffffffffffffffffffffffffffff16815260200190815260200160002060008282546200031b919062000527565b925050819055508173ffffffffffffffffffffffffffffffffffffffff16600073ffffffffffffffffffffffffffffffffffffffff167fddf252ad1be2c89b69c2b068fc378daa952ba7f163c4a11628f55a4df523b3ef83604051620003829190620004f9565b60405180910390a36200039e60008383620003a760201b60201c565b5050565b505050565b505050565b828054620003ba90620005c2565b90600052602060002090601f016020900481019282620003de57600085556200042a565b82601f10620003f957805160ff19168380011785556200042a565b828001600101855582156200042a579182015b82811115620004295782518255916020019190600101906200040c565b5b5090506200043991906200043d565b5090565b5b80821115620004585760008160009055506001016200043e565b5090565b6000815190506200046d816200067f565b92915050565b6000602082840312156200048657600080fd5b600062000496848285016200045c565b91505092915050565b6000620004ae601f8362000516565b9150620004bb8262000656565b602082019050919050565b620004d181620005b8565b82525050565b60006020820190508181036000830152620004f2816200049f565b9050919050565b6000602082019050620005106000830184620004c6565b92915050565b600082825260208201905092915050565b60006200053482620005b8565b91506200054183620005b8565b9250827fffffffffffffffffffffffffffffffffffffffffffffffffffffffffffffffff03821115620005795762000578620005f8565b5b828201905092915050565b6000620005918262000598565b9050919050565b600073ffffffffffffffffffffffffffffffffffffffff82169050919050565b6000819050919050565b60006002820490506001821680620005db57607f821691505b60208210811415620005f257620005f162000627565b5b50919050565b7f4e487b7100000000000000000000000000000000000000000000000000000000600052601160045260246000fd5b7f4e487b7100000000000000000000000000000000000000000000000000000000600052602260045260246000fd5b7f45524332303a206d696e7420746f20746865207a65726f206164647265737300600082015250565b6200068a8162000584565b81146200069657600080fd5b50565b611ee780620006a96000396000f3fe608060405234801561001057600080fd5b50600436106101215760003560e01c806370a08231116100ad578063a457c2d711610071578063a457c2d7146102f8578063a9059cbb14610328578063dd62ed3e14610358578063f2fde38b14610388578063fca3b5aa146103a457610121565b806370a0823114610266578063715018a61461029657806379cc6790146102a05780638da5cb5b146102bc57806395d89b41146102da57610121565b806323b872dd116100f457806323b872dd146101b0578063313ce567146101e057806339509351146101fe57806340c10f191461022e57806342966c681461024a57610121565b806306fdde03146101265780630754617214610144578063095ea7b31461016257806318160ddd14610192575b600080fd5b61012e6103c0565b60405161013b91906116e2565b60405180910390f35b61014c610452565b60405161015991906116ac565b60405180910390f35b61017c600480360381019061017791906113e8565b610478565b60405161018991906116c7565b60405180910390f35b61019a61049b565b6040516101a791906118c4565b60405180910390f35b6101ca60048036038101906101c59190611399565b6104a5565b6040516101d791906116c7565b60405180910390f35b6101e86104d4565b6040516101f591906118df565b60405180910390f35b610218600480360381019061021391906113e8565b6104dd565b60405161022591906116c7565b60405180910390f35b610248600480360381019061024391906113e8565b610514565b005b610264600480360381019061025f9190611424565b6105b2565b005b610280600480360381019061027b9190611334565b6105bf565b60405161028d91906118c4565b60405180910390f35b61029e610607565b005b6102ba60048036038101906102b591906113e8565b61068f565b005b6102c461070a565b6040516102d191906116ac565b60405180910390f35b6102e2610734565b6040516102ef91906116e2565b60405180910390f35b610312600480360381019061030d91906113e8565b6107c6565b60405161031f91906116c7565b60405180910390f35b610342600480360381019061033d91906113e8565b61083d565b60405161034f91906116c7565b60405180910390f35b610372600480360381019061036d919061135d565b610860565b60405161037f91906118c4565b60405180910390f35b6103a2600480360381019061039d9190611334565b6108e7565b005b6103be60048036038101906103b99190611334565b6109df565b005b6060600380546103cf90611a28565b80601f01602080910402602001604051908101604052809291908181526020018280546103fb90611a28565b80156104485780601f1061041d57610100808354040283529160200191610448565b820191906000526020600020905b81548152906001019060200180831161042b57829003601f168201915b5050505050905090565b600660009054906101000a900473ffffffffffffffffffffffffffffffffffffffff1681565b600080610483610a23565b9050610490818585610a2b565b600191505092915050565b6000600254905090565b6000806104b0610a23565b90506104bd858285610bf6565b6104c8858585610c82565b60019150509392505050565b60006012905090565b6000806104e8610a23565b90506105098185856104fa8589610860565b6105049190611916565b610a2b565b600191505092915050565b3373ffffffffffffffffffffffffffffffffffffffff16600660009054906101000a900473ffffffffffffffffffffffffffffffffffffffff1673ffffffffffffffffffffffffffffffffffffffff16146105a4576040517f08c379a000000000000000000000000000000000000000000000000000000000815260040161059b906117a4565b60405180910390fd5b6105ae8282610f03565b5050565b6105bc3382611063565b50565b60008060008373ffffffffffffffffffffffffffffffffffffffff1673ffffffffffffffffffffffffffffffffffffffff168152602001908152602001600020549050919050565b61060f610a23565b73ffffffffffffffffffffffffffffffffffffffff1661062d61070a565b73ffffffffffffffffffffffffffffffffffffffff1614610683576040517f08c379a000000000000000000000000000000000000000000000000000000000815260040161067a906117e4565b60405180910390fd5b61068d600061123a565b565b60006106a28361069d610a23565b610860565b9050818110156106e7576040517f08c379a00000000000000000000000000000000000000000000000000000000081526004016106de90611804565b60405180910390fd5b6106fb836106f3610a23565b848403610a2b565b6107058383611063565b505050565b6000600560009054906101000a900473ffffffffffffffffffffffffffffffffffffffff16905090565b60606004805461074390611a28565b80601f016020809104026020016040519081016040528092919081815260200182805461076f90611a28565b80156107bc5780601f10610791576101008083540402835291602001916107bc565b820191906000526020600020905b81548152906001019060200180831161079f57829003601f168201915b5050505050905090565b6000806107d1610a23565b905060006107df8286610860565b905083811015610824576040517f08c379a000000000000000000000000000000000000000000000000000000000815260040161081b90611884565b60405180910390fd5b6108318286868403610a2b565b60019250505092915050565b600080610848610a23565b9050610855818585610c82565b600191505092915050565b6000600160008473ffffffffffffffffffffffffffffffffffffffff1673ffffffffffffffffffffffffffffffffffffffff16815260200190815260200160002060008373ffffffffffffffffffffffffffffffffffffffff1673ffffffffffffffffffffffffffffffffffffffff16815260200190815260200160002054905092915050565b6108ef610a23565b73ffffffffffffffffffffffffffffffffffffffff1661090d61070a565b73ffffffffffffffffffffffffffffffffffffffff1614610963576040517f08c379a000000000000000000000000000000000000000000000000000000000815260040161095a906117e4565b60405180910390fd5b600073ffffffffffffffffffffffffffffffffffffffff168173ffffffffffffffffffffffffffffffffffffffff1614156109d3576040517f08c379a00000000000000000000000000000000000000000000000000000000081526004016109ca90611744565b60405180910390fd5b6109dc8161123a565b50565b80600660006101000a81548173ffffffffffffffffffffffffffffffffffffffff021916908373ffffffffffffffffffffffffffffffffffffffff16021790555050565b600033905090565b600073ffffffffffffffffffffffffffffffffffffffff168373ffffffffffffffffffffffffffffffffffffffff161415610a9b576040517f08c379a0000000000000000000000000000000000000000000000000000000008152600401610a9290611864565b60405180910390fd5b600073ffffffffffffffffffffffffffffffffffffffff168273ffffffffffffffffffffffffffffffffffffffff161415610b0b576040517f08c379a0000000000000000000000000000000000000000000000000000000008152600401610b0290611764565b60405180910390fd5b80600160008573ffffffffffffffffffffffffffffffffffffffff1673ffffffffffffffffffffffffffffffffffffffff16815260200190815260200160002060008473ffffffffffffffffffffffffffffffffffffffff1673ffffffffffffffffffffffffffffffffffffffff168152602001908152602001600020819055508173ffffffffffffffffffffffffffffffffffffffff168373ffffffffffffffffffffffffffffffffffffffff167f8c5be1e5ebec7d5bd14f71427d1e84f3dd0314c0f7b2291e5b200ac8c7c3b92583604051610be991906118c4565b60405180910390a3505050565b6000610c028484610860565b90507fffffffffffffffffffffffffffffffffffffffffffffffffffffffffffffffff8114610c7c5781811015610c6e576040517f08c379a0000000000000000000000000000000000000000000000000000000008152600401610c6590611784565b60405180910390fd5b610c7b8484848403610a2b565b5b50505050565b600073ffffffffffffffffffffffffffffffffffffffff168373ffffffffffffffffffffffffffffffffffffffff161415610cf2576040517f08c379a0000000000000000000000000000000000000000000000000000000008152600401610ce990611844565b60405180910390fd5b600073ffffffffffffffffffffffffffffffffffffffff168273ffffffffffffffffffffffffffffffffffffffff161415610d62576040517f08c379a0000000000000000000000000000000000000000000000000000000008152600401610d5990611704565b60405180910390fd5b610d6d838383611300565b60008060008573ffffffffffffffffffffffffffffffffffffffff1673ffffffffffffffffffffffffffffffffffffffff16815260200190815260200160002054905081811015610df3576040517f08c379a0000000000000000000000000000000000000000000000000000000008152600401610dea906117c4565b60405180910390fd5b8181036000808673ffffffffffffffffffffffffffffffffffffffff1673ffffffffffffffffffffffffffffffffffffffff16815260200190815260200160002081905550816000808573ffffffffffffffffffffffffffffffffffffffff1673ffffffffffffffffffffffffffffffffffffffff1681526020019081526020016000206000828254610e869190611916565b925050819055508273ffffffffffffffffffffffffffffffffffffffff168473ffffffffffffffffffffffffffffffffffffffff167fddf252ad1be2c89b69c2b068fc378daa952ba7f163c4a11628f55a4df523b3ef84604051610eea91906118c4565b60405180910390a3610efd848484611305565b50505050565b600073ffffffffffffffffffffffffffffffffffffffff168273ffffffffffffffffffffffffffffffffffffffff161415610f73576040517f08c379a0000000000000000000000000000000000000000000000000000000008152600401610f6a906118a4565b60405180910390fd5b610f7f60008383611300565b8060026000828254610f919190611916565b92505081905550806000808473ffffffffffffffffffffffffffffffffffffffff1673ffffffffffffffffffffffffffffffffffffffff1681526020019081526020016000206000828254610fe69190611916565b925050819055508173ffffffffffffffffffffffffffffffffffffffff16600073ffffffffffffffffffffffffffffffffffffffff167fddf252ad1be2c89b69c2b068fc378daa952ba7f163c4a11628f55a4df523b3ef8360405161104b91906118c4565b60405180910390a361105f60008383611305565b5050565b600073ffffffffffffffffffffffffffffffffffffffff168273ffffffffffffffffffffffffffffffffffffffff1614156110d3576040517f08c379a00000000000000000000000000000000000000000000000000000000081526004016110ca90611824565b60405180910390fd5b6110df82600083611300565b60008060008473ffffffffffffffffffffffffffffffffffffffff1673ffffffffffffffffffffffffffffffffffffffff16815260200190815260200160002054905081811015611165576040517f08c379a000000000000000000000000000000000000000000000000000000000815260040161115c90611724565b60405180910390fd5b8181036000808573ffffffffffffffffffffffffffffffffffffffff1673ffffffffffffffffffffffffffffffffffffffff1681526020019081526020016000208190555081600260008282546111bc919061196c565b92505081905550600073ffffffffffffffffffffffffffffffffffffffff168373ffffffffffffffffffffffffffffffffffffffff167fddf252ad1be2c89b69c2b068fc378daa952ba7f163c4a11628f55a4df523b3ef8460405161122191906118c4565b60405180910390a361123583600084611305565b505050565b6000600560009054906101000a900473ffffffffffffffffffffffffffffffffffffffff16905081600560006101000a81548173ffffffffffffffffffffffffffffffffffffffff021916908373ffffffffffffffffffffffffffffffffffffffff1602179055508173ffffffffffffffffffffffffffffffffffffffff168173ffffffffffffffffffffffffffffffffffffffff167f8be0079c531659141344cd1fd0a4f28419497f9722a3daafe3b4186f6b6457e060405160405180910390a35050565b505050565b505050565b60008135905061131981611e83565b92915050565b60008135905061132e81611e9a565b92915050565b60006020828403121561134657600080fd5b60006113548482850161130a565b91505092915050565b6000806040838503121561137057600080fd5b600061137e8582860161130a565b925050602061138f8582860161130a565b9150509250929050565b6000806000606084860312156113ae57600080fd5b60006113bc8682870161130a565b93505060206113cd8682870161130a565b92505060406113de8682870161131f565b9150509250925092565b600080604083850312156113fb57600080fd5b60006114098582860161130a565b925050602061141a8582860161131f565b9150509250929050565b60006020828403121561143657600080fd5b60006114448482850161131f565b91505092915050565b611456816119a0565b82525050565b611465816119b2565b82525050565b6000611476826118fa565b6114808185611905565b93506114908185602086016119f5565b61149981611ab8565b840191505092915050565b60006114b1602383611905565b91506114bc82611ac9565b604082019050919050565b60006114d4602283611905565b91506114df82611b18565b604082019050919050565b60006114f7602683611905565b915061150282611b67565b604082019050919050565b600061151a602283611905565b915061152582611bb6565b604082019050919050565b600061153d601d83611905565b915061154882611c05565b602082019050919050565b6000611560601483611905565b915061156b82611c2e565b602082019050919050565b6000611583602683611905565b915061158e82611c57565b604082019050919050565b60006115a6602083611905565b91506115b182611ca6565b602082019050919050565b60006115c9602483611905565b91506115d482611ccf565b604082019050919050565b60006115ec602183611905565b91506115f782611d1e565b604082019050919050565b600061160f602583611905565b915061161a82611d6d565b604082019050919050565b6000611632602483611905565b915061163d82611dbc565b604082019050919050565b6000611655602583611905565b915061166082611e0b565b604082019050919050565b6000611678601f83611905565b915061168382611e5a565b602082019050919050565b611697816119de565b82525050565b6116a6816119e8565b82525050565b60006020820190506116c1600083018461144d565b92915050565b60006020820190506116dc600083018461145c565b92915050565b600060208201905081810360008301526116fc818461146b565b905092915050565b6000602082019050818103600083015261171d816114a4565b9050919050565b6000602082019050818103600083015261173d816114c7565b9050919050565b6000602082019050818103600083015261175d816114ea565b9050919050565b6000602082019050818103600083015261177d8161150d565b9050919050565b6000602082019050818103600083015261179d81611530565b9050919050565b600060208201905081810360008301526117bd81611553565b9050919050565b600060208201905081810360008301526117dd81611576565b9050919050565b600060208201905081810360008301526117fd81611599565b9050919050565b6000602082019050818103600083015261181d816115bc565b9050919050565b6000602082019050818103600083015261183d816115df565b9050919050565b6000602082019050818103600083015261185d81611602565b9050919050565b6000602082019050818103600083015261187d81611625565b9050919050565b6000602082019050818103600083015261189d81611648565b9050919050565b600060208201905081810360008301526118bd8161166b565b9050919050565b60006020820190506118d9600083018461168e565b92915050565b60006020820190506118f4600083018461169d565b92915050565b600081519050919050565b600082825260208201905092915050565b6000611921826119de565b915061192c836119de565b9250827fffffffffffffffffffffffffffffffffffffffffffffffffffffffffffffffff0382111561196157611960611a5a565b5b828201905092915050565b6000611977826119de565b9150611982836119de565b92508282101561199557611994611a5a565b5b828203905092915050565b60006119ab826119be565b9050919050565b60008115159050919050565b600073ffffffffffffffffffffffffffffffffffffffff82169050919050565b6000819050919050565b600060ff82169050919050565b60005b83811015611a135780820151818401526020810190506119f8565b83811115611a22576000848401525b50505050565b60006002820490506001821680611a4057607f821691505b60208210811415611a5457611a53611a89565b5b50919050565b7f4e487b7100000000000000000000000000000000000000000000000000000000600052601160045260246000fd5b7f4e487b7100000000000000000000000000000000000000000000000000000000600052602260045260246000fd5b6000601f19601f8301169050919050565b7f45524332303a207472616e7366657220746f20746865207a65726f206164647260008201527f6573730000000000000000000000000000000000000000000000000000000000602082015250565b7f45524332303a206275726e20616d6f756e7420657863656564732062616c616e60008201527f6365000000000000000000000000000000000000000000000000000000000000602082015250565b7f4f776e61626c653a206e6577206f776e657220697320746865207a65726f206160008201527f6464726573730000000000000000000000000000000000000000000000000000602082015250565b7f45524332303a20617070726f766520746f20746865207a65726f20616464726560008201527f7373000000000000000000000000000000000000000000000000000000000000602082015250565b7f45524332303a20696e73756666696369656e7420616c6c6f77616e6365000000600082015250565b7f524f4c453a2072657175697265206d696e746572000000000000000000000000600082015250565b7f45524332303a207472616e7366657220616d6f756e742065786365656473206260008201527f616c616e63650000000000000000000000000000000000000000000000000000602082015250565b7f4f776e61626c653a2063616c6c6572206973206e6f7420746865206f776e6572600082015250565b7f45524332303a206275726e20616d6f756e74206578636565647320616c6c6f7760008201527f616e636500000000000000000000000000000000000000000000000000000000602082015250565b7f45524332303a206275726e2066726f6d20746865207a65726f2061646472657360008201527f7300000000000000000000000000000000000000000000000000000000000000602082015250565b7f45524332303a207472616e736665722066726f6d20746865207a65726f20616460008201527f6472657373000000000000000000000000000000000000000000000000000000602082015250565b7f45524332303a20617070726f76652066726f6d20746865207a65726f2061646460008201527f7265737300000000000000000000000000000000000000000000000000000000602082015250565b7f45524332303a2064656372656173656420616c6c6f77616e63652062656c6f7760008201527f207a65726f000000000000000000000000000000000000000000000000000000602082015250565b7f45524332303a206d696e7420746f20746865207a65726f206164647265737300600082015250565b611e8c816119a0565b8114611e9757600080fd5b50565b611ea3816119de565b8114611eae57600080fd5b5056fea2646970667358221220ce01cdd7b0efeb55b1d9a2141201234dd4e5f2e1cd935e4b6d58cb3edfd6b91564736f6c63430008020033",
  "linkReferences": {},
  "deployedLinkReferences": {}
}