{
  "_format": "hh-sol-artifact-1",
  "contractName": "MAGToken",
  "sourceName": "contracts/mocks/MAG.sol",
  "abi": [
    {
      "inputs": [
        {
          "internalType": "address",
          "name": "minter_",
          "type": "address"
        }
      ],
      "stateMutability": "nonpayable",
      "type": "constructor"
    },
    {
      "anonymous": false,
      "inputs": [
        {
          "indexed": true,
          "internalType": "address",
          "name": "owner",
          "type": "address"
        },
        {
          "indexed": true,
          "internalType": "address",
          "name": "spender",
          "type": "address"
        },
        {
          "indexed": false,
          "internalType": "uint256",
          "name": "value",
          "type": "uint256"
        }
      ],
      "name": "Approval",
      "type": "event"
    },
    {
      "anonymous": false,
      "inputs": [
        {
          "indexed": true,
          "internalType": "address",
          "name": "previousOwner",
          "type": "address"
        },
        {
          "indexed": true,
          "internalType": "address",
          "name": "newOwner",
          "type": "address"
        }
      ],
      "name": "OwnershipTransferred",
      "type": "event"
    },
    {
      "anonymous": false,
      "inputs": [
        {
          "indexed": true,
          "internalType": "address",
          "name": "from",
          "type": "address"
        },
        {
          "indexed": true,
          "internalType": "address",
          "name": "to",
          "type": "address"
        },
        {
          "indexed": false,
          "internalType": "uint256",
          "name": "value",
          "type": "uint256"
        }
      ],
      "name": "Transfer",
      "type": "event"
    },
    {
      "inputs": [
        {
          "internalType": "address",
          "name": "owner",
          "type": "address"
        },
        {
          "internalType": "address",
          "name": "spender",
          "type": "address"
        }
      ],
      "name": "allowance",
      "outputs": [
        {
          "internalType": "uint256",
          "name": "",
          "type": "uint256"
        }
      ],
      "stateMutability": "view",
      "type": "function"
    },
    {
      "inputs": [
        {
          "internalType": "address",
          "name": "spender",
          "type": "address"
        },
        {
          "internalType": "uint256",
          "name": "amount",
          "type": "uint256"
        }
      ],
      "name": "approve",
      "outputs": [
        {
          "internalType": "bool",
          "name": "",
          "type": "bool"
        }
      ],
      "stateMutability": "nonpayable",
      "type": "function"
    },
    {
      "inputs": [
        {
          "internalType": "address",
          "name": "account",
          "type": "address"
        }
      ],
      "name": "balanceOf",
      "outputs": [
        {
          "internalType": "uint256",
          "name": "",
          "type": "uint256"
        }
      ],
      "stateMutability": "view",
      "type": "function"
    },
    {
      "inputs": [
        {
          "internalType": "uint256",
          "name": "amount",
          "type": "uint256"
        }
      ],
      "name": "burn",
      "outputs": [],
      "stateMutability": "nonpayable",
      "type": "function"
    },
    {
      "inputs": [
        {
          "internalType": "address",
          "name": "account",
          "type": "address"
        },
        {
          "internalType": "uint256",
          "name": "amount",
          "type": "uint256"
        }
      ],
      "name": "burnFrom",
      "outputs": [],
      "stateMutability": "nonpayable",
      "type": "function"
    },
    {
      "inputs": [],
      "name": "decimals",
      "outputs": [
        {
          "internalType": "uint8",
          "name": "",
          "type": "uint8"
        }
      ],
      "stateMutability": "view",
      "type": "function"
    },
    {
      "inputs": [
        {
          "internalType": "address",
          "name": "spender",
          "type": "address"
        },
        {
          "internalType": "uint256",
          "name": "subtractedValue",
          "type": "uint256"
        }
      ],
      "name": "decreaseAllowance",
      "outputs": [
        {
          "internalType": "bool",
          "name": "",
          "type": "bool"
        }
      ],
      "stateMutability": "nonpayable",
      "type": "function"
    },
    {
      "inputs": [
        {
          "internalType": "address",
          "name": "spender",
          "type": "address"
        },
        {
          "internalType": "uint256",
          "name": "addedValue",
          "type": "uint256"
        }
      ],
      "name": "increaseAllowance",
      "outputs": [
        {
          "internalType": "bool",
          "name": "",
          "type": "bool"
        }
      ],
      "stateMutability": "nonpayable",
      "type": "function"
    },
    {
      "inputs": [
        {
          "internalType": "address",
          "name": "to",
          "type": "address"
        },
        {
          "internalType": "uint256",
          "name": "amount",
          "type": "uint256"
        }
      ],
      "name": "mint",
      "outputs": [],
      "stateMutability": "nonpayable",
      "type": "function"
    },
    {
      "inputs": [],
      "name": "minter",
      "outputs": [
        {
          "internalType": "address",
          "name": "",
          "type": "address"
        }
      ],
      "stateMutability": "view",
      "type": "function"
    },
    {
      "inputs": [],
      "name": "name",
      "outputs": [
        {
          "internalType": "string",
          "name": "",
          "type": "string"
        }
      ],
      "stateMutability": "view",
      "type": "function"
    },
    {
      "inputs": [],
      "name": "owner",
      "outputs": [
        {
          "internalType": "address",
          "name": "",
          "type": "address"
        }
      ],
      "stateMutability": "view",
      "type": "function"
    },
    {
      "inputs": [],
      "name": "renounceOwnership",
      "outputs": [],
      "stateMutability": "nonpayable",
      "type": "function"
    },
    {
      "inputs": [],
      "name": "symbol",
      "outputs": [
        {
          "internalType": "string",
          "name": "",
          "type": "string"
        }
      ],
      "stateMutability": "view",
      "type": "function"
    },
    {
      "inputs": [],
      "name": "totalSupply",
      "outputs": [
        {
          "internalType": "uint256",
          "name": "",
          "type": "uint256"
        }
      ],
      "stateMutability": "view",
      "type": "function"
    },
    {
      "inputs": [
        {
          "internalType": "address",
          "name": "to",
          "type": "address"
        },
        {
          "internalType": "uint256",
          "name": "amount",
          "type": "uint256"
        }
      ],
      "name": "transfer",
      "outputs": [
        {
          "internalType": "bool",
          "name": "",
          "type": "bool"
        }
      ],
      "stateMutability": "nonpayable",
      "type": "function"
    },
    {
      "inputs": [
        {
          "internalType": "address",
          "name": "from",
          "type": "address"
        },
        {
          "internalType": "address",
          "name": "to",
          "type": "address"
        },
        {
          "internalType": "uint256",
          "name": "amount",
          "type": "uint256"
        }
      ],
      "name": "transferFrom",
      "outputs": [
        {
          "internalType": "bool",
          "name": "",
          "type": "bool"
        }
      ],
      "stateMutability": "nonpayable",
      "type": "function"
    },
    {
      "inputs": [
        {
          "internalType": "address",
          "name": "newOwner",
          "type": "address"
        }
      ],
      "name": "transferOwnership",
      "outputs": [],
      "stateMutability": "nonpayable",
      "type": "function"
    }
  ],
  "bytecode": "0x60806040523480156200001157600080fd5b506040516200252538038062002525833981810160405281019062000037919062000473565b6040518060400160405280600981526020017f4d414720546f6b656e00000000000000000000000000000000000000000000008152506040518060400160405280600381526020017f4d414700000000000000000000000000000000000000000000000000000000008152508160039080519060200190620000bb929190620003ac565b508060049080519060200190620000d4929190620003ac565b505050620000f7620000eb6200015b60201b60201c565b6200016360201b60201c565b80600660006101000a81548173ffffffffffffffffffffffffffffffffffffffff021916908373ffffffffffffffffffffffffffffffffffffffff160217905550620001543369d3c21bcecceda10000006200022960201b60201c565b5062000699565b600033905090565b6000600560009054906101000a900473ffffffffffffffffffffffffffffffffffffffff16905081600560006101000a81548173ffffffffffffffffffffffffffffffffffffffff021916908373ffffffffffffffffffffffffffffffffffffffff1602179055508173ffffffffffffffffffffffffffffffffffffffff168173ffffffffffffffffffffffffffffffffffffffff167f8be0079c531659141344cd1fd0a4f28419497f9722a3daafe3b4186f6b6457e060405160405180910390a35050565b600073ffffffffffffffffffffffffffffffffffffffff168273ffffffffffffffffffffffffffffffffffffffff1614156200029c576040517f08c379a00000000000000000000000000000000000000000000000000000000081526004016200029390620004d7565b60405180910390fd5b620002b060008383620003a260201b60201c565b8060026000828254620002c4919062000527565b92505081905550806000808473ffffffffffffffffffffffffffffffffffffffff1673ffffffffffffffffffffffffffffffffffffffff16815260200190815260200160002060008282546200031b919062000527565b925050819055508173ffffffffffffffffffffffffffffffffffffffff16600073ffffffffffffffffffffffffffffffffffffffff167fddf252ad1be2c89b69c2b068fc378daa952ba7f163c4a11628f55a4df523b3ef83604051620003829190620004f9565b60405180910390a36200039e60008383620003a760201b60201c565b5050565b505050565b505050565b828054620003ba90620005c2565b90600052602060002090601f016020900481019282620003de57600085556200042a565b82601f10620003f957805160ff19168380011785556200042a565b828001600101855582156200042a579182015b82811115620004295782518255916020019190600101906200040c565b5b5090506200043991906200043d565b5090565b5b80821115620004585760008160009055506001016200043e565b5090565b6000815190506200046d816200067f565b92915050565b6000602082840312156200048657600080fd5b600062000496848285016200045c565b91505092915050565b6000620004ae601f8362000516565b9150620004bb8262000656565b602082019050919050565b620004d181620005b8565b82525050565b60006020820190508181036000830152620004f2816200049f565b9050919050565b6000602082019050620005106000830184620004c6565b92915050565b600082825260208201905092915050565b60006200053482620005b8565b91506200054183620005b8565b9250827fffffffffffffffffffffffffffffffffffffffffffffffffffffffffffffffff03821115620005795762000578620005f8565b5b828201905092915050565b6000620005918262000598565b9050919050565b600073ffffffffffffffffffffffffffffffffffffffff82169050919050565b6000819050919050565b60006002820490506001821680620005db57607f821691505b60208210811415620005f257620005f162000627565b5b50919050565b7f4e487b7100000000000000000000000000000000000000000000000000000000600052601160045260246000fd5b7f4e487b7100000000000000000000000000000000000000000000000000000000600052602260045260246000fd5b7f45524332303a206d696e7420746f20746865207a65726f206164647265737300600082015250565b6200068a8162000584565b81146200069657600080fd5b50565b611e7c80620006a96000396000f3fe608060405234801561001057600080fd5b50600436106101165760003560e01c806370a08231116100a257806395d89b411161007157806395d89b41146102cf578063a457c2d7146102ed578063a9059cbb1461031d578063dd62ed3e1461034d578063f2fde38b1461037d57610116565b806370a082311461025b578063715018a61461028b57806379cc6790146102955780638da5cb5b146102b157610116565b806323b872dd116100e957806323b872dd146101a5578063313ce567146101d557806339509351146101f357806340c10f191461022357806342966c681461023f57610116565b806306fdde031461011b5780630754617214610139578063095ea7b31461015757806318160ddd14610187575b600080fd5b610123610399565b6040516101309190611677565b60405180910390f35b61014161042b565b60405161014e9190611641565b60405180910390f35b610171600480360381019061016c919061137d565b610451565b60405161017e919061165c565b60405180910390f35b61018f610474565b60405161019c9190611859565b60405180910390f35b6101bf60048036038101906101ba919061132e565b61047e565b6040516101cc919061165c565b60405180910390f35b6101dd6104ad565b6040516101ea9190611874565b60405180910390f35b61020d6004803603810190610208919061137d565b6104b6565b60405161021a919061165c565b60405180910390f35b61023d6004803603810190610238919061137d565b6104ed565b005b610259600480360381019061025491906113b9565b61058b565b005b610275600480360381019061027091906112c9565b610598565b6040516102829190611859565b60405180910390f35b6102936105e0565b005b6102af60048036038101906102aa919061137d565b610668565b005b6102b96106e3565b6040516102c69190611641565b60405180910390f35b6102d761070d565b6040516102e49190611677565b60405180910390f35b6103076004803603810190610302919061137d565b61079f565b604051610314919061165c565b60405180910390f35b6103376004803603810190610332919061137d565b610816565b604051610344919061165c565b60405180910390f35b610367600480360381019061036291906112f2565b610839565b6040516103749190611859565b60405180910390f35b610397600480360381019061039291906112c9565b6108c0565b005b6060600380546103a8906119bd565b80601f01602080910402602001604051908101604052809291908181526020018280546103d4906119bd565b80156104215780601f106103f657610100808354040283529160200191610421565b820191906000526020600020905b81548152906001019060200180831161040457829003601f168201915b5050505050905090565b600660009054906101000a900473ffffffffffffffffffffffffffffffffffffffff1681565b60008061045c6109b8565b90506104698185856109c0565b600191505092915050565b6000600254905090565b6000806104896109b8565b9050610496858285610b8b565b6104a1858585610c17565b60019150509392505050565b60006012905090565b6000806104c16109b8565b90506104e28185856104d38589610839565b6104dd91906118ab565b6109c0565b600191505092915050565b3373ffffffffffffffffffffffffffffffffffffffff16600660009054906101000a900473ffffffffffffffffffffffffffffffffffffffff1673ffffffffffffffffffffffffffffffffffffffff161461057d576040517f08c379a000000000000000000000000000000000000000000000000000000000815260040161057490611739565b60405180910390fd5b6105878282610e98565b5050565b6105953382610ff8565b50565b60008060008373ffffffffffffffffffffffffffffffffffffffff1673ffffffffffffffffffffffffffffffffffffffff168152602001908152602001600020549050919050565b6105e86109b8565b73ffffffffffffffffffffffffffffffffffffffff166106066106e3565b73ffffffffffffffffffffffffffffffffffffffff161461065c576040517f08c379a000000000000000000000000000000000000000000000000000000000815260040161065390611779565b60405180910390fd5b61066660006111cf565b565b600061067b836106766109b8565b610839565b9050818110156106c0576040517f08c379a00000000000000000000000000000000000000000000000000000000081526004016106b790611799565b60405180910390fd5b6106d4836106cc6109b8565b8484036109c0565b6106de8383610ff8565b505050565b6000600560009054906101000a900473ffffffffffffffffffffffffffffffffffffffff16905090565b60606004805461071c906119bd565b80601f0160208091040260200160405190810160405280929190818152602001828054610748906119bd565b80156107955780601f1061076a57610100808354040283529160200191610795565b820191906000526020600020905b81548152906001019060200180831161077857829003601f168201915b5050505050905090565b6000806107aa6109b8565b905060006107b88286610839565b9050838110156107fd576040517f08c379a00000000000000000000000000000000000000000000000000000000081526004016107f490611819565b60405180910390fd5b61080a82868684036109c0565b60019250505092915050565b6000806108216109b8565b905061082e818585610c17565b600191505092915050565b6000600160008473ffffffffffffffffffffffffffffffffffffffff1673ffffffffffffffffffffffffffffffffffffffff16815260200190815260200160002060008373ffffffffffffffffffffffffffffffffffffffff1673ffffffffffffffffffffffffffffffffffffffff16815260200190815260200160002054905092915050565b6108c86109b8565b73ffffffffffffffffffffffffffffffffffffffff166108e66106e3565b73ffffffffffffffffffffffffffffffffffffffff161461093c576040517f08c379a000000000000000000000000000000000000000000000000000000000815260040161093390611779565b60405180910390fd5b600073ffffffffffffffffffffffffffffffffffffffff168173ffffffffffffffffffffffffffffffffffffffff1614156109ac576040517f08c379a00000000000000000000000000000000000000000000000000000000081526004016109a3906116d9565b60405180910390fd5b6109b5816111cf565b50565b600033905090565b600073ffffffffffffffffffffffffffffffffffffffff168373ffffffffffffffffffffffffffffffffffffffff161415610a30576040517f08c379a0000000000000000000000000000000000000000000000000000000008152600401610a27906117f9565b60405180910390fd5b600073ffffffffffffffffffffffffffffffffffffffff168273ffffffffffffffffffffffffffffffffffffffff161415610aa0576040517f08c379a0000000000000000000000000000000000000000000000000000000008152600401610a97906116f9565b60405180910390fd5b80600160008573ffffffffffffffffffffffffffffffffffffffff1673ffffffffffffffffffffffffffffffffffffffff16815260200190815260200160002060008473ffffffffffffffffffffffffffffffffffffffff1673ffffffffffffffffffffffffffffffffffffffff168152602001908152602001600020819055508173ffffffffffffffffffffffffffffffffffffffff168373ffffffffffffffffffffffffffffffffffffffff167f8c5be1e5ebec7d5bd14f71427d1e84f3dd0314c0f7b2291e5b200ac8c7c3b92583604051610b7e9190611859565b60405180910390a3505050565b6000610b978484610839565b90507fffffffffffffffffffffffffffffffffffffffffffffffffffffffffffffffff8114610c115781811015610c03576040517f08c379a0000000000000000000000000000000000000000000000000000000008152600401610bfa90611719565b60405180910390fd5b610c1084848484036109c0565b5b50505050565b600073ffffffffffffffffffffffffffffffffffffffff168373ffffffffffffffffffffffffffffffffffffffff161415610c87576040517f08c379a0000000000000000000000000000000000000000000000000000000008152600401610c7e906117d9565b60405180910390fd5b600073ffffffffffffffffffffffffffffffffffffffff168273ffffffffffffffffffffffffffffffffffffffff161415610cf7576040517f08c379a0000000000000000000000000000000000000000000000000000000008152600401610cee90611699565b60405180910390fd5b610d02838383611295565b60008060008573ffffffffffffffffffffffffffffffffffffffff1673ffffffffffffffffffffffffffffffffffffffff16815260200190815260200160002054905081811015610d88576040517f08c379a0000000000000000000000000000000000000000000000000000000008152600401610d7f90611759565b60405180910390fd5b8181036000808673ffffffffffffffffffffffffffffffffffffffff1673ffffffffffffffffffffffffffffffffffffffff16815260200190815260200160002081905550816000808573ffffffffffffffffffffffffffffffffffffffff1673ffffffffffffffffffffffffffffffffffffffff1681526020019081526020016000206000828254610e1b91906118ab565b925050819055508273ffffffffffffffffffffffffffffffffffffffff168473ffffffffffffffffffffffffffffffffffffffff167fddf252ad1be2c89b69c2b068fc378daa952ba7f163c4a11628f55a4df523b3ef84604051610e7f9190611859565b60405180910390a3610e9284848461129a565b50505050565b600073ffffffffffffffffffffffffffffffffffffffff168273ffffffffffffffffffffffffffffffffffffffff161415610f08576040517f08c379a0000000000000000000000000000000000000000000000000000000008152600401610eff90611839565b60405180910390fd5b610f1460008383611295565b8060026000828254610f2691906118ab565b92505081905550806000808473ffffffffffffffffffffffffffffffffffffffff1673ffffffffffffffffffffffffffffffffffffffff1681526020019081526020016000206000828254610f7b91906118ab565b925050819055508173ffffffffffffffffffffffffffffffffffffffff16600073ffffffffffffffffffffffffffffffffffffffff167fddf252ad1be2c89b69c2b068fc378daa952ba7f163c4a11628f55a4df523b3ef83604051610fe09190611859565b60405180910390a3610ff46000838361129a565b5050565b600073ffffffffffffffffffffffffffffffffffffffff168273ffffffffffffffffffffffffffffffffffffffff161415611068576040517f08c379a000000000000000000000000000000000000000000000000000000000815260040161105f906117b9565b60405180910390fd5b61107482600083611295565b60008060008473ffffffffffffffffffffffffffffffffffffffff1673ffffffffffffffffffffffffffffffffffffffff168152602001908152602001600020549050818110156110fa576040517f08c379a00000000000000000000000000000000000000000000000000000000081526004016110f1906116b9565b60405180910390fd5b8181036000808573ffffffffffffffffffffffffffffffffffffffff1673ffffffffffffffffffffffffffffffffffffffff1681526020019081526020016000208190555081600260008282546111519190611901565b92505081905550600073ffffffffffffffffffffffffffffffffffffffff168373ffffffffffffffffffffffffffffffffffffffff167fddf252ad1be2c89b69c2b068fc378daa952ba7f163c4a11628f55a4df523b3ef846040516111b69190611859565b60405180910390a36111ca8360008461129a565b505050565b6000600560009054906101000a900473ffffffffffffffffffffffffffffffffffffffff16905081600560006101000a81548173ffffffffffffffffffffffffffffffffffffffff021916908373ffffffffffffffffffffffffffffffffffffffff1602179055508173ffffffffffffffffffffffffffffffffffffffff168173ffffffffffffffffffffffffffffffffffffffff167f8be0079c531659141344cd1fd0a4f28419497f9722a3daafe3b4186f6b6457e060405160405180910390a35050565b505050565b505050565b6000813590506112ae81611e18565b92915050565b6000813590506112c381611e2f565b92915050565b6000602082840312156112db57600080fd5b60006112e98482850161129f565b91505092915050565b6000806040838503121561130557600080fd5b60006113138582860161129f565b92505060206113248582860161129f565b9150509250929050565b60008060006060848603121561134357600080fd5b60006113518682870161129f565b93505060206113628682870161129f565b9250506040611373868287016112b4565b9150509250925092565b6000806040838503121561139057600080fd5b600061139e8582860161129f565b92505060206113af858286016112b4565b9150509250929050565b6000602082840312156113cb57600080fd5b60006113d9848285016112b4565b91505092915050565b6113eb81611935565b82525050565b6113fa81611947565b82525050565b600061140b8261188f565b611415818561189a565b935061142581856020860161198a565b61142e81611a4d565b840191505092915050565b600061144660238361189a565b915061145182611a5e565b604082019050919050565b600061146960228361189a565b915061147482611aad565b604082019050919050565b600061148c60268361189a565b915061149782611afc565b604082019050919050565b60006114af60228361189a565b91506114ba82611b4b565b604082019050919050565b60006114d2601d8361189a565b91506114dd82611b9a565b602082019050919050565b60006114f560148361189a565b915061150082611bc3565b602082019050919050565b600061151860268361189a565b915061152382611bec565b604082019050919050565b600061153b60208361189a565b915061154682611c3b565b602082019050919050565b600061155e60248361189a565b915061156982611c64565b604082019050919050565b600061158160218361189a565b915061158c82611cb3565b604082019050919050565b60006115a460258361189a565b91506115af82611d02565b604082019050919050565b60006115c760248361189a565b91506115d282611d51565b604082019050919050565b60006115ea60258361189a565b91506115f582611da0565b604082019050919050565b600061160d601f8361189a565b915061161882611def565b602082019050919050565b61162c81611973565b82525050565b61163b8161197d565b82525050565b600060208201905061165660008301846113e2565b92915050565b600060208201905061167160008301846113f1565b92915050565b600060208201905081810360008301526116918184611400565b905092915050565b600060208201905081810360008301526116b281611439565b9050919050565b600060208201905081810360008301526116d28161145c565b9050919050565b600060208201905081810360008301526116f28161147f565b9050919050565b60006020820190508181036000830152611712816114a2565b9050919050565b60006020820190508181036000830152611732816114c5565b9050919050565b60006020820190508181036000830152611752816114e8565b9050919050565b600060208201905081810360008301526117728161150b565b9050919050565b600060208201905081810360008301526117928161152e565b9050919050565b600060208201905081810360008301526117b281611551565b9050919050565b600060208201905081810360008301526117d281611574565b9050919050565b600060208201905081810360008301526117f281611597565b9050919050565b60006020820190508181036000830152611812816115ba565b9050919050565b60006020820190508181036000830152611832816115dd565b9050919050565b6000602082019050818103600083015261185281611600565b9050919050565b600060208201905061186e6000830184611623565b92915050565b60006020820190506118896000830184611632565b92915050565b600081519050919050565b600082825260208201905092915050565b60006118b682611973565b91506118c183611973565b9250827fffffffffffffffffffffffffffffffffffffffffffffffffffffffffffffffff038211156118f6576118f56119ef565b5b828201905092915050565b600061190c82611973565b915061191783611973565b92508282101561192a576119296119ef565b5b828203905092915050565b600061194082611953565b9050919050565b60008115159050919050565b600073ffffffffffffffffffffffffffffffffffffffff82169050919050565b6000819050919050565b600060ff82169050919050565b60005b838110156119a857808201518184015260208101905061198d565b838111156119b7576000848401525b50505050565b600060028204905060018216806119d557607f821691505b602082108114156119e9576119e8611a1e565b5b50919050565b7f4e487b7100000000000000000000000000000000000000000000000000000000600052601160045260246000fd5b7f4e487b7100000000000000000000000000000000000000000000000000000000600052602260045260246000fd5b6000601f19601f8301169050919050565b7f45524332303a207472616e7366657220746f20746865207a65726f206164647260008201527f6573730000000000000000000000000000000000000000000000000000000000602082015250565b7f45524332303a206275726e20616d6f756e7420657863656564732062616c616e60008201527f6365000000000000000000000000000000000000000000000000000000000000602082015250565b7f4f776e61626c653a206e6577206f776e657220697320746865207a65726f206160008201527f6464726573730000000000000000000000000000000000000000000000000000602082015250565b7f45524332303a20617070726f766520746f20746865207a65726f20616464726560008201527f7373000000000000000000000000000000000000000000000000000000000000602082015250565b7f45524332303a20696e73756666696369656e7420616c6c6f77616e6365000000600082015250565b7f524f4c453a2072657175697265206d696e746572000000000000000000000000600082015250565b7f45524332303a207472616e7366657220616d6f756e742065786365656473206260008201527f616c616e63650000000000000000000000000000000000000000000000000000602082015250565b7f4f776e61626c653a2063616c6c6572206973206e6f7420746865206f776e6572600082015250565b7f45524332303a206275726e20616d6f756e74206578636565647320616c6c6f7760008201527f616e636500000000000000000000000000000000000000000000000000000000602082015250565b7f45524332303a206275726e2066726f6d20746865207a65726f2061646472657360008201527f7300000000000000000000000000000000000000000000000000000000000000602082015250565b7f45524332303a207472616e736665722066726f6d20746865207a65726f20616460008201527f6472657373000000000000000000000000000000000000000000000000000000602082015250565b7f45524332303a20617070726f76652066726f6d20746865207a65726f2061646460008201527f7265737300000000000000000000000000000000000000000000000000000000602082015250565b7f45524332303a2064656372656173656420616c6c6f77616e63652062656c6f7760008201527f207a65726f000000000000000000000000000000000000000000000000000000602082015250565b7f45524332303a206d696e7420746f20746865207a65726f206164647265737300600082015250565b611e2181611935565b8114611e2c57600080fd5b50565b611e3881611973565b8114611e4357600080fd5b5056fea2646970667358221220449830b2c881e53d76418964c1f28ecf822516ac8c361eae7aaaea3239eefb8564736f6c63430008020033",
  "linkReferences": {},
  "deployedLinkReferences": {}
}